:020000041000EA
:10100000480500201910001000000000A310001077
:1010100000040100000100001249134A134B00F0C4
:101020001AF8134880471349134A144B00F013F879
:101030001349144A144B00F00EF81449144A0020C6
:10104000521A02DD043A8850FCDC124880471248EC
:101050008047124880479B1A03DD043BC858D05094
:10106000FBDC7047087200100C00002044010020D7
:10107000E14300104073001048050020C006002026
:10108000B8740010C00600201010002010100020BE
:1010900090140020A1100010256D0010B13C00102C
:1010A0007047FEE710B582B06B46354ADA80354BA3
:1010B000354A1A60354B0121C022520099508020D8
:1010C0001A58334C22401A508022120231480260D2
:1010D00031480260812292009950304A8423802155
:1010E000C904D1501DE029498122920088588023EB
:1010F0009B0003438B50294AFC235B00D358002BF1
:10110000F9D0C0239B00D358009380231B02214AAF
:101110001360214A13606B469A1DDB88013B9BB22A
:1011200013806B4606331B88002BDCD1009B002309
:10113000009305E080231B02164A1360164A1360D1
:10114000174B1A6C80235B059A42F3D20F4B802118
:101150005858C022920202435A5000228531FF3172
:101160005A5084395A500D4B9532FF328039FF392D
:10117000995083315A580B4802405A5002B010BD62
:1011800050460000BC4003480004103F00000348E4
:10119000FFFFFC7FE0400348E440034800040348AD
:1011A00000400348FFFFFFFB00B583B00023124A55
:1011B0001360124A13600321114803F020FE114905
:1011C00080228858104B03438B501423019308E06E
:1011D000019B013B019380231B02074A1360074ACE
:1011E0001360019B002BF3D1FFF75CFF0021044843
:1011F00003F005FE03B000BDE0400348E4400348AF
:10120000000403480000034800000180F8B552497B
:10121000524D280003F086FD5149524E300003F034
:10122000C9FD5149514C200003F0C4FD0321300099
:1012300003F0E5FD0321200003F0E1FDFFF7B4FF1B
:101240004B49280003F010FE4A49200003F068FED5
:1012500082225200A1588023DB000B43A350434A53
:1012600084235B00D3589B06F9D5140082235B00CE
:10127000D25803208243E250E25801210A43E2504F
:10128000384DEA588243EA50EA580A43EA503A4B4A
:101290001A6888235B00E250384A1268E250384AE4
:1012A0000021200003F074FE364A0121200003F0E3
:1012B0006FFE354A0021280003F06AFE334A0121FF
:1012C000280003F065FE0021280003F098FD0021AE
:1012D000200003F094FD00220121280003F097FD77
:1012E0000021280003F0A4FD200003F09BFD032152
:1012F000200003F084FD0321280003F080FDB023CB
:10130000234AE2500422FF32EA50224A06212000FA
:1013100003F03EFE114EC2277F00F35940221343D3
:10132000F3511D4A0721200003F032FEF3598024B7
:101330002343F351194A0721280003F029FEC02254
:101340005200B3582343B3508432B15880239B00DA
:101350000B43B350F8BDC046000600200000034810
:10136000EC05002000040348D805002000080348CD
:10137000CC050020900500208C0500208805002069
:101380007805002068050020580500204805002049
:10139000030400009C050020BC050020AC050020D3
:1013A00010B500F007F800F02BFA10BD10B5FFF7EC
:1013B000F7FF10BDF0B5DE4657464E464546E0B550
:1013C00085B0DE4E0021300003F02AF980235B0057
:1013D0009846F360DA49DB4F380003F03BF902230B
:1013E0009A46FB6304247C638021C904300003F027
:1013F00029F907233361D44A0121380003F06BF93E
:10140000D24A0221380003F066F9D14A032138009C
:1014100003F061F901220121380003F041F90122B2
:101420000221380003F090F9A4257B5923437B5116
:1014300001218B46F16000243C67F960C549C64F25
:10144000380003F01EF9C54B7B638021090530008D
:1014500003F0F8F870213161C14A6F39380003F0A8
:101460003AF9C04A0221380003F035F9BE4A032197
:10147000380003F030F90121380003F025F9504617
:10148000F0603C675846F860B849B94F380003F03F
:10149000E1F8A023FB63B74B7B6380218905300013
:1014A00003F0D0F8E020C0013061B34A01213800D8
:1014B00003F011F9B14A0221380003F00CF9B04AE7
:1014C0000321380003F007F90822F2603C675E460A
:1014D000FE60A026F6050021300003F061F94746C2
:1014E000F760A849A84F380003F06CF9D2239B009D
:1014F0009846FB637C64D223DB00994619003800D0
:1015000003F0CBF98021C904300003F076F90723FA
:1015100033619E4A0121380003F08CF99C4A022174
:10152000380003F087F99B4A0321380003F082F961
:1015300001220121380003F069F99749380003F0CE
:10154000D3F93C679549964F380003F03BF9434681
:10155000FB637C644946380003F09FF9802109054C
:10156000300003F04AF9702131618E4A6F3938003A
:1015700003F060F98C4A0221380003F05BF98B4AD2
:101580000321380003F056F901220121380003F04D
:101590003DF98749380003F0A7F93C678549864F34
:1015A000380003F00FF94146F9637C64494638007E
:1015B00003F073F980214905300003F01EF9E023A0
:1015C000DB0033617D4A0121380003F033F97C4AA6
:1015D0000221380003F02EF97A4A0321380003F083
:1015E00029F901220121380003F010F97649380069
:1015F00003F07AF93C677549754F380003F0E2F85B
:101600004146F96379644946380003F046F9802180
:101610008905300003F0F1F8E020C00130616D4A27
:101620000121380003F006F96B4A0221380003F06B
:1016300001F96A4A0321380003F0FCF80122012174
:10164000380003F0E3F803220021380003F028F902
:1016500002220121380003F023F90022042138007E
:1016600003F01EF901220321380003F019F97B5918
:10167000584603437B517B59504603437B517B596A
:10168000102213437B517B5908210B437B513C674C
:10169000534D280003F07CF92B680326B3432B60DD
:1016A0005049280003F080F94F49280003F086F9DB
:1016B00000220221280003F08CF96B6F04221343EF
:1016C0006B674A494A4D0022280003F08DF9EB6907
:1016D00050229343EB61EB69493A93433343EB6107
:1016E000EA6B444B1A4080231B011343EB63424BCC
:1016F0002B610C360296019400943A2300220021BB
:10170000280003F071FA1F2305220021280003F0AE
:101710009BFA1F2305222021280003F07FFA2B6C5F
:10172000B343524613432B64344803F071FC05B0B5
:10173000F0BCBB46B246A946A046F0BD0000044836
:10174000546E001000010448506E00104C6E0010E2
:10175000486E0010406E001000020448FFFF0000B9
:101760003C6E0010386E0010346E00102C6E0010AD
:1017700000040448FF040000286E0010246E0010CE
:10178000206E0010106E001000010050006E00105E
:10179000FC6D0010F86D0010046E0010E86D001074
:1017A00000020050D86D0010D46D0010D06D0010F4
:1017B000DC6D0010C06D001000030050B06D001013
:1017C000AC6D0010A86D0010B46D0010986D001085
:1017D00000040050946D0010906D00108C6D00108E
:1017E00000000150886D0010846D0010786D0010AD
:1017F00000020048FFE0FFFF438200006C6D001014
:1018000010B57F4A7F4C0021200002F0F1FD00223C
:101810000021200003F06FF87B4A0A21200002F02B
:10182000E7FD00220A21200003F065F8774A0D2128
:10183000200002F0DDFD00220D21200003F05BF806
:10184000734A0121200002F0D3FD00220121200073
:1018500003F051F86F4A0221200002F0C9FD002276
:101860000221200003F047F86B4A0321200002F018
:10187000BFFD00220321200003F03DF8674A042148
:10188000200002F0B5FD00220421200003F033F80F
:10189000634A0521200002F0ABFD00220521200053
:1018A00003F029F85F4A0621200002F0A1FD002282
:1018B0000621200003F01FF85B4A0721200002F0F8
:1018C00097FD00220721200003F015F8574A082150
:1018D000200002F08DFD00220821200003F00BF80B
:1018E000534A0921200002F083FD00220921200033
:1018F00003F001F84F4A504C0021200002F078FD1F
:1019000000220021200002F0F6FF4C4A01212000B5
:1019100002F06EFD00220121200002F0ECFF484A97
:101920000221200002F064FD00220221200002F0CA
:10193000E2FF444A0321200002F05AFD0022032165
:10194000200002F0D8FF404A0521200002F050FD9F
:1019500000220521200002F0CEFF3C4A3C4C0A2127
:10196000200002F045FD00220A21200002F0C3FF02
:10197000384A0B21200002F03BFD00220B21200001
:1019800002F0B9FF344A0221200002F031FD0022AA
:101990000221200002F0AFFF304A0421200002F0B3
:1019A00027FD00220421200002F0A5FF2C4A05217A
:1019B000200002F01DFD00220521200002F09BFF07
:1019C000284A0621200002F013FD002206212000F3
:1019D00002F091FF244A0821200002F009FD0022B4
:1019E0000821200002F087FF204A0921200002F090
:1019F000FFFC00220921200002F07DFF10BDC0463F
:101A00001C6F001000000440146F00100C6F0010D9
:101A1000046F0010FC6E0010F46E0010EC6E0010ED
:101A2000E46E0010DC6E0010D46E0010CC6E00105E
:101A3000C46E0010BC6E001000010440B46E0010B3
:101A4000AC6E0010A46E00109C6E0010946E00101E
:101A5000000204408C6E0010846E00107C6E00103A
:101A6000746E00106C6E0010646E00105C6E0010DE
:101A700030B585B001A8044B020032CB32C202F06F
:101A8000A5FD05B030BDC046246F001010B5FFF7AE
:101A90008DFC002010BD70B505000E001C0004ABCD
:101AA00018888D421FD395421ED2521A91B2A0427D
:101AB0000CD2AE1BB6B2201A80B270434B08C018CD
:101AC00002F026FF80B2201A80B20DE0AD1BADB24D
:101AD000001B80B268434B08C01802F019FF80B2A7
:101AE000001980B200E0200070BD70B51D0004AB8D
:101AF0001B7888421DD990421DD2AB420CD2441AA9
:101B0000E4B2E81AC0B26043511AC9B202F010FF41
:101B1000C0B2281AC0B20DE0441AE4B2581BC0B2D9
:101B20006043511AC9B202F003FFC0B24019C0B2FB
:101B300000E0280070BD1800FCE7030008008B429D
:101B400000D21800704770B505000C000A2A15D89D
:101B50000A20801A68434A43801805300A2102F09F
:101B6000D7FE80B284420AD1854202D9013080B2C8
:101B700005E0854203D2013880B200E0002070BD4C
:101B80000B8858400880082202E05B080B80013A6D
:101B9000002A07D00B88D807F7D55B0802484340D6
:101BA0000B80F4E77047C04601A0FFFF002803D078
:101BB000044B20225A607047024B802292035A60E5
:101BC000F9E7C0460001044070B5164B1B78002BA6
:101BD00009D0012B0AD1144B1B88002B19D1134BB0
:101BE00001221A7002E0114B01221A700F4B1B7870
:101BF000002B0DD00E4D2C880E4B0F4A1278520040
:101C0000D05A6043642102F083FE80B224182C80F5
:101C100070BD094B1B782D2BE8D9044B00221A709C
:101C2000E4E7C046F511002010120020F411002056
:101C30001A120020041100202D12002010B5194B9B
:101C40001B78002B0BD1184B1B88002B07D1174B8F
:101C500001221A70164B174A12781A701DE0134BA6
:101C60001B78002B19D0124B1B78002B16D0104A72
:101C7000013B13700E4B1B78642058430D4B1978B1
:101C800002F056FE83B26420C01A80B20A4C238848
:101C90005843642102F04CFE208010BD034B00220B
:101CA0001A70E7E72D1200202E12002002110020EA
:101CB000011100201F0600201A120020084B1A787C
:101CC000FD2A00D9FD22074B18211970064B0F3948
:101CD0001970064B064909881980064B1A7070471F
:101CE000471200203D0600203B0600203212002053
:101CF000380600203012002010B50F4B1B88002B37
:101D000015D00D4B198889B20C4B1B88AB20800075
:101D1000584302F0FDFD0A4B18800A4B1B78002B3C
:101D200004D0074A99005B185B00138010BD044B78
:101D300000221A80F1E7C046261300204406002046
:101D4000101200200E12002009490A889308D21AA6
:101D500092B20A80074B1B889B189BB20B809B0892
:101D6000054A1380054A57214B4313807047C046EC
:101D7000281000203A1300203412002038120020CE
:101D800010B55A4B1B885A4A12889A423ED9594B71
:101D900001221A70584B1A78531EDBB2012B39D925
:101DA000052A37D0042A35D0544B00211970534BE3
:101DB0001978002915D0524B1B880A3B9BB2912001
:101DC0004000834208D84F4B18884F4B984203D8A5
:101DD0004E4B1B78002B04D04D480378022423433C
:101DE00003704C4B1B88642B1CD94B4B1B78002B6E
:101DF00018D1002916D0494B1B78013BDBB2812B4F
:101E000010D947490B7801330B700EE0394B002293
:101E10001A70BFE7434B1B78002BC5D1374B01210C
:101E20001970C4E73E4B002119703D4B1B78FA2B0B
:101E300004D937490B78042003430B703A4B1B78C5
:101E4000002B20D1394B1B885A2B08D9072A06D0E2
:101E5000062A04D0364A13880133138002E0344B3B
:101E600000221A80334B1B88002B02D0304B0022FB
:101E70001A802F4B1B887D2B05D9254A117880238A
:101E80005B420B4313702C4B1B780F2B10D9274B45
:101E90001B88092B0CD8294A13780133DBB2137045
:101EA0000A2B08D91A4A137808210B43137002E051
:101EB000224B00221A70224B1B78002B03D0214B9F
:101EC0001B78022B00D010BD1F4B1B78132BFAD8A8
:101ED0001D4A013313701D4B1B88D32BF3D90C4AB9
:101EE000137810210B431370EDE7C0463A1300201E
:101EF000680600204C120020481200202310002009
:101F0000320600201C1200208A0200002912002044
:101F10004606002016120020001100202D1200207D
:101F200022100020081200206C1000202E12002029
:101F30002010002010120020371200201F10002057
:101F4000041200204A1200201E1000206E100020F3
:101F500010B582B01B4B1C88A4B2C8221A4B18883B
:101F60005623FF330093194B52002821FFF793FDAE
:101F7000174B1880002C0BD02100164802F0C8FC2B
:101F8000C0B2154B1870782805D978221A7002E073
:101F9000114B00221A70114B00221A800E4B1C7834
:101FA000002C0AD00E4B1878001B002805DD00021B
:101FB000210002F0BDFC094B1880094B1C7002B0D7
:101FC00010BDC0462E13002010120020AE100000DD
:101FD0003406002035DF00002D1200202A120020D8
:101FE0002C12002030B583B0144B1B78002B23D06B
:101FF0009A1ED2B29100511849000233DBB29A0006
:102000009A1852000E4B002018700E4B1888904200
:1020100009D90D4B1B88002B02D0094B01241C70E1
:102020000A4B00241C70084C238800250095FFF7FC
:1020300032FDFF230340238003B030BD4206002061
:102040000F12002010120020321200203012002047
:1020500030B583B0134B1888134C21880822FFF742
:1020600072FD0300208011485843C00A80B2104B13
:102070001880104B1978104B1A78914204D30F4BEB
:1020800000221A8003B030BD0C4C238895005219F1
:1020900052008D004919490000250095FFF7FBFC0F
:1020A0002080EFE76E1000201010002010270000A5
:1020B0000C120020091200200A1200203212002007
:1020C00010B56D4A13780133DBB213706B490A788F
:1020D0000132D2B20A706A49097800291AD0032B5A
:1020E00018D9654B00211970654B1970654B1B7829
:1020F000002B19D0012A17D9604B00221A70614BAE
:102100001A70614B1A78082A00D9B0E093005F4A30
:10211000D3589F460029E9D1022BE7D9564B1970B5
:10212000574B01311970E1E7002BEAD1012AE8D9B8
:10213000524B00221A70534B01321A70E1E7544B94
:102140001878FFF733FD10BD514B1878002804D0E4
:102150004B4B1878FFF72AFDF5E7FFF727FDF2E76D
:102160004B4B1878002803D04A4B1B78002B02D128
:10217000FFF71CFDE7E7434B1878FFF717FDE2E791
:10218000434B1878002803D0424B1B78002B06D114
:1021900000280AD03A4B1878FFF708FDD3E73D4BEB
:1021A0001878C0B2FFF702FDCDE7FFF7FFFCCAE7E2
:1021B000374B1878002803D0364B1B78002B06D1FC
:1021C000002809D02E4B1878FFF7F0FCBBE72D4B09
:1021D0001878FFF7EBFCB6E7FFF7E8FCB3E72D4B09
:1021E0001B78002B05D02B4B1878C0B2FFF7DEFC14
:1021F000A9E7274B1878FFF7D9FCA4E7254B1B78F4
:10220000002B04D01F4B1878FFF7D0FC9BE7204B26
:102210001878FFF7CBFC96E71E4B1B78002B08D1F4
:102220001B4B187800280AD0154B1878FFF7BEFC16
:1022300089E7184B1878C0B2FFF7B8FC83E7FFF7BF
:10224000B5FC80E7134B1B78002B08D1104B187896
:10225000002809D00A4B1878FFF7A8FC73E7094B50
:102260001878FFF7A3FC6EE7FFF7A0FC6BE7084BBD
:102270001878FFF79BFC66E7271000202610002047
:10228000251000202410002043120020306F001081
:102290004112002030130020F0B583B00500D14B6F
:1022A00043221A709870032800D13CE163D80128BA
:1022B00000D1E1E202285CD1CB4B00221A70CB4A5C
:1022C000D178CB4B19701179CA4B1970557901230C
:1022D00028001840C84908706E081E40A908194017
:1022E000C6480170EF081F4029091940C448017011
:1022F00069091940C3480170A9090B40C2490B7014
:10230000ED09C24B1D709379DBB2C14A13700E2BDD
:1023100041D8C04B1F221A80BE4B1C88A000201839
:10232000C000001BC000201880B2BC2102F0F0FAEF
:1023300080B2B94B18801A889D235B009A4203D360
:10234000B54B3A22FF321A803234A4B2FF2C26D881
:10235000E4B2B24B1C70A54BDA79B14B1A70002E67
:102360001FD0B04B1B88452B1BD8AF4B07221A70D0
:102370002DE00325C4E004280BD1AC4B1A78994B0F
:10238000DA7000221A7115325A711E329A710725BD
:10239000B6E00325B4E09F4BBB221A80BCE7FF24C4
:1023A000D7E7002F0FD09F4B1B885A2B0BD9002D3E
:1023B00003D09F4B1B78002B01D1002D07D19A4BE6
:1023C00006221A7003E0894B1A7A974B1A70002E76
:1023D00002D1984B00221A70844B597A964A117098
:1023E000997AC9B2954A1170DA7A954B1A70954B61
:1023F00018881A787B4BDA700009302202401A7173
:10240000914A12785A71874A108812789A71000A94
:1024100007220240DA718D4A1278012002401A72B6
:102420008B4A10781A7A40000243D2B21A721A7A92
:102430008848047824011020204002431A721A7A36
:102440008548047864012020204002431A721A7AD9
:1024500082480478A4014020204002431A72804A36
:1024600012889208D2B25A72012953D07D4B1A7841
:102470005C4B9A727C4A1388DBB25A4CE372138825
:102480009B083F229343DBB2E2791343E371774A1F
:102490001388127822731B0A6373654B1B78A3732E
:1024A000734B187864235843FE2102F041FAC0B2FE
:1024B000E073704A1388127822741B0A63746E4B9F
:1024C0001B78DBB2A374594B1B78E3746B4B1B78FE
:1024D00023756B4A1368DBB2637513681B0ADBB2A2
:1024E000A37513681B0CDBB2E375664A1388127878
:1024F00022761B0A6376644B1B88DBB2A3761B250E
:10250000384B5D70614B012252421A80604B0022B1
:102510001A70C4E15F4B1888093102F0F9F9C0B2B2
:10252000304B9872A6E701F097FC5B4B00221A70C3
:102530003E4A137801210B431370584B02221A7044
:10254000294B013A1A70294C22791202E3789B1820
:102550009BB2534A138064205843572102F0D8F9A4
:1025600080B2504B18801B88643B4F4A1380A2797D
:10257000120263799B184D4A1380237A01221800B6
:1025800010404B490870590811404A480170990899
:10259000114049480170D908114048480170190993
:1025A0001140474801705909114046480170990986
:1025B000DB09454803700A420FD1444B19321A70A7
:1025C0000A4A937A5B0042490B80D47AE4B2414BC9
:1025D0001C702F4B01221A7093E03C4B1A221A7088
:1025E000EEE7C0468410002051120020A410002005
:1025F0004712002012120020411200204912002030
:1026000000110020041200200512002003120020F7
:102610004B12002038060020360600203E0600201F
:10262000461200201012002048120020460600200A
:102630002D120020F7110020420600204A1200202F
:102640000612002034120020371200203013002020
:102650001E1300200F1200204C1200203A120020FE
:102660006E100020071200203813002016120020E0
:10267000471300202E1200203F13002036120020A6
:10268000201300201A1200204A1300207C10002082
:10269000811000200C120020400600205212002061
:1026A0004E120020680600203C1200204406002044
:1026B000F6110020F5110020200600201312002042
:1026C0004212002044120020260600203E13002063
:1026D0000411002003110020884A1378013B884927
:1026E0005B005B5A1B02107801384000405A60437F
:1026F0001B1A1B0A10784000435213780133DBB2D7
:1027000013707E4B1B78DBB2772BE5D97D4C227B97
:102710007D4B1A70227B7D4B1A70627B7C4B1A704A
:10272000627B7C4B1A70A07BC0B218230093AA3343
:1027300064220021FFF7D9F9774B1870E07BC0B213
:1027400009230093403364220021FFF7CEF9734B35
:1027500018703223E25CD2B2714B1A703323E15C01
:10276000704B19703423E15C6F4B19703523E15CB9
:10277000C9B26E4B19703623E35CDBB26C48037050
:102780005B005B1ADBB29B1A6A4A13703723E05C6A
:10279000C0B2193B0093E13364220021FFF7A5F991
:1027A000654B18703923E25C644B1A703823E35C84
:1027B000DBB24F2B05D8604BA5221A705F4BA33AB2
:1027C0001A70504C4D23E25C1202013BE35C9B18F3
:1027D0009BB25B4A138019003C395A4A11805A4A0D
:1027E00013804F23E35C1B024E22A15CC91889B2FF
:1027F000564B1980FA20400102F09AF8544B188089
:102800005023E25C51084F3B194052480170920836
:102810001340514A137006D0474B1B78A42B02D8A3
:10282000454BA5221A704D4B434A12781A70354B0E
:102830005122985C4A490870995C4A4A11705222A8
:10284000995C494A117053229A5C484B1A70484B64
:102850001B78002B0CD02B4B54229B5CDBB2454ADF
:102860001370642B00D84BE6130064221A7047E6FD
:10287000404B00221A7043E63F4B1A783F4BDA7008
:1028800004253DE61D4C2378DBB23C4AD05CC0B247
:102890003B49FFF775F923780133DBB22370174BFF
:1028A0001B78AB42EED3364A13881178334A515520
:1028B0006C1C1B0A1355334B00221A70324A8A23B0
:1028C0005B00D3581B0E7F221A401E239B1A023531
:1028D000AB4210D22D4B00221A7003B0F0BD274A34
:1028E000D25CD2B22848C021490042500133DBB249
:1028F0009C42F4DAEEE70023FAE7C046811000209C
:1029000004110020A4100020091200202506002038
:102910000A120020240600203C0600203A0600206F
:10292000261200202412002020120020281200204D
:1029300027120020251200201F0600203F0600203D
:102940002E0600202C0600202A0600202806002043
:1029500022120020401200201F1200201E0600201C
:102960001E1200203E1300204312002041060020CA
:102970004412002045120020511200208410002033
:102980007C1000208210002000020048FC10002073
:1029900070B52F4B1B78002B3DD02E4B012252429D
:1029A0001A802D4B5D78EDB22C4B00221A700CE092
:1029B0002A4C2378DBB2284AD05CC0B22549FFF705
:1029C000DFF823780133DBB22370244B1B78AB4252
:1029D000EED36A1C204B9A5C12025B5D9B181D4A69
:1029E0001288934207D01A4B00221A701C4A13789F
:1029F0000133137013E01A4B00221A70194B1B7825
:102A0000002B02D1174B01321A70134B9878C0B2C9
:102A1000FFF742FC03E0124A137801331370104BA6
:102A20001B781E2B04D80F4B1B78002B0BD070BDCE
:102A300001F012FA0C4B00221A700C4A1378202174
:102A40000B431370EFE70020FFF726FCEFE7C046CB
:102A5000FC1000207E100020A41000208110002017
:102A60007A10002052120020400600204606002066
:102A700070B582B0204B1888C72807D91F4B182281
:102A80001A701F4B0F3A1A7002B070BD1D4E33788A
:102A90008008C0B21825009532220A21FFF725F8D8
:102AA000164C20703378184A10780095462214216D
:102AB000FFF71BF82378834201D9104B1870134E8F
:102AC00033780D4A10888008C0B20925009532225B
:102AD0000A21FFF70AF80A4C207033780A4A107866
:102AE000009546221421FFF700F823788342CBD9C2
:102AF000034B1870C8E7C046101200203D060020A6
:102B00003B0600203C0600202D1200203A06002043
:102B100010B52C4B1C782C4B1B78002B0ED02B4B5C
:102B20001B78002B0AD12A4B1A882A4B1978782354
:102B30005B1A9A4202DD254B01221A70264B1B7844
:102B4000002B33D1214B1A78002A03D1234B1B8849
:102B5000002B2AD01E4B1988214B1B784B43544322
:102B600063431B0A5801C01A8000C018C0001D4BE7
:102B7000198801F0CDFE84B22409FFF779FF1A4BC2
:102B80001B88A34200D32300184A1278002A10D0D1
:102B9000124A12889A4201D2104A13800F4B1B88A6
:102BA000002B0AD0124BFE221A7010BDFFF70CF852
:102BB000C8E70A4A00211180F2E70D4B00221A7083
:102BC000F3E7C04647120020441200202D120020D7
:102BD0001A12002045120020F6110020FE100020DD
:102BE0004106002038120020380600200011002085
:102BF0003012002010B52F4B1B78002B4CD12E4BE0
:102C00001B78002B0ED02D4B1B78002B0AD12C4BA0
:102C10001A882C4B197878235B1A9A4202DD274BCD
:102C200001221A70284B1B78002B02D0234B012263
:102C30001A70234B1888002803D0204B1B78002BD8
:102C400003D1224B1B88002B25D0214B1B785843E6
:102C50003C2101F06DFE84B2FFF70AFF1D4B1B887B
:102C6000A3421CD21C4A13801C4B1B78002B19D08A
:102C7000194B1B88154A1288934201D9134A1380B5
:102C8000154B124A12881A80134B1B88002B0DD04B
:102C9000134BFE221A7010BDFEF7D0FFAFE70E4BAC
:102CA0001C80E1E7094B00221A80EDE70C4B002263
:102CB0001A70F0E720060020441200202D12002098
:102CC0001A1200204512002042120020FE1000209F
:102CD0004712002038060020321200200011002088
:102CE0003012002010B5194B1A78002A26D0184B44
:102CF0001B789B189B10174A1380174B1B78A42B2B
:102D000002D8154BA5221A70FEF798FF124B134AF2
:102D100012781A700F4B1C88114A12881A80FFF71C
:102D2000A7FE104B1B88A34209D20F4A13800E4BFB
:102D30001B88002B06D00D4BFE221A7010BD0A4BCB
:102D40001C80F4E7094B00221A70F7E72D120020CF
:102D5000471200201A1200201F0600201E06002025
:102D600018120020380600203212002030120020F5
:102D700010B53B4B1B78002B0ED03A4B1B78002B29
:102D80000AD1394B1A88394B197878235B1A9A4241
:102D900002DD344B01221A70354B1B78002B02D018
:102DA000304B01221A70304B1C88002C03D02D4B65
:102DB0001B78002B03D12F4B1B88002B42D02E4BAE
:102DC0001B78142B07D8D801C01A80B20A2101F051
:102DD0009FFD294B1870284B1B785B00FE21490092
:102DE000C91A89B2254B1B78002B05D01D4B1B78C7
:102DF0008B4228D8C91A89B20A3189B264430819AA
:102E000001F086FD84B2FFF733FE1D4B1B88A34201
:102E10001BD21C4A13801C4B1B78002B18D0194B5B
:102E20001B88144A1288934201D9124A1380154B09
:102E3000104A12881A80134B1B88002B0CD0134B9E
:102E4000FE221A7010BD0021D6E70E4B1C80E2E76F
:102E5000084B00221A80EEE70C4B00221A70F1E7B3
:102E6000441200202D1200201A12002045120020CA
:102E700042120020FE1000204712002026060020EB
:102E800038060020321200200011002030120020ED
:102E900070B5354B1B78002B5AD1344B1B78002B67
:102EA0000ED0334B1B78002B0AD1324B1A88324B91
:102EB000197878235B1A9A4202DD2D4B01221A7091
:102EC0002E4B1B78002B02D0294B01221A70284B65
:102ED0001D78002D03D12A4B1B88002B37D0254BA2
:102EE0001C88002C06D0274B187860433C2101F049
:102EF0001FFD84B2244B1B786B43244A1288534332
:102F00001B0A5801C01A8000C018C000204B198845
:102F100001F0FEFC80B20009844200D20400FFF7F9
:102F2000A7FD1C4B1B88A34200D323001A4A12782A
:102F3000002A10D0124A12889A4201D2104A1380F5
:102F40000F4B1B88002B0AD0144BFE221A7070BD49
:102F5000FEF774FEA1E70A4A00211180F2E70F4B49
:102F600000221A70F3E7C046200600204412002019
:102F70002D1200201A1200204512002042120020BB
:102F8000FE10002012120020471200201412002010
:102F900038120020380600200011002030120020D6
:102FA000F0B583B0454B1B885A2B05D8462B79D9F1
:102FB000434A1278002A75D1414A1278002A10D06B
:102FC0003F4900220A703F490A803F490A803F4931
:102FD000FA20400008803E490A803E490A803E4A65
:102FE00013803D4A1088C01A82B200B2354B188057
:102FF00036490B88D3181BB20B80FA2189008B420B
:1030000052DD324B1980304B1988521A15B2304AB2
:103010001580188084002D4B0020185E03F070FD91
:103020002E4A2F4B03F024F806000F00200003F077
:1030300067FD32003B0002F0C3F906000F00680094
:103040004019400003F05CFD32003B0002F0B8F98B
:1030500003F024FD00B21F4B188000282ADB1D4B13
:1030600000229A5EFA239B009A4203DD194BFA2252
:1030700092001A801B4BF4221A701B4BAB3A1A7049
:103080001A4B1B4A12881A80124B0020185E8010BF
:10309000C0B2FE2300930023FA220021FEF725FD93
:1030A000144B187003B0F0BD002BACDA074B0021B5
:1030B0001980A8E700221A80D1E7C046101200202C
:1030C000230600201C1000201A10002018100020D9
:1030D0001610002014100020121000203333333358
:1030E0003333E33F3D0600203B0600203212002030
:1030F000380600203012002070B582B0544AC72331
:103100009B00D05880108005800D524B1880524B88
:103110001B78002B01D102B070BD504B1A78504B78
:1031200019788008FF2300930023FEF7DEFC0400DB
:103130004C4B18704C4B1B789800C018C0003221C3
:1031400001F0E6FB83B21E339BB21802C01A323084
:10315000642101F0DDFB86B27F2C45D80004000C11
:1031600060433F307F2101F0D3FB80B2FF2800D9BC
:10317000FF20C0B23B4B18703C4B1B78002B41D05A
:103180003B4A13703B4B1B78002B06D03A4B1B7805
:10319000002B02D1364B00221A70354B18780028CC
:1031A0001ED0364B1B8858437F30FF2101F0C0FBF7
:1031B00084B2334B1B88A34212D2324B1888FE28AC
:1031C0002DD9314B30221A70304B273A1A702B4BC5
:1031D0001B88A34239D22A4A13802D4BFE221A7033
:1031E000234B00221A7096E7FF239B1B9BB2200003
:1031F000803858433F307F2101F08AFB80B280192C
:1032000080B2B3E7234B1B78022B03D0184B00226C
:103210001A70B7E70028F9D0154B1870B2E7C0B2A2
:1032200030230093C433FF222821FEF75EFC164BA7
:103230001870144B1878092300934033FF2228217B
:10324000FEF753FC114B1870C1E70D4B1C80C4E70F
:10325000000803486E1000200412002024060020FD
:103260002506002007120020201200200612002050
:1032700008120020051200202D1200203806002020
:1032800032120020101200203D0600203B060020D4
:10329000301200204A12002010B5754B1B78002B0D
:1032A0001DD0744B1B781433734A1370724B1B7808
:1032B000822B02D9704B82221A70704BF4221A7042
:1032C0006F4BAB3A1A706F4B19782820FEF735FC1C
:1032D0006D4B18806D4B684A12781A7010BD654BA3
:1032E00018786B4B18706B4B1B78002B0ED16A4A09
:1032F0001288002A0AD1604B32321A70674B1A705A
:10330000674B00221A80674B1A80CFE7002B6FD0E3
:10331000614B1B88644A1288934219D2634B042282
:103320001A70634A1378591C1170042BBED9524B82
:103330001A785A4B1B789A4206D24F4B01321A70B8
:103340005B4B00221A70B1E7544A01331370F7E760
:10335000544909888B4217D29B1A9B00DBB2534A0F
:10336000137053490A78501C087093429ED2424B06
:103370001B784A4A1278934202D23F4A01331370B3
:103380004B4B00221A7091E74A4A1288934216D298
:10339000D31A9B00DBB2454A137045490A78501C8A
:1033A0000870934200D381E7334B1B78282B02D956
:1033B000314A013B13703E4B00221A7076E73B4BBB
:1033C00004221A703A4A1378591C1170042B00D841
:1033D0006CE7294B1B78282B06D9274A013B137031
:1033E0002E4A1378013B1370314B00221A705DE7AF
:1033F0002E4B0A221A702E4A1378591C11700A2B70
:1034000000D853E72C4B1988002925D02A2903D945
:10341000194A1378013B1370214A13885C1C1480ED
:10342000092B15D91D4A13780A3313701A4B1B88C0
:10343000584301F07DFA80B21A4B18800200143A0A
:10344000194B1A8014301B4B1880124B01221A7032
:10345000174B00221A7029E7104B1B78772BF7D8EF
:1034600005490A7801320A700C4A01331370EFE7FC
:103470004212002046120020220600203D060020B5
:103480003B060020380600203212002030120020B7
:1034900002120020F71100202E1200202106002029
:1034A000FE110020FC110020FA1100200012002063
:1034B00001120020F81100201012002010B5BE4BA0
:1034C000C2221A70BD4B793A1A70BD4B00221A8085
:1034D000BC4B1A70BC4B1B78002B1FD0BB4B1B88FE
:1034E000C82B1BD9BA4A1288BA490988914215D902
:1034F000B94A1278002A11D13833DBB2B74A1370B7
:103500005B09B74A13701378DBB2052B02D913009D
:1035100005221A70B34B01221A7002E0B14B00224F
:103520001A70B14B1B78062B02D0B04A01211170E2
:10353000AF4A1278002A1DD1082B3AD89B00AD4A19
:10354000D3589F46FFF7E4FA33E0FFF753FB30E030
:10355000FFF7C8FB2DE0FFF70BFC2AE0FFF798FC14
:1035600027E0FFF71DFD24E0FFF796FE21E0FEF7C0
:10357000A5FB1EE0A04B1A78642353431B09904A15
:103580001380BC2B02D91300BC221A809B4B1B78E2
:10359000002B02D08A4B00221A80994B1B78894A53
:1035A0001370FD2B02D91300FE221A70954B3222A4
:1035B0001A70954B1B78012B0CD0022B13D1FFF7FF
:1035C0009BFDFEF70FFD914B1B78022B12D0032BB6
:1035D00016D01DE0FEF73CFD8D4B1B78002BF0D084
:1035E000FFF78AFDEDE78A4B1B78002BE9D0FFF748
:1035F00083FDE6E7874B28221A70844B253A1A7020
:10360000844B1B78002B00D187E0824A013B13706A
:10361000814B1A88814B1B889A4204D27B4B1B78C2
:10362000042B00D185E07E4AC1239B00D3589BB276
:103630009B087C4A1278002A11D07B49097899426C
:1036400000D37FE079490B7801330B70774B1B78FF
:103650009A4204D8694A137840210B4313705C4B9B
:103660001A889300D2185301714A1360714A116885
:103670005B18136070490A68013A0A60002A07D192
:103680009B096E4A136040220A606A4B00221A604E
:103690006B4B1B78002B12D1584B1B7878221A42A7
:1036A0000DD1684A1278002A09D0674A1278002A98
:1036B00005D0002B4AD0654B1B78002B46D1644BBC
:1036C000C2221A70634BB93A1A70424B00221A8018
:1036D000614B1A705B4B1B78002B00D1C6E0584A37
:1036E0001278002A13D1454A1278782111420ED15E
:1036F000364A1288002A00D0B8E0314A1288002ADF
:1037000000D0B3E0554A1278002A00D0AEE04D4B0D
:1037100000221A7000F0A0FB10BD3C4B04221A706E
:103720004F4B023A1A70354A137801218B431370BC
:103730006EE7324A137820210B431370494B012264
:103740001A7070E7394B002119707FE7464B1B88D0
:10375000BC2B02D9444BBC221A80194B1A88424B0D
:103760001B889A4201D9164A1380164B1B78FF2BEF
:103770001ED0114B1B78172B02D80F4B18221A7032
:103780000E4B1B78082B02D80C4B09221A700A4BDF
:103790001A782F4B1A70094B1A782E4B1A70084B57
:1037A0001A880C4B1A80074B1A782B4B1A7091E72A
:1037B000044BFE221A70DCE73D0600203B06002089
:1037C0003212002030120020401200202E12002061
:1037D0004A13002048130020081200203F12002046
:1037E0004413002043130020481200202306002029
:1037F0006C100020546F00101D06002046060020AB
:103800001C060020471200204A12002052120020FD
:1038100006120020501200203A1300203C12002013
:10382000000403483F0600203E0600203E12002010
:10383000601000206810002018060020641000208E
:1038400030130020400600204912002042120020C0
:103850006B0600206A060020461300204713002054
:10386000511200203A12002038060020002B00D010
:1038700052E70D4B1B78002B00D04DE70B4B1B88FC
:103880009F2B00D948E70A4B1B88002B00D143E748
:10389000084B01221A70084B00221A70074B1A704D
:1038A00000F014FB38E7C046301300202E12002031
:1038B000321200204006002047130020451300204C
:1038C000030043434B4343431B0C80225200521AD4
:1038D0005043C0188030000A704770B504000029BA
:1038E0000CD000280BDB80235B00984200DD180021
:1038F000002906DBFFF7E4FF002C0ADB70BD404225
:10390000F1E7494280256D00281AFFF7D9FF281AF0
:10391000F2E74042F2E7000010B5614B1B78772BCD
:1039200027D9604B604A12881A80604B00229B5E48
:10393000192B07DD5E4B00221A805E4B1A805E4B0E
:1039400001321A705D4B1A885D4B1A805C4B1B88E4
:10395000544A1288934237D99B1A9800C0184001E4
:10396000584B198800F0E4FF80B2A0282DD9A02080
:103970002BE0524B188880B2534C21880422FEF76A
:10398000E2F82080464A13780133DBB21370782BBB
:1039900006D04B4B1880434B434A12881A80D5E718
:1039A0004A4B1B78002BF4D0494B1B88984207D90F
:1039B000484B1B88984203D2474B00221A70E8E715
:1039C000454B01221A70E4E70020444B1B78002B82
:1039D00006D1434B00221A80424B1A70424B1A7098
:1039E000424B1B8883420BD2C31A9BB23B2B2FD96D
:1039F0004F2B2FD9632B2FD9812B2FD910220CE0DD
:103A00001B1A9BB2F2E73A49374C24780C5D3449D3
:103A10001B1B0B800FE0013AD2B2002A20D03049A4
:103A20000B88C3189BB20B802E4909782729EAD846
:103A30002C4B013119702C490B782D4CE05401337B
:103A4000DBB20B70272BE6D90B0000211970E2E7DF
:103A50000122E2E70222E0E70422DEE70822DCE7B7
:103A6000204B1978002904D01D4B188800F060FF06
:103A700080B21E4B18801F4B1B78143B5900C9188D
:103A80008900FFF72AFF80B21B4B18801B4B188060
:103A90001B4B18801B4B1B7843431B4A138010BDE4
:103AA0005C100020320600202E0600202A12002082
:103AB000341300203213002031130020361300206D
:103AC0001C120020280600203006002013120020BF
:103AD0002C0600202A060020291200202D1200208A
:103AE0002E10002030100020311000202C1000205B
:103AF00034100020241200201A1200201812002076
:103B000016120020410600201412002010B52D4B83
:103B10001A882D4B9A4203D82A4B1B88092B2AD886
:103B20002A4B00221A80FEF7E7F8FEF711FAFEF79B
:103B30000BF9274B18880001142100F0E9FE254BF2
:103B40001870254B18880001142100F0F1FE234B5A
:103B50001870FFF7E1FE224B1A78511C19700323ED
:103B60001340022B2AD00FD8002B12D0012B12D1D8
:103B7000FEF7A6FA0FE0134B198889B2194800F036
:103B8000C7FE124B1880CEE7032B04D1FEF7F8F8DE
:103B900001E0FEF7FDFEFFF791FC134B9978134A05
:103BA0001180D978124A11801979124A11805979F5
:103BB000114A11809A79114B1A8010BDFEF7E8FE68
:103BC000E9E7C0466C060020FFEF00002E1200203F
:103BD0004A130020371200203C1300203612002028
:103BE0002A10002090D0030010130020781000202D
:103BF0007610002074100020721000207010002039
:103C00000AE0244A1370244B01221A7004E0562B58
:103C100020D9214B00221A70204A8A235B00D358F6
:103C20001B0736D41E4B1B78002B32D11B4A8E2328
:103C30005B00D358DBB2184A1278D1B2012AE6D021
:103C400002290FD00029E7D1592BDAD0124B0022DC
:103C50001A70E1E70F4A5370124A13700E4B02229A
:103C60001A70D9E7104A117802310A484354137880
:103C70000133DBB2137013780A4A12789A42CBD818
:103C8000094B00221A70044B1A70054B01321A704E
:103C9000C2E77047A41000208010002000020048F6
:103CA000FC100020A1100020A2100020704700008E
:103CB00010B5514B00E0013B002BFCD1FDF7E6FEB7
:103CC000002800D001BEA021C9050B684B48034065
:103CD0008022920013430B6049490B6803401A434A
:103CE0000A60FDF793FA00F013FC464B42221A706B
:103CF000454B00241C7000F0CDF8444B1C70444B25
:103D000001229A60434B00E0013B002BFCD1424B67
:103D1000C62292009858414908408021C9010143B8
:103D2000995080218904196098583D4908408021A4
:103D3000C903014399508022D2041A60A023DB05F5
:103D40000F22DA60374A116B80235B000B43136349
:103D5000304B00E0013B002BFCD1334B5A68012172
:103D60000A435A60314A9A60314B1B6F9BB2314A09
:103D70001380314A138017E0FFF742FF1BE02F4BFF
:103D80001B88E31A9BB22E4A934225D8294B1B88E5
:103D9000E31A9BB22B4A934223D82B4B1B88E31A7E
:103DA0009BB22A4A934221D81F4B204A9A60284B43
:103DB0001B78002BE0D01C4B1C4A9A601C4B1C6FDC
:103DC000A4B21D4B1B88A342D9D9224A13680133E0
:103DD0001360194B1C80D2E7184B1C8000F0BAF915
:103DE000D4E7144B1C80FFF791FED6E7164B1C80DE
:103DF00000F0F2F9D8E7C046804F1200FFFCFFFF49
:103E000000000448181300200E1200206206002053
:103E100000000150C0D4010000E100E0FF00FFFFFE
:103E2000FFFF00FF0000014000000240FECAADABF2
:103E3000000204485E120020581200205C1200208C
:103E4000C40900006A1800005A12002050C3000084
:103E5000FC100020541200200323034A1361034A7C
:103E60001361034A136170470001005000020050C3
:103E70000003005010B5054A137840210B4313701E
:103E8000034B00221A70FFF7E7FF10BD4606002023
:103E90004006002070B500F064FA0A494A6A9208A8
:103EA00001231340084A13704D6A02242C40234317
:103EB00013704C6AA400042121400B43137000F0DE
:103EC00054FA70BD000104401F13002010B5FFF725
:103ED000E1FF0D4B196B802252000A431A631A6BE3
:103EE0000A490A401A6309E0074B196B8022520005
:103EF0000A431A631A6B05490A401A63044B9B680C
:103F0000DB07F1D510BDC04600000140FFFEFFFFFA
:103F100000010050F0B5CE46474680B585B0EFF3BE
:103F2000108572B67A4C23687A490A6800202060AE
:103F3000086085F31088002A00D1E1E01C00DB173F
:103F40001D00A60F99003143A00000196941D31745
:103F500001F0D8F98046814643421C00DD176E4AC5
:103F600000232000290001F0F1F90904000C0843A6
:103F70000600C717694B1A685B68100019000290A9
:103F8000039196229200002301F0E0F90B04020C49
:103F90001A430B1492197B4100920193002B03DC0E
:103FA00005D15F498A4202D94B46002B2BDB009A90
:103FB000019B1900013106DB019B591C06D1594BAD
:103FC000009A9A4202D24B46002B1CDCA10EAB0198
:103FD0000B43A20112196B4192185B4112196B41FC
:103FE000910F9D000D439400A4185D412904220CFB
:103FF0000A432B144949029C039DA4185D412200E9
:104000002B000A604B60454B1A685B68002B03DC91
:1040100007D1454B9A4204D94049434A00230A60DC
:104020004B603E4B1A685B68591C04DB013308D1B6
:104030003E4B9A4205D239493C4A01235B420A6011
:104040004B60364B1868596896229200002301F0A5
:104050007DF90904000C08430400C517A4197D412B
:10406000002D03DC30D12E4B9C422DD9304B2C4AF5
:104070001A60304C20684346DA179B1853402E4A8A
:1040800081008B500130142100F072FC21602B4B19
:104090001B68132B02DC294A01331360244B1A6876
:1040A000274B1B68D218274B9A421BDB264B9A42A0
:1040B0001ADC264B1B68D21A5B2A17DC11005B3115
:1040C00015DA5B22524212E06B1C04DB6B1C06D13A
:1040D000144B9C4203D2164B124A1A60C9E7144B88
:1040E0001C60C6E7174AE4E7174AE2E75B229B1821
:1040F000164A1360002B08DB9BB21B0A144A13708C
:1041000005B0C0BCB946B046F0BD9BB2F5E7C046AD
:1041100004130020001300204C170000E0120020C0
:104120008E03000072FCFFFF44840100BC7BFEFF95
:10413000DC120020781200207C1200207412002073
:10414000D812002056F5FFFF55150000D4120020AC
:10415000D012002070B5184B1B78002B29D1174BBB
:10416000C020800019580905090DC12292009B58F2
:104170001B051A0D124B1B581B051B0D114C2588D6
:10418000E800401B0918C90821800F480488E10095
:10419000091B5B18DB0803800C490888C3001B1A45
:1041A000D318DB080B800A4B00221A60094B1A60F7
:1041B00070BDFFF7AFFEFBE7400600200008034894
:1041C00000040348500600204E0600204C06002044
:1041D000FC120020F8120020F0B5D6464F464646A5
:1041E000C0B551490D68002D00D197E00024002092
:1041F000002107E04D4EA700BE593200F31780188A
:1042000059410134A542F5DCEB1799462A0001F02B
:1042100079F88046464C226893019B1A9B009B1AB2
:1042200080001818FF2100F083FB824620600024E4
:10423000002600270CE03D4BA200D0584346C01A90
:10424000C11702000B0001F081F836184F4101340C
:10425000A542F0DC2A004B463000390001F052F84C
:10426000040002F04DFC00F0E1FE02F017FC314DBD
:104270002A6893019B1A9B009B1A80001818FF2143
:1042800000F056FB286040438200C3001B189B00CF
:10429000182A00DC1922C82149008B4200DA0B00E1
:1042A000A24203DCA34231DD122200E02422224B91
:1042B0001B689A4503DD21490B685B420B60204C6B
:1042C00023689801C01A8000C01A92008018FF214C
:1042D00000F02EFB20601B4B1B681C00DD17174BEA
:1042E0001A68D317C11701F031F800196941002984
:1042F0000EDC02D1144B98420AD84B1C04DB4B1C39
:1043000007D1124B984204D2104802E00922CEE7AE
:104310000D480C4B1860084B52461A60E0BCBA4678
:10432000B146A846F0BDC046741200207C120020A1
:10433000701200206C120020CC12002048060020D1
:1043400068120020D81200205515000056F5FFFF16
:104350000230800803D00138FDD1C046C046C046B7
:104360007047EFF3108072B6704780F31088704783
:10437000064B1A89802149010A431A8148215A5A59
:104380008020000102435A527047C0460000054099
:1043900010B50D4A13681B0AFF210B400B48036040
:1043A000126811400A4A1160002B08D01B02C9187C
:1043B000084800F0ADFA4000074B186010BD064BEE
:1043C000064A1A60FAE7C046000301405413002071
:1043D00050130020000024F4FC3F00200048E801B6
:1043E00010B5FFF7C5FFFDF743FB10BD7047000098
:1043F000F0B5C64600B58B08984604339B001E589E
:1044000003250D40ED00F827AF40BE431E50436F1B
:104410004F000326BE40B3434367CB0810339B00D5
:104420001F5807260E40B6000424B440A7431F506F
:104430001F585478B44026003E431E500D4B9842FE
:104440000ED00023D356002B10DB44460434A400C6
:1044500021581278AA400A43225080BCB846F0BDC9
:10446000036E01268E40B3430366EAE753688B4030
:104470004360EAE70002044010B50C000DE080083C
:1044800008490B68084A134002021343074A1343C2
:104490000B60044B1B685B00FBD4A3008342EED38C
:1044A00010BDC04600030140FF000FC00000F03FF8
:1044B00030B50C000EE0012290000A490B680A4D4D
:1044C0002B4092021343094A13430B60054B1B68B0
:1044D0005B00FBD48300A34203D20028EBD0020090
:1044E000EAE730BD00030140FF000FC00000F03FCD
:1044F000014BC3225A62704700000140034BC022A7
:104500005A62024B5B6A5B07FBD4704700000140B4
:10451000034A938C01210B439BB293847047C0469E
:104520000010014010B50400FFF7E8FF054B1869C3
:1045300020431861034B1B685B00FBD4FFF7D8FFD7
:1045400010BDC04600030140034B9B6803405A1E48
:104550009341D8B27047C0460003014070B50400D3
:104560000D00FFF7CBFF154B1A68120AFF20104011
:104570001968134A11402943124A0A431A600F4B23
:104580001B685B00FBD4A04214D82100FFF790FF0A
:104590000A4A13680C490B4024021C43094B23436D
:1045A0001360064B1B685B00FBD4FFF7A1FFFFF70E
:1045B000EFFE70BD2100FFF75FFFE9E70003014058
:1045C00000FF0FC00000F03FFF000FC010B5040057
:1045D000FFF794FF074A136807490B40A1680B4394
:1045E00061680B431360FFF783FF60782178FFF762
:1045F000B5FF10BD00030140FFFFF0FF014B18683D
:104600007047C046FC3F002010B5044B984200D0D4
:1046100010BD0420FFF786FFFAE7C04600000448FB
:1046200070B505000C00FFF7EFFF80235B00EB6027
:104630002B68034A1340A4031C432C6070BDC04682
:10464000FF3FFFFF03680A0C93430904090C194359
:10465000016070470B6843614B799B06DB0F1B05BC
:1046600043600B791B071B0F43624B791B071B0F22
:1046700003624B79DB06DB0F83610B791B09C36295
:1046800070470B6843614B79DB07DB0A43600B79AA
:104690001B071B0F43620B791B09C36270470000A5
:1046A00010B543680324A343194341604369012AB9
:1046B00003D0044A1340436110BD8022D20013434B
:1046C000F9E7C046FFFBFFFF43683022934309012F
:1046D000194341607047F0B5C64600B54C1EE4B2C0
:1046E00006686500EDB22F001037FFB2032398462D
:1046F000BB409C4633006646B3439C465378BB4060
:10470000664633431531CFB20121B9408B439178CE
:10471000B94019431935EDB24646AE40B143D3789E
:10472000AB400B43A100C9B20F248C40A3431278C5
:104730008A401343036080BCB846F0BD1C31890039
:10474000401840687047000030B50B291AD889001E
:104750000D4B5B589F46032500240DE0C0252D011D
:104760000A2409E0C025AD00082405E00C25022438
:1047700002E0C025AD010C24A8214358AB43A24060
:104780001A43425030BDC0468471001010B5A023BA
:10479000DB05984200D010BD0220FFF7C3FEFAE708
:1047A00070B505000C00FFF7F1FF80235B00EB60A4
:1047B0002B68034A1340A4031C432C6070BDC04601
:1047C000FF3FFFFF012303610B6843614B7BDB0667
:1047D000DB0F1B0543600B7B1B071B0F43620B7B2F
:1047E0001B09C3624B7B1B071B0F03624B68836172
:1047F0008B68142253408364704703680A0C934308
:104800000904090C194301607047000010B54368A2
:104810000324A343194341604369012A03D0044A96
:104820001340436110BD8022D2001343F9E7C04614
:10483000FFFBFFFFF0B5C64600B54C1EE4B20668AC
:104840006500EDB22F001037FFB203239846BB403E
:104850009C4633006646B3439C465378BB4066464D
:1048600033431531CFB20121B9408B439178B94020
:1048700019431935EDB24646AE40B143D378AB404B
:104880000B43A100C9B20F248C40A34312788A4085
:104890001343036080BCB846F0BD4163704700001D
:1048A00030B50B291DD889000E4B5B589F4600245C
:1048B000032510E00A24C0252D010CE00824C025A2
:1048C000AD0008E00424302505E002240C2502E0B8
:1048D0000C24C025AD01A8214358AB43A2401A4384
:1048E000425030BDB47100104B6803658B6843655E
:1048F0000B68C364704710B5436F490003248C40B4
:10490000A3434367436F8A401343436710BD0000CE
:1049100010B5EFF3108272B6044B04245C63186286
:104920005962986A82F3108810BDC04600000340A7
:1049300010B5EFF3108272B6044B00245C6318626A
:104940005962986A82F3108810BDC0460000034087
:1049500010B5EFF3108272B6044B04245C63186246
:104960005962D96A986A82F3108810BD000003402A
:1049700010B5EFF3108272B6044B00245C6318622A
:104980005962D96A986A82F3108810BD000003400A
:1049900010B5044B984200D010BD8020FFF7C2FD37
:1049A000FAE7C0460000015070B504000D00FFF7A3
:1049B000EFFF0323E3602B68236070BD03689B0750
:1049C00005D103680A681343036000207047012083
:1049D000FCE710B5436F103101248C40A3438A409B
:1049E0001A43426710BD0000F8B504000E0017001E
:1049F00000F052F9357A002D00D11035002F07D084
:104A00003379002B26D031682A00200000F088F886
:104A1000F379013B5B006D0801352D022B43144AED
:104A20001343E3637379013B1B0681225200134356
:104A30006363B379002B13D0626B013B1B041343F8
:104A40006363A023DB00A36301235B42E3647389F8
:104A50002364F8BD31682A00200000F00BF8D7E786
:104A6000626B7379013B1B0413436363E9E7C04640
:104A700001000300F0B5DE464F4680B583B08346A3
:104A80000C001500632941D9002A01D101203EE024
:104A9000FFF7B4FD6421FFF73BFF8146642120004E
:104AA000FFF736FF07001C4E012301938023DB0034
:104AB00000931C0000E0013C002C12D03900694337
:104AC00048466043FFF724FF830A8005800D80225B
:104AD000D2009342EFD88642EDD9060001930094AC
:104AE000E9E7009F013F80231B023B435A461361C5
:104AF00053690A4A1340013DAD022B43019E013E1A
:104B0000360433435A465361002000E0012003B0CD
:104B1000C0BCBB46B146F0BDFF030000EF8000FC07
:104B2000F0B5DE4657464E464546E0B583B0804672
:104B3000894617000192FFF761FD06004B465F436F
:104B4000B8424ADD3900FFF7F3FE0400012506E014
:104B50000135290079433000FFF7EAFE0400204BBD
:104B60009C42F5D8019F3900614369433000FFF74B
:104B7000CFFE8346631C9A4639005943694330008F
:104B8000FFF7C6FE4B46181AC317C01858404B46CD
:104B90005A469B1ADA179B185340984200DBA246EC
:104BA0008022D2005346D21A8023DB0113434246AF
:104BB000136153690B4A1340019F013FBF023B43FE
:104BC000013D2D042B4342465361002003B0F0BC4D
:104BD000BB46B246A946A046F0BD0120F6E7C04656
:104BE000FE030000EF8000FC70B504AC247845693A
:104BF000094E3540002A0DD0102211431B041943E1
:104C00000C43059B1B021C43069B9B021C432C432D
:104C1000446170BD0022F0E72C8000FC70B5842553
:104C20006D004459064E344044514459054E3440B9
:104C30001B020B43120613431C43445170BDC04674
:104C4000FFFFFFF8C0C0FFF870B586256D0044591E
:104C5000074E344044514459064E34401B020B4326
:104C6000120613431C4380235B052343435170BD4D
:104C7000FFFFFFF8C0C0FFEF10B5064B984200D011
:104C800010BD0820FFF74EFC0820FFF75DFC002850
:104C9000FAD1F5E70800004810B504009023DB05C1
:104CA00098420CD0084B984209D00323E360E36894
:104CB000DB07FCD5236C0F229343236410BD03480C
:104CC000FFF7DAFFF1E7C04600020048080000489D
:104CD00010B54B075B0F8A01920D12041343F824A1
:104CE00064000351CB00DB0F1B070A01920F9206F1
:104CF00013438A00D20F520713434900C90F890793
:104D0000194302590A4380231B061343035110BD64
:104D100010B5034BFF221A600120FFF703FC10BD02
:104D20000005014070B504000D00FFF7F1FF6B694D
:104D300023606A6880231B0213438022A350AA6861
:104D4000A023E250EA680433E2502A69DD33FF33DE
:104D5000E2502A68C93BFF3BE25070BDF0B5C64641
:104D600000B5002A19D1CA06D20E90464905490F4E
:104D70001F26E022D20094460025082728339B00F6
:104D80001C5862469443B9402143B1434246AA406D
:104D90000A431A5080BCB846F0BDCA02D20E9046F3
:104DA0004901490FF8267603E022D20494461025E3
:104DB0001827E3E770B504000D00496800230022BE
:104DC000FFF7CCFF6968002301222000FFF7C6FF30
:104DD000A968012300222000FFF7C0FFA968012372
:104DE00001222000FFF7BAFF2A698023E250EA6817
:104DF0003833E25029682000FFF76AFF70BD10B514
:104E0000802283580324A3431943815010BD10B559
:104E10008A4200D90131C02283580324A343194395
:104E2000815010BDC022835803218B4383507047AB
:104E300030B50025002300E00133012B06D8094AD4
:104E40009C00A2588242F7D11D00F5E78D4200D99F
:104E50000131C0240359033101228A401343035115
:104E600030BDC046E4710010F0B5002309E0284AC7
:104E70009C00A55884242A59264E32402A510133D9
:104E8000DBB2012BF3D90B789B0702D1002700225C
:104E900012E080273F01FAE71D4B9400E658842575
:104EA00074591D4B1C400B781B079B0F1B0223439F
:104EB0003B4373510132D2B2012AEDD94A68174BF4
:104EC00013438022920083508B6801221343812276
:104ED000920083500A7803231340022B01D0002351
:104EE00012E081229200815880235B020B438350A1
:104EF000F5E7074A99008858842144588022D20453
:104F0000224342500133DBB2012BF2D9F0BDC0463F
:104F1000E4710010FFFFFFFBFFFCFFFF008080003B
:104F200010B58423C258184C2240C250C458813B4B
:104F30009C430A7813079B0F2343920701D0082252
:104F40001343842283504A68104B1343802252003B
:104F500083508B68FF3A13430432FF3283500A7840
:104F600003231340022B06D08422815880235B0444
:104F70000B43835010BD82225200815880235B0274
:104F80000B438350F0E7C046FFFFFFFE00808080A8
:104F900070B5137B8826845901258D40AC438B4026
:104FA000234383510D23D356002B17DB012908D04F
:104FB000002922D1B02403591F25AB4303510E0011
:104FC00005E0B02403590E4D2B400351803EB0251F
:104FD00043590D241457B44023434351C824035963
:104FE00055682B4303510834035995682B430351EB
:104FF0001368803189000B5070BD0026E7E7C0467A
:10500000FFE0FFFF10B580208000FFF78BFA10BD96
:1050100010B50400FFF7F6FFA268034B5A60626800
:105020001A6122685A6110BD00000240F8B5040000
:105030000D0000F023F8220006000F002B002000D6
:10504000290001F00DFD002807D1002200232000D7
:10505000290000F02FF9002802D130003900F8BDF6
:1050600001F05AFE212300220360002310001900E2
:1050700000F06EFC06000F00EFE7C046F0B54546B5
:10508000DE4657464E460B00E0B50D007949040058
:105090000200080083B02840884200D1CEE0002DF5
:1050A00000DC86E02C1500D196E073491B036018E4
:1050B00080211B0B49031943E40703D4D30F490094
:1050C00059185200431098465000D30F002249004F
:1050D000924680225B18002716219203BC189C423E
:1050E00002DCA7181B1B9244C40F5B0001391B197B
:1050F000400052080029F1D1002293468022002668
:10510000202412060AE0BB4276D05B00C10FC9180A
:10511000013C0B0040005208002C1AD09119BB42F0
:10512000F1DDB9468E18002903DAF543ED0FA946E3
:10513000B944DB1B814200D9013B4F465B00401A5A
:10514000C10FC918013C93440B0040005208002CC9
:10515000E4D101435DD0494F494B3868796899469D
:105160001A685B683D687E6801F0A8F902000B00D0
:105170002800310000F0A8F800284AD03868796883
:105180004B465D461A685B68013567D03C687D68B0
:1051900000F016F902000B002000290000F08AF848
:1051A0005D4600285ED002356B426B416C089A4424
:1051B00031E06E00760820002900264337D0002D0C
:1051C00045D1D10A153B52050029FAD08020400371
:1051D0001C000B00014248D1802500216D035B00BB
:1051E000080001312B42FAD0202516006D1AEE403E
:1051F0008A403343241A58E77B00814200D985E76F
:1052000000238E1800299ADAF543ED0FA9464F4482
:1052100095E75B465C081B4A5346944642465B1042
:1052200063441205D1185346DE072643300003B00D
:10523000F0BCBB46B246A946A046F0BD20002900FE
:1052400000F016FF22002B0000F0BAF8EFE701F0A3
:1052500035F902000B0000F07BFBE8E701239C46D8
:10526000E244D8E701356C08D5E701204042241A12
:105270001BE7C0460000F07F01FCFFFFF871001043
:10528000F07100100000E03F8446100062468C463A
:105290001900634600E0C0461FB500F085FE0028F7
:1052A00001D40021C8421FBD10B500F0D7FD404217
:1052B000013010BD10B500F077FE002801DB0020A2
:1052C00010BD012010BDC04610B500F06DFE0028D5
:1052D00001DD002010BD012010BDC04610B500F05A
:1052E000FFFD002801DC002010BD012010BDC046DC
:1052F00010B500F0F5FD002801DA002010BD0120F6
:1053000010BDC046002B15D1002A13D1002906DBA1
:1053100001DC002806D00020C043410802E08021C3
:105320000906002007B4024801A14018029003BDFD
:105330003518000003B4684601B5029800F028F85B
:10534000019B9E4602B00CBC7047C046F7B5040CEA
:105350000D0091B20F0061438C460600019383B2A9
:10536000100C5F43444358433B0C60441B18994264
:1053700002D9802149026418019955437143180CE0
:1053800004191B04BFB24919D819091903B0F0BD9B
:10539000F7B517001E0004000D0001F003FC020029
:1053A0000B000090019138003100FFF7CFFF241A65
:1053B0008D41089B009801991C605D6003B0F0BDB1
:1053C000F7B5DF0FBC460D034C001E03C90F00915B
:1053D0006D0A410F760A570F294337435D00009E3F
:1053E000640D6D0DC000D200631B664500D02EE138
:1053F000002B00DC7AE0002D3CD13D0015431ED08F
:105400005D1E012B18D1821882428041C919404289
:10541000091810000A0200D402E1BA4A013393428B
:1054200000D18AE2B84C42080C40012101400A43F5
:10543000E00710436108F3E0B24EB34222D14C07BB
:10544000CA08B049C00804438B4206D12100114369
:1054500000D175E2802109030A432000AB4C1B05F3
:1054600012032340120B1343009AD207134319006F
:1054700003B0F0BDA34DAC4200D1DDE180252D0489
:105480002F431D00382D2CDC1F2D19DC20233E005E
:105490005B1B9E40B44616000193EE4063461E43DC
:1054A000019BEF409A4013005A1E934133431B184F
:1054B0008342804179184042091818002300A9E767
:1054C0002B003E00203BDE400023202D03D0403344
:1054D0005B1B9F403B0013435A1E934133430027FD
:1054E000E5E73B0013435A1E9341F8E7002B50D0E9
:1054F0002B1B002C12D10C0004430CD05C1E012B82
:1055000006D1801890429241C9195242891881E708
:105510007C4EB3420AD13900100090E7794CA54285
:1055200000D104E28024240421431C00382C2BDC0D
:105530001F2C18DC20230E001B1B9E40B4460600C7
:105540000193E64063461E43019BE14098400300FF
:10555000581E83413343981890429241C9195242D0
:105560002B00891856E723000E00203BDE40002365
:10557000202C03D040331B1B99400B000343591EC2
:105580008B4133430021E6E70B000343591E8B4157
:10559000F8E75F4D631C2B4234D10B000343002C12
:1055A00014D1002B00D1BDE13B00134300D11EE11B
:1055B000821882428041C919404209180B0200D466
:1055C000B1E1514B10001940012338E7002B00D105
:1055D000ADE13C004B4B144300D130E74B07C00812
:1055E0001843CB08802109030B4206D0FC080C426B
:1055F00003D12300D0087F073843410FDB00194354
:10560000C00019E13F4CA34200D196E182188242CA
:105610008041CF1940423F18F807520810437908DB
:10562000420709D00F220240042A05D0021D8242FF
:1056300080414042091810000A0200D4FFE6314AB6
:105640000133934200D178E12F4A1140F7E6002B55
:1056500060DD002D36D13D00154300D1EFE65D1E23
:10566000012B0DD1821A90428041C91B4042091A78
:1056700010000A02D4D549021C004D0A019008E12D
:10568000204EB34200D1DAE6382D35DC1F2D22DC66
:1056900020233E005B1B9E40B44616000193EE4063
:1056A00063461E43019BEF409A4013005A1E9341EC
:1056B0003343C31A98428041C91B4042091A18005B
:1056C0002300D6E70F4DAC4200D1B5E080252D0474
:1056D0002F431D00D8E72B003E00203BDE40002377
:1056E000202D03D040335B1B9F403B0013435A1EC9
:1056F000934133430027DCE73B0013435A1E934199
:10570000F8E7C046FF070000FFFF7FFF0000F07FC3
:10571000FE070000002B54D02B1B002C15D10C00D1
:1057200004430FD05C1E012B09D1101A8242924112
:105730006346791A52420093891A012399E7814EF0
:10574000B3420AD161460091E5E67E4CA54200D104
:10575000EBE08024240421431C00382C2CDC1F2C7B
:1057600019DC20230E001B1B9E4000933300060013
:10577000E6401E43009BE14098400300581E8341D1
:105780003343D01A82429241791A5242891A6246B0
:105790002B0000926DE723000E00203BDE4000232B
:1057A000202C03D040331B1B99400B000343591E90
:1057B0008B4133430021E4E70B000343591E8B4127
:1057C000F8E7614E651C354250D10E003D0006439E
:1057D0001543002C28D1002E0FD11900180000937A
:1057E000002D00D12BE63900100063460093030022
:1057F0000B4300D19EE0002312E7002DF7D0851A5D
:10580000A842B641CC1B7642A41B260206D5101A2C
:1058100082429241791A5242891AE6E728002043CF
:105820005CD021002800E2E7002E07D1002D7CD1BA
:10583000802118000093C903424B00E6414B002D24
:1058400000D1FCE54B07C0081843CB0880210903B1
:105850000B4200D1D1E6FC080C4200D0CDE6D008C6
:1058600062467F07230038430092C6E6851A0195F9
:10587000A842AD416D422E00CD1BAD1B2E022AD594
:10588000131A9A429241019363467F1A5242BD1AFB
:105890000093002D25D0280001F066F90300083B95
:1058A000202201990198D21A9D40D1409840294365
:1058B0009C4233DC1B1B5A1C1F2A1EDC20230D00BC
:1058C0009B1A040098409D40D440431E98412543B4
:1058D000D14028438BE701982843DAD1010000909A
:1058E000ADE5019801F040F9030018331F2BD7DD17
:1058F0000199083881402800DAE70C001F3BDC40A2
:105900000023202A03D040339B1A99400B00034305
:105910005A1E934120000021184368E70B4AE31AFE
:1059200011407DE63900100061E7634600933900BD
:10593000100081E71900180081E5002108007EE5CC
:105940000A008AE5FF070000FE070000FFFF7FFF57
:10595000F0B589B0009201930D034B00CA0F060009
:1059600004002D0B5B0D039245D0644A93426BD02B
:10597000420FED001543802212042A430292604A2E
:10598000C4009F180026019B019A1D03D20F5B00E3
:1059900000982D0B5B0D069266D0584A934200D1B9
:1059A00089E0ED005649420F2A4380255B189C464A
:1059B0002D041543C2000021069B03985840C3B232
:1059C00005936346B0000843FB1A013804930E2880
:1059D00000D999E001F0BCF88E002D02D3012D0210
:1059E0001E022D02D3018E008E001E02D3017E0006
:1059F0007E007E00C5012B00034302932CD0002DB6
:105A000015D0280001F0B0F8010003000B391D2269
:105A1000521A31001800D140083885400A002A4344
:105A2000350085400292374F2C00FF1AAAE701F09B
:105A30009BF801000300153120331C29E7DD3200FB
:105A4000083882400292EEE702002A43029207D110
:105A500014001F00022696E7029C0126270092E709
:105A60001F00032602958EE7009A2A432AD0002DB4
:105A700015D0280001F078F8010002000B391D2331
:105A800010005B1A009908388540D9402943009DD1
:105A900085401C4B9B1A9C462A000D008BE701F0A9
:105AA00063F801000200153120321C29E7DD00995E
:105AB00008388140EDE7009A2A4307D115009C463B
:105AC000022179E715009446012175E702009C4602
:105AD000032171E73100039B0593022900D1ACE15A
:105AE000032900D1A2E1012900D001E10024230013
:105AF000220026E100231C00004A22E1FF070000EB
:105B000001FCFFFF0DFCFFFF029B9D4204D300D070
:105B100022E1A24200D91FE1029BE607D9076308F0
:105B200019430C00029B5B08029313022D02170E0F
:105B300000932B0C2F4306930699BBB20298039354
:105B4000FEF706FFBBB243430A04210C05001143D4
:105B50008B4207D9C919013D8F4203D88B4201D925
:105B6000851EC919C81A0699FEF7F2FEBAB2424359
:105B70000904A4B203000C43A24207D9E419013B73
:105B8000A74203D8A24201D9831EE4192D041D4364
:105B9000A41A009B009A1B0C12040393120CABB2C4
:105BA00007925A4307980292039A290C4843534399
:105BB0005143029A1B18120C94466344984202D92E
:105BC000802252028918029A180C12041B04120C2B
:105BD00040189A18844203D302951ED196421CD2D3
:105BE0006B1E0293009BF6189E429B415B42DB19A1
:105BF000E418A74203D310D1009BB3420DD8A042B2
:105C000002D80AD1B24208D9AB1E0293009BF61803
:105C10009E429B415B42DB19E418B51AAE42B64185
:105C2000201A7642801B874200D1ADE00699FEF72C
:105C30008FFEBBB243430A04290C040011438B427C
:105C400007D9C919013C8F4203D88B4201D9841E60
:105C5000C919C81A0699FEF77BFEBBB24343090473
:105C6000ADB202000D43AB4207D9ED19013AAF4284
:105C700003D8AB4201D9821EED19ED1A2304039E0D
:105C80001343079907981C0C9AB25143604372431F
:105C9000744312180E0CB218904202D980204002B0
:105CA0002418100C09041204090C0019511885421B
:105CB00004D31C00854219D1002919D07D195C1E1E
:105CC000BD420ED3854203D310D1009A8A420AD234
:105CD0009C1E009B5A009A429B415B42DB19ED18C7
:105CE0000092854202D1009B994201D001231C43BE
:105CF000049B554A9A18002A49DD63070BD00F23ED
:105D00002340042B07D0231DA342A44102996442DF
:105D100009191C000291029BDB0108D54B4B029A2A
:105D20001A408023DB009C460292049A6244484B4E
:105D30009A4200DD81E0029BE4085B071C43029B62
:105D4000DB081B0312051B0B1343059A2000D20727
:105D50001343190009B0F0BD049B0026013B0493D6
:105D6000E3E6802302991B03194201D01D4258D05B
:105D70008023029A1B031343039A0592BCE6069BF9
:105D8000140005930295A8E601246442B0E70121BE
:105D9000891A382900DDA9E61F2926DC2D4A049B33
:105DA0009446634420009C40029AC8409A402300D5
:105DB0000243581E83411A43029B1400CB406207E2
:105DC00009D00F222240042A05D0221DA242A4415C
:105DD00064421B19140080211A0009040A400B4276
:105DE0002ED1E1085C070C43AAE71F235B429B1AF4
:105DF000029ADA400023202906D01749049B8C46DA
:105E00000299634499400B001C43631E9C4100238C
:105E10001443D4E700231C00039380231B03029345
:105E2000A6E7069B140003930295A1E7059B039345
:105E30009EE700231C001A0083E7002423005BE692
:105E4000002301221C007CE7FF030000FFFFFFFE90
:105E5000FE0700001E0400003E040000F0B50F0025
:105E600087B006000490F80F03901803000B5C0045
:105E70000290600D0190D80F844618480D03490028
:105E80002D0B490D0592814207D12C00012034438E
:105E90001FD1019C8C421CD102E0019C844204D1A0
:105EA000029802430120002A13D1019B012099424C
:105EB0000FD1029B9D420CD1049B059A934208D1BD
:105EC000039B634507D0002903D128003043431EBC
:105ED000984107B0F0BD0020FBE7C046FF07000077
:105EE000F0B587B000900191009901980491019953
:105EF0002C4F0903090B8C460199C50F4900490D28
:105F00001C03580003910592240B400DDE0FB9428B
:105F100003D1674600990F4335D12249884202D107
:105F2000270017432FD100270399B94205D16146B5
:105F3000009F0F4339004F424F41002825D1224393
:105F4000002F06D0002A2AD00120002E27D10238A7
:105F500025E0002A1BD10120002D20D040421EE068
:105F6000039B8342F0DBA445F5D808D1049B059A36
:105F70009342F0D8049B059A002093420FD201204F
:105F8000002D0CD1E3E70220E8E7002FDCD1AE4280
:105F9000E1D1039B8342E3DD0120002EDED107B077
:105FA000F0BDC046FF070000F0B587B0009001913A
:105FB00000990198049101992C4F0903090B8C4613
:105FC0000199C50F4900490D1C0358000391059222
:105FD000240B400DDE0FB94203D1674600990F43F1
:105FE00035D12249884202D1270017432FD10027FB
:105FF0000399B94205D16146009F0F4339004F42D2
:106000004F41002825D12243002F06D0002A2AD054
:106010000120002E27D1023825E0002A1BD10120C3
:10602000002D20D040421EE0039B8342F0DBA445BC
:10603000F5D808D1049B059A9342F0D8049B059AA1
:10604000002093420FD20120002D0CD1E3E7022063
:1060500009E0002FDCD1AE42E1D1039B8342E3DDB6
:106060000120002EDED107B0F0BDC046FF070000C2
:10607000F0B58BB0009201930D034B00CA0F0600E0
:106080002D0B5B0D039200D111E1CE4A934200D15A
:1060900035E1ED00420F2A4380252D041543CA4AFD
:1060A000C4009B181F0000230293019B00981E034D
:1060B0005A00DB0F360B520D049300D12EE1C14B79
:1060C0009A4200D150E1430FF60033438026BE4987
:1060D00036041E43C30050180022C1190691013135
:1060E00000910299880010430A2800DD76E10399A7
:1060F000049F79400391022800DD44E10138012822
:1061000000D853E1190C9BB202911900220CA4B2E1
:10611000514320008C46029F0299584351436743E4
:1061200005916744010CC91904908C4505D980205C
:1061300040028446059F67440597080C84466846DC
:10614000008A090409180991310CB6B20491300093
:106150003100049F614350437C437A4324180F0C61
:106160003C19A04202D9802040021218200C82184B
:10617000240489B2079262180892089962468C46F4
:10618000290CADB22800029F58436F434B43624431
:106190009446029CFF18020CD2194C43934202D938
:1061A00080235B02E418130C1B1902932B0080B2AE
:1061B000120412180498734345434E434143A819EF
:1061C0001D0C2D18AE4202D9802040020918059FEF
:1061D000089867448742B641BF1897429241280405
:1061E0009BB2C018079B7642C01853420493029B8F
:1061F00084199C46A4446346049AB442A4419B1863
:10620000079A644290428041029A40420443944576
:106210008041049A2D0C93429241404252421043D5
:106220006419099A24186418790211434A1E91418D
:10623000FF0DDE0D640239435B0226430B43E4018C
:1062400000D4DEE001215A080B401A43F307CE4088
:106250001343009A5D495218002A00DCD4E0590724
:1062600009D00F211940042905D0191D99429B41DD
:106270005B42F6180B00F10106D58021C9008C465F
:10628000534A1640009A624452498A4200DD07E1AF
:106290007407DB081C43F60813053603039A360B14
:1062A0003343D2071343200019000BB0F0BD2C007C
:1062B00004432BD0002D16D0280000F055FC04001C
:1062C00002000B3C1D2330001B1B1100D840083975
:1062D0008D4003002B4335008D403F492C008A1A26
:1062E00017001D00DFE600F03FFC0400020015343B
:1062F00020321C2CE6DD330008388340EDE7040033
:106300002C4307D11F0025000223CDE625002700DE
:106310000123C9E61F0004000323C5E6009B3343A5
:1063200029D0002E14D0300000F01EFC0100030024
:106330000B391D221800521A009908388640D140A6
:106340003143009E86402448C01A33000E00C3E645
:1063500000F00AFC01000300153120331C29E8DDA0
:10636000009908388140EEE7009B334307D11000C5
:106370001E000222B1E61E0018000122ADE6030055
:1063800010000322A9E601218140A6200F00C000D1
:106390000740014226D190208000014276D1B938D1
:1063A000FF38014200D1ADE604990391022A77D06B
:1063B000032A72D0012A00D04BE7002634003200B5
:1063C0006AE7C046FF07000001FCFFFFFF03000073
:1063D000FFFFFFFEFE0700000DFCFFFF0F2805D0AA
:1063E0000B28E1D02E002300029ADFE7802212035F
:1063F000154201D016424ED0802636032E432C4A39
:106400004AE7069A009224E70120801A3828D4DC53
:106410001F2827DC2749009A8C461C006244310063
:1064200093409140C4401A002143531E9A410B00EF
:10643000C64013435A0709D00F221A40042A05D038
:106440001A1D9A429B415B42F618130080213000CE
:10645000090408400E4226D17407DB0802001C43E1
:10646000F60819E71F2149428A1A3100D14000225B
:10647000202805D01048009A844662449640320095
:1064800013435A1E934100260B43D3E780253C005B
:1064900003972D03B0E7049A039235001C00ABE785
:1064A00000263400ABE7002601223400F4E6C046A3
:1064B000FF0700001E0400003E040000F0B585B098
:1064C00002920393CB0F0D030193039B4C006D0AC3
:1064D000410F1F032943DE0F5D00029B7F0A5B0F04
:1064E000029A3B43BD4F640DC0006D0DD200BD420A
:1064F00003D11F00B446174302D101277740BC46A1
:10650000019E671BB44500D02DE1002F00DC7AE02E
:10651000002D3CD11D0015431ED07D1E012F18D12A
:10652000821882428041C9184042091810000B02AB
:1065300000D401E1A94B01379F4200D185E201223D
:10654000A74B0240194043081343C80718434908A2
:10655000F2E0A24EB74222D14A07CB089F49C008B9
:1065600002438F4206D11100194300D170E280210D
:1065700009030B4310009B4A3F051B0317401B0BED
:106580001F43019BDB071F43390005B0F0BD934D4E
:10659000AC4200D1D8E180252D042B433D00382D9D
:1065A0002CDC1F2D19DC20261F00761BB740BC46B3
:1065B00017000296EF4066463743029EEB40B2401A
:1065C0001600721E96413E43361886428041591885
:1065D0004042091827003000A9E72E001F00203E86
:1065E000F7400026202D03D04036761BB3401E0016
:1065F0001643731E9E413E430023E5E713431E00EE
:10660000731E9E41F8E7002F50D02F1B002C12D193
:106610000C0004430CD07C1E012F06D18018904240
:106620009241C9185242891881E76C4EB7420AD18B
:106630001900100090E7694CA54200D1FEE18024CA
:10664000240421433C00382C2BDC1F2C18DC202692
:106650000F00361BB740BC4607000296E74066466F
:106660003743029EE140B0400600701E86413E4323
:10667000B01890429241C91852422F00891856E72B
:1066800026000F00203EF7400026202C03D0403685
:10669000361BB1400E000643711E8E413E43002161
:1066A000E6E701430E00711E8E41F8E74E4D671C70
:1066B0002F4233D10D000543002C14D1002D00D101
:1066C000B7E11C00144300D119E1821882428041D5
:1066D000C918404209180B0200D4ABE1404B10002E
:1066E0000127194038E7002D00D1A7E11C00144311
:1066F00000D129E14C07C00820438024C9082403A5
:10670000214206D0DD08254203D12900D0085B07CD
:106710001843CA00410F1143C00015E12F4CA74296
:1067200000D192E1821882428041CB1840421B186E
:10673000D807520810435908430709D00F230340D4
:10674000042B05D0031D83428041404209181800E4
:106750000B0200D400E7214B01379F4200D174E1C6
:106760001F4B1940F8E6002F5FDD002D3ED11D00C4
:10677000154300D1F0E67D1E012F0DD1821A904203
:106780008041C91A4042091A10000B02D4D54902AF
:106790003C004D0A029003E1104EB74200D1DBE607
:1067A000382D3DDC1F2D2ADC20261F00761BB7402C
:1067B000BC4617000296EF4066463743029EEB4008
:1067C000B2401600721E96413E43861BB042804185
:1067D000C91A4042091A27003000D6E7FF07000017
:1067E000FFFF7FFF0000F07FFE070000994DAC42E5
:1067F00000D1A9E080252D042B433D00D0E72E00D9
:106800001F00203EF7400026202D03D04036761B87
:10681000B3401E001643731E9E413E430023D4E73F
:1068200013431E00731E9E41F8E7002F51D02F1B0B
:10683000002C14D10C0004430ED07C1E012F08D173
:10684000101A82429241591A5242891A63460193A0
:106850009BE7804EB7420AD161460191E8E67D4C44
:10686000A54200D1E8E08024240421433C00382CD8
:106870002ADC1F2C17DC20260F00361BB7400196A0
:106880003E000700E7403743019EE140B04006006C
:10689000701E86413E43901B82429241591A5242D9
:1068A0002F00891AD2E726000F00203EF74000266D
:1068B000202C03D04036361BB1400E000643711E1B
:1068C0008E413E430021E6E701430E00711E8E41DA
:1068D000F8E7614E651C35424FD11D000E0015438F
:1068E0000643002C28D1002E0FD121002000019456
:1068F000002D00D130E6190010006346019303001B
:106900000B4300D19DE0002716E7002DF7D0851A34
:10691000A842B641CC1A7642A41B260206D5101A0C
:1069200082429241591A5242891AE6E728002043CE
:106930005BD021002800E2E7002E07D1002D7BD19B
:10694000802138000197C903424F05E6002DFBD096
:106950004C07C00820438024C9082403214208D0E2
:10696000DD08254205D15B07D0081843634629009E
:106970000193CB00410F1943CEE6851A0295A84238
:10698000AD416D422E00CD1AAD1B2E022AD5101A34
:10699000824292415B1A52429D1A634602900193D1
:1069A000002D25D0280000F0DFF80838070020234C
:1069B00002990298DB1BBD40D940B8402943BC4234
:1069C00033DC3F1B7A1C1F2A1EDC20230D009B1A80
:1069D000040098409D40D440431E98412543D14037
:1069E00028438CE702982843DAD101000190B3E5EF
:1069F000029800F0B9F8070018371F2FD7DD029969
:106A0000083881402800DAE70C001F3FFC400023D3
:106A1000202A03D040339B1A99400B0003435A1E8F
:106A2000934120000021184369E70C4BE71B1940F4
:106A300082E61900100062E761460191190010001A
:106A400082E7190018001F0086E50021080083E591
:106A50000B008FE5FF070000FE070000FFFF7FFF30
:106A6000F0B51D004B005B0D9C460B4F14002B0333
:106A70000A036E00120B1B0B760DBC4503D10243BB
:106A80000120002A06D10020BE4203D12343180072
:106A9000431E9841F0BDC046FF0700000B0070B5D3
:106AA000114E0C0349000200240B0020490DDD0F9C
:106AB000B14204DD0D48814202DD0D4BE81870BD86
:106AC0008020400320430B4C641A1F2C08DC0A4E24
:106AD000E240891988401043002DF0D04042EEE793
