:020000041000EA
:10100000480500201910001000000000A310001077
:1010100000040100000100001249134A134B00F0C4
:101020001AF8134880471349134A144B00F013F879
:101030001349144A144B00F00EF81449144A0020C6
:10104000521A02DD043A8850FCDC124880471248EC
:101050008047124880479B1A03DD043BC858D05094
:10106000FBDC7047885B00100C000020440100206E
:10107000E93F0010C05C0010480500206806002011
:10108000E05D001068060020E80E0020E80E002059
:10109000AC110020A1100010C1560010313D00100D
:1010A0007047FEE710B582B06B46354ADA80354BA3
:1010B000354A1A60354B0121C022520099508020D8
:1010C0001A58334C22401A508022120231480260D2
:1010D00031480260812292009950304A8423802155
:1010E000C904D1501DE029498122920088588023EB
:1010F0009B0003438B50294AFC235B00D358002BF1
:10110000F9D0C0239B00D358009380231B02214AAF
:101110001360214A13606B469A1DDB88013B9BB22A
:1011200013806B4606331B88002BDCD1009B002309
:10113000009305E080231B02164A1360164A1360D1
:10114000174B1A6C80235B059A42F3D20F4B802118
:101150005858C022920202435A5000228531FF3172
:101160005A5084395A500D4B9532FF328039FF392D
:10117000995083315A580B4802405A5002B010BD62
:1011800050460000BC4003480004103F00000348E4
:10119000FFFFFC7FE0400348E440034800040348AD
:1011A00000400348FFFFFFFB00B583B00023124A55
:1011B0001360124A13600321114803F004FC114923
:1011C00080228858104B03438B501423019308E06E
:1011D000019B013B019380231B02074A1360074ACE
:1011E0001360019B002BF3D1FFF75CFF0021044843
:1011F00003F0E9FB03B000BDE0400348E4400348CE
:10120000000403480000034800000180F8B552497B
:10121000524D280003F06AFB5149524E300003F052
:10122000ADFB5149514C200003F0A8FB03213000D5
:1012300003F0C9FB0321200003F0C5FBFFF7B4FF57
:101240004B49280003F0F4FB4A49200003F04CFC12
:1012500082225200A1588023DB000B43A350434A53
:1012600084235B00D3589B06F9D5140082235B00CE
:10127000D25803208243E250E25801210A43E2504F
:10128000384DEA588243EA50EA580A43EA503A4B4A
:101290001A6888235B00E250384A1268E250384AE4
:1012A0000021200003F058FC364A0121200003F001
:1012B00053FC354A0021280003F04EFC334A01213B
:1012C000280003F049FC0021280003F07CFB0021EA
:1012D000200003F078FB00220121280003F07BFBB3
:1012E0000021280003F088FB200003F07FFB03218E
:1012F000200003F068FB0321280003F064FBB02307
:10130000234AE2500422FF32EA50224A06212000FA
:1013100003F022FC114EC2277F00F35940221343F1
:10132000F3511D4A0721200003F016FCF3598024D5
:101330002343F351194A0721280003F00DFCC02272
:101340005200B3582343B3508432B15880239B00DA
:101350000B43B350F8BDC046000600200000034810
:10136000EC05002000040348D805002000080348CD
:10137000CC050020900500208C0500208805002069
:101380007805002068050020580500204805002049
:10139000030400009C050020BC050020AC050020D3
:1013A00010B500F007F800F02BFA10BD10B5FFF7EC
:1013B000F7FF10BDF0B5DE4657464E464546E0B550
:1013C00085B0DE4E0021300002F02EFF80235B004E
:1013D0009846F360DA49DB4F380002F03FFF022302
:1013E0009A46FB6304247C638021C904300002F028
:1013F0002DFF07233361D44A0121380002F06FFF2B
:10140000D24A0221380002F06AFFD14A0321380093
:1014100002F065FF01220121380002F045FF0122A0
:101420000221380002F094FFA4257B5923437B510D
:1014300001218B46F16000243C67F960C549C64F25
:10144000380002F022FFC54B7B6380210905300084
:1014500002F0FCFE70213161C14A6F39380002F0A0
:101460003EFFC04A0221380002F039FFBE4A032184
:10147000380002F034FF0121380002F029FF504605
:10148000F0603C675846F860B849B94F380002F040
:10149000E5FEA023FB63B74B7B6380218905300009
:1014A00002F0D4FEE020C0013061B34A01213800CF
:1014B00002F015FFB14A0221380002F010FFB04AD5
:1014C0000321380002F00BFF0822F2603C675E4601
:1014D000FE60A026F6050021300002F065FF4746B9
:1014E000F760A849A84F380002F070FFD2239B0094
:1014F0009846FB637C64D223DB00994619003800D0
:1015000002F0CFFF8021C904300002F07AFF0723E8
:1015100033619E4A0121380002F090FF9C4A02216B
:10152000380002F08BFF9B4A0321380002F086FF4F
:1015300001220121380002F06DFF9749380002F0C6
:10154000D7FF3C679549964F380002F03FFF43466E
:10155000FB637C644946380002F0A3FF8021090543
:10156000300002F04EFF702131618E4A6F39380031
:1015700002F064FF8C4A0221380002F05FFF8B4AC0
:101580000321380002F05AFF01220121380002F045
:1015900041FF8749380002F0ABFF3C678549864F21
:1015A000380002F013FF4146F9637C644946380075
:1015B00002F077FF80214905300002F022FFE0238E
:1015C000DB0033617D4A0121380002F037FF7C4A9D
:1015D0000221380002F032FF7A4A0321380002F07B
:1015E0002DFF01220121380002F014FF7649380056
:1015F00002F07EFF3C677549754F380002F0E6FE49
:101600004146F96379644946380002F04AFF802177
:101610008905300002F0F5FEE020C00130616D4A1E
:101620000121380002F00AFF6B4A0221380002F063
:1016300005FF6A4A0321380002F000FF0122012160
:10164000380002F0E7FE03220021380002F02CFFF0
:1016500002220121380002F027FF00220421380075
:1016600002F022FF01220321380002F01DFF7B5906
:10167000584603437B517B59504603437B517B596A
:10168000102213437B517B5908210B437B513C674C
:10169000534D280002F060FF2B680326B3432B60F4
:1016A0005049280002F064FF4F49280002F06AFF09
:1016B00000220221280002F070FF6B6F0422134306
:1016C0006B674A494A4D0022280002F071FFEB691E
:1016D00050229343EB61EB69493A93433343EB6107
:1016E000EA6B444B1A4080231B011343EB63424BCC
:1016F0002B610C360296019400943A2300220021BB
:10170000280003F055F81F2305220021280003F0CC
:101710007FF81F2305222021280003F063F82B6C9B
:10172000B343524613432B64344803F055FA05B0D3
:10173000F0BCBB46B246A946A046F0BD0000044836
:10174000F057001000010448EC570010E857001053
:10175000E4570010DC57001000020448FFFF0000AF
:10176000D8570010D4570010D0570010C857001099
:1017700000040448FF040000C4570010C0570010C4
:10178000BC570010AC570010000100509C570010CF
:101790009857001094570010A0570010845700105D
:1017A0000002005074570010705700106C57001062
:1017B000785700105C570010000300504C57001081
:1017C000485700104457001050570010345700106D
:1017D00000040050305700102C57001028570010FC
:1017E000000001502457001020570010145700101B
:1017F00000020048FFE0FFFF43820000085700108E
:1018000010B57F4A7F4C0021200002F0F5FB00223A
:101810000021200002F073FE7B4A0A21200002F022
:10182000EBFB00220A21200002F069FE774A0D211D
:10183000200002F0E1FB00220D21200002F05FFEFB
:10184000734A0121200002F0D7FB00220121200071
:1018500002F055FE6F4A0221200002F0CDFB00226B
:101860000221200002F04BFE6B4A0321200002F00F
:10187000C3FB00220321200002F041FE674A04213D
:10188000200002F0B9FB00220421200002F037FE04
:10189000634A0521200002F0AFFB00220521200051
:1018A00002F02DFE5F4A0621200002F0A5FB002277
:1018B0000621200002F023FE5B4A0721200002F0EF
:1018C0009BFB00220721200002F019FE574A082145
:1018D000200002F091FB00220821200002F00FFE00
:1018E000534A0921200002F087FB00220921200031
:1018F00002F005FE4F4A504C0021200002F07CFB14
:1019000000220021200002F0FAFD4C4A01212000B3
:1019100002F072FB00220121200002F0F0FD484A93
:101920000221200002F068FB00220221200002F0C8
:10193000E6FD444A0321200002F05EFB0022032161
:10194000200002F0DCFD404A0521200002F054FB9B
:1019500000220521200002F0D2FD3C4A3C4C0A2125
:10196000200002F049FB00220A21200002F0C7FDFE
:10197000384A0B21200002F03FFB00220B212000FF
:1019800002F0BDFD344A0221200002F035FB0022A6
:101990000221200002F0B3FD304A0421200002F0B1
:1019A0002BFB00220421200002F0A9FD2C4A052176
:1019B000200002F021FB00220521200002F09FFD03
:1019C000284A0621200002F017FB002206212000F1
:1019D00002F095FD244A0821200002F00DFB0022B0
:1019E0000821200002F08BFD204A0921200002F08E
:1019F00003FB00220921200002F081FD10BDC0463A
:101A0000B858001000000440B0580010A85800104A
:101A1000A0580010985800109058001088580010D6
:101A20008058001078580010705800106858001046
:101A30006058001058580010000104405058001021
:101A40004858001040580010385800103058001006
:101A500000020440285800102058001018580010A8
:101A6000105800100858001000580010F8570010C7
:101A700030B585B001A8044B020032CB32C202F06F
:101A8000A9FB05B030BDC046C058001010B5FFF727
:101A90008DFC002010BD70B505000E001C0004ABCD
:101AA00018888D421FD395421ED2521A91B2A0427D
:101AB0000CD2AE1BB6B2201A80B270434B08C018CD
:101AC00002F02AFD80B2201A80B20DE0AD1BADB24B
:101AD000001B80B268434B08C01802F01DFD80B2A5
:101AE000001980B200E0200070BD70B51D0004AB8D
:101AF0001B7888421DD990421DD2AB420CD2441AA9
:101B0000E4B2E81AC0B26043511AC9B202F014FD3F
:101B1000C0B2281AC0B20DE0441AE4B2581BC0B2D9
:101B20006043511AC9B202F007FDC0B24019C0B2F9
:101B300000E0280070BD1800FCE7030008008B429D
:101B400000D21800704770B505000C000A2A15D89D
:101B50000A20801A68434A43801805300A2102F09F
:101B6000DBFC80B284420AD1854202D9013080B2C6
:101B700005E0854203D2013880B200E0002070BD4C
:101B80000B8858400880082202E05B080B80013A6D
:101B9000002A07D00B88D807F7D55B0802484340D6
:101BA0000B80F4E77047C04601A0FFFF002803D078
:101BB000044B20225A607047024B802292035A60E5
:101BC000F9E7C0460001044070B5164B1B78002BA6
:101BD00009D0012B0AD1144B1B88002B19D1134BB0
:101BE00001221A7002E0114B01221A700F4B1B7870
:101BF000002B0DD00E4D2C880E4B0F4A1278520040
:101C0000D05A6043642102F087FC80B224182C80F3
:101C100070BD094B1B782D2BE8D9044B00221A709C
:101C2000E4E7C046E510002000110020E410002089
:101C30000A110020F40F00201D11002010B5194BCF
:101C40001B78002B0BD1184B1B88002B07D1174B8F
:101C500001221A70164B174A12781A701DE0134BA6
:101C60001B78002B19D0124B1B78002B16D0104A72
:101C7000013B13700E4B1B78642058430D4B1978B1
:101C800002F05AFC83B26420C01A80B20A4C238846
:101C90005843642102F050FC208010BD034B002209
:101CA0001A70E7E71D1100201E110020F20F00201E
:101CB000F10F0020230600200A110020084B1A789B
:101CC000FD2A00D9FD22074B18211970064B0F3948
:101CD0001970064B064909881980064B1A7070471F
:101CE00037110020410600203F060020221100206D
:101CF0003C0600202011002010B50F4B1B88002B44
:101D000015D00D4B198889B20C4B1B88AB20800075
:101D1000584302F001FC0A4B18800A4B1B78002B39
:101D200004D0074A99005B185B00138010BD044B78
:101D300000221A80F1E7C0467A11002048060020F0
:101D400000110020FE10002009490A889308D21AC9
:101D500092B20A80074B1B889B189BB20B809B0892
:101D6000054A1380054A57214B4313807047C046EC
:101D7000000F00208E1100202411002028110020C7
:101D800010B55A4B1B885A4A12889A423ED9594B71
:101D900001221A70584B1A78531EDBB2012B39D925
:101DA000052A37D0042A35D0544B00211970534BE3
:101DB0001978002915D0524B1B880A3B9BB2912001
:101DC0004000834208D84F4B18884F4B984203D8A5
:101DD0004E4B1B78002B04D04D480378022423433C
:101DE00003704C4B1B88642B1CD94B4B1B78002B6E
:101DF00018D1002916D0494B1B78013BDBB2812B4F
:101E000010D947490B7801330B700EE0394B002293
:101E10001A70BFE7434B1B78002BC5D1374B01210C
:101E20001970C4E73E4B002119703D4B1B78FA2B0B
:101E300004D937490B78042003430B703A4B1B78C5
:101E4000002B20D1394B1B885A2B08D9072A06D0E2
:101E5000062A04D0364A13880133138002E0344B3B
:101E600000221A80334B1B88002B02D0304B0022FB
:101E70001A802F4B1B887D2B05D9254A117880238A
:101E80005B420B4313702C4B1B780F2B10D9274B45
:101E90001B88092B0CD8294A13780133DBB2137045
:101EA0000A2B08D91A4A137808210B43137002E051
:101EB000224B00221A70224B1B78002B03D0214B9F
:101EC0001B78022B00D010BD1F4B1B78132BFAD8A8
:101ED0001D4A013313701D4B1B88D32BF3D90C4AB9
:101EE000137810210B431370EDE7C0468E110020CC
:101EF000600600203C11002038110020FB0E00205D
:101F0000360600200C1100208A0200001911002062
:101F10004A06002006110020F00F00201D110020AD
:101F2000FA0E0020F81000205C0F00201E11002087
:101F3000F80E00200011002027110020F70E0020CD
:101F4000F41000203A110020F60E00205E0F002051
:101F500010B582B01B4B1C88A4B2C8221A4B18883B
:101F60005623FF330093194B52002821FFF793FDAE
:101F7000174B1880002C0BD02100164802F0CCFA29
:101F8000C0B2154B1870782805D978221A7002E073
:101F9000114B00221A70114B00221A800E4B1C7834
:101FA000002C0AD00E4B1878001B002805DD00021B
:101FB000210002F0C1FA094B1880094B1C7002B0D5
:101FC00010BDC0468211002000110020AE1000009C
:101FD0003806002035DF00001D1100201A110020F6
:101FE0001C11002030B583B0144B1B78002B23D07C
:101FF0009A1ED2B29100511849000233DBB29A0006
:102000009A1852000E4B002018700E4B1888904200
:1020100009D90D4B1B88002B02D0094B01241C70E1
:102020000A4B00241C70084C238800250095FFF7FC
:1020300032FDFF230340238003B030BD460600205D
:10204000FF1000200011002022110020201100208C
:1020500030B583B0134B1888134C21880822FFF742
:1020600072FD0300208011485843C00A80B2104B13
:102070001880104B1978104B1A78914204D30F4BEB
:1020800000221A8003B030BD0C4C238895005219F1
:1020900052008D004919490000250095FFF7FBFC0F
:1020A0002080EFE75E0F0020E80E002010270000E0
:1020B000FC100020F9100020FA100020221100204E
:1020C00010B56D4A13780133DBB213706B490A788F
:1020D0000132D2B20A706A49097800291AD0032B5A
:1020E00018D9654B00211970654B1970654B1B7829
:1020F000002B19D0012A17D9604B00221A70614BAE
:102100001A70614B1A78082A00D9B0E093005F4A30
:10211000D3589F460029E9D1022BE7D9564B1970B5
:10212000574B01311970E1E7002BEAD1012AE8D9B8
:10213000524B00221A70534B01321A70E1E7544B94
:102140001878FFF733FD10BD514B1878002804D0E4
:102150004B4B1878FFF72AFDF5E7FFF727FDF2E76D
:102160004B4B1878002803D04A4B1B78002B02D128
:10217000FFF71CFDE7E7434B1878FFF717FDE2E791
:10218000434B1878002803D0424B1B78002B06D114
:1021900000280AD03A4B1878FFF708FDD3E73D4BEB
:1021A0001878C0B2FFF702FDCDE7FFF7FFFCCAE7E2
:1021B000374B1878002803D0364B1B78002B06D1FC
:1021C000002809D02E4B1878FFF7F0FCBBE72D4B09
:1021D0001878FFF7EBFCB6E7FFF7E8FCB3E72D4B09
:1021E0001B78002B05D02B4B1878C0B2FFF7DEFC14
:1021F000A9E7274B1878FFF7D9FCA4E7254B1B78F4
:10220000002B04D01F4B1878FFF7D0FC9BE7204B26
:102210001878FFF7CBFC96E71E4B1B78002B08D1F4
:102220001B4B187800280AD0154B1878FFF7BEFC16
:1022300089E7184B1878C0B2FFF7B8FC83E7FFF7BF
:10224000B5FC80E7134B1B78002B08D1104B187896
:10225000002809D00A4B1878FFF7A8FC73E7094B50
:102260001878FFF7A3FC6EE7FFF7A0FC6BE7084BBD
:102270001878FFF79BFC66E7FF0E0020FE0E00209B
:10228000FD0E0020FC0E002033110020CC58001061
:102290003111002084110020F0B583B00500D14B2E
:1022A00043221A709870032800D13CE163D80128BA
:1022B00000D1E1E202285CD1CB4B00221A70CB4A5C
:1022C000D178CB4B19701179CA4B1970557901230C
:1022D00028001840C84908706E081E40A908194017
:1022E000C6480170EF081F4029091940C448017011
:1022F00069091940C3480170A9090B40C2490B7014
:10230000ED09C24B1D709379DBB2C14A13700E2BDD
:1023100041D8C04B1F221A80BE4B1C88A000201839
:10232000C000001BC000201880B2BC2102F0F4F8ED
:1023300080B2B94B18801A889D235B009A4203D360
:10234000B54B3A22FF321A803234A4B2FF2C26D881
:10235000E4B2B24B1C70A54BDA79B14B1A70002E67
:102360001FD0B04B1B88452B1BD8AF4B07221A70D0
:102370002DE00325C4E004280BD1AC4B1A78994B0F
:10238000DA7000221A7115325A711E329A710725BD
:10239000B6E00325B4E09F4BBB221A80BCE7FF24C4
:1023A000D7E7002F0FD09F4B1B885A2B0BD9002D3E
:1023B00003D09F4B1B78002B01D1002D07D19A4BE6
:1023C00006221A7003E0894B1A7A974B1A70002E76
:1023D00002D1984B00221A70844B597A964A117098
:1023E000997AC9B2954A1170DA7A954B1A70954B61
:1023F00018881A787B4BDA700009302202401A7173
:10240000914A12785A71874A108812789A71000A94
:1024100007220240DA718D4A1278012002401A72B6
:102420008B4A10781A7A40000243D2B21A721A7A92
:102430008848047824011020204002431A721A7A36
:102440008548047864012020204002431A721A7AD9
:1024500082480478A4014020204002431A72804A36
:1024600012889208D2B25A72012953D07D4B1A7841
:102470005C4B9A727C4A1388DBB25A4CE372138825
:102480009B083F229343DBB2E2791343E371774A1F
:102490001388127822731B0A6373654B1B78A3732E
:1024A000734B187864235843FE2102F045F8C0B2FC
:1024B000E073704A1388127822741B0A63746E4B9F
:1024C0001B78DBB2A374594B1B78E3746B4B1B78FE
:1024D00023756B4A1368DBB2637513681B0ADBB2A2
:1024E000A37513681B0CDBB2E375664A1388127878
:1024F00022761B0A6376644B1B88DBB2A3761B250E
:10250000384B5D70614B012252421A80604B0022B1
:102510001A70C4E15F4B1888093101F0FDFFC0B2A9
:10252000304B9872A6E701F0B7FC5B4B00221A70A3
:102530003E4A137801210B431370584B02221A7044
:10254000294B013A1A70294C22791202E3789B1820
:102550009BB2534A138064205843572101F0DCFF9B
:1025600080B2504B18801B88643B4F4A1380A2797D
:10257000120263799B184D4A1380237A01221800B6
:1025800010404B490870590811404A480170990899
:10259000114049480170D908114048480170190993
:1025A0001140474801705909114046480170990986
:1025B000DB09454803700A420FD1444B19321A70A7
:1025C0000A4A937A5B0042490B80D47AE4B2414BC9
:1025D0001C702F4B01221A7093E03C4B1A221A7088
:1025E000EEE7C046740F002041110020940F002038
:1025F0003711002002110020311100203911002074
:10260000F00F0020F4100020F5100020F31000203F
:102610003B1100203C0600203A0600204206002024
:102620003611002000110020381100204A06002039
:102630001D110020E7100020460600203A1100205E
:10264000F610002024110020271100208411002002
:1026500072110020FF1000203C1100202A110020E0
:102660005E0F0020F71000208C11002006110020C2
:102670009B1100201E110020931100202611002024
:10268000741100200A1100209E1100206C0F002000
:10269000710F0020FC100020440600204211002091
:1026A0003E110020600600202C110020480600206A
:1026B000E6100020E5100020240600200311002071
:1026C00032110020341100202A060020921100202F
:1026D000F40F0020F30F0020884A1378013B88494B
:1026E0005B005B5A1B02107801384000405A60437F
:1026F0001B1A1B0A10784000435213780133DBB2D7
:1027000013707E4B1B78DBB2772BE5D97D4C227B97
:102710007D4B1A70227B7D4B1A70627B7C4B1A704A
:10272000627B7C4B1A70A07BC0B218230093AA3343
:1027300064220021FFF7D9F9774B1870E07BC0B213
:1027400009230093403364220021FFF7CEF9734B35
:1027500018703223E25CD2B2714B1A703323E15C01
:10276000704B19703423E15C6F4B19703523E15CB9
:10277000C9B26E4B19703623E35CDBB26C48037050
:102780005B005B1ADBB29B1A6A4A13703723E05C6A
:10279000C0B2193B0093E13364220021FFF7A5F991
:1027A000654B18703923E25C644B1A703823E35C84
:1027B000DBB24F2B05D8604BA5221A705F4BA33AB2
:1027C0001A70504C4D23E25C1202013BE35C9B18F3
:1027D0009BB25B4A138019003C395A4A11805A4A0D
:1027E00013804F23E35C1B024E22A15CC91889B2FF
:1027F000564B1980FA20400101F09EFE544B188080
:102800005023E25C51084F3B194052480170920836
:102810001340514A137006D0474B1B78A42B02D8A3
:10282000454BA5221A704D4B434A12781A70354B0E
:102830005122985C4A490870995C4A4A11705222A8
:10284000995C494A117053229A5C484B1A70484B64
:102850001B78002B0CD02B4B54229B5CDBB2454ADF
:102860001370642B00D84BE6130064221A7047E6FD
:10287000404B00221A7043E63F4B1A783F4BDA7008
:1028800004253DE61D4C2378DBB23C4AD05CC0B247
:102890003B49FFF775F923780133DBB22370174BFF
:1028A0001B78AB42EED3364A13881178334A515520
:1028B0006C1C1B0A1355334B00221A70324A8A23B0
:1028C0005B00D3581B0E7F221A401E239B1A023531
:1028D000AB4210D22D4B00221A7003B0F0BD274A34
:1028E000D25CD2B22848C021490042500133DBB249
:1028F0009C42F4DAEEE70023FAE7C046710F0020AD
:10290000F40F0020940F0020F91000202906002069
:10291000FA10002028060020400600203E06002075
:102920001611002014110020101100201811002091
:102930001711002015110020230600204306002057
:1029400032060020300600202E0600202C06002033
:1029500012110020301100200F110020220600204B
:102960000E11002092110020331100204506002096
:10297000341100203511002041110020740F002077
:102980006C0F0020720F002000020048EC0F0020A6
:1029900070B52F4B1B78002B3DD02E4B012252429D
:1029A0001A802D4B5D78EDB22C4B00221A700CE092
:1029B0002A4C2378DBB2284AD05CC0B22549FFF705
:1029C000DFF823780133DBB22370244B1B78AB4252
:1029D000EED36A1C204B9A5C12025B5D9B181D4A69
:1029E0001288934207D01A4B00221A701C4A13789F
:1029F0000133137013E01A4B00221A70194B1B7825
:102A0000002B02D1174B01321A70134B9878C0B2C9
:102A1000FFF742FC03E0124A137801331370104BA6
:102A20001B781E2B04D80F4B1B78002B0BD070BDCE
:102A300001F032FA0C4B00221A700C4A1378202154
:102A40000B431370EFE70020FFF726FCEFE7C046CB
:102A5000EC0F00206E0F0020940F0020710F00205B
:102A60006A0F002042110020440600204A06002080
:102A700070B582B0204B1888C72807D91F4B182281
:102A80001A701F4B0F3A1A7002B070BD1D4E33788A
:102A90008008C0B21825009532220A21FFF725F8D8
:102AA000164C20703378184A10780095462214216D
:102AB000FFF71BF82378834201D9104B1870134E8F
:102AC00033780D4A10888008C0B20925009532225B
:102AD0000A21FFF70AF80A4C207033780A4A107866
:102AE000009546221421FFF700F823788342CBD9C2
:102AF000034B1870C8E7C0460011002041060020B3
:102B00003F060020400600201D1100203E06002048
:102B100010B52C4B1C782C4B1B78002B0ED02B4B5C
:102B20001B78002B0AD12A4B1A882A4B1978782354
:102B30005B1A9A4202DD254B01221A70264B1B7844
:102B4000002B33D1214B1A78002A03D1234B1B8849
:102B5000002B2AD01E4B1988214B1B784B43544322
:102B600063431B0A5801C01A8000C018C0001D4BE7
:102B7000198801F0D1FC84B22409FFF779FF1A4BC0
:102B80001B88A34200D32300184A1278002A10D0D1
:102B9000124A12889A4201D2104A13800F4B1B88A6
:102BA000002B0AD0124BFE221A7010BDFFF70CF852
:102BB000C8E70A4A00211180F2E70D4B00221A7083
:102BC000F3E7C04637110020341100201D1100200A
:102BD0000A11002035110020E6100020EE0F002021
:102BE00045060020281100203C060020F00F0020A0
:102BF0002011002010B52F4B1B78002B4CD12E4BF1
:102C00001B78002B0ED02D4B1B78002B0AD12C4BA0
:102C10001A882C4B197878235B1A9A4202DD274BCD
:102C200001221A70284B1B78002B02D0234B012263
:102C30001A70234B1888002803D0204B1B78002BD8
:102C400003D1224B1B88002B25D0214B1B785843E6
:102C50003C2101F071FC84B2FFF70AFF1D4B1B8879
:102C6000A3421CD21C4A13801C4B1B78002B19D08A
:102C7000194B1B88154A1288934201D9134A1380B5
:102C8000154B124A12881A80134B1B88002B0DD04B
:102C9000134BFE221A7010BDFEF7D0FFAFE70E4BAC
:102CA0001C80E1E7094B00221A80EDE70C4B002263
:102CB0001A70F0E724060020341100201D110020B6
:102CC0000A1100203511002032110020EE0F0020E3
:102CD000371100203C06002022110020F00F0020B8
:102CE0002011002010B5194B1A78002A26D0184B55
:102CF0001B789B189B10174A1380174B1B78A42B2B
:102D000002D8154BA5221A70FEF798FF124B134AF2
:102D100012781A700F4B1C88114A12881A80FFF71C
:102D2000A7FE104B1B88A34209D20F4A13800E4BFB
:102D30001B88002B06D00D4BFE221A7010BD0A4BCB
:102D40001C80F4E7094B00221A70F7E71D110020E0
:102D5000371100200A11002023060020220600203F
:102D6000081100203C060020221100202011002024
:102D700010B53B4B1B78002B0ED03A4B1B78002B29
:102D80000AD1394B1A88394B197878235B1A9A4241
:102D900002DD344B01221A70354B1B78002B02D018
:102DA000304B01221A70304B1C88002C03D02D4B65
:102DB0001B78002B03D12F4B1B88002B42D02E4BAE
:102DC0001B78142B07D8D801C01A80B20A2101F051
:102DD000A3FB294B1870284B1B785B00FE21490090
:102DE000C91A89B2254B1B78002B05D01D4B1B78C7
:102DF0008B4228D8C91A89B20A3189B264430819AA
:102E000001F08AFB84B2FFF733FE1D4B1B88A342FF
:102E10001BD21C4A13801C4B1B78002B18D0194B5B
:102E20001B88144A1288934201D9124A1380154B09
:102E3000104A12881A80134B1B88002B0CD0134B9E
:102E4000FE221A7010BD0021D6E70E4B1C80E2E76F
:102E5000084B00221A80EEE70C4B00221A70F1E7B3
:102E6000341100201D1100200A110020351100200E
:102E700032110020EE0F0020371100202A0600201A
:102E80003C06002022110020F00F0020201100201D
:102E900070B5354B1B78002B5AD1344B1B78002B67
:102EA0000ED0334B1B78002B0AD1324B1A88324B91
:102EB000197878235B1A9A4202DD2D4B01221A7091
:102EC0002E4B1B78002B02D0294B01221A70284B65
:102ED0001D78002D03D12A4B1B88002B37D0254BA2
:102EE0001C88002C06D0274B187860433C2101F049
:102EF00023FB84B2244B1B786B43244A1288534330
:102F00001B0A5801C01A8000C018C000204B198845
:102F100001F002FB80B20009844200D20400FFF7F6
:102F2000A7FD1C4B1B88A34200D323001A4A12782A
:102F3000002A10D0124A12889A4201D2104A1380F5
:102F40000F4B1B88002B0AD0144BFE221A7070BD49
:102F5000FEF774FEA1E70A4A00211180F2E70F4B49
:102F600000221A70F3E7C046240600203411002026
:102F70001D1100200A1100203511002032110020FF
:102F8000EE0F002002110020371100200411002054
:102F9000281100203C060020F00F00202011002006
:102FA000F0B583B0454B1B885A2B05D8462B79D9F1
:102FB000434A1278002A75D1414A1278002A10D06B
:102FC0003F4900220A703F490A803F490A803F4931
:102FD000FA20400008803E490A803E490A803E4A65
:102FE00013803D4A1088C01A82B200B2354B188057
:102FF00036490B88D3181BB20B80FA2189008B420B
:1030000052DD324B1980304B1988521A15B2304AB2
:103010001580188084002D4B0020185E02F00AFBFA
:103020002E4A2F4B02F0AEF806000F00200002F0EF
:1030300001FB32003B0001F0DDFD06000F006800DF
:103040004019400002F0F6FA32003B0001F0D2FDD8
:1030500002F0BEFA00B21F4B188000282ADB1D4B7D
:1030600000229A5EFA239B009A4203DD194BFA2252
:1030700092001A801B4BF4221A701B4BAB3A1A7049
:103080001A4B1B4A12881A80124B0020185E8010BF
:10309000C0B2FE2300930023FA220021FEF725FD93
:1030A000144B187003B0F0BD002BACDA074B0021B5
:1030B0001980A8E700221A80D1E7C046001100203D
:1030C00027060020F40E0020F20E0020F00E002053
:1030D000EE0E0020EC0E0020EA0E002033333333D6
:1030E0003333E33F410600203F0600202211002039
:1030F0003C0600202011002070B582B0544AC7233E
:103100009B00D05880108005800D524B1880524B88
:103110001B78002B01D102B070BD504B1A78504B78
:1031200019788008FF2300930023FEF7DEFC0400DB
:103130004C4B18704C4B1B789800C018C0003221C3
:1031400001F0EAF983B21E339BB21802C01A323082
:10315000642101F0E1F986B27F2C45D80004000C0F
:1031600060433F307F2101F0D7F980B2FF2800D9BA
:10317000FF20C0B23B4B18703C4B1B78002B41D05A
:103180003B4A13703B4B1B78002B06D03A4B1B7805
:10319000002B02D1364B00221A70354B18780028CC
:1031A0001ED0364B1B8858437F30FF2101F0C4F9F5
:1031B00084B2334B1B88A34212D2324B1888FE28AC
:1031C0002DD9314B30221A70304B273A1A702B4BC5
:1031D0001B88A34239D22A4A13802D4BFE221A7033
:1031E000234B00221A7096E7FF239B1B9BB2200003
:1031F000803858433F307F2101F08EF980B280192A
:1032000080B2B3E7234B1B78022B03D0184B00226C
:103210001A70B7E70028F9D0154B1870B2E7C0B2A2
:1032200030230093C433FF222821FEF75EFC164BA7
:103230001870144B1878092300934033FF2228217B
:10324000FEF753FC114B1870C1E70D4B1C80C4E70F
:10325000000803485E0F0020F4100020280600201C
:1032600029060020F710002010110020F610002081
:10327000F8100020F51000201D1100203C06002051
:103280002211002000110020410600203F060020EE
:10329000201100203A11002010B5754B1B78002B2F
:1032A0001DD0744B1B781433734A1370724B1B7808
:1032B000822B02D9704B82221A70704BF4221A7042
:1032C0006F4BAB3A1A706F4B19782820FEF735FC1C
:1032D0006D4B18806D4B684A12781A7010BD654BA3
:1032E00018786B4B18706B4B1B78002B0ED16A4A09
:1032F0001288002A0AD1604B32321A70674B1A705A
:10330000674B00221A80674B1A80CFE7002B6FD0E3
:10331000614B1B88644A1288934219D2634B042282
:103320001A70634A1378591C1170042BBED9524B82
:103330001A785A4B1B789A4206D24F4B01321A70B8
:103340005B4B00221A70B1E7544A01331370F7E760
:10335000544909888B4217D29B1A9B00DBB2534A0F
:10336000137053490A78501C087093429ED2424B06
:103370001B784A4A1278934202D23F4A01331370B3
:103380004B4B00221A7091E74A4A1288934216D298
:10339000D31A9B00DBB2454A137045490A78501C8A
:1033A0000870934200D381E7334B1B78282B02D956
:1033B000314A013B13703E4B00221A7076E73B4BBB
:1033C00004221A703A4A1378591C1170042B00D841
:1033D0006CE7294B1B78282B06D9274A013B137031
:1033E0002E4A1378013B1370314B00221A705DE7AF
:1033F0002E4B0A221A702E4A1378591C11700A2B70
:1034000000D853E72C4B1988002925D02A2903D945
:10341000194A1378013B1370214A13885C1C1480ED
:10342000092B15D91D4A13780A3313701A4B1B88C0
:10343000584301F081F880B21A4B18800200143A08
:10344000194B1A8014301B4B1880124B01221A7032
:10345000174B00221A7029E7104B1B78772BF7D8EF
:1034600005490A7801320A700C4A01331370EFE7FC
:1034700032110020361100202606002041060020CF
:103480003F0600203C0600202211002020110020D1
:10349000F2100020E71000201E1100202506002059
:1034A000EE100020EC100020EA100020F0100020A8
:1034B000F1100020E81000200011002010B5BE4BD4
:1034C000C2221A70BD4B793A1A70BD4B00221A8085
:1034D000BC4B1A70BC4B1B78002B1FD0BB4B1B88FE
:1034E000C82B1BD9BA4A1288BA490988914215D902
:1034F000B94A1278002A11D13833DBB2B74A1370B7
:103500005B09B74A13701378DBB2052B02D913009D
:1035100005221A70B34B01221A7002E0B14B00224F
:103520001A70B14B1B78062B02D0B04A01211170E2
:10353000AF4A1278002A1DD1082B3AD89B00AD4A19
:10354000D3589F46FFF7E4FA33E0FFF753FB30E030
:10355000FFF7C8FB2DE0FFF70BFC2AE0FFF798FC14
:1035600027E0FFF71DFD24E0FFF796FE21E0FEF7C0
:10357000A5FB1EE0A04B1A78642353431B09904A15
:103580001380BC2B02D91300BC221A809B4B1B78E2
:10359000002B02D08A4B00221A80994B1B78894A53
:1035A0001370FD2B02D91300FE221A70954B3222A4
:1035B0001A70954B1B78012B0CD0022B13D1FFF7FF
:1035C0009BFDFEF70FFD914B1B78022B12D0032BB6
:1035D00016D01DE0FEF73CFD8D4B1B78002BF0D084
:1035E000FFF78AFDEDE78A4B1B78002BE9D0FFF748
:1035F00083FDE6E7874B28221A70844B253A1A7020
:10360000844B1B78002B00D187E0824A013B13706A
:10361000814B1A88814B1B889A4204D27B4B1B78C2
:10362000042B00D185E07E4AC1239B00D3589BB276
:103630009B087C4A1278002A11D07B49097899426C
:1036400000D37FE079490B7801330B70774B1B78FF
:103650009A4204D8694A137840210B4313705C4B9B
:103660001A889300D2185301714A1360714A116885
:103670005B18136070490A68013A0A60002A07D192
:103680009B096E4A136040220A606A4B00221A604E
:103690006B4B1B78002B12D1584B1B7878221A42A7
:1036A0000DD1684A1278002A09D0674A1278002A98
:1036B00005D0002B4AD0654B1B78002B46D1644BBC
:1036C000C2221A70634BB93A1A70424B00221A8018
:1036D000614B1A705B4B1B78002B00D1C6E0584A37
:1036E0001278002A13D1454A1278782111420ED15E
:1036F000364A1288002A00D0B8E0314A1288002ADF
:1037000000D0B3E0554A1278002A00D0AEE04D4B0D
:1037100000221A7000F0C0FB10BD3C4B04221A704E
:103720004F4B023A1A70354A137801218B431370BC
:103730006EE7324A137820210B431370494B012264
:103740001A7070E7394B002119707FE7464B1B88D0
:10375000BC2B02D9444BBC221A80194B1A88424B0D
:103760001B889A4201D9164A1380164B1B78FF2BEF
:103770001ED0114B1B78172B02D80F4B18221A7032
:103780000E4B1B78082B02D80C4B09221A700A4BDF
:103790001A782F4B1A70094B1A782E4B1A70084B57
:1037A0001A880C4B1A80074B1A782B4B1A7091E72A
:1037B000044BFE221A70DCE7410600203F06002081
:1037C0002211002020110020301100201E110020A5
:1037D0009E1100209C110020F81000202F110020C5
:1037E0009811002097110020381100202706002092
:1037F0005C0F0020F0580010210600204A0600202F
:1038000020060020371100203A110020421100202C
:10381000F6100020401100208E1100202C110020F5
:103820000004034843060020420600202E11002019
:10383000500F0020580F00201C060020540F0020BD
:10384000841100204406002039110020321100208C
:1038500063060020620600209A1100209B110020C0
:10386000411100202A1100203C060020002B00D02E
:1038700052E70D4B1B78002B00D04DE70B4B1B88FC
:103880009F2B00D948E70A4B1B88002B00D143E748
:10389000084B01221A70084B00221A70074B1A704D
:1038A00000F034FB38E7C046841100201E110020D0
:1038B00022110020440600209B11002099110020B5
:1038C000030043434B4343431B0C80225200521AD4
:1038D0005043C0188030000A704770B504000029BA
:1038E0000CD000280BDB80235B00984200DD180021
:1038F000002906DBFFF7E4FF002C0ADB70BD404225
:10390000F1E7494280256D00281AFFF7D9FF281AF0
:10391000F2E74042F2E7000070B57F4B1B78772B4F
:1039200027D97E4B7E4A12881A807E4B00229B5EEE
:10393000192B07DD7C4B00221A807C4B1A807C4BB4
:1039400001321A707B4B1A887B4B1A807A4B1B888A
:10395000724A1288934237D99B1A9800C0184001C6
:10396000764B198800F0E8FD84B2A02C2DD9A02454
:103970002BE0704B188880B2714C21880422FEF72E
:10398000E2F82080644A13780133DBB21370782B9D
:1039900006D0694B1880614B614A12881A80D5E7BE
:1039A000684B1B78002BF4D0674B1B88984207D9D3
:1039B000664B1B88984203D2654B00221A70E8E7D9
:1039C000634B01221A70E4E70024624B1978002946
:1039D0001BD1614B00221A80604B1970604B1A702A
:1039E000604B1A70604B28221A70604B1B88A342F0
:1039F00038D2E31A9BB23B2B61D94F2B61D9632B91
:103A000061D9812B61D910224DE09620000100F090
:103A100093FD80B2544B1B781A00834205D2272BAA
:103A200003D8514A01331370DFE78242DDD9282BD6
:103A3000DBD94D4A013B1370484B1A78002AD4D089
:103A400047490B784A48C65C434D2888801B28802C
:103A50004248013A02700133DBB20B703F2213403F
:103A60000B70C2E71B1B9BB2C5E73D490B78404872
:103A7000C65C394D2888801B28800133DBB20B706F
:103A80003F2003400B7034490B88E3180B80354905
:103A90000B783748C4540133DBB20B703F2003402E
:103AA0000B70013AD2B2002A11D02C4B1B782E4950
:103AB00009788B42D9D0294901330B70E3E7012201
:103AC000F1E70222EFE70422EDE70822EBE7234BC0
:103AD0001978002904D0204B188800F02DFD84B2FD
:103AE000A02C00D9A024214B1C80224B1B78143B16
:103AF0005900C91889002000FFF7EFFE80B21E4B65
:103B000018801E4B18801E4B18801E4B1B78434399
:103B10001D4A138070BDC0464C0F002036060020A1
:103B2000320600201A110020881100208611002082
:103B3000851100208A1100200C1100202C06002085
:103B40003406002003110020300600202E0600203D
:103B5000191100201D110020060F0020080F002061
:103B60000A0F0020090F002018060020040F002073
:103B70000C0F0020141100200A1100200811002051
:103B800006110020450600200411002010B52D4B21
:103B90001A882D4B9A4203D82A4B1B88092B2AD806
:103BA0002A4B00221A80FEF7A7F8FEF7D1F9FEF79C
:103BB000CBF8274B18880001142100F0ADFC254BF1
:103BC0001870254B18880001142100F0B5FC234B18
:103BD0001870FFF7A1FE224B1A78511C19700323AD
:103BE0001340022B2AD00FD8002B12D0012B12D158
:103BF000FEF766FA0FE0134B198889B2194800F0F6
:103C00008BFC124B1880CEE7032B04D1FEF7B8F8DB
:103C100001E0FEF7BDFEFFF751FC134B9978134A04
:103C20001180D978124A11801979124A1180597974
:103C3000114A11809A79114B1A8010BDFEF7A8FE27
:103C4000E9E7C04664060020FFEF00001E110020D7
:103C50009E11002027110020901100202611002025
:103C6000020F002090D0030064110020680F002094
:103C7000660F0020640F0020620F0020600F0020FC
:103C80000AE0244A1370244B01221A7004E0562BD8
:103C900020D9214B00221A70204A8A235B00D35876
:103CA0001B0736D41E4B1B78002B32D11B4A8E23A8
:103CB0005B00D358DBB2184A1278D1B2012AE6D0A1
:103CC00002290FD00029E7D1592BDAD0124B00225C
:103CD0001A70E1E70F4A5370124A13700E4B02221A
:103CE0001A70D9E7104A117802310A484354137800
:103CF0000133DBB2137013780A4A12789A42CBD898
:103D0000094B00221A70044B1A70054B01321A70CD
:103D1000C2E77047940F0020700F00200002004897
:103D2000EC0F0020910F0020920F00207047000040
:103D300010B5454B00E0013B002BFCD1FDF7A6FE82
:103D4000002800D001BEA021C9050B683F480340F0
:103D50008022920013430B603D490B6803401A43D5
:103D60000A60FDF753FA00F0D7F93A4B42221A7075
:103D7000394B00241C7000F0ADF8384B1C70384BE8
:103D800001229A60374B00E0013B002BFCD1364BFF
:103D9000C62292009858354908408021C901014344
:103DA0009950802189041960985831490840802130
:103DB000C903014399508022D2041A60A023DB0575
:103DC0000F22DA602B4A116B80235B000B431363D5
:103DD000244B00E0013B002BFCD1274B5A6801210A
:103DE0000A435A60254A9A60254B1B6F9BB2254AAD
:103DF0001380254A138009E0FFF742FF0DE0214BB5
:103E00001B88D31A9BB221498B4217D81A4B1B4AE5
:103E10009A601F4B1B78002BEED0174B174A9A6005
:103E2000174B1A6F92B2184B1B889342E7D9194966
:103E30000B6801330B60144B1A80E0E7114B1A80BA
:103E4000FFF7A4FEE2E7C046804F1200FFFCFFFF31
:103E5000000004486C110020FE1000205A060020CB
:103E600000000150C0D4010000E100E0FF00FFFFAE
:103E7000FFFF00FF0000014000000240FECAADABA2
:103E8000000204484A110020481100206A1800006E
:103E9000EC0F0020441100200323034A1361034A5E
:103EA0001361034A13617047000100500002005083
:103EB0000003005010B5054A137840210B431370DE
:103EC000034B00221A70FFF7E7FF10BD4A060020DF
:103ED0004406002070B500F048F80A494A6A920882
:103EE00001231340084A13704D6A02242C402343D7
:103EF00013704C6AA400042121400B43137000F09E
:103F000038F870BD000104407311002010B5FFF7B0
:103F1000E1FF0D4B196B802252000A431A631A6BA2
:103F20000A490A401A6309E0074B196B80225200C4
:103F30000A431A631A6B05490A401A63044B9B68CB
:103F4000DB07F1D510BDC04600000140FFFEFFFFBA
:103F500000010050000000000230800803D001384A
:103F6000FDD1C046C046C0467047EFF3108072B620
:103F7000704780F310887047064B1A8980214901E9
:103F80000A431A8148215A5A8020000102435A529A
:103F90007047C0460000054010B50D4A13681B0A63
:103FA000FF210B400B480360126811400A4A116060
:103FB000002B08D01B02C918084800F0ADFA4000D9
:103FC000074B186010BD064B064A1A60FAE7C04658
:103FD00000030140A8110020A4110020000024F4D7
:103FE000FC3F00200048E80110B5FFF7C5FFFDF7D2
:103FF0003FFD10BD70470000F0B5C64600B58B0808
:10400000984604339B001E5803250D40ED00F82709
:10401000AF40BE431E50436F4F000326BE40B34324
:104020004367CB0810339B001F5807260E40B6008D
:104030000424B440A7431F501F585478B4402600AE
:104040003E431E500D4B98420ED00023D356002BFA
:1040500010DB44460434A40021581278AA400A43D5
:10406000225080BCB846F0BD036E01268E40B3439B
:104070000366EAE753688B404360EAE700020440C6
:1040800010B50C000DE0800808490B68084A134081
:1040900002021343074A13430B60044B1B685B0087
:1040A000FBD4A3008342EED310BDC0460003014001
:1040B000FF000FC00000F03F30B50C000EE0012201
:1040C00090000A490B680A4D2B4092021343094A9B
:1040D00013430B60054B1B685B00FBD48300A342BA
:1040E00003D20028EBD00200EAE730BD0003014014
:1040F000FF000FC00000F03F014BC3225A6270471F
:1041000000000140034BC0225A62024B5B6A5B070E
:10411000FBD4704700000140034A938C01210B43FC
:104120009BB293847047C0460010014010B5040054
:10413000FFF7E8FF054B186920431861034B1B6824
:104140005B00FBD4FFF7D8FF10BDC0460003014061
:10415000034B9B6803405A1E9341D8B27047C04638
:104160000003014070B504000D00FFF7CBFF154BB5
:104170001A68120AFF2010401968134A1140294397
:10418000124A0A431A600F4B1B685B00FBD4A04223
:1041900014D82100FFF790FF0A4A13680C490B401E
:1041A00024021C43094B23431360064B1B685B002E
:1041B000FBD4FFF7A1FFFFF7EFFE70BD2100FFF773
:1041C0005FFFE9E70003014000FF0FC00000F03F80
:1041D000FF000FC010B50400FFF794FF074A1368F3
:1041E00007490B40A1680B4361680B431360FFF75D
:1041F00083FF60782178FFF7B5FF10BD0003014011
:10420000FFFFF0FF014B18687047C046FC3F0020DD
:1042100010B5044B984200D010BD0420FFF786FF74
:10422000FAE7C0460000044870B505000C00FFF72F
:10423000EFFF80235B00EB602B68034A1340A4036D
:104240001C432C6070BDC046FF3FFFFF03680A0C93
:1042500093430904090C1943016070470B684361DB
:104260004B799B06DB0F1B0543600B791B071B0F6C
:1042700043624B791B071B0F03624B79DB06DB0F95
:1042800083610B791B09C36270470B6843614B79EB
:10429000DB07DB0A43600B791B071B0F43620B79BB
:1042A0001B09C3627047000010B543680324A34391
:1042B000194341604369012A03D0044A1340436112
:1042C00010BD8022D2001343F9E7C046FFFBFFFF79
:1042D0004368302293430901194341607047F0B5A8
:1042E000C64600B54C1EE4B206686500EDB22F006C
:1042F0001037FFB203239846BB409C463300664606
:10430000B3439C465378BB40664633431531CFB226
:104310000121B9408B439178B94019431935EDB269
:104320004646AE40B143D378AB400B43A100C9B27F
:104330000F248C40A34312788A401343036080BC4F
:10434000B846F0BD1C318900401840687047000035
:1043500030B50B291AD889000D4B5B589F460325B1
:1043600000240DE0C0252D010A2409E0C025AD0080
:10437000082405E00C25022402E0C025AD010C2430
:10438000A8214358AB43A2401A43425030BDC04617
:10439000205B001010B5A023DB05984200D010BDB3
:1043A0000220FFF7C3FEFAE770B505000C00FFF727
:1043B000F1FF80235B00EB602B68034A1340A403EA
:1043C0001C432C6070BDC046FF3FFFFF012303610B
:1043D0000B6843614B7BDB06DB0F1B0543600B7BEC
:1043E0001B071B0F43620B7B1B09C3624B7B1B0725
:1043F0001B0F03624B6883618B68142253408364F4
:10440000704703680A0C93430904090C19430160BF
:104410007047000010B543680324A343194341606B
:104420004369012A03D0044A1340436110BD80222E
:10443000D2001343F9E7C046FFFBFFFFF0B5C646C5
:1044400000B54C1EE4B206686500EDB22F001037CF
:10445000FFB203239846BB409C4633006646B343F5
:104460009C465378BB40664633431531CFB2012199
:10447000B9408B439178B94019431935EDB246469E
:10448000AE40B143D378AB400B43A100C9B20F2477
:104490008C40A34312788A401343036080BCB84623
:1044A000F0BD41637047000030B50B291DD889006D
:1044B0000E4B5B589F460024032510E00A24C025BC
:1044C0002D010CE00824C025AD0008E004243025AF
:1044D00005E002240C2502E00C24C025AD01A82132
:1044E0004358AB43A2401A43425030BD505B0010CA
:1044F0004B6803658B6843650B68C364704710B5F0
:10450000436F490003248C40A3434367436F8A40B1
:104510001343436710BD000010B5EFF3108272B66D
:10452000044B04245C6318625962986A82F3108811
:1045300010BDC0460000034010B5EFF3108272B604
:10454000044B00245C6318625962986A82F31088F5
:1045500010BDC0460000034010B5044B984200D087
:1045600010BD8020FFF7E2FDFAE7C04600000150D1
:1045700070B504000D00FFF7EFFF0323E3602B6825
:10458000236070BD03689B0705D103680A68134365
:104590000360002070470120FCE710B5436F103125
:1045A00001248C40A3438A401A43426710BD000097
:1045B000F8B504000E00170000F052F9357A002D0E
:1045C00000D11035002F07D03379002B26D0316869
:1045D0002A00200000F088F8F379013B5B006D08A9
:1045E00001352D022B43144A1343E3637379013BD6
:1045F0001B068122520013436363B379002B13D04F
:10460000626B013B1B0413436363A023DB00A363C2
:1046100001235B42E36473892364F8BD31682A0097
:10462000200000F00BF8D7E7626B7379013B1B04A5
:1046300013436363E9E7C04601000300F0B5DE46BB
:104640004F4680B583B083460C001500632941D9DD
:10465000002A01D101203EE0FFF7D4FD6421FFF7DD
:104660005BFF814664212000FFF756FF07001C4EC8
:10467000012301938023DB0000931C0000E0013C38
:10468000002C12D03900694348466043FFF744FFCD
:10469000830A8005800D8022D2009342EFD88642A3
:1046A000EDD9060001930094E9E7009F013F8023C4
:1046B0001B023B435A46136153690A4A1340013DAA
:1046C000AD022B43019E013E360433435A465361EB
:1046D000002000E0012003B0C0BCBB46B146F0BDE5
:1046E000FF030000EF8000FCF0B5DE4657464E4663
:1046F0004546E0B583B08046894617000192FFF732
:1047000081FD06004B465F43B8424ADD3900FFF7A2
:1047100013FF0400012506E001352900794330002C
:10472000FFF70AFF0400204B9C42F5D8019F390097
:10473000614369433000FFF7EFFE8346631C9A46EE
:104740003900594369433000FFF7E6FE4B46181A1B
:10475000C317C01858404B465A469B1ADA179B1885
:104760005340984200DBA2468022D2005346D21A20
:104770008023DB0113434246136153690B4A134004
:10478000019F013FBF023B43013D2D042B434246A5
:104790005361002003B0F0BCBB46B246A946A04618
:1047A000F0BD0120F6E7C046FE030000EF8000FCEC
:1047B00070B504AC24784569094E3540002A0DD007
:1047C000102211431B0419430C43059B1B021C437D
:1047D000069B9B021C432C43446170BD0022F0E702
:1047E0002C8000FC70B584256D004459064E344081
:1047F00044514459054E34401B020B4312061343E7
:104800001C43445170BDC046FFFFFFF8C0C0FFF815
:1048100070B586256D004459074E344044514459C3
:10482000064E34401B020B43120613431C438023E5
:104830005B052343435170BDFFFFFFF8C0C0FFEF8E
:1048400010B5064B984200D010BD0820FFF76EFC53
:104850000820FFF77DFC0028FAD1F5E708000048A2
:1048600010B504009023DB0598420CD0084B984209
:1048700009D00323E360E368DB07FCD5236C0F2238
:104880009343236410BD0348FFF7DAFFF1E7C04606
:10489000000200480800004810B54B075B0F8A0172
:1048A000920D12041343F82464000351CB00DB0F74
:1048B0001B070A01920F920613438A00D20F520778
:1048C00013434900C90F8907194302590A4380233A
:1048D0001B061343035110BD10B5034BFF221A6092
:1048E0000120FFF723FC10BD0005014070B5040056
:1048F0000D00FFF7F1FF6B6923606A6880231B02DC
:1049000013438022A350AA68A023E250EA6804332C
:10491000E2502A69DD33FF33E2502A68C93BFF3B8E
:10492000E25070BDF0B5C64600B5002A19D1CA06DE
:10493000D20E90464905490F1F26E022D200944628
:104940000025082728339B001C5862469443B94031
:104950002143B1434246AA400A431A5080BCB8469C
:10496000F0BDCA02D20E90464901490FF8267603DF
:10497000E022D204944610251827E3E770B504001E
:104980000D00496800230022FFF7CCFF696800236F
:1049900001222000FFF7C6FFA968012300222000A2
:1049A000FFF7C0FFA968012301222000FFF7BAFF2B
:1049B0002A698023E250EA683833E25029682000EF
:1049C000FFF76AFF70BD10B5802283580324A3430C
:1049D0001943815010BD10B58A4200D90131C0225F
:1049E00083580324A3431943815010BDC022835828
:1049F00003218B438350704730B50025002300E02E
:104A00000133012B06D8094A9C00A2588242F7D1F3
:104A10001D00F5E78D4200D90131C024035903314F
:104A200001228A401343035130BDC046805B001011
:104A3000F0B5002309E0284A9C00A55884242A598F
:104A4000264E32402A510133DBB2012BF3D90B78C9
:104A50009B0702D10027002212E080273F01FAE7DE
:104A60001D4B9400E658842574591D4B1C400B784F
:104A70001B079B0F1B0223433B4373510132D2B2EE
:104A8000012AEDD94A68174B1343802292008350C4
:104A90008B68012213438122920083500A780323FA
:104AA0001340022B01D0002312E081229200815892
:104AB00080235B020B438350F5E7074A990088582F
:104AC000842144588022D204224342500133DBB275
:104AD000012BF2D9F0BDC046805B0010FFFFFFFB49
:104AE000FFFCFFFF0080800010B58423C258184CE3
:104AF0002240C250C458813B9C430A7813079B0F45
:104B00002343920701D008221343842283504A682A
:104B1000104B13438022520083508B68FF3A13439B
:104B20000432FF3283500A7803231340022B06D04D
:104B30008422815880235B040B43835010BD822262
:104B40005200815880235B020B438350F0E7C0463C
:104B5000FFFFFFFE0080808070B5137B882684599C
:104B600001258D40AC438B40234383510D23D35605
:104B7000002B17DB012908D0002922D1B0240359CA
:104B80001F25AB4303510E0005E0B02403590E4D21
:104B90002B400351803EB02543590D241457B44097
:104BA00023434351C824035955682B430351083408
:104BB000035995682B4303511368803189000B50CA
:104BC00070BD0026E7E7C046FFE0FFFF10B580207C
:104BD0008000FFF7ABFA10BD10B50400FFF7F6FF39
:104BE000A268034B5A6062681A6122685A6110BD5C
:104BF00000000240F7B5DF0FBC460D034C001E035A
:104C0000C90F00916D0A410F760A570F29433743A8
:104C10005D00009E640D6D0DC000D200631B6645F3
:104C200000D02EE1002B00DC7AE0002D3CD13D00CD
:104C300015431ED05D1E012B18D18218824280417F
:104C4000C9194042091810000A0200D402E1BA4A08
:104C50000133934200D18AE2B84C42080C40012152
:104C600001400A43E00710436108F3E0B24EB3424B
:104C700022D14C07CA08B049C00804438B4206D170
:104C80002100114300D175E2802109030A4320006D
:104C9000AB4C1B0512032340120B1343009AD2079F
:104CA0001343190003B0F0BDA34DAC4200D1DDE1C8
:104CB00080252D042F431D00382D2CDC1F2D19DCE1
:104CC00020233E005B1B9E40B44616000193EE403D
:104CD00063461E43019BEF409A4013005A1E9341C6
:104CE00033431B1883428041791840420918180049
:104CF0002300A9E72B003E00203BDE400023202DAF
:104D000003D040335B1B9F403B0013435A1E93412B
:104D100033430027E5E73B0013435A1E9341F8E76E
:104D2000002B50D02B1B002C12D10C0004430CD0B4
:104D30005C1E012B06D1801890429241C919524243
:104D4000891881E77C4EB3420AD13900100090E700
:104D5000794CA54200D104E28024240421431C00A4
:104D6000382C2BDC1F2C18DC20230E001B1B9E4034
:104D7000B44606000193E64063461E43019BE140B2
:104D800098400300581E8341334398189042924143
:104D9000C91952422B00891856E723000E00203B08
:104DA000DE400023202C03D040331B1B99400B0016
:104DB0000343591E8B4133430021E6E70B000343B5
:104DC000591E8B41F8E75F4D631C2B4234D10B0019
:104DD0000343002C14D1002B00D1BDE13B00134351
:104DE00000D11EE1821882428041C919404209184F
:104DF0000B0200D4B1E1514B10001940012338E7F8
:104E0000002B00D1ADE13C004B4B144300D130E707
:104E10004B07C0081843CB08802109030B4206D07A
:104E2000FC080C4203D12300D0087F073843410F10
:104E3000DB001943C00019E13F4CA34200D196E1C9
:104E4000821882428041CF1940423F18F807520829
:104E500010437908420709D00F220240042A05D0E6
:104E6000021D824280414042091810000A0200D40B
:104E7000FFE6314A0133934200D178E12F4A1140D5
:104E8000F7E6002B60DD002D36D13D00154300D143
:104E9000EFE65D1E012B0DD1821A90428041C91BA5
:104EA0004042091A10000A02D4D549021C004D0ADA
:104EB000019008E1204EB34200D1DAE6382D35DC0E
:104EC0001F2D22DC20233E005B1B9E40B4461600B3
:104ED0000193EE4063461E43019BEF409A4013004E
:104EE0005A1E93413343C31A98428041C91B404222
:104EF000091A18002300D6E70F4DAC4200D1B5E0E7
:104F000080252D042F431D00D8E72B003E00203BB9
:104F1000DE400023202D03D040335B1B9F403B002D
:104F200013435A1E934133430027DCE73B001343EE
:104F30005A1E9341F8E7C046FF070000FFFF7FFFBE
:104F40000000F07FFE070000002B54D02B1B002C2C
:104F500015D10C0004430FD05C1E012B09D1101A8F
:104F6000824292416346791A52420093891A012380
:104F700099E7814EB3420AD161460091E5E67E4C45
:104F8000A54200D1EBE08024240421431C00382CEE
:104F90002CDC1F2C19DC20230E001B1B9E400093D1
:104FA00033000600E6401E43009BE14098400300AA
:104FB000581E83413343D01A82429241791A524299
:104FC000891A62462B0000926DE723000E00203BF9
:104FD000DE400023202C03D040331B1B99400B00E4
:104FE0000343591E8B4133430021E4E70B00034385
:104FF000591E8B41F8E7614E651C354250D10E00B9
:105000003D0006431543002C28D1002E0FD1190076
:1050100018000093002D00D12BE6390010006346E4
:10502000009303000B4300D19EE0002312E7002D04
:10503000F7D0851AA842B641CC1B7642A41B2602A3
:1050400006D5101A82429241791A5242891AE6E72D
:10505000280020435CD021002800E2E7002E07D181
:10506000002D7CD1802118000093C903424B00E63B
:10507000414B002D00D1FCE54B07C0081843CB087D
:10508000802109030B4200D1D1E6FC080C4200D07C
:10509000CDE6D00862467F07230038430092C6E67B
:1050A000851A0195A842AD416D422E00CD1BAD1B66
:1050B0002E022AD5131A9A429241019363467F1A0F
:1050C0005242BD1A0093002D25D0280000F0DAFAD4
:1050D0000300083B202201990198D21A9D40D1403B
:1050E000984029439C4233DC1B1B5A1C1F2A1EDCA0
:1050F00020230D009B1A040098409D40D440431E7D
:1051000098412543D14028438BE701982843DAD1C1
:1051100001000090ADE5019800F0B4FA03001833E7
:105120001F2BD7DD0199083881402800DAE70C00F1
:105130001F3BDC400023202A03D040339B1A9940B8
:105140000B0003435A1E934120000021184368E7D7
:105150000B4AE31A11407DE63900100061E763460F
:1051600000933900100081E71900180081E5002143
:1051700008007EE50A008AE5FF070000FE07000040
:10518000FFFF7FFFF0B58BB0009201930D034B0042
:10519000CA0F06002D0B5B0D039200D111E1CE4A20
:1051A000934200D135E1ED00420F2A4380252D04C2
:1051B0001543CA4AC4009B181F0000230293019B99
:1051C00000981E035A00DB0F360B520D049300D1DA
:1051D0002EE1C14B9A4200D150E1430FF600334318
:1051E0008026BE4936041E43C30050180022C11950
:1051F0000691013100910299880010430A2800DDD0
:1052000076E10399049F79400391022800DD44E18F
:105210000138012800D853E1190C9BB20291190002
:10522000220CA4B2514320008C46029F029958439D
:105230005143674305916744010CC91904908C459B
:1052400005D9802040028446059F67440597080CD5
:1052500084466846008A090409180991310CB6B2DF
:10526000049130003100049F614350437C437A43F2
:1052700024180F0C3C19A04202D9802040021218B9
:10528000200C8218240489B20792621808920899A7
:1052900062468C46290CADB22800029F58436F43EA
:1052A0004B4362449446029CFF18020CD2194C43B3
:1052B000934202D980235B02E418130C1B1902935A
:1052C0002B0080B2120412180498734345434E43D6
:1052D0004143A8191D0C2D18AE4202D9802040026E
:1052E0000918059F089867448742B641BF1897423E
:1052F000924128049BB2C018079B7642C0185342C3
:105300000493029B84199C46A4446346049AB442C5
:10531000A4419B18079A644290428041029A4042FD
:10532000044394458041049A2D0C9342924140429B
:10533000524210436419099A2418641879021143DF
:105340004A1E9141FF0DDE0D640239435B02264384
:105350000B43E40100D4DEE001215A080B401A435C
:10536000F307CE401343009A5D495218002A00DC2F
:10537000D4E0590709D00F211940042905D0191D7F
:1053800099429B415B42F6180B00F10106D5802142
:10539000C9008C46534A1640009A624452498A42D8
:1053A00000DD07E17407DB081C43F608130536032C
:1053B000039A360B3343D2071343200019000BB076
:1053C000F0BD2C0004432BD0002D16D0280000F097
:1053D00059F9040002000B3C1D2330001B1B110077
:1053E000D84008398D4003002B4335008D403F499C
:1053F0002C008A1A17001D00DFE600F043F90400B4
:105400000200153420321C2CE6DD330008388340BE
:10541000EDE704002C4307D11F0025000223CDE651
:10542000250027000123C9E61F0004000323C5E669
:10543000009B334329D0002E14D0300000F022F915
:10544000010003000B391D221800521A0099083878
:105450008640D1403143009E86402448C01A330024
:105460000E00C3E600F00EF90100030015312033F1
:105470001C29E8DD009908388140EEE7009B3343A2
:1054800007D110001E000222B1E61E001800012202
:10549000ADE6030010000322A9E601218140A62009
:1054A0000F00C0000740014226D190208000014239
:1054B00076D1B938FF38014200D1ADE604990391A5
:1054C000022A77D0032A72D0012A00D04BE70026A7
:1054D000340032006AE7C046FF07000001FCFFFF0E
:1054E000FF030000FFFFFFFEFE0700000DFCFFFFB3
:1054F0000F2805D00B28E1D02E002300029ADFE709
:1055000080221203154201D016424ED08026360367
:105510002E432C4A4AE7069A009224E70120801A7B
:105520003828D4DC1F2827DC2749009A8C461C0029
:105530006244310093409140C4401A002143531EFD
:105540009A410B00C64013435A0709D00F221A4054
:10555000042A05D01A1D9A429B415B42F61813009B
:1055600080213000090408400E4226D17407DB0870
:1055700002001C43F60819E71F2149428A1A31002C
:10558000D1400022202805D01048009A8446624469
:105590009640320013435A1E934100260B43D3E733
:1055A00080253C0003972D03B0E7049A0392350051
:1055B0001C00ABE700263400ABE7002601223400D4
:1055C000F4E6C046FF0700001E0400003E04000091
:1055D0000B0070B5114E0C0349000200240B002093
:1055E000490DDD0FB14204DD0D48814202DD0D4B56
:1055F000E81870BD8020400320430B4C641A1F2C18
:1056000008DC0A4EE240891988401043002DF0D092
:105610004042EEE7064B5B1AD840F7E7FE03000076
:105620001D040000FFFFFF7F33040000EDFBFFFFC0
:105630001304000070B5030004000200051E11D021
:10564000C21785185540C40F280000F01BF80C4BFA
:105650001B1A0A280FDC0B222900121AD140153020
:105660000A0085401203120B1B051343E407234372
:105670002800190070BD2A000B3882400025F1E790
:105680001E0400001C2101231B04984201D3000CBE
:1056900010391B0A984201D3000A08391B099842A5
:1056A00001D30009043902A2105C40187047C046BB
:1056B00004030202010101010000000000000000DB
:1056C00070B500260C4C0D4D641BA410A64209D1E8
:1056D0000026FEF78FFC0A4C0A4D641BA410A6425C
:1056E00005D170BDB300EB5898470136EEE7B30023
:1056F000EB5898470136F2E768060020680600205C
:105700006806002068060020F40100000000000088
:1057100000010000004B000000080801100000001C
:1057200010000000000000700000000000000000F9
:105730000701000001000040000000000000000020
:10574000F000000000000000000000000701000061
:105750000D00000078780000000000000500000047
:105760000000000002000000F00000000000000047
:1057700000000000070100000D0000007878000024
:105780000000000005000000000000000200000012
:10579000F000000000000000000000000701000011
:1057A0000D000000787800000000000005000000F7
:1057B0000000000002000000F000000000000000F7
:1057C000000000000000000000000000F0100000D9
:1057D00000000000000100000D01000000100000AA
:1057E000F8000000000000000001000004010000BB
:1057F00006000000F00000000000000000000000B3
:105800000000000000000000800000000000010017
:105810000000000000000000000000000000000088
:105820000000000000000000000000000000000078
:1058300000000000000000008000000000000100E7
:1058400090000000000001000800000000000000BF
:105850000800000000000000080000000000000038
:10586000A800000000000100A800000000000100E6
:105870001000000000000000B8000000000001005F
:105880001000000000000000080000000000000000
:10589000B800000000000100B80000000000010096
:1058A000A80000000000010010000000000000003F
:1058B0001000000000000000A8000000000001002F
:1058C0000001000000000100000000003E21001067
:1058D000482100106021001080210010B02100102C
:1058E000DE210010FC2100101822001044220010BC
:1058F000B2350010443500104A3500105035001004
:10590000563500105C350010623500106835001007
:105910006E350010010300021E06280632063B0603
:1059200044064C0654065B06620668066E0673065D
:1059300078067D068106840687068A068C068D0613
:105940008E068E068E068E068D068B0689068606C8
:10595000830680067B06770672066C06660660067E
:10596000590651064906410638062F062506140633
:10597000F405D505B50594057405530531050F05E6
:10598000ED04CB04A9048604630440041D04FA0357
:10599000D603B3038F036C03480324030103DD0222
:1059A000BA029602730250022D020A02E701C501F3
:1059B000A30181015F013D011C01FC00DB00BB0074
:1059C0009C007C006B00610058004F0047003F00C6
:1059D000370030002A0024001E00190015001000B6
:1059E0000D000A000700050003000200020002008B
:1059F000020003000400060009000C000F00130061
:105A000018001D00220028002E0035003C00440034
:105A10004C0055005E006800720068005E00550092
:105A20004C0044003C0035002E00280022001D00E0
:105A3000180013000F000C0009000600040003000A
:105A400002000200020002000300050007000A0035
:105A50000D001000150019001E0024002A0030005F
:105A600037003F0047004F00580061006B007C008A
:105A70009C00BB00DB00FC001C013D015F018101BB
:105A8000A301C501E7010A022D025002730296022A
:105A9000BA02DD020103240348036C038F03B3033E
:105AA000D603FA031D04400463048604A904CB044E
:105AB000ED040F053105530574059405B505D505AD
:105AC000F405140625062F06380641064906510638
:105AD0005906600666066C06720677067B06800627
:105AE0008306860689068B068D068E068E068E0632
:105AF0008E068D068C068A068706840681067D063C
:105B0000780673066E06680662065B0654064C0647
:105B100044063B063206280603030602050104017B
:105B20005E4300105E430010744300107443001085
:105B30008C4300108C4300108C4300108C430010E9
:105B40006C430010644300107A4300107A43001045
:105B5000B6440010B6440010D2440010D2440010E5
:105B6000CC440010CC440010EA440010EA44001079
:105B7000C4440010BC440010D8440010D8440010A5
:085B800000040348000803487B
:105B88002C488746000000000000000000000000CC
:105B980000000000000000000000000000000000FD
:105BA800254887460000000000000000234887467B
:105BB80023488746234887462348874623488746FD
:105BC80023488746234887462348874623488746ED
:105BD8002348874600000000224887462248874617
:105BE80022488746224887462248874622488746D1
:105BF80022488746224887462248874622488746C1
:105C080022488746224887462248874622488746B0
:105C180022488746224887462248874622488746A0
:105C280022488746224887460000000000000000FE
:105C380020488746A3100010A3100010A3100010DE
:105C4800A3100010A3100010A3100010A310001040
:105C5800A3100010A3100010A3100010A310001030
:105C6800A3100010A3100010A3100010A310001020
:105C7800A3100010A3100010A3100010A310001010
:105C8800A3100010B53E0010A3100010A3100010C0
:105C9800A3100010A3100010A3100010A3100010F0
:105CA800A3100010690600203D090020A310001071
:085CB800A3100010A31000105E
:105CC00000000100000000000000000000010000D2
:105CD00000000000000000000000000000030000C1
:105CE00000040100000000000000000000040000AB
:105CF000000400000000000000000000000300009D
:105D000021000000A00000000D000000004F040072
:105D10000400000040020600000000000100000036
:105D200000FF00000000070000000000000000006D
:105D300000FF00000000070000000000000000005D
:105D400000FF000000000000000F04003000000011
:105D50000000000001000100000000000000000041
:105D60000000000000000000010001000000000031
:105D70000000000000000000000000000000000023
:105D8000000000000000000000000000080000000B
:105D900028000000400000009602A5A50128280167
:105DA000B02F0100A000AA006E00AA00AA00AA005D
:105DB000AE103901BC004949C2C2EE0201431900CC
:105DC0000208010E00186B42C3EB98004803480319
:105DD000480307050400AE10580149C2FFFF000048
:105DE000F8B59148046FA4B2012100F029FC85B2F6
:105DF0008E4A80235B00D2585211F93B13408C4EDF
:105E000033708C4A1370641BA4B28B4AC1239B006D
:105E1000D0580004400B894B186000F009FC0700C3
:105E2000874B18603678874B1B789E4200D1C4E0C0
:105E3000854AD35C9E4200D19BE0844A00231370C4
:105E4000834A1370834A1360834A13880133138093
:105E50007C4B1E70814B9A5D814B1A70FF235B0156
:105E60009F4203D9764BFF2252011A60744B1B6884
:105E70005B099BB27B4A13807B4B00221A70734BE9
:105E80001B78002B0FD0794B1B781B19784A12789E
:105E9000D218704B1B68534380221202944663440D
:105EA0001B0C714A1370704A6D4B12781B78D21814
:105EB000D2B2704B1B78D218D2B26F4B1A706F4BA4
:105EC0001B789B18DBB21A00553AD2B26C495200CB
:105ED000525A6C490A80D22189008A4200D87EE059
:105EE00069498C466244694909784A431212D221B1
:105EF00089008C46624492B265490A80604A590022
:105F00008A5A60490A80D22189008A4200D872E008
:105F10005D498C4662445D4909784A431212D22198
:105F200089008C46624492B25A490A805533DBB2EA
:105F3000534A5B009B5A534A1380D22292009342E9
:105F400065D9514A94466344504A127853431B1210
:105F5000D2229200944663449BB24F4A13804F4A28
:105F6000C6239B00D3589B109B059B0D4C4A138066
:105F7000F8BD012E06D0032E00D069E7494B01225F
:105F80001A7065E7324B1B78002B10D0464B1B88EC
:105F9000EB1A9BB2454A1380118889B280204004D5
:105FA00000F056FB2B4B1860284B80221A70284BB0
:105FB00001221A703C4B1D804AE73D4B9C4200D8A1
:105FC0004CE7224A002313702C4A1370204A1370A6
:105FD000204A1360354B012252421A803EE7D221FB
:105FE00089008A1A2948007842431212891A89B214
:105FF000274A118082E7D22189008A1A2348007833
:1060000042431212891A89B2224A11808EE7D222A3
:106010009200D31A1D4909784B431B12D21A92B22F
:106020001D4B1A809BE7C046000204480000015047
:106030007311002072110020000403485811002041
:10604000541100205A060020185B0010A2110020F5
:10605000A3110020601100205C1100204C060020DC
:10606000A11100209E110020A011002099110020F4
:106070004B0600206C1100205E11002093110020BF
:10608000185900106E110020B8FCFFFF9B11002072
:106090005806002056060020540600200008034839
:1060A0008E11002094110020701100206406002041
:1060B0008D20000010B5CA4B1B889BB2C94AD36320
:1060C000C94B1B889BB2C94AD363C94B1B889BB27F
:1060D000C84AD363A023DB051222FF321A61C64BE4
:1060E0001B78002B2DD0C44B1B78DBB20A2B22D996
:1060F000C24B18880002C04B1978C9B200F0A8FA48
:1061000080B2BF4B1880BF4B1B78002B1ED0BB4BFF
:106110001B88BD4A1278534380331B12DBB2B94A45
:1061200013701D2B02D913001D221A70B54B1A785B
:10613000B64B1A700AE0B14B1B889BB2B04A138071
:10614000E1E7AF4B00221A80B04B1A70AD4B002232
:106150001A70AF4B5B6A5B05DB0F01225340DBB269
:10616000AC4A1370AC4AC1239B00D3589BB29B0826
:10617000DBB2AA4A12789A4206D29F4A117889085D
:1061800013785B1ADBB21370A54B1B789A4A12780E
:106190009A4216D8A34B1B88984A12889A4210D864
:1061A000974B1B88A04A12889A420AD39F4B1B88A0
:1061B0009F4A12889A4204D8964B1B78002B00D134
:1061C000D5E09C4B00221A709B4A13780133DBB256
:1061D00013709A4A12789A420CD2974B00221A7086
:1061E000974B1B78002B00D1B6E0954A1378013B02
:1061F000DBB21370864B5A6A120901231340914A8D
:106200001288002A00D171E18E4A1288D2088E4984
:106210000A808E4A1278002A05D08D4909888A485A
:10622000008888420DD28B490978994209D0894962
:106230000B70002B05D0002A00D05BE1834B0132AC
:106240001A70824B1B78002B08D0814B1B88824A26
:10625000934200D964E17E4A013313806E4AC7231A
:106260009B00D3589B109B059B0D7C4A1380118883
:106270007B4A13885B00C91813885B189B109BB27C
:1062800012889A4200D153E1754A138060494B6AE3
:106290005B0901221340496A490B0A40520013432B
:1062A000704A12789A4212D06F49C95C8A4200D172
:1062B0004DE16E4A002111806D4A053111706D4A21
:1062C0007B3111706C4A00211180664A13706A4A52
:1062D000138801339BB21380684A1288934200D816
:1062E00062E1624B00221A80634B1A80604B0532D8
:1062F0001A70604B7B321A70614B00221A70614B2E
:106300001B78002B09D05F4A002313705E4A13806C
:106310005E4A13805A4B00221A70544B1B88002B84
:1063200000D14BE1584B1B884D4A12889A4204D940
:106330004B4B1B889BB2544A1380514B1B78132B39
:1063400000D842E14E4B002119704F4A13889BB28E
:106350004E480380118038E1274B1B78002B00D179
:1063600048E7254A1378013BDBB2137042E72C4B18
:106370001B78214A12789A4200D38BE0294B1B8864
:106380001E4A12889A4200D384E02B4B00221A70D6
:10639000284A13780133DBB213703D4A12789A42CF
:1063A00000D327E7234B00221A70134B1B78DBB274
:1063B0001D2B03D8104B1E321A701BE70E4B1B7897
:1063C000DBB2FD2B00D915E70B4B1B78DBB2FD2BA5
:1063D00000D90FE7084A13780133DBB2137009E7DD
:1063E0005806002000010050560600200002005010
:1063F00054060020000300509B1100209E11002035
:10640000901100209411002092110020931100207F
:1064100000000440841100200004034842060020CC
:106420009A1100209C1100203A0600208E110020B5
:1064300060060020961100209511002062060020C1
:10644000991100207A1100207811002050110020AD
:106450004E1100204C110020F99B00008C110020EF
:106460008A1100205C0600201459001082110020BF
:106470005B060020511100207E1100205E060020E6
:106480007C11002085110020881100208611002039
:10649000630600204D4B1B78002B04D04C4B1B781F
:1064A000DBB2FE2B05D04B4B00221A704A4B1A7000
:1064B000A0E6494B00221A70464A13780133DBB23A
:1064C0001370464A12789A4200D393E6414B002259
:1064D0001A70434B1B78434A12789A4200D889E6D7
:1064E0003F4A13780133DBB2137083E63E4A3F49DB
:1064F00011808EE63E4B1B88A32B07D83D4B002214
:106500001A803B4B1A803C4B1A709AE6394A13802A
:10651000374B00221A80394A13680133136090E622
:10652000344B00221A80324B1A80334B1A7095E696
:10653000334A12889A4202D901339BB2A4E6304A08
:1065400012889A4200D39FE6013B9BB29CE62D4AFB
:1065500012882D490A802D49097899420AD00529C7
:106560001AD02B4A1288002A00D0ABE6284A2949C3
:106570001180A7E628490120087028490C88244882
:106580000480002008802049AC32FF320A80244970
:106590000A7801320A7095E61C4A13701F4A0021DE
:1065A00011801F4A11708DE6184B1B78052B00D106
:1065B000A5E61A4A138801331380A0E6184A00237F
:1065C0001370184A1380184A138010BD97110020C9
:1065D0009B110020961100209511002063060020D9
:1065E0009911002098110020781100207F130000DD
:1065F0004E1100207A11002050110020741100204B
:106600008C110020380600205E0600205B0600206A
:1066100082110020C21D00005111002080110020B5
:106620007C1100208611002088110020000000004D
:1066300001B40248844601BC604700BF2D3D0010F4
:1066400001B40248844601BC604700BF45430010C6
:1066500001B40248844601BC604700BF19450010E0
:0400000510001019BE
:00000001FF
