:020000041000EA
:10100000480500201910001000000000A310001077
:1010100000040100000100001249134A134B00F0C4
:101020001AF8134880471349134A144B00F013F879
:101030001349144A144B00F00EF81449144A0020C6
:10104000521A02DD043A8850FCDC124880471248EC
:101050008047124880479B1A03DD043BC858D05094
:10106000FBDC7047D85A00100C000020440100201F
:10107000393F0010105C0010480500206806002071
:10108000305D001068060020200F0020200F002097
:10109000F0110020A110001011560010813C00102A
:1010A0007047FEE710B582B06B46354ADA80354BA3
:1010B000354A1A60354B0121C022520099508020D8
:1010C0001A58334C22401A508022120231480260D2
:1010D00031480260812292009950304A8423802155
:1010E000C904D1501DE029498122920088588023EB
:1010F0009B0003438B50294AFC235B00D358002BF1
:10110000F9D0C0239B00D358009380231B02214AAF
:101110001360214A13606B469A1DDB88013B9BB22A
:1011200013806B4606331B88002BDCD1009B002309
:10113000009305E080231B02164A1360164A1360D1
:10114000174B1A6C80235B059A42F3D20F4B802118
:101150005858C022920202435A5000228531FF3172
:101160005A5084395A500D4B9532FF328039FF392D
:10117000995083315A580B4802405A5002B010BD62
:1011800050460000BC4003480004103F00000348E4
:10119000FFFFFC7FE0400348E440034800040348AD
:1011A00000400348FFFFFFFB00B583B00023124A55
:1011B0001360124A13600321114803F0ACFB11497C
:1011C00080228858104B03438B501423019308E06E
:1011D000019B013B019380231B02074A1360074ACE
:1011E0001360019B002BF3D1FFF75CFF0021044843
:1011F00003F091FB03B000BDE0400348E440034826
:10120000000403480000034800000180F8B552497B
:10121000524D280003F012FB5149524E300003F0AA
:1012200055FB5149514C200003F050FB0321300085
:1012300003F071FB0321200003F06DFBFFF7B4FF07
:101240004B49280003F09CFB4A49200003F0F4FBC3
:1012500082225200A1588023DB000B43A350434A53
:1012600084235B00D3589B06F9D5140082235B00CE
:10127000D25803208243E250E25801210A43E2504F
:10128000384DEA588243EA50EA580A43EA503A4B4A
:101290001A6888235B00E250384A1268E250384AE4
:1012A0000021200003F000FC364A0121200003F059
:1012B000FBFB354A0021280003F0F6FB334A0121ED
:1012C000280003F0F1FB0021280003F024FB00219B
:1012D000200003F020FB00220121280003F023FB63
:1012E0000021280003F030FB200003F027FB03213E
:1012F000200003F010FB0321280003F00CFBB023B7
:10130000234AE2500422FF32EA50224A06212000FA
:1013100003F0CAFB114EC2277F00F359402213434A
:10132000F3511D4A0721200003F0BEFBF35980242E
:101330002343F351194A0721280003F0B5FBC022CB
:101340005200B3582343B3508432B15880239B00DA
:101350000B43B350F8BDC046000600200000034810
:10136000EC05002000040348D805002000080348CD
:10137000CC050020900500208C0500208805002069
:101380007805002068050020580500204805002049
:10139000030400009C050020BC050020AC050020D3
:1013A00010B500F007F800F02BFA10BD10B5FFF7EC
:1013B000F7FF10BDF0B5DE4657464E464546E0B550
:1013C00085B0DE4E0021300002F0D6FE80235B00A7
:1013D0009846F360DA49DB4F380002F0E7FE02235B
:1013E0009A46FB6304247C638021C904300002F028
:1013F000D5FE07233361D44A0121380002F017FFDC
:10140000D24A0221380002F012FFD14A03213800EB
:1014100002F00DFF01220121380002F0EDFE012251
:101420000221380002F03CFFA4257B5923437B5165
:1014300001218B46F16000243C67F960C549C64F25
:10144000380002F0CAFEC54B7B63802109053000DD
:1014500002F0A4FE70213161C14A6F39380002F0F8
:10146000E6FEC04A0221380002F0E1FEBE4A032136
:10147000380002F0DCFE0121380002F0D1FE5046B7
:10148000F0603C675846F860B849B94F380002F040
:101490008DFEA023FB63B74B7B6380218905300061
:1014A00002F07CFEE020C0013061B34A0121380027
:1014B00002F0BDFEB14A0221380002F0B8FEB04A87
:1014C0000321380002F0B3FE0822F2603C675E465A
:1014D000FE60A026F6050021300002F00DFF474611
:1014E000F760A849A84F380002F018FFD2239B00EC
:1014F0009846FB637C64D223DB00994619003800D0
:1015000002F077FF8021C904300002F022FF072398
:1015100033619E4A0121380002F038FF9C4A0221C3
:10152000380002F033FF9B4A0321380002F02EFFFF
:1015300001220121380002F015FF9749380002F01E
:101540007FFF3C679549964F380002F0E7FE43461F
:10155000FB637C644946380002F04BFF802109059B
:10156000300002F0F6FE702131618E4A6F3938008A
:1015700002F00CFF8C4A0221380002F007FF8B4A70
:101580000321380002F002FF01220121380002F09D
:10159000E9FE8749380002F053FF3C678549864FD2
:1015A000380002F0BBFE4146F9637C6449463800CE
:1015B00002F01FFF80214905300002F0CAFEE0233F
:1015C000DB0033617D4A0121380002F0DFFE7C4AF6
:1015D0000221380002F0DAFE7A4A0321380002F0D4
:1015E000D5FE01220121380002F0BCFE7649380008
:1015F00002F026FF3C677549754F380002F08EFEF9
:101600004146F96379644946380002F0F2FE8021D0
:101610008905300002F09DFEE020C00130616D4A76
:101620000121380002F0B2FE6B4A0221380002F0BC
:10163000ADFE6A4A0321380002F0A8FE0122012112
:10164000380002F08FFE03220021380002F0D4FEA1
:1016500002220121380002F0CFFE002204213800CE
:1016600002F0CAFE01220321380002F0C5FE7B59B8
:10167000584603437B517B59504603437B517B596A
:10168000102213437B517B5908210B437B513C674C
:10169000534D280002F008FF2B680326B3432B604C
:1016A0005049280002F00CFF4F49280002F012FFB9
:1016B00000220221280002F018FF6B6F042213435E
:1016C0006B674A494A4D0022280002F019FFEB6976
:1016D00050229343EB61EB69493A93433343EB6107
:1016E000EA6B444B1A4080231B011343EB63424BCC
:1016F0002B610C360296019400943A2300220021BB
:10170000280002F0FDFF1F2305220021280003F01E
:1017100027F81F2305222021280003F00BF82B6C4B
:10172000B343524613432B64344803F0FDF905B02C
:10173000F0BCBB46B246A946A046F0BD0000044836
:1017400040570010000104483C5700103857001063
:10175000345700102C57001000020448FFFF00000F
:101760002857001024570010205700101857001059
:1017700000040448FF040000145700101057001024
:101780000C570010FC56001000010050EC560010E1
:10179000E8560010E4560010F0560010D456001021
:1017A00000020050C4560010C0560010BC56001075
:1017B000C8560010AC560010000300509C56001094
:1017C0009856001094560010A05600108456001031
:1017D00000040050805600107C560010785600100F
:1017E000000001507456001070560010645600102E
:1017F00000020048FFE0FFFF43820000585600103F
:1018000010B57F4A7F4C0021200002F09DFB002292
:101810000021200002F01BFE7B4A0A21200002F07A
:1018200093FB00220A21200002F011FE774A0D21CD
:10183000200002F089FB00220D21200002F007FEAB
:10184000734A0121200002F07FFB002201212000C9
:1018500002F0FDFD6F4A0221200002F075FB00221C
:101860000221200002F0F3FD6B4A0321200002F068
:101870006BFB00220321200002F0E9FD674A0421EE
:10188000200002F061FB00220421200002F0DFFDB5
:10189000634A0521200002F057FB002205212000A9
:1018A00002F0D5FD5F4A0621200002F04DFB002228
:1018B0000621200002F0CBFD5B4A0721200002F048
:1018C00043FB00220721200002F0C1FD574A0821F6
:1018D000200002F039FB00220821200002F0B7FDB1
:1018E000534A0921200002F02FFB00220921200089
:1018F00002F0ADFD4F4A504C0021200002F024FBC5
:1019000000220021200002F0A2FD4C4A012120000B
:1019100002F01AFB00220121200002F098FD484A43
:101920000221200002F010FB00220221200002F020
:101930008EFD444A0321200002F006FB0022032111
:10194000200002F084FD404A0521200002F0FCFA4C
:1019500000220521200002F07AFD3C4A3C4C0A217D
:10196000200002F0F1FA00220A21200002F06FFDAF
:10197000384A0B21200002F0E7FA00220B21200058
:1019800002F065FD344A0221200002F0DDFA002257
:101990000221200002F05BFD304A0421200002F009
:1019A000D3FA00220421200002F051FD2C4A052127
:1019B000200002F0C9FA00220521200002F047FDB4
:1019C000284A0621200002F0BFFA0022062120004A
:1019D00002F03DFD244A0821200002F0B5FA002261
:1019E0000821200002F033FD204A0921200002F0E6
:1019F000ABFA00220921200002F029FD10BDC046EB
:101A0000085800100000044000580010F85700105B
:101A1000F0570010E8570010E0570010D85700109A
:101A2000D0570010C8570010C0570010B85700100A
:101A3000B0570010A857001000010440A057001034
:101A400098570010905700108857001080570010CA
:101A500000020440785700107057001068570010BB
:101A6000605700105857001050570010485700108A
:101A700030B585B001A8044B020032CB32C202F06F
:101A800051FB05B030BDC0461058001010B5FFF72F
:101A90008DFC002010BD70B505000E001C0004ABCD
:101AA00018888D421FD395421ED2521A91B2A0427D
:101AB0000CD2AE1BB6B2201A80B270434B08C018CD
:101AC00002F0D2FC80B2201A80B20DE0AD1BADB2A4
:101AD000001B80B268434B08C01802F0C5FC80B2FE
:101AE000001980B200E0200070BD70B51D0004AB8D
:101AF0001B7888421DD990421DD2AB420CD2441AA9
:101B0000E4B2E81AC0B26043511AC9B202F0BCFC98
:101B1000C0B2281AC0B20DE0441AE4B2581BC0B2D9
:101B20006043511AC9B202F0AFFCC0B24019C0B252
:101B300000E0280070BD1800FCE7030008008B429D
:101B400000D21800704770B505000C000A2A15D89D
:101B50000A20801A68434A43801805300A2102F09F
:101B600083FC80B284420AD1854202D9013080B21E
:101B700005E0854203D2013880B200E0002070BD4C
:101B80000B8858400880082202E05B080B80013A6D
:101B9000002A07D00B88D807F7D55B0802484340D6
:101BA0000B80F4E77047C04601A0FFFF002803D078
:101BB000044B20225A607047024B802292035A60E5
:101BC000F9E7C0460001044070B5164B1B78002BA6
:101BD00009D0012B0AD1144B1B88002B19D1134BB0
:101BE00001221A7002E0114B01221A700F4B1B7870
:101BF000002B0DD00E4D2C880E4B0F4A1278520040
:101C0000D05A6043642102F02FFC80B224182C804B
:101C100070BD094B1B782D2BE8D9044B00221A709C
:101C2000E4E7C0461D110020381100201C110020DF
:101C3000421100202C1000205511002010B5194B26
:101C40001B78002B0BD1184B1B88002B07D1174B8F
:101C500001221A70164B174A12781A701DE0134BA6
:101C60001B78002B19D0124B1B78002B16D0104A72
:101C7000013B13700E4B1B78642058430D4B1978B1
:101C800002F002FC83B26420C01A80B20A4C23889E
:101C90005843642102F0F8FB208010BD034B002262
:101CA0001A70E7E755110020561100202810002077
:101CB000271000202306002042110020084B1A782C
:101CC000FD2A00D9FD22074B18211970064B0F3948
:101CD0001970064B064909881980064B1A7070471F
:101CE0006F110020410600203F0600205A110020FD
:101CF0003C0600205811002010B50F4B1B88002B0C
:101D000015D00D4B198889B20C4B1B88AB20800075
:101D1000584302F0A9FB0A4B18800A4B1B78002B92
:101D200004D0074A99005B185B00138010BD044B78
:101D300000221A80F1E7C046BA11002046060020B2
:101D4000381100203611002009490A889308D21A58
:101D500092B20A80074B1B889B189BB20B809B0892
:101D6000054A1380054A57214B4313807047C046EC
:101D7000380F0020CE1100205C11002060110020DF
:101D800010B55A4B1B885A4A12889A423ED9594B71
:101D900001221A70584B1A78531EDBB2012B39D925
:101DA000052A37D0042A35D0544B00211970534BE3
:101DB0001978002915D0524B1B880A3B9BB2912001
:101DC0004000834208D84F4B18884F4B984203D8A5
:101DD0004E4B1B78002B04D04D480378022423433C
:101DE00003704C4B1B88642B1CD94B4B1B78002B6E
:101DF00018D1002916D0494B1B78013BDBB2812B4F
:101E000010D947490B7801330B700EE0394B002293
:101E10001A70BFE7434B1B78002BC5D1374B01210C
:101E20001970C4E73E4B002119703D4B1B78FA2B0B
:101E300004D937490B78042003430B703A4B1B78C5
:101E4000002B20D1394B1B885A2B08D9072A06D0E2
:101E5000062A04D0364A13880133138002E0344B3B
:101E600000221A80334B1B88002B02D0304B0022FB
:101E70001A802F4B1B887D2B05D9254A117880238A
:101E80005B420B4313702C4B1B780F2B10D9274B45
:101E90001B88092B0CD8294A13780133DBB2137045
:101EA0000A2B08D91A4A137808210B43137002E051
:101EB000224B00221A70224B1B78002B03D0214B9F
:101EC0001B78022B00D010BD1F4B1B78132BFAD8A8
:101ED0001D4A013313701D4B1B88D32BF3D90C4AB9
:101EE000137810210B431370EDE7C046CE1100208C
:101EF000600600207411002070110020330F0020B4
:101F000036060020441100208A02000051110020F2
:101F1000480600203E110020261000205511002008
:101F2000320F002030110020940F002056110020A5
:101F3000300F0020381100205F1100202F0F0020EB
:101F40002C110020721100202E0F0020960F00206F
:101F500010B582B01B4B1C88A4B2C8221A4B18883B
:101F60005623FF330093194B52002821FFF793FDAE
:101F7000174B1880002C0BD02100164802F074FA81
:101F8000C0B2154B1870782805D978221A7002E073
:101F9000114B00221A70114B00221A800E4B1C7834
:101FA000002C0AD00E4B1878001B002805DD00021B
:101FB000210002F069FA094B1880094B1C7002B02D
:101FC00010BDC046C211002038110020AE10000024
:101FD0003806002035DF0000551100205211002086
:101FE0005411002030B583B0134B1888134C21884E
:101FF0000822FFF7A8FD0300208011485843C00ABB
:1020000080B2104B1880104B1978104B1A789142FF
:1020100004D30F4B00221A8003B030BD0C4C238830
:102020009500521952008D0049194900002500956C
:10203000FFF731FD2080EFE7960F0020200F0020F2
:10204000102700003411002031110020321100202F
:102050005A11002010B56D4A13780133DBB21370AA
:102060006B490A780132D2B20A706A4909780029AC
:102070001AD0032B18D9654B00211970654B1970C4
:10208000654B1B78002B19D0012A17D9604B002211
:102090001A70614B1A70614B1A78082A00D9B0E0A7
:1020A00093005F4AD3589F460029E9D1022BE7D914
:1020B000564B1970574B01311970E1E7002BEAD1EB
:1020C000012AE8D9524B00221A70534B01321A7080
:1020D000E1E7544B1878FFF769FD10BD514B1878B4
:1020E000002804D04B4B1878FFF760FDF5E7FFF7A9
:1020F0005DFDF2E74B4B1878002803D04A4B1B7864
:10210000002B02D1FFF752FDE7E7434B1878FFF7AA
:102110004DFDE2E7434B1878002803D0424B1B7873
:10212000002B06D100280AD03A4B1878FFF73EFD65
:10213000D3E73D4B1878C0B2FFF738FDCDE7FFF786
:1021400035FDCAE7374B1878002803D0364B1B788B
:10215000002B06D1002809D02E4B1878FFF726FD5A
:10216000BBE72D4B1878FFF721FDB6E7FFF71EFD03
:10217000B3E72D4B1B78002B05D02B4B1878C0B242
:10218000FFF714FDA9E7274B1878FFF70FFDA4E729
:10219000254B1B78002B04D01F4B1878FFF706FD4A
:1021A0009BE7204B1878FFF701FD96E71E4B1B7845
:1021B000002B08D11B4B187800280AD0154B187833
:1021C000FFF7F4FC89E7184B1878C0B2FFF7EEFC74
:1021D00083E7FFF7EBFC80E7134B1B78002B08D15C
:1021E000104B1878002809D00A4B1878FFF7DEFC4E
:1021F00073E7094B1878FFF7D9FC6EE7FFF7D6FCB9
:102200006BE7084B1878FFF7D1FC66E7370F002023
:10221000360F0020350F0020340F00206B110020F6
:102220001C58001069110020C411002030B583B083
:102230000500C24B43221A709870032800D11FE199
:1022400051D8012800D1C1E202284AD1BC4B00225A
:102250001A70BC4BD978BC4A11701979BB4A1170FD
:102260005A79012310001840B949087051081940E3
:1022700090081840B74C2070D008184014091C4032
:10228000B54D2C7054091C40B44D2C70940923405A
:10229000B34C2370D209B34B1A70B34B1E241C707D
:1022A000B24B9D341C80B24B3824FF341C801C88F8
:1022B0009D235B009C4203D3AD4B3A24FF341C802A
:1022C000AC4BED241C709F4BDC79AB4B1C70002990
:1022D00019D0AA4B1B88452B15D8A94B07221A7079
:1022E00027E00325B9E004280BD1A64B1A78934BBD
:1022F000DA7000221A7115325A711E329A7107254E
:10230000ABE00325A9E000280FD09C4B1B885A2B7B
:102310000BD9002A03D09C4B1B78002B01D1002A3B
:1023200007D1974B06221A7003E0864B1A7A944B1A
:102330001A70002902D1954B00221A70814B597AEC
:10234000934A1170997AC9B2924A1170DA7A924B13
:102350001A70924B18881A78784BDA70000930227C
:1023600002401A718E4A12785A71844A1088127883
:102370009A71000A07220240DA718A4A1278012013
:1023800002401A72884A10781A7A40000243D2B288
:102390001A721A7AD2B21A721A7A844804786401CC
:1023A0002020204002431A721A7A81480478A4013E
:1023B0004020204002431A727E4A12889208D2B20C
:1023C0005A72012953D07C4B1A785C4B9A727B4A23
:1023D0001388DBB2594CE37213889B083F22934366
:1023E000DBB2E2791343E371754A138812782273E2
:1023F0001B0A6373644B1B78A373724B18786423B6
:102400005843FE2102F040F8C0B2E0736E4A1388D0
:10241000127822741B0A63746C4B1B78DBB2A374B2
:10242000584B1B78E3746A4B1B782375694A136811
:10243000DBB2637513681B0ADBB2A37513681B0C50
:10244000DBB2E375644A1388127822761B0A63763E
:10245000624B1B78DBB2A3761B25384B5D70604B5B
:10246000012252421A805F4B00221A70C1E15E4B7A
:102470001888093101F0F8FFC0B2304B9872A6E716
:1024800001F0B2FC594B00221A703E4A1378012128
:102490000B431370564B02221A70294B013A1A70E3
:1024A000284C22791202E3789B189BB2514A138080
:1024B00064205843572101F0D7FF80B24E4B18805B
:1024C0001B88643B4D4A1380A279120263799B18E2
:1024D0004B4A1380237A01221800104049490870A2
:1024E0005908114048480170990811404748017047
:1024F000D90811404648017019091140454801703A
:1025000059091140444801709909DB094348037097
:102510000A420FD1424B19321A700A4A937A5B0071
:1025200040490B80D47AE4B23F4B1C702D4B012202
:102530001A7090E03A4B1A221A70EEE7AC0F0020A6
:1025400079110020CC0F00206F1100203A110020DB
:102550006911002071110020261000202C1100208C
:102560002D1100202B110020621100203C060020BC
:102570003A060020420600206E110020381100208B
:102580007011002048060020551100201F11002066
:1025900073110020721100202E1100205C11002008
:1025A0005F110020C4110020B2110020741100201E
:1025B00063110020960F00202F110020CC11002065
:1025C0003E110020DB11002056110020D311002005
:1025D0005E110020B411002042110020E4110020FF
:1025E000A40F0020A90F0020341100204406002071
:1025F0007A1100207611002060060020641100206E
:10260000460600201E1100201D1100202406002077
:102610003B1100206A1100206C1100202A060020C6
:10262000D21100202C10002029100020884A137895
:10263000013B88495B005B5A1B021078013840005F
:10264000405A60431B1A1B0A10784000435213780B
:102650000133DBB213707E4B1B78DBB2772BE5D9ED
:102660007D4C227B7D4B1A70227B7D4B1A70627BE6
:102670007C4B1A70627B7C4B1A70A07BC0B2182313
:102680000093AA3364220021FFF72FFA774B1870CA
:10269000E07BC0B209230093403364220021FFF79E
:1026A00024FA734B18703223E25CD2B2714B1A7069
:1026B0003323E15C704B19703423E15C6F4B19706C
:1026C0003523E15CC9B26E4B19703623E35CDBB293
:1026D0006C4803705B005B1ADBB29B1A6A4A13708A
:1026E0003723E05CC0B2193B0093E1336422002140
:1026F000FFF7FBF9654B18703923E25C644B1A70E5
:102700003823E35CDBB24F2B05D8604BA5221A704F
:102710005F4BA33A1A70504C4D23E25C1202013B0E
:10272000E35C9B189BB25B4A138019003C395A4A00
:1027300011805A4A13804F23E35C1B024E22A15C96
:10274000C91889B2564B1980FA20400101F09CFE4D
:10275000544B18805023E25C51084F3B19405248BB
:10276000017092081340514A137006D0474B1B78F2
:10277000A42B02D8454BA5221A704D4B434A127820
:102780001A70354B5122985C4A490870995C4A4A44
:1027900011705222995C494A117053229A5C484B3D
:1027A0001A70484B1B78002B0CD02B4B54229B5C8F
:1027B000DBB2454A1370642B00D84EE61300642246
:1027C0001A704AE6404B00221A7046E63F4B1A78D0
:1027D0003F4BDA70042540E61D4C2378DBB23C4ABF
:1027E000D05CC0B23B49FFF7CBF923780133DBB2B1
:1027F0002370174B1B78AB42EED3364A13881178FF
:10280000334A51556C1C1B0A1355334B00221A7066
:10281000324A8A235B00D3581B0E7F221A401E23A4
:102820009B1A0235AB4210D22D4B00221A7003B016
:1028300030BD274AD25CD2B22848C021490042505C
:102840000133DBB29C42F4DAEEE70023FAE7C0463C
:10285000A90F00202C100020CC0F002031110020E7
:102860002906002032110020280600204006002002
:102870003E0600204E1100204C110020481100207F
:10288000501100204F1100204D1100202306002080
:102890004306002032060020300600202E060020CD
:1028A0002C0600204A11002068110020471100204A
:1028B0002206002046110020D21100206B110020BA
:1028C000450600206C1100206D11002079110020B8
:1028D000AC0F0020A40F0020AA0F00200002004827
:1028E0002410002070B52F4B1B78002B3DD02E4BB1
:1028F000012252421A802D4B5D78EDB22C4B002202
:102900001A700CE02A4C2378DBB2284AD05CC0B2A3
:102910002549FFF735F923780133DBB22370244BC7
:102920001B78AB42EED36A1C204B9A5C12025B5DB3
:102930009B181D4A1288934207D01A4B00221A7026
:102940001C4A13780133137013E01A4B00221A70DB
:10295000194B1B78002B02D1174B01321A70134B05
:102960009878C0B2FFF762FC03E0124A1378013393
:102970001370104B1B781E2B04D80F4B1B78002BA9
:102980000BD070BD01F030FA0C4B00221A700C4ACB
:10299000137820210B431370EFE70020FFF746FC6C
:1029A000EFE7C04624100020A60F0020CC0F002027
:1029B000A90F0020A20F00207A1100204406002059
:1029C0004806002070B582B0204B1888C72807D968
:1029D0001F4B18221A701F4B0F3A1A7002B070BDAD
:1029E0001D4E33788008C0B21825009532220A2186
:1029F000FFF77BF8164C20703378184A1078009552
:102A000046221421FFF771F82378834201D9104B35
:102A10001870134E33780D4A10888008C0B209250B
:102A2000009532220A21FFF760F80A4C20703378B3
:102A30000A4A1078009546221421FFF756F82378A9
:102A40008342CBD9034B1870C8E7C0463811002029
:102A5000410600203F0600204006002055110020BE
:102A60003E06002010B52C4B1C782C4B1B78002BFD
:102A70000ED02B4B1B78002B0AD12A4B1A882A4BDD
:102A8000197878235B1A9A4202DD254B01221A70CD
:102A9000264B1B78002B33D1214B1A78002A03D107
:102AA000234B1B78002B2AD01E4B1988214B1B78F7
:102AB0004B43544363431B0A5801C01A8000C0189B
:102AC000C0001D4B198801F0CFFC84B22409FFF728
:102AD00079FF1A4B1B88A34200D32300184A1278AF
:102AE000002A10D0124A12789A4201D2104A13706A
:102AF0000F4B1B78002B0AD0124BFE221A7010BD10
:102B0000FFF762F8C8E70A4A00211170F2E70D4B9F
:102B100000221A70F3E7C0466F1100206C110020EC
:102B200055110020421100206D1100201E110020BF
:102B30002510002045060020601100203C060020E2
:102B4000261000205811002010B52F4B1B78002BA9
:102B50004CD12E4B1B78002B0ED02D4B1B78002B0D
:102B60000AD12C4B1A882C4B197878235B1A9A427D
:102B700002DD274B01221A70284B1B78002B02D054
:102B8000234B01221A70234B1888002803D0204BB6
:102B90001B78002B03D1224B1B78002B25D0214B17
:102BA0001B7858433C2101F06FFC84B2FFF70AFF09
:102BB0001D4B1B88A3421CD21C4A13801C4B1B7844
:102BC000002B19D0164B1A78184B1B889A4201D249
:102BD000134A1370154B124A12781A80134B1B8834
:102BE000002B0DD0134BFE221A7010BDFFF726F8F4
:102BF000AFE70E4B1C80E1E7094B00221A70EDE7AE
:102C00000C4B00221A70F0E7240600206C11002003
:102C100055110020421100206D1100206A11002082
:102C2000251000206F1100203C0600205A110020C2
:102C3000261000205811002010B5194B1A78002AD0
:102C400026D0184B1B789B189B10174A1380174BE4
:102C50001B78A42B02D8154BA5221A70FEF7EEFFA5
:102C6000124B134A12781A700F4B1C88114A1288A3
:102C70001A80FFF7A7FE104B1B88A34209D20F4A08
:102C800013800E4B1B88002B06D00D4BFE221A70B2
:102C900010BD0A4B1C80F4E7094B00221A70F7E7BD
:102CA000551100206F110020421100202306002042
:102CB00022060020401100203C0600205A1100206E
:102CC0005811002010B53B4B1B78002B0ED03A4B0F
:102CD0001B78002B0AD1394B1A88394B1978782385
:102CE0005B1A9A4202DD344B01221A70354B1B7875
:102CF000002B02D0304B01221A70304B1C88002C64
:102D000003D02D4B1B78002B03D12F4B1B78002BAE
:102D100042D02E4B1B78142B07D8D801C01A80B292
:102D20000A2101F0A1FB294B1870284B1B785B008E
:102D3000FE214900C91A89B2254B1B78002B05D00A
:102D40001D4B1B788B4228D8C91A89B20A3189B227
:102D50006443081901F088FB84B2FFF733FE1D4B72
:102D60001B88A3421BD21C4A13801C4B1B78002BD0
:102D700018D0154B1A78184B1B889A4201D2124A68
:102D80001370154B104A12781A80134B1B88002BB6
:102D90000CD0134BFE221A7010BD0021D6E70E4B4B
:102DA0001C80E2E7084B00221A70EEE70C4B002271
:102DB0001A70F1E76C11002055110020421100201B
:102DC0006D1100206A110020251000206F110020D5
:102DD0002A0600203C0600205A1100202610002060
:102DE0005811002070B5354B1B78002B5AD1344B4D
:102DF0001B78002B0ED0334B1B78002B0AD1324BA3
:102E00001A88324B197878235B1A9A4202DD2D4BCF
:102E100001221A702E4B1B78002B02D0294B012265
:102E20001A70284B1D78002D03D12A4B1B78002BDC
:102E300037D0254B1C88002C06D0274B18786043D0
:102E40003C2101F021FB84B2244B1B786B43244AC4
:102E5000128853431B0A5801C01A8000C018C000D2
:102E6000204B198801F000FB80B20009844200D297
:102E70000400FFF7A7FD1C4B1B88A34200D32300CF
:102E80001A4A1278002A10D0124A12789A4201D2B5
:102E9000104A13700F4B1B78002B0AD0144BFE22E4
:102EA0001A7070BDFEF7CAFEA1E70A4A0021117030
:102EB000F2E70F4B00221A70F3E7C0462406002009
:102EC0006C11002055110020421100206D110020CE
:102ED0006A110020251000203A1100206F110020F7
:102EE0003C110020601100203C060020261000202C
:102EF00058110020F0B583B0454B1B885A2B05D8DC
:102F0000462B79D9434A1278002A75D1414A127862
:102F1000002A10D03F4900220A703F490A803F49E9
:102F20000A803F49FA20400008803E490A803E4915
:102F30000A803E4A13803D4A1088C01A82B200B20D
:102F4000354B188036490B88D3181BB20B80FA21F9
:102F500089008B4252DD324B1980304B1988521A4E
:102F600015B2304A1580188084002D4B0020185E61
:102F700002F008FB2E4A2F4B02F0ACF806000F00BF
:102F8000200002F0FFFA32003B0001F0DBFD0600FA
:102F90000F0068004019400002F0F4FA32003B00D4
:102FA00001F0D0FD02F0BCFA00B21F4B18800028DF
:102FB0002ADB1D4B00229A5EFA239B009A4203DD16
:102FC000194BFA2292001A801B4BF4221A701B4BE9
:102FD000AB3A1A701A4B1B4A12881A80124B002007
:102FE000185E8010C0B2FE2300930023FA22002155
:102FF000FEF77BFD144B187003B0F0BD002BACDA6C
:10300000074B00211980A8E700221A80D1E7C046AB
:1030100038110020270600202C0F00202A0F002046
:10302000280F0020260F0020240F0020220F002050
:10303000333333333333E33F410600203F06002070
:103040005A1100203C0600205811002070B582B0B3
:10305000544AC7239B00D05880108005800D524BE6
:103060001880524B1B78002B01D102B070BD504B21
:103070001A78504B19788008FF2300930023FEF73D
:1030800034FD04004C4B18704C4B1B789800C01852
:10309000C000322101F0E8F983B21E339BB218025E
:1030A000C01A3230642101F0DFF986B27F2C45D896
:1030B0000004000C60433F307F2101F0D5F980B25D
:1030C000FF2800D9FF20C0B23B4B18703C4B1B7847
:1030D000002B41D03B4A13703B4B1B78002B06D092
:1030E0003A4B1B78002B02D1364B00221A70354B1D
:1030F000187800281ED0364B1B8858437F30FF219C
:1031000001F0C2F984B2334B1B88A34212D2324B76
:103110001888FE282DD9314B30221A70304B273AAF
:103120001A702B4B1B88A34239D22A4A13802D4B8D
:10313000FE221A70234B00221A7096E7FF239B1B76
:103140009BB22000803858433F307F2101F08CF93A
:1031500080B2801980B2B3E7234B1B78022B03D0D7
:10316000184B00221A70B7E70028F9D0154B1870D9
:10317000B2E7C0B230230093C433FF222821FEF708
:10318000B4FC164B1870144B187809230093403385
:10319000FF222821FEF7A9FC114B1870C1E70D4B47
:1031A0001C80C4E700080348960F00202C11002063
:1031B00028060020290600202F1100204811002099
:1031C0002E110020301100202D110020551100205B
:1031D0003C0600205A110020381100204106002032
:1031E0003F060020581100207211002010B5754BC9
:1031F0001B78002B1DD0744B1B781433734A13704B
:10320000724B1B78822B02D9704B82221A70704B42
:10321000F4221A706F4BAB3A1A706F4B1978282052
:10322000FEF78BFC6D4B18806D4B684A12781A7054
:1032300010BD654B18786B4B18706B4B1B78002BCF
:103240000ED16A4A1288002A0AD1604B32321A70B3
:10325000674B1A70674B00221A80674B1A80CFE7C2
:10326000002B6FD0614B1B88644A1288934219D29D
:10327000634B04221A70634A1378591C1170042B93
:10328000BED9524B1A785A4B1B789A4206D24F4BF2
:1032900001321A705B4B00221A70B1E7544A0133B5
:1032A0001370F7E7544909888B4217D29B1A9B0089
:1032B000DBB2534A137053490A78501C087093428A
:1032C0009ED2424B1B784A4A1278934202D23F4A1E
:1032D000013313704B4B00221A7091E74A4A12884F
:1032E000934216D2D31A9B00DBB2454A137045496C
:1032F0000A78501C0870934200D381E7334B1B7847
:10330000282B02D9314A013B13703E4B00221A7020
:1033100076E73B4B04221A703A4A1378591C117015
:10332000042B00D86CE7294B1B78282B06D9274A99
:10333000013B13702E4A1378013B1370314B00226E
:103340001A705DE72E4B0A221A702E4A1378591C08
:1033500011700A2B00D853E72C4B1988002925D06F
:103360002A2903D9194A1378013B1370214A13887B
:103370005C1C1480092B15D91D4A13780A3313706D
:103380001A4B1B88584301F07FF880B21A4B188003
:103390000200143A194B1A8014301B4B1880124B40
:1033A00001221A70174B00221A7029E7104B1B7864
:1033B000772BF7D805490A7801320A700C4A013395
:1033C0001370EFE76A1100206E110020260600201E
:1033D000410600203F0600203C0600205A11002034
:1033E000581100202A1100201F1100205611002022
:1033F0002506002026110020241100202211002083
:10340000281100202911002020110020381100204F
:1034100010B5BD4BC2221A70BC4B793A1A70BC4B26
:1034200000221A80BB4B1A70BB4B1B78002B1FD09D
:10343000BA4B1B88C82B1BD9B94A1278B9490988DD
:10344000914215D9B84A1278002A11D13833DBB22B
:10345000B64A13705B09B64A13701378DBB2052BBA
:1034600002D9130005221A70B24B01221A7002E031
:10347000B04B00221A70B04B1B78062B02D0AF4A1B
:1034800001211170AE4A1278002A1DD1082B3AD8BA
:103490009B00AC4AD3589F46FFF7E4FA33E0FFF7AE
:1034A00053FB30E0FFF7C8FB2DE0FFF70BFC2AE0F1
:1034B000FFF798FC27E0FFF71DFD24E0FFF796FEDD
:1034C00021E0FEF7FBFB1EE09F4B1A786423534379
:1034D0001B098F4A1380BC2B02D91300BC221A800F
:1034E0009A4B1B78002B02D0894B00221A80984BF4
:1034F0001B78884A1370FD2B02D91300FE221A7024
:10350000944B32221A70944B1B78012B0AD0022B59
:1035100011D1FFF79BFD914B1B78022B12D0032B8F
:1035200016D01DE0FEF75EFD8D4B1B78002BF2D010
:10353000FFF78CFDEFE78A4B1B78002BEBD0FFF7F2
:1035400085FDE8E7874B28221A70844B253A1A70CC
:10355000844B1B78002B00D187E0824A013B13701B
:10356000814B1A88814B1B889A4204D27B4B1B7873
:10357000042B00D185E07E4AC1239B00D3589BB227
:103580009B087C4A1278002A11D07B49097899421D
:1035900000D37FE079490B7801330B70774B1B78B0
:1035A0009A4204D8694A137840210B4313705C4B4C
:1035B0001A789300D2185301714A1360714A116846
:1035C0005B18136070490A68013A0A60002A07D143
:1035D0009B096E4A136040220A606A4B00221A60FF
:1035E0006B4B1B78002B12D1584B1B7878221A4258
:1035F0000DD1684A1278002A09D0674A1278002A49
:1036000005D0002B4AD0654B1B78002B46D1644B6C
:10361000C2221A70634BB93A1A70424B00221A80C8
:10362000614B1A705B4B1B78002B00D1C6E0584AE7
:103630001278002A13D1454A1278782111420ED10E
:10364000364A1288002A00D0B8E0314A1288002A8F
:1036500000D0B3E0554A1278002A00D0AEE04D4BBE
:1036600000221A7000F0C0FB10BD3C4B04221A70FF
:103670004F4B023A1A70354A137801218B4313706D
:103680006EE7324A137820210B431370494B012215
:103690001A7070E7394B002119707FE7464B1B8881
:1036A000BC2B02D9444BBC221A80194B1A88424BBE
:1036B0001B889A4201D9164A1380164B1B78FF2BA0
:1036C0001ED0114B1B78172B02D80F4B18221A70E3
:1036D0000E4B1B78082B02D80C4B09221A700A4B90
:1036E0001A782F4B1A70094B1A782E4B1A70084B08
:1036F0001A880C4B1A80074B1A782B4B1A7091E7DB
:10370000044BFE221A70DCE7410600203F06002031
:103710005A11002058110020681100205611002075
:10372000E4110020DC11002030110020671100207E
:10373000D8110020D711002070110020270600208A
:10374000940F002040580010210600204806002059
:10375000200600206F110020721100207A11002035
:103760002E11002078110020CE11002064110020BD
:103770000004034843060020420600206611002092
:10378000880F0020900F00201C0600208C0F0020C6
:10379000C411002044060020711100206A1100208D
:1037A0006306002062060020DA110020DB110020F1
:1037B00079110020631100203C060020002B00D06E
:1037C00052E70D4B1B78002B00D04DE70B4B1B88AD
:1037D0009F2B00D948E70A4B1B88002B00D143E7F9
:1037E000084B01221A70084B00221A70074B1A70FE
:1037F00000F034FB38E7C046C41100205611002009
:103800005A11002044060020DB110020D9110020AD
:10381000030043434B4343431B0C80225200521A84
:103820005043C0188030000A704770B5040000296A
:103830000CD000280BDB80235B00984200DD1800D1
:10384000002906DBFFF7E4FF002C0ADB70BD4042D5
:10385000F1E7494280256D00281AFFF7D9FF281AA1
:10386000F2E74042F2E7000070B57F4B1B78772B00
:1038700027D97E4B7E4A12881A807E4B00229B5E9F
:10388000192B07DD7C4B00221A807C4B1A807C4B65
:1038900001321A707B4B1A887B4B1A807A4B1B883B
:1038A000724A1288934237D99B1A9800C018400177
:1038B000764B198800F0E8FD84B2A02C2DD9A02405
:1038C0002BE0704B188880B2714C21880422FEF7DF
:1038D0003AF92080644A13780133DBB21370782BF5
:1038E00006D0694B1880614B614A12881A80D5E76F
:1038F000684B1B78002BF4D0674B1B88984207D984
:10390000664B1B88984203D2654B00221A70E8E789
:10391000634B01221A70E4E70024624B19780029F6
:103920001BD1614B00221A80604B1970604B1A70DA
:10393000604B1A70604B28221A70604B1B88A342A0
:1039400038D2E31A9BB23B2B61D94F2B61D9632B41
:1039500061D9812B61D910224DE09620000100F041
:1039600093FD80B2544B1B781A00834205D2272B5B
:1039700003D8514A01331370DFE78242DDD9282B87
:10398000DBD94D4A013B1370484B1A78002AD4D03A
:1039900047490B784A48C65C434D2888801B2880DD
:1039A0004248013A02700133DBB20B703F221340F0
:1039B0000B70C2E71B1B9BB2C5E73D490B78404823
:1039C000C65C394D2888801B28800133DBB20B7020
:1039D0003F2003400B7034490B88E3180B803549B6
:1039E0000B783748C4540133DBB20B703F200340DF
:1039F0000B70013AD2B2002A11D02C4B1B782E4901
:103A000009788B42D9D0294901330B70E3E70122B1
:103A1000F1E70222EFE70422EDE70822EBE7234B70
:103A20001978002904D0204B188800F02DFD84B2AD
:103A3000A02C00D9A024214B1C80224B1B78143BC6
:103A40005900C91889002000FFF7EFFE80B21E4B15
:103A500018801E4B18801E4B18801E4B1B7843434A
:103A60001D4A138070BDC046840F0020360600201A
:103A70003206002052110020C8110020C61100207B
:103A8000C5110020CA110020441100202C0600207E
:103A9000340600203B110020300600202E060020B6
:103AA00051110020551100203E0F0020400F002032
:103AB000420F0020410F0020180600203C0F00207C
:103AC000440F00204C110020421100204011002022
:103AD0003E110020450600203C11002010B52D4B62
:103AE0001A882D4B9A4203D82A4B1B88092B2AD8B7
:103AF0002A4B00221A80FEF7FFF8FEF729FAFEF79C
:103B000023F9274B18780001142100F0BDFC254B48
:103B10001870254B18880001142100F0B5FC234BC8
:103B20001870FFF7A1FE224B1A78511C197003235D
:103B30001340022B2AD00FD8002B12D0012B12D108
:103B4000FEF788FA0FE0134B198889B2194800F084
:103B50008BFC124B1880CEE7032B04D1FEF710F933
:103B600001E0FEF7BFFEFFF753FC134B9978134AB1
:103B70001180D978124A11801979124A1180597925
:103B8000114A11809A79114B1A8010BDFEF7AAFED6
:103B9000E9E7C04664060020FFEF00005611002050
:103BA000E41100205F110020D01100205E110020E0
:103BB0003A0F002090D00300A4110020A00F002095
:103BC0009E0F00209C0F00209A0F0020980F0020CD
:103BD0000AE0244A1370244B01221A7004E0562B89
:103BE00020D9214B00221A70204A8A235B00D35827
:103BF0001B0736D41E4B1B78002B32D11B4A8E2359
:103C00005B00D358DBB2184A1278D1B2012AE6D051
:103C100002290FD00029E7D1592BDAD0124B00220C
:103C20001A70E1E70F4A5370124A13700E4B0222CA
:103C30001A70D9E7104A117802310A4843541378B0
:103C40000133DBB2137013780A4A12789A42CBD848
:103C5000094B00221A70044B1A70054B01321A707E
:103C6000C2E77047CC0F0020A80F002000020048D8
:103C700024100020C90F0020CA0F00207047000048
:103C800010B5454B00E0013B002BFCD1FDF7FEFEDB
:103C9000002800D001BEA021C9050B683F480340A1
:103CA0008022920013430B603D490B6803401A4386
:103CB0000A60FDF7ABFA00F0D7F93A4B42221A70CE
:103CC000394B00241C7000F0ADF8384B1C70384B99
:103CD00001229A60374B00E0013B002BFCD1364BB0
:103CE000C62292009858354908408021C9010143F5
:103CF00099508021890419609858314908408021E1
:103D0000C903014399508022D2041A60A023DB0525
:103D10000F22DA602B4A116B80235B000B43136385
:103D2000244B00E0013B002BFCD1274B5A680121BA
:103D30000A435A60254A9A60254B1B6F9BB2254A5D
:103D40001380254A138009E0FFF742FF0DE0214B65
:103D50001B88D31A9BB221498B4217D81A4B1B4A96
:103D60009A601F4B1B78002BEED0174B174A9A60B6
:103D7000174B1A6F92B2184B1B889342E7D9194917
:103D80000B6801330B60144B1A80E0E7114B1A806B
:103D9000FFF7A4FEE2E7C046804F1200FFFCFFFFE2
:103DA00000000448AC110020361100205A06002003
:103DB00000000150C0D4010000E100E0FF00FFFF5F
:103DC000FFFF00FF0000014000000240FECAADAB53
:103DD0000002044882110020801100206A180000AF
:103DE000241000207C1100200323034A1361034A9E
:103DF0001361034A13617047000100500002005034
:103E00000003005010B5054A137840210B4313708E
:103E1000034B00221A70FFF7E7FF10BD4806002091
:103E20004406002070B500F048F80A494A6A920832
:103E300001231340084A13704D6A02242C40234387
:103E400013704C6AA400042121400B43137000F04E
:103E500038F870BD00010440B311002010B5FFF721
:103E6000E1FF0D4B196B802252000A431A631A6B53
:103E70000A490A401A6309E0074B196B8022520075
:103E80000A431A631A6B05490A401A63044B9B687C
:103E9000DB07F1D510BDC04600000140FFFEFFFF6B
:103EA00000010050000000000230800803D00138FB
:103EB000FDD1C046C046C0467047EFF3108072B6D1
:103EC000704780F310887047064B1A89802149019A
:103ED0000A431A8148215A5A8020000102435A524B
:103EE0007047C0460000054010B50D4A13681B0A14
:103EF000FF210B400B480360126811400A4A116011
:103F0000002B08D01B02C918084800F0ADFA400089
:103F1000074B186010BD064B064A1A60FAE7C04608
:103F200000030140EC110020E8110020000024F4FF
:103F3000FC3F00200048E80110B5FFF7C5FFFDF782
:103F400097FD10BD70470000F0B5C64600B58B0860
:103F5000984604339B001E5803250D40ED00F827BA
:103F6000AF40BE431E50436F4F000326BE40B343D5
:103F70004367CB0810339B001F5807260E40B6003E
:103F80000424B440A7431F501F585478B44026005F
:103F90003E431E500D4B98420ED00023D356002BAB
:103FA00010DB44460434A40021581278AA400A4386
:103FB000225080BCB846F0BD036E01268E40B3434C
:103FC0000366EAE753688B404360EAE70002044077
:103FD00010B50C000DE0800808490B68084A134032
:103FE00002021343074A13430B60044B1B685B0038
:103FF000FBD4A3008342EED310BDC04600030140B2
:10400000FF000FC00000F03F30B50C000EE00122B1
:1040100090000A490B680A4D2B4092021343094A4B
:1040200013430B60054B1B685B00FBD48300A3426A
:1040300003D20028EBD00200EAE730BD00030140C4
:10404000FF000FC00000F03F014BC3225A627047CF
:1040500000000140034BC0225A62024B5B6A5B07BF
:10406000FBD4704700000140034A938C01210B43AD
:104070009BB293847047C0460010014010B5040005
:10408000FFF7E8FF054B186920431861034B1B68D5
:104090005B00FBD4FFF7D8FF10BDC0460003014012
:1040A000034B9B6803405A1E9341D8B27047C046E9
:1040B0000003014070B504000D00FFF7CBFF154B66
:1040C0001A68120AFF2010401968134A1140294348
:1040D000124A0A431A600F4B1B685B00FBD4A042D4
:1040E00014D82100FFF790FF0A4A13680C490B40CF
:1040F00024021C43094B23431360064B1B685B00DF
:10410000FBD4FFF7A1FFFFF7EFFE70BD2100FFF723
:104110005FFFE9E70003014000FF0FC00000F03F30
:10412000FF000FC010B50400FFF794FF074A1368A3
:1041300007490B40A1680B4361680B431360FFF70D
:1041400083FF60782178FFF7B5FF10BD00030140C1
:10415000FFFFF0FF014B18687047C046FC3F00208E
:1041600010B5044B984200D010BD0420FFF786FF25
:10417000FAE7C0460000044870B505000C00FFF7E0
:10418000EFFF80235B00EB602B68034A1340A4031E
:104190001C432C6070BDC046FF3FFFFF03680A0C44
:1041A00093430904090C1943016070470B6843618C
:1041B0004B799B06DB0F1B0543600B791B071B0F1D
:1041C00043624B791B071B0F03624B79DB06DB0F46
:1041D00083610B791B09C36270470B6843614B799C
:1041E000DB07DB0A43600B791B071B0F43620B796C
:1041F0001B09C3627047000010B543680324A34342
:10420000194341604369012A03D0044A13404361C2
:1042100010BD8022D2001343F9E7C046FFFBFFFF29
:104220004368302293430901194341607047F0B558
:10423000C64600B54C1EE4B206686500EDB22F001C
:104240001037FFB203239846BB409C4633006646B6
:10425000B3439C465378BB40664633431531CFB2D7
:104260000121B9408B439178B94019431935EDB21A
:104270004646AE40B143D378AB400B43A100C9B230
:104280000F248C40A34312788A401343036080BC00
:10429000B846F0BD1C3189004018406870470000E6
:1042A00030B50B291AD889000D4B5B589F46032562
:1042B00000240DE0C0252D010A2409E0C025AD0031
:1042C000082405E00C25022402E0C025AD010C24E1
:1042D000A8214358AB43A2401A43425030BDC046C8
:1042E000705A001010B5A023DB05984200D010BD15
:1042F0000220FFF7C3FEFAE770B505000C00FFF7D8
:10430000F1FF80235B00EB602B68034A1340A4039A
:104310001C432C6070BDC046FF3FFFFF01230361BB
:104320000B6843614B7BDB06DB0F1B0543600B7B9C
:104330001B071B0F43620B7B1B09C3624B7B1B07D5
:104340001B0F03624B6883618B68142253408364A4
:10435000704703680A0C93430904090C1943016070
:104360007047000010B543680324A343194341601C
:104370004369012A03D0044A1340436110BD8022DF
:10438000D2001343F9E7C046FFFBFFFFF0B5C64676
:1043900000B54C1EE4B206686500EDB22F00103780
:1043A000FFB203239846BB409C4633006646B343A6
:1043B0009C465378BB40664633431531CFB201214A
:1043C000B9408B439178B94019431935EDB246464F
:1043D000AE40B143D378AB400B43A100C9B20F2428
:1043E0008C40A34312788A401343036080BCB846D4
:1043F000F0BD41637047000030B50B291DD889001E
:104400000E4B5B589F460024032510E00A24C0256C
:104410002D010CE00824C025AD0008E0042430255F
:1044200005E002240C2502E00C24C025AD01A821E2
:104430004358AB43A2401A43425030BDA05A00102B
:104440004B6803658B6843650B68C364704710B5A0
:10445000436F490003248C40A3434367436F8A4062
:104460001343436710BD000010B5EFF3108272B61E
:10447000044B04245C6318625962986A82F31088C2
:1044800010BDC0460000034010B5EFF3108272B6B5
:10449000044B00245C6318625962986A82F31088A6
:1044A00010BDC0460000034010B5044B984200D038
:1044B00010BD8020FFF7E2FDFAE7C0460000015082
:1044C00070B504000D00FFF7EFFF0323E3602B68D6
:1044D000236070BD03689B0705D103680A68134316
:1044E0000360002070470120FCE710B5436F1031D6
:1044F00001248C40A3438A401A43426710BD000048
:10450000F8B504000E00170000F052F9357A002DBE
:1045100000D11035002F07D03379002B26D0316819
:104520002A00200000F088F8F379013B5B006D0859
:1045300001352D022B43144A1343E3637379013B86
:104540001B068122520013436363B379002B13D0FF
:10455000626B013B1B0413436363A023DB00A36373
:1045600001235B42E36473892364F8BD31682A0048
:10457000200000F00BF8D7E7626B7379013B1B0456
:1045800013436363E9E7C04601000300F0B5DE466C
:104590004F4680B583B083460C001500632941D98E
:1045A000002A01D101203EE0FFF7D4FD6421FFF78E
:1045B0005BFF814664212000FFF756FF07001C4E79
:1045C000012301938023DB0000931C0000E0013CE9
:1045D000002C12D03900694348466043FFF744FF7E
:1045E000830A8005800D8022D2009342EFD8864254
:1045F000EDD9060001930094E9E7009F013F802375
:104600001B023B435A46136153690A4A1340013D5A
:10461000AD022B43019E013E360433435A4653619B
:10462000002000E0012003B0C0BCBB46B146F0BD95
:10463000FF030000EF8000FCF0B5DE4657464E4613
:104640004546E0B583B08046894617000192FFF7E2
:1046500081FD06004B465F43B8424ADD3900FFF753
:1046600013FF0400012506E00135290079433000DD
:10467000FFF70AFF0400204B9C42F5D8019F390048
:10468000614369433000FFF7EFFE8346631C9A469F
:104690003900594369433000FFF7E6FE4B46181ACC
:1046A000C317C01858404B465A469B1ADA179B1836
:1046B0005340984200DBA2468022D2005346D21AD1
:1046C0008023DB0113434246136153690B4A1340B5
:1046D000019F013FBF023B43013D2D042B43424656
:1046E0005361002003B0F0BCBB46B246A946A046C9
:1046F000F0BD0120F6E7C046FE030000EF8000FC9D
:1047000070B504AC24784569094E3540002A0DD0B7
:10471000102211431B0419430C43059B1B021C432D
:10472000069B9B021C432C43446170BD0022F0E7B2
:104730002C8000FC70B584256D004459064E344031
:1047400044514459054E34401B020B431206134397
:104750001C43445170BDC046FFFFFFF8C0C0FFF8C6
:1047600070B586256D004459074E34404451445974
:10477000064E34401B020B43120613431C43802396
:104780005B052343435170BDFFFFFFF8C0C0FFEF3F
:1047900010B5064B984200D010BD0820FFF76EFC04
:1047A0000820FFF77DFC0028FAD1F5E70800004853
:1047B00010B504009023DB0598420CD0084B9842BA
:1047C00009D00323E360E368DB07FCD5236C0F22E9
:1047D0009343236410BD0348FFF7DAFFF1E7C046B7
:1047E000000200480800004810B54B075B0F8A0123
:1047F000920D12041343F82464000351CB00DB0F25
:104800001B070A01920F920613438A00D20F520728
:1048100013434900C90F8907194302590A438023EA
:104820001B061343035110BD10B5034BFF221A6042
:104830000120FFF723FC10BD0005014070B5040006
:104840000D00FFF7F1FF6B6923606A6880231B028C
:1048500013438022A350AA68A023E250EA680433DD
:10486000E2502A69DD33FF33E2502A68C93BFF3B3F
:10487000E25070BDF0B5C64600B5002A19D1CA068F
:10488000D20E90464905490F1F26E022D2009446D9
:104890000025082728339B001C5862469443B940E2
:1048A0002143B1434246AA400A431A5080BCB8464D
:1048B000F0BDCA02D20E90464901490FF826760390
:1048C000E022D204944610251827E3E770B50400CF
:1048D0000D00496800230022FFF7CCFF6968002320
:1048E00001222000FFF7C6FFA96801230022200053
:1048F000FFF7C0FFA968012301222000FFF7BAFFDC
:104900002A698023E250EA683833E250296820009F
:10491000FFF76AFF70BD10B5802283580324A343BC
:104920001943815010BD10B58A4200D90131C0220F
:1049300083580324A3431943815010BDC0228358D8
:1049400003218B438350704730B50025002300E0DE
:104950000133012B06D8094A9C00A2588242F7D1A4
:104960001D00F5E78D4200D90131C0240359033100
:1049700001228A401343035130BDC046D05A001073
:10498000F0B5002309E0284A9C00A55884242A5940
:10499000264E32402A510133DBB2012BF3D90B787A
:1049A0009B0702D10027002212E080273F01FAE78F
:1049B0001D4B9400E658842574591D4B1C400B7800
:1049C0001B079B0F1B0223433B4373510132D2B29F
:1049D000012AEDD94A68174B134380229200835075
:1049E0008B68012213438122920083500A780323AB
:1049F0001340022B01D0002312E081229200815843
:104A000080235B020B438350F5E7074A99008858DF
:104A1000842144588022D204224342500133DBB225
:104A2000012BF2D9F0BDC046D05A0010FFFFFFFBAA
:104A3000FFFCFFFF0080800010B58423C258184C93
:104A40002240C250C458813B9C430A7813079B0FF5
:104A50002343920701D008221343842283504A68DB
:104A6000104B13438022520083508B68FF3A13434C
:104A70000432FF3283500A7803231340022B06D0FE
:104A80008422815880235B040B43835010BD822213
:104A90005200815880235B020B438350F0E7C046ED
:104AA000FFFFFFFE0080808070B5137B882684594D
:104AB00001258D40AC438B40234383510D23D356B6
:104AC000002B17DB012908D0002922D1B02403597B
:104AD0001F25AB4303510E0005E0B02403590E4DD2
:104AE0002B400351803EB02543590D241457B44048
:104AF00023434351C824035955682B4303510834B9
:104B0000035995682B4303511368803189000B507A
:104B100070BD0026E7E7C046FFE0FFFF10B580202C
:104B20008000FFF7ABFA10BD10B50400FFF7F6FFE9
:104B3000A268034B5A6062681A6122685A6110BD0C
:104B400000000240F7B5DF0FBC460D034C001E030A
:104B5000C90F00916D0A410F760A570F2943374359
:104B60005D00009E640D6D0DC000D200631B6645A4
:104B700000D02EE1002B00DC7AE0002D3CD13D007E
:104B800015431ED05D1E012B18D182188242804130
:104B9000C9194042091810000A0200D402E1BA4AB9
:104BA0000133934200D18AE2B84C42080C40012103
:104BB00001400A43E00710436108F3E0B24EB342FC
:104BC00022D14C07CA08B049C00804438B4206D121
:104BD0002100114300D175E2802109030A4320001E
:104BE000AB4C1B0512032340120B1343009AD20750
:104BF0001343190003B0F0BDA34DAC4200D1DDE179
:104C000080252D042F431D00382D2CDC1F2D19DC91
:104C100020233E005B1B9E40B44616000193EE40ED
:104C200063461E43019BEF409A4013005A1E934176
:104C300033431B18834280417918404209181800F9
:104C40002300A9E72B003E00203BDE400023202D5F
:104C500003D040335B1B9F403B0013435A1E9341DC
:104C600033430027E5E73B0013435A1E9341F8E71F
:104C7000002B50D02B1B002C12D10C0004430CD065
:104C80005C1E012B06D1801890429241C9195242F4
:104C9000891881E77C4EB3420AD13900100090E7B1
:104CA000794CA54200D104E28024240421431C0055
:104CB000382C2BDC1F2C18DC20230E001B1B9E40E5
:104CC000B44606000193E64063461E43019BE14063
:104CD00098400300581E83413343981890429241F4
:104CE000C91952422B00891856E723000E00203BB9
:104CF000DE400023202C03D040331B1B99400B00C7
:104D00000343591E8B4133430021E6E70B00034365
:104D1000591E8B41F8E75F4D631C2B4234D10B00C9
:104D20000343002C14D1002B00D1BDE13B00134301
:104D300000D11EE1821882428041C91940420918FF
:104D40000B0200D4B1E1514B10001940012338E7A8
:104D5000002B00D1ADE13C004B4B144300D130E7B8
:104D60004B07C0081843CB08802109030B4206D02B
:104D7000FC080C4203D12300D0087F073843410FC1
:104D8000DB001943C00019E13F4CA34200D196E17A
:104D9000821882428041CF1940423F18F8075208DA
:104DA00010437908420709D00F220240042A05D097
:104DB000021D824280414042091810000A0200D4BC
:104DC000FFE6314A0133934200D178E12F4A114086
:104DD000F7E6002B60DD002D36D13D00154300D1F4
:104DE000EFE65D1E012B0DD1821A90428041C91B56
:104DF0004042091A10000A02D4D549021C004D0A8B
:104E0000019008E1204EB34200D1DAE6382D35DCBE
:104E10001F2D22DC20233E005B1B9E40B446160063
:104E20000193EE4063461E43019BEF409A401300FE
:104E30005A1E93413343C31A98428041C91B4042D2
:104E4000091A18002300D6E70F4DAC4200D1B5E097
:104E500080252D042F431D00D8E72B003E00203B6A
:104E6000DE400023202D03D040335B1B9F403B00DE
:104E700013435A1E934133430027DCE73B0013439F
:104E80005A1E9341F8E7C046FF070000FFFF7FFF6F
:104E90000000F07FFE070000002B54D02B1B002CDD
:104EA00015D10C0004430FD05C1E012B09D1101A40
:104EB000824292416346791A52420093891A012331
:104EC00099E7814EB3420AD161460091E5E67E4CF6
:104ED000A54200D1EBE08024240421431C00382C9F
:104EE0002CDC1F2C19DC20230E001B1B9E40009382
:104EF00033000600E6401E43009BE140984003005B
:104F0000581E83413343D01A82429241791A524249
:104F1000891A62462B0000926DE723000E00203BA9
:104F2000DE400023202C03D040331B1B99400B0094
:104F30000343591E8B4133430021E4E70B00034335
:104F4000591E8B41F8E7614E651C354250D10E0069
:104F50003D0006431543002C28D1002E0FD1190027
:104F600018000093002D00D12BE639001000634695
:104F7000009303000B4300D19EE0002312E7002DB5
:104F8000F7D0851AA842B641CC1B7642A41B260254
:104F900006D5101A82429241791A5242891AE6E7DE
:104FA000280020435CD021002800E2E7002E07D132
:104FB000002D7CD1802118000093C903424B00E6EC
:104FC000414B002D00D1FCE54B07C0081843CB082E
:104FD000802109030B4200D1D1E6FC080C4200D02D
:104FE000CDE6D00862467F07230038430092C6E62C
:104FF000851A0195A842AD416D422E00CD1BAD1B17
:105000002E022AD5131A9A429241019363467F1ABF
:105010005242BD1A0093002D25D0280000F0DAFA84
:105020000300083B202201990198D21A9D40D140EB
:10503000984029439C4233DC1B1B5A1C1F2A1EDC50
:1050400020230D009B1A040098409D40D440431E2D
:1050500098412543D14028438BE701982843DAD172
:1050600001000090ADE5019800F0B4FA0300183398
:105070001F2BD7DD0199083881402800DAE70C00A2
:105080001F3BDC400023202A03D040339B1A994069
:105090000B0003435A1E934120000021184368E788
:1050A0000B4AE31A11407DE63900100061E76346C0
:1050B00000933900100081E71900180081E50021F4
:1050C00008007EE50A008AE5FF070000FE070000F1
:1050D000FFFF7FFFF0B58BB0009201930D034B00F3
:1050E000CA0F06002D0B5B0D039200D111E1CE4AD1
:1050F000934200D135E1ED00420F2A4380252D0473
:105100001543CA4AC4009B181F0000230293019B49
:1051100000981E035A00DB0F360B520D049300D18A
:105120002EE1C14B9A4200D150E1430FF6003343C8
:105130008026BE4936041E43C30050180022C11900
:105140000691013100910299880010430A2800DD80
:1051500076E10399049F79400391022800DD44E140
:105160000138012800D853E1190C9BB202911900B3
:10517000220CA4B2514320008C46029F029958434E
:105180005143674305916744010CC91904908C454C
:1051900005D9802040028446059F67440597080C86
:1051A00084466846008A090409180991310CB6B290
:1051B000049130003100049F614350437C437A43A3
:1051C00024180F0C3C19A04202D98020400212186A
:1051D000200C8218240489B2079262180892089958
:1051E00062468C46290CADB22800029F58436F439B
:1051F0004B4362449446029CFF18020CD2194C4364
:10520000934202D980235B02E418130C1B1902930A
:105210002B0080B2120412180498734345434E4386
:105220004143A8191D0C2D18AE4202D9802040021E
:105230000918059F089867448742B641BF189742EE
:10524000924128049BB2C018079B7642C018534273
:105250000493029B84199C46A4446346049AB44276
:10526000A4419B18079A644290428041029A4042AE
:10527000044394458041049A2D0C9342924140424C
:10528000524210436419099A241864187902114390
:105290004A1E9141FF0DDE0D640239435B02264335
:1052A0000B43E40100D4DEE001215A080B401A430D
:1052B000F307CE401343009A5D495218002A00DCE0
:1052C000D4E0590709D00F211940042905D0191D30
:1052D00099429B415B42F6180B00F10106D58021F3
:1052E000C9008C46534A1640009A624452498A4289
:1052F00000DD07E17407DB081C43F60813053603DD
:10530000039A360B3343D2071343200019000BB026
:10531000F0BD2C0004432BD0002D16D0280000F047
:1053200059F9040002000B3C1D2330001B1B110027
:10533000D84008398D4003002B4335008D403F494C
:105340002C008A1A17001D00DFE600F043F9040064
:105350000200153420321C2CE6DD3300083883406F
:10536000EDE704002C4307D11F0025000223CDE602
:10537000250027000123C9E61F0004000323C5E61A
:10538000009B334329D0002E14D0300000F022F9C6
:10539000010003000B391D221800521A0099083829
:1053A0008640D1403143009E86402448C01A3300D5
:1053B0000E00C3E600F00EF90100030015312033A2
:1053C0001C29E8DD009908388140EEE7009B334353
:1053D00007D110001E000222B1E61E0018000122B3
:1053E000ADE6030010000322A9E601218140A620BA
:1053F0000F00C0000740014226D1902080000142EA
:1054000076D1B938FF38014200D1ADE60499039155
:10541000022A77D0032A72D0012A00D04BE7002657
:10542000340032006AE7C046FF07000001FCFFFFBE
:10543000FF030000FFFFFFFEFE0700000DFCFFFF63
:105440000F2805D00B28E1D02E002300029ADFE7B9
:1054500080221203154201D016424ED08026360318
:105460002E432C4A4AE7069A009224E70120801A2C
:105470003828D4DC1F2827DC2749009A8C461C00DA
:105480006244310093409140C4401A002143531EAE
:105490009A410B00C64013435A0709D00F221A4005
:1054A000042A05D01A1D9A429B415B42F61813004C
:1054B00080213000090408400E4226D17407DB0821
:1054C00002001C43F60819E71F2149428A1A3100DD
:1054D000D1400022202805D01048009A844662441A
:1054E0009640320013435A1E934100260B43D3E7E4
:1054F00080253C0003972D03B0E7049A0392350002
:105500001C00ABE700263400ABE700260122340084
:10551000F4E6C046FF0700001E0400003E04000041
:105520000B0070B5114E0C0349000200240B002043
:10553000490DDD0FB14204DD0D48814202DD0D4B06
:10554000E81870BD8020400320430B4C641A1F2CC8
:1055500008DC0A4EE240891988401043002DF0D043
:105560004042EEE7064B5B1AD840F7E7FE03000027
:105570001D040000FFFFFF7F33040000EDFBFFFF71
:105580001304000070B5030004000200051E11D0D2
:10559000C21785185540C40F280000F01BF80C4BAB
:1055A0001B1A0A280FDC0B222900121AD1401530D1
:1055B0000A0085401203120B1B051343E407234323
:1055C0002800190070BD2A000B3882400025F1E741
:1055D0001E0400001C2101231B04984201D3000C6F
:1055E00010391B0A984201D3000A08391B09984256
:1055F00001D30009043902A2105C40187047C0466C
:10560000040302020101010100000000000000008B
:1056100070B500260C4C0D4D641BA410A64209D198
:105620000026FEF78FFC0A4C0A4D641BA410A6420C
:1056300005D170BDB300EB5898470136EEE7B300D3
:10564000EB5898470136F2E768060020680600200C
:105650006806002068060020F40100000000000039
:1056600000010000004B00000008080110000000CD
:1056700010000000000000700000000000000000AA
:1056800007010000010000400000000000000000D1
:10569000F000000000000000000000000701000012
:1056A0000D000000787800000000000005000000F8
:1056B0000000000002000000F000000000000000F8
:1056C00000000000070100000D00000078780000D5
:1056D00000000000050000000000000002000000C3
:1056E000F0000000000000000000000007010000C2
:1056F0000D000000787800000000000005000000A8
:105700000000000002000000F000000000000000A7
:10571000000000000000000000000000F010000089
:1057200000000000000100000D010000001000005A
:10573000F80000000000000000010000040100006B
:1057400006000000F0000000000000000000000063
:1057500000000000000000008000000000000100C8
:105760000000000000000000000000000000000039
:105770000000000000000000000000000000000029
:105780000000000000000000800000000000010098
:105790009000000000000100080000000000000070
:1057A00008000000000000000800000000000000E9
:1057B000A800000000000100A80000000000010097
:1057C0001000000000000000B80000000000010010
:1057D00010000000000000000800000000000000B1
:1057E000B800000000000100B80000000000010047
:1057F000A8000000000001001000000000000000F0
:105800001000000000000000A800000000000100DF
:10581000000100000000010000000000D220001084
:10582000DC200010F420001014210010442100108E
:105830007221001090210010AC210010D82100101E
:1058400006350010983400109E340010A434001067
:10585000AA340010B0340010B6340010BC3400106C
:10586000C2340010010300021E06280632063B0661
:1058700044064C0654065B06620668066E0673060E
:1058800078067D068106840687068A068C068D06C4
:105890008E068E068E068E068D068B068906860679
:1058A000830680067B06770672066C06660660062F
:1058B000590651064906410638062F0625061406E4
:1058C000F405D505B50594057405530531050F0597
:1058D000ED04CB04A9048604630440041D04FA0308
:1058E000D603B3038F036C03480324030103DD02D3
:1058F000BA029602730250022D020A02E701C501A4
:10590000A30181015F013D011C01FC00DB00BB0024
:105910009C007C006B00610058004F0047003F0076
:10592000370030002A0024001E0019001500100066
:105930000D000A000700050003000200020002003B
:10594000020003000400060009000C000F00130011
:1059500018001D00220028002E0035003C004400E5
:105960004C0055005E006800720068005E00550043
:105970004C0044003C0035002E00280022001D0091
:10598000180013000F000C000900060004000300BB
:1059900002000200020002000300050007000A00E6
:1059A0000D001000150019001E0024002A00300010
:1059B00037003F0047004F00580061006B007C003B
:1059C0009C00BB00DB00FC001C013D015F0181016C
:1059D000A301C501E7010A022D02500273029602DB
:1059E000BA02DD020103240348036C038F03B303EF
:1059F000D603FA031D04400463048604A904CB04FF
:105A0000ED040F053105530574059405B505D5055D
:105A1000F405140625062F063806410649065106E8
:105A20005906600666066C06720677067B068006D7
:105A30008306860689068B068D068E068E068E06E2
:105A40008E068D068C068A068706840681067D06EC
:105A5000780673066E06680662065B0654064C06F8
:105A600044063B063206280603030602050104012C
:105A7000AE420010AE420010C4420010C4420010FA
:105A8000DC420010DC420010DC420010DC4200105E
:105A9000BC420010B4420010CA420010CA420010BA
:105AA0000644001006440010224400102244001056
:105AB0001C4400101C4400103A4400103A440010EA
:105AC000144400100C440010284400102844001016
:085AD00000040348000803482C
:105AD8002C4887460000000000000000000000007D
:105AE80000000000000000000000000000000000AE
:105AF800254887460000000000000000234887462C
:105B080023488746234887462348874623488746AD
:105B1800234887462348874623488746234887469D
:105B280023488746000000002248874622488746C7
:105B38002248874622488746224887462248874681
:105B48002248874622488746224887462248874671
:105B58002248874622488746224887462248874661
:105B68002248874622488746224887462248874651
:105B780022488746224887460000000000000000AF
:105B880020488746A3100010A3100010A31000108F
:105B9800A3100010A3100010A3100010A3100010F1
:105BA800A3100010A3100010A3100010A3100010E1
:105BB800A3100010A3100010A3100010A3100010D1
:105BC800A3100010A3100010A3100010A3100010C1
:105BD800A3100010053E0010A3100010A310001021
:105BE800A3100010A3100010A3100010A3100010A1
:105BF800A31000106906002069090020A3100010F6
:085C0800A3100010A31000100E
:105C10000000010000000000000000000001000082
:105C20000000000000000000000000000003000071
:105C3000000401000000000000000000000400005B
:105C4000000400000000000000000000000300004D
:105C500021000000A00000000D000000004F040023
:105C600004000000400206000000000001000000E7
:105C700000FF00000000070000000000000000001E
:105C800000FF00000000070000000000000000000E
:105C900000FF000000000000000F040030000000C2
:105CA00000000000010001000000000000000000F2
:105CB00000000000000000000100010000000000E2
:105CC00000000000000000000000000000000000D4
:105CD00000000000000000000000000008000000BC
:105CE00028000000400000009602A5A50128280118
:105CF000B02F0100A000AA006E00AA00AA00AA000E
:105D0000AE103901BC004949C2C2EE02014302088B
:105D1000010E000000186B42C3EB980048034803D3
:105D2000480307050400AE10580149C2FFFF0000F8
:105D3000F0B5C64600B59A48056FADB2012100F036
:105D400033FC86B2974A80235B00D2585211F93B4C
:105D50001340954F3B70954A1370AD1BADB2944AFA
:105D6000C1239B00D0580004400B924B1860924A0C
:105D700013681B181360914A13680133136000F015
:105D80002BFC04008E4B18603F788E4B1B789F4293
:105D900000D1C7E08C4AD35C9F4200D18CE08B4A93
:105DA000002313708A4A13708A4A13608A4A138840
:105DB00001331380834B1F70884BDA5D884B1A7058
:105DC0006409E4B2874B1C70804B1B78002B0ED00B
:105DD000854B1B785B19854A1278D2187D4B1B685E
:105DE000534380221202944663441B0CDBB27C4A6C
:105DF00012789B18DBB27E4A1278D318DBB27D4A48
:105E000012789B18DBB21A00553AD2B27A49520086
:105E1000525A7A490A80D22189008A4200D89BE0EE
:105E200077498C466244774909784A431212D22155
:105E300089008C46624492B273490A806E4A5900C6
:105E40008A5A6E490A80D22189008A4200D88FE09E
:105E50006B498C4662446B4909784A431212D2213D
:105E600089008C46624492B268490A805533DBB29D
:105E7000614A5B009B5A614A1380D222920093428E
:105E800000D881E05E4A944663445E4A12785343E8
:105E90001B12D2229200944663449BB25C4A138048
:105EA0005C4AC6239B00D3589B109B059B0D5A4A06
:105EB000138080BCB846F0BD012F18D0032F00D04E
:105EC00078E7564B01221A70404B1B78802B00D08C
:105ED00070E7394E394B98461968306800F06CFB12
:105EE0004F4B1860002333604246136062E7384B23
:105EF0001B78002B10D04B4B1B88F31A9BB24A4ADD
:105F00001380118889B28020400400F055FB314B8A
:105F100018602E4B80221A702D4B01221A70414BB3
:105F20001E8047E7414B9D4200D849E7274A00239E
:105F300013702F4A1370264A1370264A13603A4A88
:105F40000121494211801B4A1168354A11601A4AE1
:105F500013601A4A136033E7D22189008A1A29484C
:105F6000007842431212891A89B2274A118065E7E4
:105F7000D22189008A1A2348007842431212891AD2
:105F800089B2224A118071E7D2229200D31A1D49A8
:105F900009784B431B12D21A92B21D4B1A807FE72D
:105FA0000002044800000150B3110020B21100208B
:105FB0000004034898110020941100209011002043
:105FC0008C1100205A060020685A0010E6110020AB
:105FD000E7110020A01100209C1100204C06002099
:105FE000E5110020E4110020D9110020490600200D
:105FF000D3110020AC11002068580010AE11002011
:10600000B8FCFFFFDB1100205806002056060020D8
:106010005406002000080348CE110020D4110020AF
:10602000E0110020B0110020640600208D20000047
:1060300010B5CA4B1B889BB2C94AD363C94B1B8896
:106040009BB2C94AD363C94B1B889BB2C84AD3636E
:10605000A023DB051222FF321A61C64B1B78002BEE
:106060002DD0C44B1B78DBB20A2B22D9C24B187837
:106070000002C04B1978C9B200F0A6FA80B2BF4B3B
:106080001880BF4B1B78002B1ED0BB4B1B78BD4A22
:106090001278534380331B12DBB2B94A13701D2BA5
:1060A00002D913001D221A70B54B1A78B64B1A701C
:1060B0000AE0B14B1B78DBB2B04A1380E1E7AF4B8B
:1060C00000221A80B04B1A70AD4B00221A70AF4BF1
:1060D0005B6A5B05DB0F01225340DBB2AC4A1370F5
:1060E000AC4AC1239B00D3589BB29B08DBB2AA4A9F
:1060F00012789A4206D29F4A1178890813785B1A5F
:10610000DBB21370A54B1B789A4A12789A4216D8C4
:10611000994B1B78A24A12889A4210D3974B1B883E
:10612000A04A12889A420AD39F4B1B889F4A128822
:106130009A4204D8964B1B78002B00D1D5E09C4B9B
:1061400000221A709B4A13780133DBB213709A4A0B
:1061500012789A420CD2974B00221A70974B1B78F8
:10616000002B00D1B6E0954A1378013BDBB21370E7
:10617000864B5A6A120901231340914A1288002A59
:1061800000D171E18E4A1288D2088E490A808E4A67
:106190001278002A05D08D4909888A4800888842EB
:1061A0000DD28B490978994209D089490B70002B8F
:1061B00005D0002A00D05BE1834B01321A70824B7C
:1061C0001B78002B08D0814B1B88824A934200D950
:1061D00064E17E4A013313806E4AC7239B00D35883
:1061E0009B109B059B0D7C4A138011887B4A13886A
:1061F0005B00C91813885B189B109BB212889A42E7
:1062000000D153E1754A138060494B6A5B09012252
:106210001340496A490B0A4052001343704A1278EE
:106220009A4212D06F49C95C8A4200D14DE16E4A50
:10623000002111806D4A053111706D4A7B3111705A
:106240006C4A00211180664A13706A4A1388013330
:106250009BB21380684A1288934200D862E1624B75
:1062600000221A80634B1A80604B05321A70604B13
:106270007B321A70614B00221A70614B1B78002B25
:1062800009D05F4A002313705E4A13805E4A138070
:106290005A4B00221A70544B1B88002B00D14BE143
:1062A000584B1B884D4A12889A4204D94B4B1B8885
:1062B0009BB2544A1380514B1B78132B00D842E1F8
:1062C0004E4B002119704F4A13889BB24E480380F1
:1062D000118038E1274B1B78002B00D148E7254A75
:1062E0001378013BDBB2137042E72C4B1B78214A39
:1062F00012789A4200D38BE01F4B1B78284A1288F1
:106300009A4200D884E02B4B00221A70284A137856
:106310000133DBB213703D4A12789A4200D327E76B
:10632000234B00221A70134B1B78DBB21D2B03D8B2
:10633000104B1E321A701BE70E4B1B78DBB2FD2B85
:1063400000D915E70B4B1B78DBB2FD2B00D90FE70B
:10635000084A13780133DBB2137009E758060020AE
:106360000001005056060020000200505406002094
:1063700000030050DB110020E4110020D0110020A8
:10638000D4110020D2110020D311002000000440BD
:10639000C41100200004034842060020DA11002046
:1063A000DC1100203A060020CE11002060060020FB
:1063B000D6110020D511002062060020D91100203E
:1063C000BA110020B8110020881100208611002089
:1063D00084110020F99B0000CC110020CA1100207C
:1063E0005C06002064580010C21100205B060020EB
:1063F00089110020BE1100205E060020BC11002083
:10640000C5110020C8110020C6110020630600201D
:106410004D4B1B78002B04D04C4B1B78DBB2FE2B72
:1064200005D04B4B00221A704A4B1A70A0E6494B1C
:1064300000221A70464A13780133DBB21370464AC1
:1064400012789A4200D393E6414B00221A70434BD4
:106450001B78434A12789A4200D889E63F4A13785B
:106460000133DBB2137083E63E4A3F4911808EE66A
:106470003E4B1B88A32B07D83D4B00221A803B4B79
:106480001A803C4B1A709AE6394A1380374B002227
:106490001A80394A13680133136090E6344B0022A6
:1064A0001A80324B1A80334B1A7095E6334A1288A1
:1064B0009A4202D901339BB2A4E6304A12889A422A
:1064C00000D39FE6013B9BB29CE62D4A12882D49E2
:1064D0000A802D49097899420AD005291AD02B4AF9
:1064E0001288002A00D0ABE6284A29491180A7E685
:1064F00028490120087028490C882448048000207D
:1065000008802049AC32FF320A8024490A780132DF
:106510000A7095E61C4A13701F4A002111801F4A19
:1065200011708DE6184B1B78052B00D1A5E61A4A91
:10653000138801331380A0E6184A00231370184A09
:106540001380184A138010BDD7110020DB110020E2
:10655000D6110020D511002063060020D91100209B
:10656000D8110020B81100207F13000086110020F0
:10657000BA11002088110020B4110020CC11002095
:10658000380600205E0600205B060020C2110020B5
:10659000C21D000089110020C0110020BC11002084
:1065A000C6110020C811002001B40248844601BC75
:1065B000604700BF9542001001B40248844601BC08
:1065C000604700BF6944001001B40248844601BC22
:1065D000604700BF8944001001B40248844601BCF2
:0865E000604700BF7D3C001084
:0400000510001019BE
:00000001FF
