:020000041000EA
:10100000480500201910001000000000A310001077
:1010100000040100000100001249134A134B00F0C4
:101020001AF8134880471349134A144B00F013F879
:101030001349144A144B00F00EF81449144A0020C6
:10104000521A02DD043A8850FCDC124880471248EC
:101050008047124880479B1A03DD043BC858D05094
:10106000FBDC7047605B00100C0000204401002096
:10107000C13F0010985C0010480500206806002061
:10108000B85D001068060020200F0020200F00200F
:10109000F0110020A110001099560010093D001019
:1010A0007047FEE710B582B06B46354ADA80354BA3
:1010B000354A1A60354B0121C022520099508020D8
:1010C0001A58334C22401A508022120231480260D2
:1010D00031480260812292009950304A8423802155
:1010E000C904D1501DE029498122920088588023EB
:1010F0009B0003438B50294AFC235B00D358002BF1
:10110000F9D0C0239B00D358009380231B02214AAF
:101110001360214A13606B469A1DDB88013B9BB22A
:1011200013806B4606331B88002BDCD1009B002309
:10113000009305E080231B02164A1360164A1360D1
:10114000174B1A6C80235B059A42F3D20F4B802118
:101150005858C022920202435A5000228531FF3172
:101160005A5084395A500D4B9532FF328039FF392D
:10117000995083315A580B4802405A5002B010BD62
:1011800050460000BC4003480004103F00000348E4
:10119000FFFFFC7FE0400348E440034800040348AD
:1011A00000400348FFFFFFFB00B583B00023124A55
:1011B0001360124A13600321114803F0F0FB114938
:1011C00080228858104B03438B501423019308E06E
:1011D000019B013B019380231B02074A1360074ACE
:1011E0001360019B002BF3D1FFF75CFF0021044843
:1011F00003F0D5FB03B000BDE0400348E4400348E2
:10120000000403480000034800000180F8B552497B
:10121000524D280003F056FB5149524E300003F066
:1012200099FB5149514C200003F094FB03213000FD
:1012300003F0B5FB0321200003F0B1FBFFF7B4FF7F
:101240004B49280003F0E0FB4A49200003F038FC3A
:1012500082225200A1588023DB000B43A350434A53
:1012600084235B00D3589B06F9D5140082235B00CE
:10127000D25803208243E250E25801210A43E2504F
:10128000384DEA588243EA50EA580A43EA503A4B4A
:101290001A6888235B00E250384A1268E250384AE4
:1012A0000021200003F044FC364A0121200003F015
:1012B0003FFC354A0021280003F03AFC334A012163
:1012C000280003F035FC0021280003F068FB002112
:1012D000200003F064FB00220121280003F067FBDB
:1012E0000021280003F074FB200003F06BFB0321B6
:1012F000200003F054FB0321280003F050FBB0232F
:10130000234AE2500422FF32EA50224A06212000FA
:1013100003F00EFC114EC2277F00F3594022134305
:10132000F3511D4A0721200003F002FCF3598024E9
:101330002343F351194A0721280003F0F9FBC02287
:101340005200B3582343B3508432B15880239B00DA
:101350000B43B350F8BDC046000600200000034810
:10136000EC05002000040348D805002000080348CD
:10137000CC050020900500208C0500208805002069
:101380007805002068050020580500204805002049
:10139000030400009C050020BC050020AC050020D3
:1013A00010B500F007F800F02BFA10BD10B5FFF7EC
:1013B000F7FF10BDF0B5DE4657464E464546E0B550
:1013C00085B0DE4E0021300002F01AFF80235B0062
:1013D0009846F360DA49DB4F380002F02BFF022316
:1013E0009A46FB6304247C638021C904300002F028
:1013F00019FF07233361D44A0121380002F05BFF53
:10140000D24A0221380002F056FFD14A03213800A7
:1014100002F051FF01220121380002F031FF0122C8
:101420000221380002F080FFA4257B5923437B5121
:1014300001218B46F16000243C67F960C549C64F25
:10144000380002F00EFFC54B7B6380210905300098
:1014500002F0E8FE70213161C14A6F39380002F0B4
:101460002AFFC04A0221380002F025FFBE4A0321AC
:10147000380002F020FF0121380002F015FF50462D
:10148000F0603C675846F860B849B94F380002F040
:10149000D1FEA023FB63B74B7B638021890530001D
:1014A00002F0C0FEE020C0013061B34A01213800E3
:1014B00002F001FFB14A0221380002F0FCFEB04AFE
:1014C0000321380002F0F7FE0822F2603C675E4616
:1014D000FE60A026F6050021300002F051FF4746CD
:1014E000F760A849A84F380002F05CFFD2239B00A8
:1014F0009846FB637C64D223DB00994619003800D0
:1015000002F0BBFF8021C904300002F066FF072310
:1015100033619E4A0121380002F07CFF9C4A02217F
:10152000380002F077FF9B4A0321380002F072FF77
:1015300001220121380002F059FF9749380002F0DA
:10154000C3FF3C679549964F380002F02BFF434696
:10155000FB637C644946380002F08FFF8021090557
:10156000300002F03AFF702131618E4A6F39380045
:1015700002F050FF8C4A0221380002F04BFF8B4AE8
:101580000321380002F046FF01220121380002F059
:101590002DFF8749380002F097FF3C678549864F49
:1015A000380002F0FFFE4146F9637C64494638008A
:1015B00002F063FF80214905300002F00EFFE023B6
:1015C000DB0033617D4A0121380002F023FF7C4AB1
:1015D0000221380002F01EFF7A4A0321380002F08F
:1015E00019FF01220121380002F000FF764938007E
:1015F00002F06AFF3C677549754F380002F0D2FE71
:101600004146F96379644946380002F036FF80218B
:101610008905300002F0E1FEE020C00130616D4A32
:101620000121380002F0F6FE6B4A0221380002F078
:10163000F1FE6A4A0321380002F0ECFE012201218A
:10164000380002F0D3FE03220021380002F018FF18
:1016500002220121380002F013FF00220421380089
:1016600002F00EFF01220321380002F009FF7B592E
:10167000584603437B517B59504603437B517B596A
:10168000102213437B517B5908210B437B513C674C
:10169000534D280002F04CFF2B680326B3432B6008
:1016A0005049280002F050FF4F49280002F056FF31
:1016B00000220221280002F05CFF6B6F042213431A
:1016C0006B674A494A4D0022280002F05DFFEB6932
:1016D00050229343EB61EB69493A93433343EB6107
:1016E000EA6B444B1A4080231B011343EB63424BCC
:1016F0002B610C360296019400943A2300220021BB
:10170000280003F041F81F2305220021280003F0E0
:101710006BF81F2305222021280003F04FF82B6CC3
:10172000B343524613432B64344803F041FA05B0E7
:10173000F0BCBB46B246A946A046F0BD0000044836
:10174000C857001000010448C4570010C0570010CB
:10175000BC570010B457001000020448FFFF0000FF
:10176000B0570010AC570010A8570010A057001039
:1017700000040448FF0400009C5700109857001014
:101780009457001084570010000100507457001047
:10179000705700106C570010785700105C570010FD
:1017A000000200504C5700104857001044570010DA
:1017B00050570010345700100003005024570010F9
:1017C000205700101C570010285700100C5700100D
:1017D0000004005008570010045700100057001074
:1017E00000000150FC560010F8560010EC56001096
:1017F00000020048FFE0FFFF43820000E0560010B7
:1018000010B57F4A7F4C0021200002F0E1FB00224E
:101810000021200002F05FFE7B4A0A21200002F036
:10182000D7FB00220A21200002F055FE774A0D2145
:10183000200002F0CDFB00220D21200002F04BFE23
:10184000734A0121200002F0C3FB00220121200085
:1018500002F041FE6F4A0221200002F0B9FB002293
:101860000221200002F037FE6B4A0321200002F023
:10187000AFFB00220321200002F02DFE674A042165
:10188000200002F0A5FB00220421200002F023FE2C
:10189000634A0521200002F09BFB00220521200065
:1018A00002F019FE5F4A0621200002F091FB00229F
:1018B0000621200002F00FFE5B4A0721200002F003
:1018C00087FB00220721200002F005FE574A08216D
:1018D000200002F07DFB00220821200002F0FBFD29
:1018E000534A0921200002F073FB00220921200045
:1018F00002F0F1FD4F4A504C0021200002F068FB3D
:1019000000220021200002F0E6FD4C4A01212000C7
:1019100002F05EFB00220121200002F0DCFD484ABB
:101920000221200002F054FB00220221200002F0DC
:10193000D2FD444A0321200002F04AFB0022032189
:10194000200002F0C8FD404A0521200002F040FBC3
:1019500000220521200002F0BEFD3C4A3C4C0A2139
:10196000200002F035FB00220A21200002F0B3FD26
:10197000384A0B21200002F02BFB00220B21200013
:1019800002F0A9FD344A0221200002F021FB0022CE
:101990000221200002F09FFD304A0421200002F0C5
:1019A00017FB00220421200002F095FD2C4A05219E
:1019B000200002F00DFB00220521200002F08BFD2B
:1019C000284A0621200002F003FB00220621200005
:1019D00002F081FD244A0821200002F0F9FA0022D9
:1019E0000821200002F077FD204A0921200002F0A2
:1019F000EFFA00220921200002F06DFD10BDC04663
:101A000090580010000004408858001080580010C2
:101A10007858001070580010685800106058001076
:101A200058580010505800104858001040580010E6
:101A30003858001030580010000104402858001099
:101A400020580010185800101058001008580010A6
:101A50000002044000580010F8570010F057001022
:101A6000E8570010E0570010D8570010D05700106A
:101A700030B585B001A8044B020032CB32C202F06F
:101A800095FB05B030BDC0469858001010B5FFF763
:101A90008DFC002010BD70B505000E001C0004ABCD
:101AA00018888D421FD395421ED2521A91B2A0427D
:101AB0000CD2AE1BB6B2201A80B270434B08C018CD
:101AC00002F016FD80B2201A80B20DE0AD1BADB25F
:101AD000001B80B268434B08C01802F009FD80B2B9
:101AE000001980B200E0200070BD70B51D0004AB8D
:101AF0001B7888421DD990421DD2AB420CD2441AA9
:101B0000E4B2E81AC0B26043511AC9B202F000FD53
:101B1000C0B2281AC0B20DE0441AE4B2581BC0B2D9
:101B20006043511AC9B202F0F3FCC0B24019C0B20E
:101B300000E0280070BD1800FCE7030008008B429D
:101B400000D21800704770B505000C000A2A15D89D
:101B50000A20801A68434A43801805300A2102F09F
:101B6000C7FC80B284420AD1854202D9013080B2DA
:101B700005E0854203D2013880B200E0002070BD4C
:101B80000B8858400880082202E05B080B80013A6D
:101B9000002A07D00B88D807F7D55B0802484340D6
:101BA0000B80F4E77047C04601A0FFFF002803D078
:101BB000044B20225A607047024B802292035A60E5
:101BC000F9E7C0460001044070B5164B1B78002BA6
:101BD00009D0012B0AD1144B1B88002B19D1134BB0
:101BE00001221A7002E0114B01221A700F4B1B7870
:101BF000002B0DD00E4D2C880E4B0F4A1278520040
:101C0000D05A6043642102F073FC80B224182C8007
:101C100070BD094B1B782D2BE8D9044B00221A709C
:101C2000E4E7C0461D110020381100201C110020DF
:101C3000421100202C1000205511002010B5194B26
:101C40001B78002B0BD1184B1B88002B07D1174B8F
:101C500001221A70164B174A12781A701DE0134BA6
:101C60001B78002B19D0124B1B78002B16D0104A72
:101C7000013B13700E4B1B78642058430D4B1978B1
:101C800002F046FC83B26420C01A80B20A4C23885A
:101C90005843642102F03CFC208010BD034B00221D
:101CA0001A70E7E755110020561100202810002077
:101CB000271000202306002042110020084B1A782C
:101CC000FD2A00D9FD22074B18211970064B0F3948
:101CD0001970064B064909781970064B1A7070473F
:101CE0006D110020400600203E0600205911002002
:101CF0003C0600205811002010B50F4B1B88002B0C
:101D000015D00D4B198889B20C4B1B88AB20800075
:101D1000584302F0EDFB0A4B18800A4B1B78002B4E
:101D200004D0074A99005B185B00138010BD044B78
:101D300000221A80F1E7C046BA11002046060020B2
:101D4000381100203611002009490A889308D21A58
:101D500092B20A80074B1B889B189BB20B809B0892
:101D6000054A1380054A57214B4313807047C046EC
:101D7000380F0020CE1100205A1100205E110020E3
:101D800010B55A4B1B885A4A12889A423ED9594B71
:101D900001221A70584B1A78531EDBB2012B39D925
:101DA000052A37D0042A35D0544B00211970534BE3
:101DB0001978002915D0524B1B880A3B9BB2912001
:101DC0004000834208D84F4B18884F4B984203D8A5
:101DD0004E4B1B78002B04D04D480378022423433C
:101DE00003704C4B1B88642B1CD94B4B1B78002B6E
:101DF00018D1002916D0494B1B78013BDBB2812B4F
:101E000010D947490B7801330B700EE0394B002293
:101E10001A70BFE7434B1B78002BC5D1374B01210C
:101E20001970C4E73E4B002119703D4B1B78FA2B0B
:101E300004D937490B78042003430B703A4B1B78C5
:101E4000002B20D1394B1B885A2B08D9072A06D0E2
:101E5000062A04D0364A13880133138002E0344B3B
:101E600000221A80334B1B88002B02D0304B0022FB
:101E70001A802F4B1B887D2B05D9254A117880238A
:101E80005B420B4313702C4B1B780F2B10D9274B45
:101E90001B88092B0CD8294A13780133DBB2137045
:101EA0000A2B08D91A4A137808210B43137002E051
:101EB000224B00221A70224B1B78002B03D0214B9F
:101EC0001B78022B00D010BD1F4B1B78132BFAD8A8
:101ED0001D4A013313701D4B1B88D32BF3D90C4AB9
:101EE000137810210B431370EDE7C046CE1100208C
:101EF00060060020741100206E110020330F0020B6
:101F000036060020441100208A02000051110020F2
:101F1000480600203E110020261000205511002008
:101F2000320F002030110020940F002056110020A5
:101F3000300F0020381100205D1100202F0F0020ED
:101F40002C110020701100202E0F0020960F002071
:101F500010B582B01B4B1C88A4B2C8221A4B18883B
:101F60005623FF330093194B52002821FFF793FDAE
:101F7000174B1880002C0BD02100164802F0B8FA3D
:101F8000C0B2154B1870782805D978221A7002E073
:101F9000114B00221A70114B00221A800E4B1C7834
:101FA000002C0AD00E4B1878001B002805DD00021B
:101FB000210002F0ADFA094B1880094B1C7002B0E9
:101FC00010BDC046C211002038110020AE10000024
:101FD0003806002035DF0000551100205211002086
:101FE0005411002030B583B0134B1888134C21884E
:101FF0000822FFF7A8FD0300208011485843C00ABB
:1020000080B2104B1880104B1978104B1A789142FF
:1020100004D30F4B00221A7003B030BD0C4C237850
:102020009500521952008D0049194900002500956C
:10203000FFF731FD2070EFE7960F0020200F002002
:10204000102700003411002031110020321100202F
:102050005911002010B56D4A13780133DBB21370AB
:102060006B490A780132D2B20A706A4909780029AC
:102070001AD0032B18D9654B00211970654B1970C4
:10208000654B1B78002B19D0012A17D9604B002211
:102090001A70614B1A70614B1A78082A00D9B0E0A7
:1020A00093005F4AD3589F460029E9D1022BE7D914
:1020B000564B1970574B01311970E1E7002BEAD1EB
:1020C000012AE8D9524B00221A70534B01321A7080
:1020D000E1E7544B1878FFF769FD10BD514B1878B4
:1020E000002804D04B4B1878FFF760FDF5E7FFF7A9
:1020F0005DFDF2E74B4B1878002803D04A4B1B7864
:10210000002B02D1FFF752FDE7E7434B1878FFF7AA
:102110004DFDE2E7434B1878002803D0424B1B7873
:10212000002B06D100280AD03A4B1878FFF73EFD65
:10213000D3E73D4B1878C0B2FFF738FDCDE7FFF786
:1021400035FDCAE7374B1878002803D0364B1B788B
:10215000002B06D1002809D02E4B1878FFF726FD5A
:10216000BBE72D4B1878FFF721FDB6E7FFF71EFD03
:10217000B3E72D4B1B78002B05D02B4B1878C0B242
:10218000FFF714FDA9E7274B1878FFF70FFDA4E729
:10219000254B1B78002B04D01F4B1878FFF706FD4A
:1021A0009BE7204B1878FFF701FD96E71E4B1B7845
:1021B000002B08D11B4B187800280AD0154B187833
:1021C000FFF7F4FC89E7184B1878C0B2FFF7EEFC74
:1021D00083E7FFF7EBFC80E7134B1B78002B08D15C
:1021E000104B1878002809D00A4B1878FFF7DEFC4E
:1021F00073E7094B1878FFF7D9FC6EE7FFF7D6FCB9
:102200006BE7084B1878FFF7D1FC66E7370F002023
:10221000360F0020350F0020340F002069110020F8
:10222000A458001067110020C4110020F0B583B03D
:102230000500D14B43221A709870032800D137E172
:1022400069D8012800D1E3E2022862D1CB4B0022F9
:102250001A70CB49CA78CB4B1A700A79CA4B1A70DC
:102260004A79012314001C40C848047055081D40D9
:1022700090081840C64C2070D6081E40100918401F
:10228000C44C207050091840C34C20709009034082
:10229000C2480370D409C24B1C708B79DBB2C14AAF
:1022A0001370C14A1278934225D0BF4A1370BF4BB6
:1022B0001A7864235A4392B21209D7B2BC4B1F70EA
:1022C000FF2313409A009A18D200D21AD2009B180A
:1022D00098B2BC2102F00CF980B2B64B18801A8873
:1022E0009D235B009A4203D3B24B3A22FF321A80FD
:1022F0003237B14B1F70A24BDA79B04B1A70002DF8
:1023000019D0AF4B1B88452B15D8AE4B07221A703E
:1023100027E00325B9E004280BD1AB4B1A78964B84
:10232000DA7000221A7115325A711E329A7107251D
:10233000ABE00325A9E0002E0FD0A14B1B885A2B40
:102340000BD9002C03D0A14B1B78002B01D1002C02
:1023500007D19C4B06221A7003E0894B1A7A994BDD
:102360001A70002D02D19A4B00221A70844B597AB0
:10237000984A1170997AC9B2974A1170DA7A974BD4
:102380001A70974B18881A787B4BDA700009302244
:1023900002401A71934A12785A71894A1088127849
:1023A0009A71000A07220240DA718F4A12780120DE
:1023B00002401A728D4A10781A7A40000243D2B253
:1023C0001A721A7AD2B21A721A7A89480478640197
:1023D0002020204002431A721A7A86480478A40109
:1023E0004020204002431A72834A12889208D2B2D7
:1023F0005A72012953D0814B1A785F4B9A72804AE6
:102400001388DBB25C4CE37213889B083F22934332
:10241000DBB2E2791343E3717A4A138812782273AC
:102420001B0A6373694B1B78A373774B187864237B
:102430005843FE2102F06CF8C0B2E073734A13886F
:10244000127822741B0A6374714B1B78DBB2A3747D
:102450005D4B1B78E3746F4B1B7823756E4A1368D2
:10246000DBB2637513681B0ADBB2A37513681B0C20
:10247000DBB2E375694A1388127822761B0A637609
:10248000674B1B78DBB2A3761B253B4B5D70654B1E
:10249000012252421A80644B00221A70CBE1634B36
:1024A0001888093102F024F8C0B2334B9872A6E7BD
:1024B00001F0DEFC5E4B00261E70434A13780121BA
:1024C0000B4313705B4B02221A702C4B013A1A70AB
:1024D0002B4C22791202E3789B189BB2564A138048
:1024E00064205843572102F003F880B2534B188000
:1024F0001B88643B524A1380A279120263799B18AD
:10250000504A1380E279294B1A70274B1E70237AA8
:102510000122180010404C490870590811404B48DE
:102520000170990811404A480170D9081140494882
:102530000170190911404848017059091140474874
:1025400001709909DB09464803700A420FD1454BD7
:1025500019321A700A4A937A5B0043490B80D47A85
:10256000E4B2424B1C70304B01221A7095E03D4B97
:102570001A221A70EEE7C046AC0F00207911002035
:10258000CC0F00206D1100203A11002067110020AF
:102590006F110020261000202C1100202D1100208A
:1025A0002B11002072110020711100204106002023
:1025B0003C0600203A060020420600206C11002054
:1025C000381100206E11002048060020551100200F
:1025D0001F11002073110020701100202E11002007
:1025E0005A1100205D110020C4110020B2110020FA
:1025F0007411002060110020960F00202F11002080
:10260000CC1100203E110020DB11002056110020CB
:10261000D31100205C110020B411002042110020D1
:10262000E4110020A40F0020A90F00203411002085
:10263000440600207A110020761100206006002058
:1026400062110020460600201E1100201D110020EE
:10265000240600203B110020681100206A11002090
:102660002A060020D21100202C1000202910002062
:10267000884A1378013B88495B005B5A1B0210783B
:1026800001384000405A60431B1A1B0A1078400072
:10269000435213780133DBB213707E4B1B78DBB2ED
:1026A000772BE5D97D4C227B7D4B1A70227B7D4BAD
:1026B0001A70627B7C4B1A70627B7C4B1A70A07B19
:1026C000C0B218230093AA3364220021FFF70DFA49
:1026D000774B1870E07BC0B209230093403364222B
:1026E0000021FFF702FA734B18703223E25CD2B27A
:1026F000714B1A703323E15C704B19703423E15C29
:102700006F4B19703523E15CC9B26E4B19703623DB
:10271000E35CDBB26C4803705B005B1ADBB29B1AB4
:102720006A4A13703723E05CC0B2193B0093E1336F
:1027300064220021FFF7D9F9654B18703923E25C58
:10274000644B1A703823E35CDBB24F2B05D8604B27
:10275000A5221A705F4BA33A1A70504C4D23E25CCD
:102760001202013BE35C9B189BB25B4A1380190089
:102770003C395A4A11805A4A13804F23E35C1B02AA
:102780004E22A15CC91889B2564B1980FA2040012B
:1027900001F0BEFE544B18805023E25C51084F3BC1
:1027A00019405248017092081340514A137006D0E4
:1027B000474B1B78A42B02D8454BA5221A704D4BD2
:1027C000434A12781A70354B5122985C4A49087076
:1027D000995C4A4A11705222995C494A11705322FD
:1027E0009A5C484B1A70484B1B78002B0CD02B4B33
:1027F00054229B5CDBB2454A1370642B00D844E63C
:10280000130064221A7040E6404B00221A703CE626
:102810003F4B1A783F4BDA70042536E61D4C23787F
:10282000DBB23C4AD05CC0B23B49FFF7A9F9237840
:102830000133DBB22370174B1B78AB42EED3364A21
:1028400013881178334A51556C1C1B0A1355334BAE
:1028500000221A70324A8A235B00D3581B0E7F2253
:102860001A401E239B1A0235AB4210D22D4B002278
:102870001A7003B0F0BD274AD25CD2B22848C021FA
:10288000490042500133DBB29C42F4DAEEE7002308
:10289000FAE7C046A90F00202C100020CC0F002022
:1028A00031110020290600203211002028060020C6
:1028B0003F0600203D0600204E1100204C11002054
:1028C00048110020501100204F1100204D11002010
:1028D0002306002043060020320600203006002098
:1028E0002E0600202C0600204A1100206611002030
:1028F000471100202206002046110020D21100209E
:1029000069110020450600206A1100206B1100208B
:1029100079110020AC0F0020A40F0020AA0F002086
:10292000000200482410002070B52F4B1B78002BAC
:102930003DD02E4B012252421A802D4B5D78EDB2D4
:102940002C4B00221A700CE02A4C2378DBB2284A68
:10295000D05CC0B22549FFF713F923780133DBB20D
:102960002370244B1B78AB42EED36A1C204B9A5C3D
:1029700012025B5D9B181D4A1288934207D01A4BC6
:1029800000221A701C4A13780133137013E01A4B9B
:1029900000221A70194B1B78002B02D1174B013201
:1029A0001A70134B9878C0B2FFF740FC03E0124A4C
:1029B000137801331370104B1B781E2B04D80F4B68
:1029C0001B78002B0BD070BD01F052FA0C4B00228B
:1029D0001A700C4A137820210B431370EFE7002084
:1029E000FFF724FCEFE7C04624100020A60F0020CC
:1029F000CC0F0020A90F0020A20F00207A11002088
:102A0000440600204806002070B582B0204B18888C
:102A1000C72807D91F4B18221A701F4B0F3A1A707C
:102A200002B070BD1D4E33788008C0B218250095E5
:102A300032220A21FFF759F8164C20703378184AD1
:102A40001078009546221421FFF74FF8237883422F
:102A500001D9104B1870134E33780D4A1088800836
:102A6000C0B20925009532220A21FFF73EF80A4C30
:102A7000207033780A4A1078009546221421FFF717
:102A800034F823788342CBD9034B1870C8E7C0468B
:102A900038110020400600203E0600203F0600209E
:102AA000551100203D06002010B5314B1C78314BEC
:102AB0001B78002B0ED0304B1B78002B0AD12F4BEC
:102AC0001A882F4B197878235B1A9A4202DD2A4B19
:102AD00001221A702B4B1B78002B3AD1264B1A7807
:102AE000002A03D1284B1B78002B31D0234B1988A7
:102AF000264B1B784B43544363431B0A5801C01AAF
:102B00008000C018C000224B198801F0F1FC84B28B
:102B10002409FFF779FF1F4B1B78A3421CD21E4AE2
:102B200013701E4B1B78002B19D01B4B1B78164AB9
:102B30001278934201D9144A1370174B124A127833
:102B40001A70154B1B78002B0DD0154BFE221A70F6
:102B500010BDFFF739F8C1E70F4B1C70E1E70A4BD6
:102B600000221A70EDE70E4B00221A70F0E7C04603
:102B70006D1100206A110020551100204211002023
:102B80006B1100201E11002025100020450600209A
:102B90005E1100203C060020591100202610002064
:102BA0005811002070B5304B1B78002B4DD12F4BA6
:102BB0001B78002B0ED02E4B1B78002B0AD12D4BEF
:102BC0001A882D4B197878235B1A9A4202DD284B1C
:102BD00001221A70294B1B78002B02D0244B0122B2
:102BE0001A70244B1888002803D0214B1B78002B27
:102BF00003D1234B1B78002B26D0224B1B78584344
:102C00003C2101F085FC040085B2FFF7FDFE1E4B60
:102C10001B78AB421CD21D4A13701D4B1B78002B36
:102C200019D01A4B1B78164A1278934201D9144ACC
:102C30001370164B124A12781A70144B1B78002B23
:102C40000DD0144BFE221A7070BDFEF7F7FFAEE7F1
:102C50000E4B1C70E1E70A4B00221A70EDE70D4B9A
:102C600000221A70F0E7C046240600206A110020F6
:102C700055110020421100206B1100206811002026
:102C8000251000206D1100203C0600205911002065
:102C9000261000205811002010B5194B1A78002A70
:102CA00026D0184B1B789B189B10174A1380174B84
:102CB0001B78A42B02D8154BA5221A70FEF7BEFF75
:102CC000124B134A12781A700F4B1C88114A128843
:102CD0001A80FFF799FE104B1B78A34209D20F4AC6
:102CE00013700E4B1B78002B06D00D4BFE221A7072
:102CF00010BD0A4B1C70F4E7094B00221A70F7E76D
:102D0000551100206D1100204211002023060020E3
:102D100022060020401100203C060020591100200E
:102D20005811002070B53C4B1B78002B0ED03B4B4C
:102D30001B78002B0AD13A4B1A883A4B1978782322
:102D40005B1A9A4202DD354B01221A70364B1B7812
:102D5000002B02D0314B01221A70314B1C88002C01
:102D600003D02E4B1B78002B03D1304B1B78002B4C
:102D700043D02F4B1B78142B07D8D801C01A80B230
:102D80000A2101F0B5FB2A4B1870294B1B785B0018
:102D9000FE214900C91A89B2264B1B78002B05D0A9
:102DA0001E4B1B788B4229D8C91A89B20A3189B2C5
:102DB0006443081901F09CFB040085B2FFF724FE70
:102DC0001D4B1B78AB421BD21C4A13701C4B1B784B
:102DD000002B18D0194B1B78144A1278934201D952
:102DE000124A1370154B114A12781A70134B1B7844
:102DF000002B0CD0134BFE221A7070BD0021D5E7BA
:102E00000E4B1C70E2E7094B00221A70EEE70D4BE7
:102E100000221A70F1E7C0466A1100205511002007
:102E2000421100206B1100206811002025100020A5
:102E30006D1100202A0600203C06002059110020B8
:102E4000261000205811002070B53A4B1B78002B3B
:102E500061D1394B1B78002B0ED0384B1B78002BDF
:102E60000AD1374B1A88374B197878235B1A9A4264
:102E700002DD324B01221A70334B1B78002B02D03B
:102E80002E4B01221A702D4B1D78002D03D12F4B94
:102E90001B78002B3ED02A4B1C88002C06D02C4BD4
:102EA000187860433C2101F033FB84B2294B1B7836
:102EB0006B43294A128853431B0A5801C01A8000E9
:102EC000C018C000254B198801F012FB80B2000920
:102ED000844200D20400FFF797FD214B1B78A342E8
:102EE0001CD2204A1370204B1B78002B19D01D4B8D
:102EF0001B78164A1278934201D9144A1370194B61
:102F0000124A12781A70174B1B78002B0DD0174BF2
:102F1000FE221A7070BDFEF791FE9AE7114B1C70ED
:102F2000E1E70A4B00221A70EDE7104B00221A70FD
:102F3000F0E7C046240600206A1100205511002049
:102F4000421100206B110020681100202510002084
:102F50003A1100206D1100203C1100205E1100206C
:102F60003C06002059110020261000205811002096
:102F7000F0B583B0454B1B885A2B05D8462B79D921
:102F8000434A1278002A75D1414A1278002A10D09B
:102F90003F4900220A703F490A803F490A803F4961
:102FA000FA20400008803E490A803E490A803E4A95
:102FB00013803D4A1088C01A82B200B2354B188087
:102FC00036490B88D3181BB20B80FA2189008B423B
:102FD00052DD324B1980304B1988521A15B2304AE3
:102FE0001580188084002D4B0020185E02F00EFB27
:102FF0002E4A2F4B02F0B2F806000F00200002F01C
:1030000005FB32003B0001F0E1FD06000F00680007
:103010004019400002F0FAFA32003B0001F0D6FD00
:1030200002F0C2FA00B21F4B188000282ADB1D4BA9
:1030300000229A5EFA239B009A4203DD194BFA2282
:1030400092001A801B4BF4221A701B4BAB3A1A7079
:103050001A4B1B4A12781A70124B0020185E80100F
:10306000C0B2FE2300930023FA220021FEF73DFDAB
:10307000144B187003B0F0BD002BACDA074B0021E5
:103080001980A8E700221A80D1E7C0463811002035
:10309000270600202C0F00202A0F0020280F0020D8
:1030A000260F0020240F0020220F0020333333335B
:1030B0003333E33F400600203E0600205911002034
:1030C0003C0600205811002070B582B0564AC72334
:1030D0009B00D05880108005800D544B1880544BB5
:1030E0001B78002B01D102B070BD524B1A78524BA5
:1030F00019788008FF2300930023FEF7F6FC0400F4
:103100004E4B18704E4B1B789800C018C0003221EF
:1031100001F0EEF983B21E339BB21802C01A3230AE
:10312000642101F0E5F986B27F2C26D80004000C5A
:1031300060433F307F2101F0DBF980B2FF2800D9E6
:10314000FF20C0B23D4B18703E4B1B78002B22D0A5
:103150003D4A13703D4B1B78002B06D03C4B1B782F
:10316000002B02D1384B00221A70374B18780028F8
:103170001ED1354B00221A70B5E7FF239B1B9BB273
:103180002000803858433F307F2101F0B1F980B2F0
:10319000801980B2D2E72F4B1B78022B03D02A4B29
:1031A00000221A70D6E70028F9D0274B1870D1E713
:1031B000294B1B7800930023FF220021FEF795FC8A
:1031C00004000500254B1B788342D2D2244B18887B
:1031D000FE280FD9234B30221A70234B273A1A703E
:1031E0001D4B1B78AB421BD21C4A13701F4BFE2297
:1031F0001A70BEE7C0B230230093C433FF222821E7
:10320000FEF773FC174B1870154B187809230093C1
:103210004033FF222821FEF768FC134B1870DFE7CC
:103220000E4B1C70E2E7C04600080348960F0020D2
:103230002C11002028060020290600202F11002034
:10324000481100202E110020301100202D110020E7
:1032500055110020701100203C060020591100205B
:1032600038110020400600203E06002058110020A2
:1032700010B5754B1B78002B1DD0744B1B78143385
:10328000734A1370724B1B78822B02D9704B8222C7
:103290001A70704BF4221A706F4BAB3A1A706F4B66
:1032A00019782820FEF749FC6D4B18706D4B684A61
:1032B00012781A7010BD654B18786B4B18706B4BF9
:1032C0001B78002B0ED16A4A1288002A0AD1604B63
:1032D00032321A70674B1A70674B00221A80674BA4
:1032E0001A80CFE7002B6FD0614B1B88644A12888D
:1032F000934219D2634B04221A70634A1378591C03
:103300001170042BBED9524B1A785A4B1B789A4233
:1033100006D24F4B01321A705B4B00221A70B1E794
:10332000544A01331370F7E7544909888B4217D286
:103330009B1A9B00DBB2534A137053490A78501C06
:10334000087093429ED2424B1B784A4A12789342AD
:1033500002D23F4A013313704B4B00221A7091E79F
:103360004A4A1288934216D2D31A9B00DBB2454ACE
:10337000137045490A78501C0870934200D381E7C6
:10338000334B1B78282B02D9314A013B13703E4B3B
:1033900000221A7076E73B4B04221A703A4A1378DF
:1033A000591C1170042B00D86CE7294B1B78282B73
:1033B00006D9274A013B13702E4A1378013B13703C
:1033C000314B00221A705DE72E4B0A221A702E4AEA
:1033D0001378591C11700A2B00D853E72C4B19880D
:1033E000002925D02A2903D9194A1378013B1370E3
:1033F000214A13885C1C1480092B15D91D4A1378A7
:103400000A3313701A4B1B88584301F081F880B2BD
:103410001A4B18800200143A194B1A8014301B4BB7
:103420001880124B01221A70174B00221A7029E7DC
:10343000104B1B78772BF7D805490A7801320A70B0
:103440000C4A01331370EFE7681100206C11002063
:1034500026060020400600203E0600203C060020F4
:1034600059110020581100202A1100201F1100209E
:1034700056110020250600202611002024110020CE
:1034800022110020281100202911002020110020E5
:103490003811002010B5BE4BC2221A70BD4B793ACC
:1034A0001A70BD4B00221A70BC4B1A70BC4B1B78B3
:1034B000002B1FD0BB4B1B88C82B1BD9BA4A1278D4
:1034C000BA490978914215D9B94A1278002A11D11E
:1034D0003833DBB2B74A13705B09B74A13701378FD
:1034E000DBB2052B02D9130005221A70B34B01225F
:1034F0001A7002E0B14B00221A70B14B1B78062BF8
:1035000002D0B04A01211170AF4A1278002A1DD1B1
:10351000082B3BD89B00AD4AD3589F46FFF7C4FA0F
:1035200034E0FFF73FFB31E0FFF7B6FB2EE0FFF79B
:10353000F9FB2BE0FFF788FC28E0FFF719FD25E0F9
:10354000FFF796FE22E0FEF7B9FB1FE0A04B1A78CA
:10355000642353431B11DBB28F4A1370BC2B02D977
:103560001300BC221A709B4B1B78002B02D08A4B95
:1035700000221A70984B1B78884A1370FD2B02D9D1
:103580001300FE221A70954B32221A70944B1B784E
:10359000012B0AD0022B11D1FFF796FD914B1B781E
:1035A000022B12D0032B16D01DE0FEF71BFD8E4B15
:1035B0001B78002BF2D0FFF787FDEFE78A4B1B78D3
:1035C000002BEBD0FFF780FDE8E7884B28221A702C
:1035D000844B253A1A70854B1B78002B00D187E06D
:1035E000824A013B1370824B1A88824B1B889A4295
:1035F00004D27C4B1B78042B00D185E07E4AC1238A
:103600009B00D3589BB29B087C4A1278002A11D0A9
:103610007B490978994200D37FE07A490B780133DE
:103620000B70784B1B789A4204D86A4A1378402171
:103630000B4313705C4B1A789300D2185301724AF3
:103640001360724A11685B18136071490A68013A85
:103650000A60002A07D19B096E4A136040220A6063
:103660006A4B00221A606C4B1B78002B12D1594B0D
:103670001B7878221A420DD1684A1278002A09D0A4
:10368000674A1278002A05D0002B4AD0654B1B7878
:10369000002B46D1644BC2221A70644BB93A1A709F
:1036A000424B00221A70624B1A705C4B1B78002B45
:1036B00000D1C7E0584A1278002A13D1454A12783F
:1036C000782111420ED1374A1288002A00D0B9E081
:1036D000314A1278002A00D0B4E0564A1278002A03
:1036E00000D0AFE04D4B00221A7000F0C1FB10BDBE
:1036F0003C4B04221A70504B023A1A70354A137828
:1037000001218B4313706EE7324A137820210B435B
:1037100013704A4B01221A7070E73A4B002119705E
:103720007FE7474B1B78BC2B02D9454BBC221A7054
:10373000194B1A78424B1B789A4201D9164A1370DA
:10374000164B1B78FF2B1ED0114B1B78172B02D862
:103750000F4B18221A700F4B1B78082B02D80D4BF9
:1037600009221A700A4B1A782F4B1A70094B1A78D3
:103770002E4B1A70084B1A780C4B1A70074B1A789C
:103780002B4B1A7091E7054BFE221A70DCE7C046FE
:10379000400600203E06002059110020581100204C
:1037A0006611002056110020E4110020DC110020D9
:1037B0003011002065110020D8110020D711002001
:1037C0006E11002027060020940F0020C85800101A
:1037D0002106002048060020200600206D11002050
:1037E000701100207A1100202E1100207811002085
:1037F000CE1100206211002000040348430600207F
:103800004206002064110020880F0020900F002045
:103810001C0600208C0F0020C4110020440600204C
:103820006F1100206811002063060020620600204E
:10383000DA110020DB110020791100206011002036
:103840003C060020002B00D051E70D4B1B78002BCD
:1038500000D04CE70B4B1B889F2B00D947E70A4B46
:103860001B78002B00D142E7084B01221A70084B4D
:1038700000221A70074B1A7000F034FB37E7C0467D
:10388000C4110020561100205911002044060020C8
:10389000DB110020D9110020030043434B43434375
:1038A0001B0C80225200521A5043C0188030000A6C
:1038B000704770B5040000290CD000280BDB802372
:1038C0005B00984200DD1800002906DBFFF7E4FFEB
:1038D000002C0ADB70BD4042F1E7494280256D00B3
:1038E000281AFFF7D9FF281AF2E74042F2E7000052
:1038F00070B57F4B1B78772B27D97E4B7E4A128879
:103900001A807E4B00229B5E192B07DD7C4B002228
:103910001A807C4B1A807C4B01321A707B4B1A88C0
:103920007B4B1A807A4B1B88724A1288934237D994
:103930009B1A9800C0184001764B198800F0E8FDEA
:1039400084B2A02C2DD9A0242BE0704B188880B213
:10395000714C21880422FEF7F6F82080644A13781F
:103960000133DBB21370782B06D0694B1880614BA2
:10397000614A12881A80D5E7684B1B78002BF4D077
:10398000674B1B88984207D9664B1B88984203D225
:10399000654B00221A70E8E7634B01221A70E4E7D6
:1039A0000024624B197800291BD1614B00221A8038
:1039B000604B1970604B1A70604B1A70604B282274
:1039C0001A70604B1B88A34238D2E31A9BB23B2B80
:1039D00061D94F2B61D9632B61D9812B61D9102219
:1039E0004DE09620000100F093FD80B2544B1B780F
:1039F0001A00834205D2272B03D8514A0133137092
:103A0000DFE78242DDD9282BDBD94D4A013B137019
:103A1000484B1A78002AD4D047490B784A48C65CEC
:103A2000434D2888801B28804248013A02700133A8
:103A3000DBB20B703F2213400B70C2E71B1B9BB223
:103A4000C5E73D490B784048C65C394D2888801B46
:103A500028800133DBB20B703F2003400B703449E8
:103A60000B88E3180B8035490B783748C454013371
:103A7000DBB20B703F2003400B70013AD2B2002A38
:103A800011D02C4B1B782E4909788B42D9D029496B
:103A900001330B70E3E70122F1E70222EFE7042292
:103AA000EDE70822EBE7234B1978002904D0204BDF
:103AB000188800F02DFD84B2A02C00D9A024214B41
:103AC0001C80224B1B78143B5900C9188900200028
:103AD000FFF7EFFE80B21E4B18801E4B18801E4B66
:103AE00018801E4B1B7843431D4A138070BDC0468F
:103AF000840F0020360600203206002052110020DC
:103B0000C8110020C6110020C5110020CA110020D4
:103B1000441100202C060020340600203B11002018
:103B2000300600202E0600205111002055110020E3
:103B30003E0F0020400F0020420F0020410F0020C8
:103B4000180600203C0F0020440F00204C110020DC
:103B500042110020401100203E11002045060020A7
:103B60003C11002010B52D4B1A882D4B9A4203D8DA
:103B70002A4B1B88092B2AD82A4B00221A80FEF7D1
:103B8000BBF8FEF7E5F9FEF7DFF8274B18780001E0
:103B9000142100F0BDFC254B1870254B188800013E
:103BA000142100F0B5FC234B1870FFF7A1FE224B47
:103BB0001A78511C197003231340022B2AD00FD8F6
:103BC000002B12D0012B12D1FEF744FA0FE0134B59
:103BD000198889B2194800F08BFC124B1880CEE787
:103BE000032B04D1FEF7CCF801E0FEF79DFEFFF7B2
:103BF00051FC134B9978134A1180D978124A1180DD
:103C00001979124A11805979114A11809A79114B08
:103C10001A8010BDFEF788FEE9E7C0466406002062
:103C2000FFEF000056110020E41100205D1100207C
:103C3000D01100205C1100203A0F002090D003002A
:103C4000A4110020A00F00209E0F00209C0F002038
:103C50009A0F0020980F00200AE0244A1370244B8A
:103C600001221A7004E0562B20D9214B00221A7031
:103C7000204A8A235B00D3581B0736D41E4B1B787F
:103C8000002B32D11B4A8E235B00D358DBB2184A7B
:103C90001278D1B2012AE6D002290FD00029E7D14B
:103CA000592BDAD0124B00221A70E1E70F4A5370F9
:103CB000124A13700E4B02221A70D9E7104A11787B
:103CC00002310A48435413780133DBB2137013787E
:103CD0000A4A12789A42CBD8094B00221A70044B38
:103CE0001A70054B01321A70C2E77047CC0F0020E2
:103CF000A80F00200002004824100020C90F002057
:103D0000CA0F00207047000010B5454B00E0013B92
:103D1000002BFCD1FDF7BAFE002800D001BEA02187
:103D2000C9050B683F4803408022920013430B6093
:103D30003D490B6803401A430A60FDF767FA00F03B
:103D4000D7F93A4B42221A70394B00241C7000F00C
:103D5000ADF8384B1C70384B01229A60374B00E0AD
:103D6000013B002BFCD1364BC622920098583549B6
:103D700008408021C90101439950802189041960BC
:103D80009858314908408021C90301439950802245
:103D9000D2041A60A023DB050F22DA602B4A116BD4
:103DA00080235B000B431363244B00E0013B002B9B
:103DB000FCD1274B5A6801210A435A60254A9A6070
:103DC000254B1B6F9BB2254A1380254A138009E0BF
:103DD000FFF742FF0DE0214B1B88D31A9BB221490C
:103DE0008B4217D81A4B1B4A9A601F4B1B78002B2B
:103DF000EED0174B174A9A60174B1A6F92B2184BB6
:103E00001B889342E7D919490B6801330B60144BA7
:103E10001A80E0E7114B1A80FFF7A4FEE2E7C046E4
:103E2000804F1200FFFCFFFF00000448AC1100208F
:103E3000361100205A06002000000150C0D40100B5
:103E400000E100E0FF00FFFFFFFF00FF0000014076
:103E500000000240FECAADAB0002044882110020FF
:103E6000801100206A180000241000207C1100201E
:103E70000323034A1361034A1361034A1361704722
:103E800000010050000200500003005010B5054A28
:103E9000137840210B431370034B00221A70FFF775
:103EA000E7FF10BD480600204406002070B500F072
:103EB00048F80A494A6A920801231340084A1370D5
:103EC0004D6A02242C40234313704C6AA400042141
:103ED00021400B43137000F038F870BD000104401E
:103EE000B311002010B5FFF7E1FF0D4B196B8022D5
:103EF00052000A431A631A6B0A490A401A6309E01E
:103F0000074B196B802252000A431A631A6B05494A
:103F10000A401A63044B9B68DB07F1D510BDC0460D
:103F200000000140FFFEFFFF000100500000000004
:103F30000230800803D00138FDD1C046C046C046DB
:103F40007047EFF3108072B6704780F310887047A7
:103F5000064B1A89802149010A431A8148215A5A7D
:103F60008020000102435A527047C04600000540BD
:103F700010B50D4A13681B0AFF210B400B48036064
:103F8000126811400A4A1160002B08D01B02C918A0
:103F9000084800F0ADFA4000074B186010BD064B12
:103FA000064A1A60FAE7C04600030140EC110020FF
:103FB000E8110020000024F4FC3F00200048E80144
:103FC00010B5FFF7C5FFFDF753FD10BD70470000AA
:103FD000F0B5C64600B58B08984604339B001E58C2
:103FE00003250D40ED00F827AF40BE431E50436F40
:103FF0004F000326BE40B3434367CB0810339B00FA
:104000001F5807260E40B6000424B440A7431F5093
:104010001F585478B44026003E431E500D4B984222
:104020000ED00023D356002B10DB44460434A400EA
:1040300021581278AA400A43225080BCB846F0BDED
:10404000036E01268E40B3430366EAE753688B4054
:104050004360EAE70002044010B50C000DE0800860
:1040600008490B68084A134002021343074A1343E6
:104070000B60044B1B685B00FBD4A3008342EED3B0
:1040800010BDC04600030140FF000FC00000F03F1C
:1040900030B50C000EE0012290000A490B680A4D71
:1040A0002B4092021343094A13430B60054B1B68D4
:1040B0005B00FBD48300A34203D20028EBD00200B4
:1040C000EAE730BD00030140FF000FC00000F03FF1
:1040D000014BC3225A62704700000140034BC022CB
:1040E0005A62024B5B6A5B07FBD4704700000140D9
:1040F000034A938C01210B439BB293847047C046C3
:104100000010014010B50400FFF7E8FF054B1869E7
:1041100020431861034B1B685B00FBD4FFF7D8FFFB
:1041200010BDC04600030140034B9B6803405A1E6C
:104130009341D8B27047C0460003014070B50400F7
:104140000D00FFF7CBFF154B1A68120AFF20104035
:104150001968134A11402943124A0A431A600F4B47
:104160001B685B00FBD4A04214D82100FFF790FF2E
:104170000A4A13680C490B4024021C43094B234391
:104180001360064B1B685B00FBD4FFF7A1FFFFF732
:10419000EFFE70BD2100FFF75FFFE9E7000301407C
:1041A00000FF0FC00000F03FFF000FC010B504007B
:1041B000FFF794FF074A136807490B40A1680B43B8
:1041C00061680B431360FFF783FF60782178FFF786
:1041D000B5FF10BD00030140FFFFF0FF014B186861
:1041E0007047C046FC3F002010B5044B984200D0F9
:1041F00010BD0420FFF786FFFAE7C0460000044820
:1042000070B505000C00FFF7EFFF80235B00EB604B
:104210002B68034A1340A4031C432C6070BDC046A6
:10422000FF3FFFFF03680A0C93430904090C19437D
:10423000016070470B6843614B799B06DB0F1B05E0
:1042400043600B791B071B0F43624B791B071B0F46
:1042500003624B79DB06DB0F83610B791B09C362B9
:1042600070470B6843614B79DB07DB0A43600B79CE
:104270001B071B0F43620B791B09C36270470000C9
:1042800010B543680324A343194341604369012ADD
:1042900003D0044A1340436110BD8022D20013436F
:1042A000F9E7C046FFFBFFFF436830229343090153
:1042B000194341607047F0B5C64600B54C1EE4B2E4
:1042C00006686500EDB22F001037FFB20323984651
:1042D000BB409C4633006646B3439C465378BB4084
:1042E000664633431531CFB20121B9408B439178F3
:1042F000B94019431935EDB24646AE40B143D378C3
:10430000AB400B43A100C9B20F248C40A3431278E9
:104310008A401343036080BCB846F0BD1C3189005D
:10432000401840687047000030B50B291AD8890042
:104330000D4B5B589F46032500240DE0C0252D0141
:104340000A2409E0C025AD00082405E00C2502245C
:1043500002E0C025AD010C24A8214358AB43A24084
:104360001A43425030BDC046F85A001010B5A02381
:10437000DB05984200D010BD0220FFF7C3FEFAE72C
:1043800070B505000C00FFF7F1FF80235B00EB60C8
:104390002B68034A1340A4031C432C6070BDC04625
:1043A000FF3FFFFF012303610B6843614B7BDB068B
:1043B000DB0F1B0543600B7B1B071B0F43620B7B53
:1043C0001B09C3624B7B1B071B0F03624B68836196
:1043D0008B68142253408364704703680A0C93432C
:1043E0000904090C194301607047000010B54368C7
:1043F0000324A343194341604369012A03D0044ABB
:104400001340436110BD8022D2001343F9E7C04638
:10441000FFFBFFFFF0B5C64600B54C1EE4B20668D0
:104420006500EDB22F001037FFB203239846BB4062
:104430009C4633006646B3439C465378BB40664671
:1044400033431531CFB20121B9408B439178B94044
:1044500019431935EDB24646AE40B143D378AB406F
:104460000B43A100C9B20F248C40A34312788A40A9
:104470001343036080BCB846F0BD41637047000041
:1044800030B50B291DD889000E4B5B589F46002480
:10449000032510E00A24C0252D010CE00824C025C6
:1044A000AD0008E00424302505E002240C2502E0DC
:1044B0000C24C025AD01A8214358AB43A2401A43A8
:1044C000425030BD285B00104B6803658B68436524
:1044D0000B68C364704710B5436F490003248C40D8
:1044E000A3434367436F8A401343436710BD0000F3
:1044F00010B5EFF3108272B6044B04245C631862AB
:104500005962986A82F3108810BDC04600000340CB
:1045100010B5EFF3108272B6044B00245C6318628E
:104520005962986A82F3108810BDC04600000340AB
:1045300010B5044B984200D010BD8020FFF7E2FD7B
:10454000FAE7C0460000015070B504000D00FFF707
:10455000EFFF0323E3602B68236070BD03689B07B4
:1045600005D103680A6813430360002070470120E7
:10457000FCE710B5436F103101248C40A3438A40FF
:104580001A43426710BD0000F8B504000E00170082
:1045900000F052F9357A002D00D11035002F07D0E8
:1045A0003379002B26D031682A00200000F088F8EB
:1045B000F379013B5B006D0801352D022B43144A52
:1045C0001343E3637379013B1B06812252001343BB
:1045D0006363B379002B13D0626B013B1B0413435D
:1045E0006363A023DB00A36301235B42E36473895D
:1045F0002364F8BD31682A00200000F00BF8D7E7EB
:10460000626B7379013B1B0413436363E9E7C046A4
:1046100001000300F0B5DE464F4680B583B0834607
:104620000C001500632941D9002A01D101203EE088
:10463000FFF7D4FD6421FFF75BFF81466421200072
:10464000FFF756FF07001C4E012301938023DB0078
:1046500000931C0000E0013C002C12D0390069439B
:1046600048466043FFF744FF830A8005800D80229F
:10467000D2009342EFD88642EDD906000193009410
:10468000E9E7009F013F80231B023B435A46136129
:1046900053690A4A1340013DAD022B43019E013E7E
:1046A000360433435A465361002000E0012003B032
:1046B000C0BCBB46B146F0BDFF030000EF8000FC6C
:1046C000F0B5DE4657464E464546E0B583B08046D7
:1046D000894617000192FFF781FD06004B465F43B4
:1046E000B8424ADD3900FFF713FF0400012506E058
:1046F0000135290079433000FFF70AFF0400204B01
:104700009C42F5D8019F3900614369433000FFF7AF
:10471000EFFE8346631C9A463900594369433000D3
:10472000FFF7E6FE4B46181AC317C01858404B4611
:104730005A469B1ADA179B185340984200DBA24650
:104740008022D2005346D21A8023DB011343424613
:10475000136153690B4A1340019F013FBF023B4362
:10476000013D2D042B4342465361002003B0F0BCB1
:10477000BB46B246A946A046F0BD0120F6E7C046BA
:10478000FE030000EF8000FC70B504AC247845699E
:10479000094E3540002A0DD0102211431B04194345
:1047A0000C43059B1B021C43069B9B021C432C4392
:1047B000446170BD0022F0E72C8000FC70B58425B8
:1047C0006D004459064E344044514459054E34401E
:1047D0001B020B43120613431C43445170BDC046D9
:1047E000FFFFFFF8C0C0FFF870B586256D00445983
:1047F000074E344044514459064E34401B020B438B
:10480000120613431C4380235B052343435170BDB1
:10481000FFFFFFF8C0C0FFEF10B5064B984200D075
:1048200010BD0820FFF76EFC0820FFF77DFC002874
:10483000FAD1F5E70800004810B504009023DB0525
:1048400098420CD0084B984209D00323E360E368F8
:10485000DB07FCD5236C0F229343236410BD034870
:10486000FFF7DAFFF1E7C046000200480800004801
:1048700010B54B075B0F8A01920D12041343F82405
:1048800064000351CB00DB0F1B070A01920F920655
:1048900013438A00D20F520713434900C90F8907F7
:1048A000194302590A4380231B061343035110BDC9
:1048B00010B5034BFF221A600120FFF723FC10BD47
:1048C0000005014070B504000D00FFF7F1FF6B69B2
:1048D00023606A6880231B0213438022A350AA68C6
:1048E000A023E250EA680433E2502A69DD33FF3343
:1048F000E2502A68C93BFF3BE25070BDF0B5C646A6
:1049000000B5002A19D1CA06D20E90464905490FB2
:104910001F26E022D20094460025082728339B005A
:104920001C5862469443B9402143B1434246AA40D1
:104930000A431A5080BCB846F0BDCA02D20E904657
:104940004901490FF8267603E022D2049446102547
:104950001827E3E770B504000D0049680023002222
:10496000FFF7CCFF6968002301222000FFF7C6FF94
:10497000A968012300222000FFF7C0FFA9680123D6
:1049800001222000FFF7BAFF2A698023E250EA687B
:104990003833E25029682000FFF76AFF70BD10B578
:1049A000802283580324A3431943815010BD10B5BE
:1049B0008A4200D90131C02283580324A3431943FA
:1049C000815010BDC022835803218B438350704710
:1049D00030B50025002300E00133012B06D8094A39
:1049E0009C00A2588242F7D11D00F5E78D4200D904
:1049F0000131C0240359033101228A40134303517A
:104A000030BDC046585B0010F0B5002309E0284ACD
:104A10009C00A55884242A59264E32402A5101333D
:104A2000DBB2012BF3D90B789B0702D100270022C0
:104A300012E080273F01FAE71D4B9400E6588425D9
:104A400074591D4B1C400B781B079B0F1B02234303
:104A50003B4373510132D2B2012AEDD94A68174B58
:104A600013438022920083508B68012213438122DA
:104A7000920083500A7803231340022B01D00023B5
:104A800012E081229200815880235B020B43835005
:104A9000F5E7074A99008858842144588022D204B7
:104AA000224342500133DBB2012BF2D9F0BDC046A4
:104AB000585B0010FFFFFFFBFFFCFFFF0080800042
:104AC00010B58423C258184C2240C250C458813BB0
:104AD0009C430A7813079B0F2343920701D00822B7
:104AE0001343842283504A68104B134380225200A0
:104AF00083508B68FF3A13430432FF3283500A78A5
:104B000003231340022B06D08422815880235B04A8
:104B10000B43835010BD82225200815880235B02D8
:104B20000B438350F0E7C046FFFFFFFE008080800C
:104B300070B5137B8826845901258D40AC438B408A
:104B4000234383510D23D356002B17DB012908D0B3
:104B5000002922D1B02403591F25AB4303510E0075
:104B600005E0B02403590E4D2B400351803EB02583
:104B700043590D241457B44023434351C8240359C7
:104B800055682B4303510834035995682B4303514F
:104B90001368803189000B5070BD0026E7E7C046DE
:104BA000FFE0FFFF10B580208000FFF7ABFA10BDDB
:104BB00010B50400FFF7F6FFA268034B5A60626865
:104BC0001A6122685A6110BD00000240F7B5DF0F7C
:104BD000BC460D034C001E03C90F00916D0A410F26
:104BE000760A570F294337435D00009E640D6D0D13
:104BF000C000D200631B664500D02EE1002B00DC14
:104C00007AE0002D3CD13D0015431ED05D1E012BE6
:104C100018D1821882428041C919404209181000F7
:104C20000A0200D402E1BA4A0133934200D18AE277
:104C3000B84C42080C40012101400A43E0071043F0
:104C40006108F3E0B24EB34222D14C07CA08B04922
:104C5000C00804438B4206D12100114300D175E204
:104C6000802109030A432000AB4C1B05120323409B
:104C7000120B1343009AD2071343190003B0F0BD7F
:104C8000A34DAC4200D1DDE180252D042F431D0052
:104C9000382D2CDC1F2D19DC20233E005B1B9E4091
:104CA000B44616000193EE4063461E43019BEF405D
:104CB0009A4013005A1E934133431B18834280418C
:104CC00079184042091818002300A9E72B003E007C
:104CD000203BDE400023202D03D040335B1B9F4050
:104CE0003B0013435A1E934133430027E5E73B0043
:104CF00013435A1E9341F8E7002B50D02B1B002C76
:104D000012D10C0004430CD05C1E012B06D180187C
:104D100090429241C9195242891881E77C4EB342B0
:104D20000AD13900100090E7794CA54200D104E285
:104D30008024240421431C00382C2BDC1F2C18DC7D
:104D400020230E001B1B9E40B44606000193E64044
:104D500063461E43019BE14098400300581E834177
:104D60003343981890429241C91952422B00891836
:104D700056E723000E00203BDE400023202C03D00A
:104D800040331B1B99400B000343591E8B41334397
:104D90000021E6E70B000343591E8B41F8E75F4D06
:104DA000631C2B4234D10B000343002C14D1002B85
:104DB00000D1BDE13B00134300D11EE182188242C5
:104DC0008041C919404209180B0200D4B1E1514B8E
:104DD00010001940012338E7002B00D1ADE13C0061
:104DE0004B4B144300D130E74B07C0081843CB08A6
:104DF000802109030B4206D0FC080C4203D123009A
:104E0000D0087F073843410FDB001943C00019E188
:104E10003F4CA34200D196E1821882428041CF19D3
:104E200040423F18F807520810437908420709D05A
:104E30000F220240042A05D0021D824280414042D6
:104E4000091810000A0200D4FFE6314A01339342E8
:104E500000D178E12F4A1140F7E6002B60DD002DEC
:104E600036D13D00154300D1EFE65D1E012B0DD17B
:104E7000821A90428041C91B4042091A10000A025E
:104E8000D4D549021C004D0A019008E1204EB342DE
:104E900000D1DAE6382D35DC1F2D22DC20233E0040
:104EA0005B1B9E40B44616000193EE4063461E43D2
:104EB000019BEF409A4013005A1E93413343C31A9B
:104EC00098428041C91B4042091A18002300D6E7C6
:104ED0000F4DAC4200D1B5E080252D042F431D00BD
:104EE000D8E72B003E00203BDE400023202D03D0DE
:104EF00040335B1B9F403B0013435A1E9341334397
:104F00000027DCE73B0013435A1E9341F8E7C046F5
:104F1000FF070000FFFF7FFF0000F07FFE0700009B
:104F2000002B54D02B1B002C15D10C0004430FD0A8
:104F30005C1E012B09D1101A824292416346791AF4
:104F400052420093891A012399E7814EB3420AD154
:104F500061460091E5E67E4CA54200D1EBE080245D
:104F6000240421431C00382C2CDC1F2C19DC2023AA
:104F70000E001B1B9E40009333000600E6401E43BC
:104F8000009BE14098400300581E83413343D01AF0
:104F900082429241791A5242891A62462B0000924B
:104FA0006DE723000E00203BDE400023202C03D0C1
:104FB00040331B1B99400B000343591E8B41334365
:104FC0000021E4E70B000343591E8B41F8E7614ED3
:104FD000651C354250D10E003D0006431543002CA0
:104FE00028D1002E0FD1190018000093002D00D1F8
:104FF0002BE6390010006346009303000B4300D1F9
:105000009EE0002312E7002DF7D0851AA842B64192
:10501000CC1B7642A41B260206D5101A824292416E
:10502000791A5242891AE6E7280020435CD0210011
:105030002800E2E7002E07D1002D7CD18021180046
:105040000093C903424B00E6414B002D00D1FCE523
:105050004B07C0081843CB08802109030B4200D13D
:10506000D1E6FC080C4200D0CDE6D00862467F07AE
:10507000230038430092C6E6851A0195A842AD4147
:105080006D422E00CD1BAD1B2E022AD5131A9A425B
:105090009241019363467F1A5242BD1A0093002D3C
:1050A00025D0280000F0DAFA0300083B20220199FD
:1050B0000198D21A9D40D140984029439C4233DC4C
:1050C0001B1B5A1C1F2A1EDC20230D009B1A0400E8
:1050D00098409D40D440431E98412543D1402843E9
:1050E0008BE701982843DAD101000090ADE50198E3
:1050F00000F0B4FA030018331F2BD7DD01990838EC
:1051000081402800DAE70C001F3BDC400023202A06
:1051100003D040339B1A99400B0003435A1E93411E
:1051200020000021184368E70B4AE31A11407DE68E
:105130003900100061E7634600933900100081E7F1
:105140001900180081E5002108007EE50A008AE5C3
:10515000FF070000FE070000FFFF7FFFF0B58BB0E8
:10516000009201930D034B00CA0F06002D0B5B0D3F
:10517000039200D111E1CE4A934200D135E1ED0016
:10518000420F2A4380252D041543CA4AC4009B18A8
:105190001F0000230293019B00981E035A00DB0F9F
:1051A000360B520D049300D12EE1C14B9A4200D12F
:1051B00050E1430FF60033438026BE4936041E43B8
:1051C000C30050180022C1190691013100910299C3
:1051D000880010430A2800DD76E10399049F794096
:1051E0000391022800DD44E10138012800D853E191
:1051F000190C9BB202911900220CA4B25143200059
:105200008C46029F02995843514367430591674476
:10521000010CC91904908C4505D9802040028446B0
:10522000059F67440597080C84466846008A090470
:1052300009180991310CB6B2049130003100049F75
:10524000614350437C437A4324180F0C3C19A0421D
:1052500002D9802040021218200C8218240489B23E
:10526000079262180892089962468C46290CADB2E2
:105270002800029F58436F434B4362449446029C6C
:10528000FF18020CD2194C43934202D980235B02CF
:10529000E418130C1B1902932B0080B2120412188D
:1052A0000498734345434E434143A8191D0C2D18E0
:1052B000AE4202D9802040020918059F0898674431
:1052C0008742B641BF189742924128049BB2C0184A
:1052D000079B7642C01853420493029B84199C4654
:1052E000A4446346049AB442A4419B18079A6442BA
:1052F00090428041029A4042044394458041049A7E
:105300002D0C934292414042524210436419099A33
:1053100024186418790211434A1E9141FF0DDE0DD5
:10532000640239435B0226430B43E40100D4DEE010
:1053300001215A080B401A43F307CE401343009A49
:105340005D495218002A00DCD4E0590709D00F212A
:105350001940042905D0191D99429B415B42F6185A
:105360000B00F10106D58021C9008C46534A164036
:10537000009A624452498A4200DD07E17407DB0863
:105380001C43F60813053603039A360B3343D20742
:105390001343200019000BB0F0BD2C0004432BD0A8
:1053A000002D16D0280000F059F9040002000B3C33
:1053B0001D2330001B1B1100D84008398D4003000D
:1053C0002B4335008D403F492C008A1A17001D00E1
:1053D000DFE600F043F904000200153420321C2CF3
:1053E000E6DD330008388340EDE704002C4307D1A5
:1053F0001F0025000223CDE6250027000123C9E672
:105400001F0004000323C5E6009B334329D0002E70
:1054100014D0300000F022F9010003000B391D22E6
:105420001800521A009908388640D1403143009E36
:1054300086402448C01A33000E00C3E600F00EF97F
:1054400001000300153120331C29E8DD00990838DC
:105450008140EEE7009B334307D110001E0002227B
:10546000B1E61E0018000122ADE603001000032281
:10547000A9E601218140A6200F00C000074001429B
:1054800026D190208000014276D1B938FF38014200
:1054900000D1ADE604990391022A77D0032A72D095
:1054A000012A00D04BE70026340032006AE7C046EC
:1054B000FF07000001FCFFFFFF030000FFFFFFFEEE
:1054C000FE0700000DFCFFFF0F2805D00B28E1D0E0
:1054D0002E002300029ADFE780221203154201D03A
:1054E00016424ED0802636032E432C4A4AE7069AAF
:1054F000009224E70120801A3828D4DC1F2827DCFA
:105500002749009A8C461C00624431009340914028
:10551000C4401A002143531E9A410B00C640134356
:105520005A0709D00F221A40042A05D01A1D9A42A0
:105530009B415B42F61813008021300009040840AB
:105540000E4226D17407DB0802001C43F60819E757
:105550001F2149428A1A3100D1400022202805D05B
:105560001048009A844662449640320013435A1E03
:10557000934100260B43D3E780253C0003972D037E
:10558000B0E7049A039235001C00ABE70026340014
:10559000ABE7002601223400F4E6C046FF07000016
:1055A0001E0400003E0400000B0070B5114E0C03F9
:1055B00049000200240B0020490DDD0FB14204DD3B
:1055C0000D48814202DD0D4BE81870BD802040037C
:1055D00020430B4C641A1F2C08DC0A4EE240891948
:1055E00088401043002DF0D04042EEE7064B5B1A96
:1055F000D840F7E7FE0300001D040000FFFFFF7F17
:1056000033040000EDFBFFFF1304000070B503003E
:1056100004000200051E11D0C21785185540C40FA2
:10562000280000F01BF80C4B1B1A0A280FDC0B2279
:105630002900121AD14015300A0085401203120BBE
:105640001B051343E40723432800190070BD2A00FB
:105650000B3882400025F1E71E0400001C210123C5
:105660001B04984201D3000C10391B0A984201D345
:10567000000A08391B09984201D30009043902A223
:10568000105C40187047C04604030202010101018A
:10569000000000000000000070B500260C4C0D4D0D
:1056A000641BA410A64209D10026FEF78FFC0A4C09
:1056B0000A4D641BA410A64205D170BDB300EB587F
:1056C00098470136EEE7B300EB5898470136F2E70A
:1056D0006806002068060020680600206806002092
:1056E000F40100000000000000010000004B000079
:1056F0000008080110000000100000000000007009
:105700000000000000000000070100000100004050
:105710000000000000000000F00000000000000099
:1057200000000000070100000D0000007878000074
:105730000000000005000000000000000200000062
:10574000F000000000000000000000000701000061
:105750000D00000078780000000000000500000047
:105760000000000002000000F00000000000000047
:1057700000000000070100000D0000007878000024
:105780000000000005000000000000000200000012
:10579000F000000000000000000000000000000019
:1057A00000000000F01000000000000000010000F8
:1057B0000D01000000100000F800000000000000D3
:1057C000000100000401000006000000F0000000DD
:1057D00000000000000000000000000000000000C9
:1057E0008000000000000100000000000000000038
:1057F00000000000000000000000000000000000A9
:105800000000000000000000000000000000000098
:105810008000000000000100900000000000010076
:105820000800000000000000080000000000000068
:105830000800000000000000A800000000000100B7
:10584000A80000000000010010000000000000009F
:10585000B80000000000010010000000000000007F
:105860000800000000000000B80000000000010077
:10587000B800000000000100A800000000000100C6
:1058800010000000000000001000000000000000F8
:10589000A80000000000010000010000000001005D
:1058A00000000000D2200010DC200010F4200010C6
:1058B00014210010442100107221001090210010CA
:1058C000AC210010D82100108C3500101C350010C0
:1058D00022350010283500102E3500103435001008
:1058E0003A35001040350010463500100103000223
:1058F0001E06280632063B0644064C0654065B0686
:10590000620668066E06730678067D0681068406C2
:1059100087068A068C068D068E068E068E068E06F5
:105920008D068B0689068606830680067B0677062B
:1059300072066C066606600659065106490641065F
:1059400038062F0625061406F405D505B505940579
:105950007405530531050F05ED04CB04A904860435
:10596000630440041D04FA03D603B3038F036C03DE
:10597000480324030103DD02BA02960273025002B7
:105980002D020A02E701C501A30181015F013D016A
:105990001C01FC00DB00BB009C007C006B00610074
:1059A00058004F0047003F00370030002A00240015
:1059B0001E001900150010000D000A000700050068
:1059C00003000200020002000200030004000600BF
:1059D00009000C000F00130018001D002200280011
:1059E0002E0035003C0044004C0055005E0068006D
:1059F000720068005E0055004C0044003C00350019
:105A00002E00280022001D00180013000F000C00BB
:105A10000900060004000300020002000200020068
:105A20000300050007000A000D0010001500190012
:105A30001E0024002A00300037003F0047004F00BE
:105A4000580061006B007C009C00BB00DB00FC0088
:105A50001C013D015F018101A301C501E7010A02AB
:105A60002D02500273029602BA02DD0201032403E2
:105A700048036C038F03B303D603FA031D044004E9
:105A800063048604A904CB04ED040F053105530516
:105A900074059405B505D505F405140625062F06ED
:105AA00038064106490651065906600666066C0628
:105AB000720677067B0680068306860689068B06B5
:105AC0008D068E068E068E068E068D068C068A063E
:105AD0008706840681067D06780673066E066806CC
:105AE00062065B0654064C0644063B063206280650
:105AF000030306020501040136430010364300107B
:105B00004C4300104C4300106443001064430010E9
:105B10006443001064430010444300103C430010F1
:105B200052430010524300108E4400108E44001067
:105B3000AA440010AA440010A4440010A444001079
:105B4000C2440010C24400109C4400109444001051
:105B5000B0440010B044001000040348000803489B
:105B60002C488746000000000000000000000000F4
:105B70000000000000000000000000000000000025
:105B800025488746000000000000000023488746A3
:105B90002348874623488746234887462348874625
:105BA0002348874623488746234887462348874615
:105BB000234887460000000022488746224887463F
:105BC00022488746224887462248874622488746F9
:105BD00022488746224887462248874622488746E9
:105BE00022488746224887462248874622488746D9
:105BF00022488746224887462248874622488746C9
:105C00002248874622488746000000000000000026
:105C100020488746A3100010A3100010A310001006
:105C2000A3100010A3100010A3100010A310001068
:105C3000A3100010A3100010A3100010A310001058
:105C4000A3100010A3100010A3100010A310001048
:105C5000A3100010A3100010A3100010A310001038
:105C6000A31000108D3E0010A3100010A310001010
:105C7000A3100010A3100010A3100010A310001018
:105C8000A31000106906002069090020A31000106D
:085C9000A3100010A310001086
:105C980000000100000000000000000000010000FA
:105CA80000000000000000000000000000030000E9
:105CB80000040100000000000000000000040000D3
:105CC80000040000000000000000000000030000C5
:105CD80021000000A00000000D000000004F04009B
:105CE800040000004002060000000000010000005F
:105CF80000FF000000000700000000000000000096
:105D080000FF000000000700000000000000000085
:105D180000FF000000000000000F04003000000039
:105D28000000000001000100000000000000000069
:105D38000000000000000000010001000000000059
:105D4800000000000000000000000000000000004B
:105D58000000000000000000000000000800000033
:105D680028000000400000009602A5A5012828018F
:105D7800B02F0100A000AA006E00AA00AA00AA0085
:105D8800AE103901BC4949C2C21EEE0201430208E5
:105D9800010E000000186B42C3EB9800480348034B
:105DA800480307050400AE10580149C2FFFF000070
:105DB800F0B5C64600B59A48056FADB2012100F0AE
:105DC8004BFC86B2974A80235B00D2585211F93BAC
:105DD8001340954F3B70954A1370AD1BADB2944A72
:105DE800C1239B00D0580004400B924B1860924A84
:105DF80013681B181360914A13680133136000F08D
:105E080013FC04008E4B18603F788E4B1B789F4222
:105E180000D1C7E08C4AD35C9F4200D18CE08B4A0A
:105E2800002313708A4A13708A4A13608A4A1388B7
:105E380001331380834B1F70884BDA5D884B1A70CF
:105E48006409E4B2874B1C70804B1B78002B0ED082
:105E5800854B1B785B19854A1278D2187D4B1B68D5
:105E6800534380221202944663441B0CDBB27C4AE3
:105E780012789B18DBB27E4A1278D318DBB27D4ABF
:105E880012789B18DBB21A00553AD2B27A495200FE
:105E9800525A7A490A80D22189008A4200D89BE066
:105EA80077498C466244774909784A431212D221CD
:105EB80089008C46624492B273490A806E4A59003E
:105EC8008A5A6E490A80D22189008A4200D88FE016
:105ED8006B498C4662446B4909784A431212D221B5
:105EE80089008C46624492B268490A805533DBB215
:105EF800614A5B009B5A614A1380D2229200934206
:105F080000D881E05E4A944663445E4A127853435F
:105F18001B12D2229200944663449BB25C4A1380BF
:105F28005C4AC6239B00D3589B109B059B0D5A4A7D
:105F3800138080BCB846F0BD012F18D0032F00D0C5
:105F480078E7564B01221A70404B1B78802B00D003
:105F580070E7394E394B98461968306800F074FB81
:105F68004F4B1860002333604246136062E7384B9A
:105F78001B78002B10D04B4B1B88F31A9BB24A4A54
:105F88001380118889B28020400400F05DFB314BFA
:105F980018602E4B80221A702D4B01221A70414B2B
:105FA8001E8047E7414B9D4200D849E7274A002316
:105FB80013702F4A1370264A1370264A13603A4A00
:105FC8000121494211801B4A1168354A11601A4A59
:105FD80013601A4A136033E7D22189008A1A2948C4
:105FE800007842431212891A89B2274A118065E75C
:105FF800D22189008A1A2348007842431212891A4A
:1060080089B2224A118071E7D2229200D31A1D491F
:1060180009784B431B12D21A92B21D4B1A807FE7A4
:106028000002044800000150B3110020B211002002
:1060380000040348981100209411002090110020BA
:106048008C1100205A060020F05A0010E61100209A
:10605800E7110020A01100209C1100204C06002010
:10606800E5110020E4110020D91100204906002084
:10607800D3110020AC110020F0580010AE11002000
:10608800B8FCFFFFDB110020580600205606002050
:106098005406002000080348CE110020D411002027
:1060A800E0110020B0110020640600208D200000BF
:1060B80010B5D14B1B889BB2D04AD363D04B1B88F9
:1060C8009BB2D04AD363D04B1B889BB2CF4AD363D1
:1060D800A023DB051222FF321A61CD4B1B78002B5F
:1060E8002DD0CB4B1B78DBB20A2B22D9C94B1878A1
:1060F8000002C74B1978C9B200F09EFA80B2C64BAD
:106108001880C64B1B78002B1ED0C24B1B78C44A84
:106118001278534380331B12DBB2C04A13701D2B15
:1061280002D913001D221A70BC4B1A78BD4B1A7085
:106138000AE0B84B1B78DBB2B74A1380E1E7B64BED
:1061480000221A80B74B1A70B44B00221A70B64B53
:106158005B6A5B05DB0F01225340DBB2B34A137065
:10616800B34AC1239B00D3589BB29B08DBB2B14A08
:1061780012789A4206D2A64A1178890813785B1ACF
:10618800DBB21370AC4B1B78A14A12789A4216D82E
:10619800AA4B1B789F4A12789A4210D89E4B1B88AC
:1061A800A74A12889A420AD3A64B1B88A64A128885
:1061B8009A4204D89D4B1B78002B00D1D5E0A34B05
:1061C80000221A70A24A13780133DBB21370A14A75
:1061D80012789A420CD29E4B00221A709E4B1B7862
:1061E800002B00D1B6E09C4A1378013BDBB2137058
:1061F8008D4B5A6A120901231340984A1288002AC3
:1062080000D172E1954A1288D20895490A80954AC8
:106218001278002A05D09449098891480088884254
:106228000DD292490978994209D090490B70002BF8
:1062380005D0002A00D05CE18A4B01321A70894BE4
:106248001B78002B08D0884B1B88894A934200D9B9
:1062580065E1854A01331380754AC7239B00D358EB
:106268009B109B059B0D834A13801188824A1388D3
:106278005B00C91813885B189B109BB212889A425E
:1062880000D154E17C4A138067494B6A5B090122BB
:106298001340496A490B0A4052001343774A12785F
:1062A8009A4212D07649C95C8A4200D14EE1754AB9
:1062B80000211180744A05311170744A7B311170C4
:1062C800734A002111806D4A1370714A1388013393
:1062D8009BB213806F4A1288934200D863E1694BDE
:1062E80000221A806A4B1A80674B05321A70674B76
:1062F8007B321A70684B00221A70684B1B78002B8F
:1063080009D0664A00231370654A1380654A1380D2
:10631800614B00221A705B4B1B88002B00D14CE1AB
:106328005F4B1B88544A12889A4204D9524B1B88E7
:106338009BB25B4A1380584B1B78132B00D843E160
:10634800554B00211970564A13889BB25548038053
:10635800118039E12E4B1B78002B00D148E72C4ADD
:106368001378013BDBB2137042E7334B1B78284AA2
:1063780012789A4230D2314B1B78264A12789A42C8
:106388002AD2334B00221A70304A13780133DBB219
:106398001370454A12789A4200D329E72B4B002202
:1063A8001A701B4B1B78DBB21D2B03D8184B1E32FF
:1063B8001A701DE7164B1B78DBB2FD2B00D917E7C7
:1063C800134B1B78DBB2FD2B00D911E7104A137869
:1063D8000133DBB213700BE7344B1B78002B04D06E
:1063E8000B4B1B78DBB2FE2B62D0184B00221A70C5
:1063F800174B1A70FCE6C0465806002000010050F2
:1064080056060020000200505406002000030050E9
:10641800DB110020E4110020D0110020D41100204D
:10642800D2110020D311002000000440C411002024
:106438000004034842060020DA110020DC11002085
:106448003A060020CE11002060060020D611002058
:10645800D511002062060020D9110020BA110020B1
:10646800B811002088110020861100208411002016
:10647800F99B0000CC110020CA1100205C06002006
:10648800EC580010C21100205B0600208911002082
:10649800BE1100205E060020BC110020C51100209E
:1064A800C8110020C611002063060020D711002063
:1064B800464B00221A70464A13780133DBB2137038
:1064C800444A12789A4200D392E6414B00221A704D
:1064D800414B1B78414A12789A4200D888E63E4AD6
:1064E80013780133DBB2137082E63D4A3D491180CF
:1064F8008DE63D4B1B88A32B07D83C4B00221A8006
:10650800394B1A803A4B1A7099E6384A1380364B41
:1065180000221A80374A1368013313608FE6334B21
:1065280000221A80304B1A80314B1A7094E6324A96
:1065380012889A4202D901339BB2A3E62E4A1288E6
:106548009A4200D39EE6013B9BB29BE62B4A1288F7
:106558002B490A802B49097899420AD005291AD073
:10656800294A1288002A00D0AAE6274A274911801A
:10657800A6E627490120087026490C88224804808D
:10658800002008801E49AC32FF320A8022490A786E
:1065980001320A7094E61B4A13701E4A00211180CA
:1065A8001D4A11708CE6174B1B78052B00D1A4E609
:1065B800184A1388013313809FE6174A0023137083
:1065C800164A1380164A138010BDC046D511002004
:1065D800D611002063060020D9110020D811002010
:1065E800B81100207F13000086110020BA11002086
:1065F80088110020B4110020CC110020380600209A
:106608005E0600205B060020C2110020C21D0000AB
:1066180089110020C0110020BC110020C6110020E3
:10662800C81100200000000001B40248844601BCE3
:10663800604700BF053D001001B40248844601BC14
:10664800604700BF1145001001B40248844601BCF0
:10665800604700BFF144001001B40248844601BC01
:08666800604700BF1D43001054
:0400000510001019BE
:00000001FF
