:020000041000EA
:10100000480500201910001000000000A310001077
:1010100000040100000100001249134A134B00F0C4
:101020001AF8134880471349134A144B00F013F879
:101030001349144A144B00F00EF81449144A0020C6
:10104000521A02DD043A8850FCDC124880471248EC
:101050008047124880479B1A03DD043BC858D05094
:10106000FBDC7047105B00100C00002044010020E6
:10107000713F0010485C0010480500206C060020FD
:101080006C5D0010700600205810002058100020E1
:101090002C130020A110001049560010BD3C001078
:1010A0007047FEE710B582B06B46354ADA80354BA3
:1010B000354A1A60354B0121C022520099508020D8
:1010C0001A58334C22401A508022120231480260D2
:1010D00031480260812292009950304A8423802155
:1010E000C904D1501DE029498122920088588023EB
:1010F0009B0003438B50294AFC235B00D358002BF1
:10110000F9D0C0239B00D358009380231B02214AAF
:101110001360214A13606B469A1DDB88013B9BB22A
:1011200013806B4606331B88002BDCD1009B002309
:10113000009305E080231B02164A1360164A1360D1
:10114000174B1A6C80235B059A42F3D20F4B802118
:101150005858C022920202435A5000228531FF3172
:101160005A5084395A500D4B9532FF328039FF392D
:10117000995083315A580B4802405A5002B010BD62
:1011800050460000BC4003480004103F00000348E4
:10119000FFFFFC7FE0400348E440034800040348AD
:1011A00000400348FFFFFFFB00B583B00023124A55
:1011B0001360124A13600321114803F0C8FB114960
:1011C00080228858104B03438B501423019308E06E
:1011D000019B013B019380231B02074A1360074ACE
:1011E0001360019B002BF3D1FFF75CFF0021044843
:1011F00003F0ADFB03B000BDE0400348E44003480A
:10120000000403480000034800000180F8B552497B
:10121000524D280003F02EFB5149524E300003F08E
:1012200071FB5149514C200003F06CFB032130004D
:1012300003F08DFB0321200003F089FBFFF7B4FFCF
:101240004B49280003F0B8FB4A49200003F010FC8A
:1012500082225200A1588023DB000B43A350434A53
:1012600084235B00D3589B06F9D5140082235B00CE
:10127000D25803208243E250E25801210A43E2504F
:10128000384DEA588243EA50EA580A43EA503A4B4A
:101290001A6888235B00E250384A1268E250384AE4
:1012A0000021200003F01CFC364A0121200003F03D
:1012B00017FC354A0021280003F012FC334A0121B3
:1012C000280003F00DFC0021280003F040FB002162
:1012D000200003F03CFB00220121280003F03FFB2B
:1012E0000021280003F04CFB200003F043FB032106
:1012F000200003F02CFB0321280003F028FBB0237F
:10130000234AE2500422FF32EA50224A06212000FA
:1013100003F0E6FB114EC2277F00F359402213432E
:10132000F3511D4A0721200003F0DAFBF359802412
:101330002343F351194A0721280003F0D1FBC022AF
:101340005200B3582343B3508432B15880239B00DA
:101350000B43B350F8BDC046000600200000034810
:10136000EC05002000040348D805002000080348CD
:10137000CC050020900500208C0500208805002069
:101380007805002068050020580500204805002049
:10139000030400009C050020BC050020AC050020D3
:1013A00010B500F007F800F02BFA10BD10B5FFF7EC
:1013B000F7FF10BDF0B5DE4657464E464546E0B550
:1013C00085B0DE4E0021300002F0F2FE80235B008B
:1013D0009846F360DA49DB4F380002F003FF02233E
:1013E0009A46FB6304247C638021C904300002F028
:1013F000F1FE07233361D44A0121380002F033FFA4
:10140000D24A0221380002F02EFFD14A03213800CF
:1014100002F029FF01220121380002F009FF012218
:101420000221380002F058FFA4257B5923437B5149
:1014300001218B46F16000243C67F960C549C64F25
:10144000380002F0E6FEC54B7B63802109053000C1
:1014500002F0C0FE70213161C14A6F39380002F0DC
:1014600002FFC04A0221380002F0FDFEBE4A0321FD
:10147000380002F0F8FE0121380002F0EDFE50467F
:10148000F0603C675846F860B849B94F380002F040
:10149000A9FEA023FB63B74B7B6380218905300045
:1014A00002F098FEE020C0013061B34A012138000B
:1014B00002F0D9FEB14A0221380002F0D4FEB04A4F
:1014C0000321380002F0CFFE0822F2603C675E463E
:1014D000FE60A026F6050021300002F029FF4746F5
:1014E000F760A849A84F380002F034FFD2239B00D0
:1014F0009846FB637C64D223DB00994619003800D0
:1015000002F093FF8021C904300002F03EFF072360
:1015100033619E4A0121380002F054FF9C4A0221A7
:10152000380002F04FFF9B4A0321380002F04AFFC7
:1015300001220121380002F031FF9749380002F002
:101540009BFF3C679549964F380002F003FF4346E6
:10155000FB637C644946380002F067FF802109057F
:10156000300002F012FF702131618E4A6F3938006D
:1015700002F028FF8C4A0221380002F023FF8B4A38
:101580000321380002F01EFF01220121380002F081
:1015900005FF8749380002F06FFF3C678549864F99
:1015A000380002F0D7FE4146F9637C6449463800B2
:1015B00002F03BFF80214905300002F0E6FEE02307
:1015C000DB0033617D4A0121380002F0FBFE7C4ADA
:1015D0000221380002F0F6FE7A4A0321380002F0B8
:1015E000F1FE01220121380002F0D8FE76493800D0
:1015F00002F042FF3C677549754F380002F0AAFEC1
:101600004146F96379644946380002F00EFF8021B3
:101610008905300002F0B9FEE020C00130616D4A5A
:101620000121380002F0CEFE6B4A0221380002F0A0
:10163000C9FE6A4A0321380002F0C4FE01220121DA
:10164000380002F0ABFE03220021380002F0F0FE69
:1016500002220121380002F0EBFE002204213800B2
:1016600002F0E6FE01220321380002F0E1FE7B5980
:10167000584603437B517B59504603437B517B596A
:10168000102213437B517B5908210B437B513C674C
:10169000534D280002F024FF2B680326B3432B6030
:1016A0005049280002F028FF4F49280002F02EFF81
:1016B00000220221280002F034FF6B6F0422134342
:1016C0006B674A494A4D0022280002F035FFEB695A
:1016D00050229343EB61EB69493A93433343EB6107
:1016E000EA6B444B1A4080231B011343EB63424BCC
:1016F0002B610C360296019400943A2300220021BB
:10170000280003F019F81F2305220021280003F008
:1017100043F81F2305222021280003F027F82B6C13
:10172000B343524613432B64344803F019FA05B00F
:10173000F0BCBB46B246A946A046F0BD0000044836
:1017400078570010000104487457001070570010BB
:101750006C5700106457001000020448FFFF00009F
:10176000605700105C570010585700105057001079
:1017700000040448FF0400004C57001048570010B4
:101780004457001034570010000100502457001037
:10179000205700101C570010285700100C5700103D
:1017A00000020050FC560010F8560010F4560010CD
:1017B00000570010E456001000030050D4560010EB
:1017C000D0560010CC560010D8560010BC56001051
:1017D00000040050B8560010B4560010B056001067
:1017E00000000150AC560010A85600109C56001086
:1017F00000020048FFE0FFFF438200009056001007
:1018000010B57F4A7F4C0021200002F0B9FB002276
:101810000021200002F037FE7B4A0A21200002F05E
:10182000AFFB00220A21200002F02DFE774A0D2195
:10183000200002F0A5FB00220D21200002F023FE73
:10184000734A0121200002F09BFB002201212000AD
:1018500002F019FE6F4A0221200002F091FB0022E3
:101860000221200002F00FFE6B4A0321200002F04B
:1018700087FB00220321200002F005FE674A0421B5
:10188000200002F07DFB00220421200002F0FBFD7D
:10189000634A0521200002F073FB0022052120008D
:1018A00002F0F1FD5F4A0621200002F069FB0022F0
:1018B0000621200002F0E7FD5B4A0721200002F02C
:1018C0005FFB00220721200002F0DDFD574A0821BE
:1018D000200002F055FB00220821200002F0D3FD79
:1018E000534A0921200002F04BFB0022092120006D
:1018F00002F0C9FD4F4A504C0021200002F040FB8D
:1019000000220021200002F0BEFD4C4A01212000EF
:1019100002F036FB00220121200002F0B4FD484A0B
:101920000221200002F02CFB00220221200002F004
:10193000AAFD444A0321200002F022FB00220321D9
:10194000200002F0A0FD404A0521200002F018FB13
:1019500000220521200002F096FD3C4A3C4C0A2161
:10196000200002F00DFB00220A21200002F08BFD76
:10197000384A0B21200002F003FB00220B2120003B
:1019800002F081FD344A0221200002F0F9FA00221F
:101990000221200002F077FD304A0421200002F0ED
:1019A000EFFA00220421200002F06DFD2C4A0521EF
:1019B000200002F0E5FA00220521200002F063FD7C
:1019C000284A0621200002F0DBFA0022062120002E
:1019D00002F059FD244A0821200002F0D1FA002229
:1019E0000821200002F04FFD204A0921200002F0CA
:1019F000C7FA00220921200002F045FD10BDC046B3
:101A000040580010000004403858001030580010B2
:101A100028580010205800101858001010580010B6
:101A20000858001000580010F8570010F057001028
:101A3000E8570010E057001000010440D85700108C
:101A4000D0570010C8570010C0570010B8570010EA
:101A500000020440B0570010A8570010A057001013
:101A600098570010905700108857001080570010AA
:101A700030B585B001A8044B020032CB32C202F06F
:101A80006DFB05B030BDC0464858001010B5FFF7DB
:101A90008DFC002010BD70B505000E001C0004ABCD
:101AA00018888D421FD395421ED2521A91B2A0427D
:101AB0000CD2AE1BB6B2201A80B270434B08C018CD
:101AC00002F0EEFC80B2201A80B20DE0AD1BADB288
:101AD000001B80B268434B08C01802F0E1FC80B2E2
:101AE000001980B200E0200070BD70B51D0004AB8D
:101AF0001B7888421DD990421DD2AB420CD2441AA9
:101B0000E4B2E81AC0B26043511AC9B202F0D8FC7C
:101B1000C0B2281AC0B20DE0441AE4B2581BC0B2D9
:101B20006043511AC9B202F0CBFCC0B24019C0B236
:101B300000E0280070BD1800FCE7030008008B429D
:101B400000D21800704770B505000C000A2A15D89D
:101B50000A20801A68434A43801805300A2102F09F
:101B60009FFC80B284420AD1854202D9013080B202
:101B700005E0854203D2013880B200E0002070BD4C
:101B80000B8858400880082202E05B080B80013A6D
:101B9000002A07D00B88D807F7D55B0802484340D6
:101BA0000B80F4E77047C04601A0FFFF002803D078
:101BB000044B20225A607047024B802292035A60E5
:101BC000F9E7C0460001044070B5164B1B78002BA6
:101BD00009D0012B0AD1144B1B88002B19D1134BB0
:101BE00001221A7002E0114B01221A700F4B1B7870
:101BF000002B0DD00E4D2C880E4B0F4A1278520040
:101C0000D05A6043642102F04BFC80B224182C802F
:101C100070BD094B1B782D2BE8D9044B00221A709C
:101C2000E4E7C04655120020701200205412002034
:101C30007A120020641100208D12002010B5194B7B
:101C40001B78002B0BD1184B1B88002B07D1174B8F
:101C500001221A70164B174A12781A701DE0134BA6
:101C60001B78002B19D0124B1B78002B16D0104A72
:101C7000013B13700E4B1B78642058430D4B1978B1
:101C800002F01EFC83B26420C01A80B20A4C238882
:101C90005843642102F014FC208010BD034B002245
:101CA0001A70E7E78D1200208E12002060110020CC
:101CB0005F110020230600207A120020084B1A78BA
:101CC000FD2A00D9FD22074B18211970064B0F3948
:101CD0001970064B064909781970064B1A7070473F
:101CE000A5120020400600203E0600209112002090
:101CF0003C0600209012002010B50F4B1B88002BD3
:101D000015D00D4B198889B20C4B1B88AB20800075
:101D1000584302F0C5FB0A4B18800A4B1B78002B76
:101D200004D0074A99005B185B00138010BD044B78
:101D300000221A80F1E7C046F21200204606002079
:101D4000701200206E12002009490A889308D21AE6
:101D500092B20A80074B1B889B189BB20B809B0892
:101D6000054A1380054A57214B4313807047C046EC
:101D700070100020061300209212002096120020FE
:101D800010B55A4B1B885A4A12889A423ED9594B71
:101D900001221A70584B1A78531EDBB2012B39D925
:101DA000052A37D0042A35D0544B00211970534BE3
:101DB0001978002915D0524B1B880A3B9BB2912001
:101DC0004000834208D84F4B18884F4B984203D8A5
:101DD0004E4B1B78002B04D04D480378022423433C
:101DE00003704C4B1B88642B1CD94B4B1B78002B6E
:101DF00018D1002916D0494B1B78013BDBB2812B4F
:101E000010D947490B7801330B700EE0394B002293
:101E10001A70BFE7434B1B78002BC5D1374B01210C
:101E20001970C4E73E4B002119703D4B1B78FA2B0B
:101E300004D937490B78042003430B703A4B1B78C5
:101E4000002B20D1394B1B885A2B08D9072A06D0E2
:101E5000062A04D0364A13880133138002E0344B3B
:101E600000221A80334B1B88002B02D0304B0022FB
:101E70001A802F4B1B887D2B05D9254A117880238A
:101E80005B420B4313702C4B1B780F2B10D9274B45
:101E90001B88092B0CD8294A13780133DBB2137045
:101EA0000A2B08D91A4A137808210B43137002E051
:101EB000224B00221A70224B1B78002B03D0214B9F
:101EC0001B78022B00D010BD1F4B1B78132BFAD8A8
:101ED0001D4A013313701D4B1B88D32BF3D90C4AB9
:101EE000137810210B431370EDE7C0460613002052
:101EF00064060020AC120020A61200206B10002007
:101F0000360600207C1200208A0200008912002080
:101F100048060020761200205E1100208D1200205D
:101F20006A10002068120020CC1000208E120020C1
:101F30006810002070120020951200206710002009
:101F400064120020A812002066100020CE1000208D
:101F500010B582B01B4B1C88A4B2C8221A4B18883B
:101F60005623FF330093194B52002821FFF793FDAE
:101F7000174B1880002C0BD02100164802F090FA65
:101F8000C0B2154B1870782805D978221A7002E073
:101F9000114B00221A70114B00221A800E4B1C7834
:101FA000002C0AD00E4B1878001B002805DD00021B
:101FB000210002F085FA094B1880094B1C7002B011
:101FC00010BDC046FA12002070120020AE100000B2
:101FD0003806002035DF00008D1200208A12002014
:101FE0008C12002030B583B0134B1888134C218815
:101FF0000822FFF7A8FD0300208011485843C00ABB
:1020000080B2104B1880104B1978104B1A789142FF
:1020100004D30F4B00221A7003B030BD0C4C237850
:102020009500521952008D0049194900002500956C
:10203000FFF731FD2070EFE7CE1000205810002090
:10204000102700006C120020691200206A12002084
:102050009112002010B56D4A13780133DBB2137072
:102060006B490A780132D2B20A706A4909780029AC
:102070001AD0032B18D9654B00211970654B1970C4
:10208000654B1B78002B19D0012A17D9604B002211
:102090001A70614B1A70614B1A78082A00D9B0E0A7
:1020A00093005F4AD3589F460029E9D1022BE7D914
:1020B000564B1970574B01311970E1E7002BEAD1EB
:1020C000012AE8D9524B00221A70534B01321A7080
:1020D000E1E7544B1878FFF769FD10BD514B1878B4
:1020E000002804D04B4B1878FFF760FDF5E7FFF7A9
:1020F0005DFDF2E74B4B1878002803D04A4B1B7864
:10210000002B02D1FFF752FDE7E7434B1878FFF7AA
:102110004DFDE2E7434B1878002803D0424B1B7873
:10212000002B06D100280AD03A4B1878FFF73EFD65
:10213000D3E73D4B1878C0B2FFF738FDCDE7FFF786
:1021400035FDCAE7374B1878002803D0364B1B788B
:10215000002B06D1002809D02E4B1878FFF726FD5A
:10216000BBE72D4B1878FFF721FDB6E7FFF71EFD03
:10217000B3E72D4B1B78002B05D02B4B1878C0B242
:10218000FFF714FDA9E7274B1878FFF70FFDA4E729
:10219000254B1B78002B04D01F4B1878FFF706FD4A
:1021A0009BE7204B1878FFF701FD96E71E4B1B7845
:1021B000002B08D11B4B187800280AD0154B187833
:1021C000FFF7F4FC89E7184B1878C0B2FFF7EEFC74
:1021D00083E7FFF7EBFC80E7134B1B78002B08D15C
:1021E000104B1878002809D00A4B1878FFF7DEFC4E
:1021F00073E7094B1878FFF7D9FC6EE7FFF7D6FCB9
:102200006BE7084B1878FFF7D1FC66E76F100020EA
:102210006E1000206D1000206C100020A112002014
:10222000545800109F120020FC12002010B5754B6E
:102230001B78002B1DD0744B1B781433734A13701A
:10224000724B1B78822B02D9704B82221A70704B12
:10225000F4221A706F4BAB3A1A706F4B1978282022
:10226000FFF76BFC6D4B18706D4B684A12781A7053
:1022700010BD654B18786B4B18706B4B1B78002B9F
:102280000ED16A4A1288002A0AD1604B32321A7083
:10229000674B1A70674B00221A80674B1A80CFE792
:1022A000002B6FD0614B1B88644A1288934219D26D
:1022B000634B04221A70634A1378591C1170042B63
:1022C000BED9524B1A785A4B1B789A4206D24F4BC2
:1022D00001321A705B4B00221A70B1E7544A013385
:1022E0001370F7E7544909888B4217D29B1A9B0059
:1022F000DBB2534A137053490A78501C087093425A
:102300009ED2424B1B784A4A1278934202D23F4AED
:10231000013313704B4B00221A7091E74A4A12881E
:10232000934216D2D31A9B00DBB2454A137045493B
:102330000A78501C0870934200D381E7334B1B7816
:10234000282B02D9314A013B13703E4B00221A70F0
:1023500076E73B4B04221A703A4A1378591C1170E5
:10236000042B00D86CE7294B1B78282B06D9274A69
:10237000013B13702E4A1378013B1370314B00223E
:102380001A705DE72E4B0A221A702E4A1378591CD8
:1023900011700A2B00D853E72C4B1988002925D03F
:1023A0002A2903D9194A1378013B1370214A13884B
:1023B0005C1C1480092B15D91D4A13780A3313703D
:1023C0001A4B1B88584302F07BF880B21A4B1880D6
:1023D0000200143A194B1A8014301B4B1880124B10
:1023E00001221A70174B00221A7029E7104B1B7834
:1023F000772BF7D805490A7801320A700C4A013365
:102400001370EFE7A0120020A4120020260600207F
:10241000400600203E0600203C06002091120020CD
:102420009012002062120020571200208E1200200D
:10243000250600205E1200205C1200205A120020A7
:10244000601200206112002058120020701200203B
:1024500070B582B00500D74B43221A7098700328DC
:1024600000D146E143D8012800D1F2E202283CD154
:10247000D14B00221A70D149CA78D14B1A700A790F
:10248000D04B1A704B7901221C001440CE480470C6
:102490005C08144098081040CC4D2870DD081540A9
:1024A00018091040CA4E307058091040C94E30709B
:1024B00098090240C8480270DB09C84A13708B793A
:1024C000DBB2C74A1370C74A127893421FD1BB4B85
:1024D000DA79C54B1A70002C4CD0C44B1B88452BA5
:1024E00048D8C34B07221A705CE00325EEE00428AD
:1024F0000BD1C04B1A78AF4BDA7000221A7115322B
:102500005A711E329A710725E0E00325DEE0B54AD4
:102510001370B9485843B94B198801F0C1FF01093C
:10252000C9B2BB20FFF709FB0600B54B18700002CB
:10253000801B80B2BB2101F0B3FFFF231840B14BD9
:1025400018801B88FF2B02D9AE4BFF221A80AE4B9E
:102550001B782833AB4A10885843502101F0A0FF64
:1025600080B2FF2800D9FF20A64B18800636A74B63
:102570001E70ACE7002D11D09C4B1B885A2B0DD937
:10258000964B1B78002B03D0A14A1278002A01D168
:10259000002B07D1964B06221A7003E0874B1A7A5C
:1025A000934B1A70002C02D19A4B00221A70834B65
:1025B000597A994A1170997AC9B2984A1170DA7A9F
:1025C000974B1A70974B18881A787A4BDA70000973
:1025D000302202401A71944A12785A71834A108844
:1025E00012789A71000A07220240DA718F4A127833
:1025F000012002401A728E4A10781A7A4000024373
:10260000D2B21A721A7AD2B21A721A7A8948047835
:1026100064012020204002431A721A7A8648047806
:10262000A4014020204002431A72844A1288920872
:10263000D2B25A72012953D0814B1A785D4B9A72EB
:10264000804A1388DBB25B4CE37213889B083F22FD
:102650009343DBB2E2791343E3717B4A1388127828
:1026600022731B0A63736A4B1B78A373774B18782A
:1026700064235843FE2101F023FFC0B2E073744A83
:102680001388127822741B0A6374724B1B78DBB2B6
:10269000A374584B1B78E3746F4B1B7823756F4AF8
:1026A0001368DBB2637513681B0ADBB2A37513688A
:1026B0001B0CDBB2E3756A4A1388127822761B0A78
:1026C0006376684B1B78DBB2A3761B25394B5D70B4
:1026D000654B012252421A80644B00221A70CBE1F2
:1026E000634B1888093101F0DBFEC0B2314B9872A0
:1026F000A6E701F097FB5F4B00261E703D4A13785A
:1027000001210B4313705C4B02221A702A4B013AD1
:102710001A702A4C22791202E3789B189BB2574A0E
:10272000138064205843572101F0BAFE80B2544B05
:1027300018801B88643B534A1380A2791202637984
:102740009B18514A1380274B1E70237A01221800D0
:1027500010404E490870590811404D4801709908C1
:1027600011404C480170D90811404B4801701909BB
:1027700011404A48017059091140494801709909AE
:10278000DB09484803700A420FD1474B31321A70B7
:102790000A4A937A5B0045490B80D47AE4B2444BF1
:1027A0001C70324B01221A7099E03F4B28221A709C
:1027B000EEE7C046E4100020B11200200411002012
:1027C000A5120020721200209F120020A7120020E4
:1027D0005E110020641200206512002063120020A8
:1027E000AA120020A9120020A412002070120020BA
:1027F000A612002048060020A025260096120020E0
:102800003C0600203A0600208012002041060020ED
:102810008D12002057120020AB120020A8120020B9
:10282000661200209212002095120020FC12002057
:10283000EA120020AC12002098120020CE100020D6
:1028400067120020041300207612002018130020C5
:102850008E1200201013002094120020EC12002091
:102860007A12002020130020DC100020E11000204C
:102870006C12002043060020B2120020AE1200208D
:10288000640600209A1200204606002056120020FE
:10289000551200202406002073120020A0120020F0
:1028A000A21200202A0600200F130020641100202D
:1028B00061110020874A1378013B87495B005B5A0E
:1028C0001B02107801384000405A60431B1A1B0A53
:1028D00010784000435213780133DBB213707D4B04
:1028E0001B78DBB2772BE5D97C4C227B7C4B1A70B2
:1028F000227B7C4B1A70627B7B4B1A70627B7B4B1A
:102900001A70A07BC0B218230093AA33642200215E
:10291000FFF7EBF8764B1870E07BC0B20923009309
:10292000403364220021FFF7E0F8724B1870322325
:10293000E25CD2B2704B1A703323E15C6F4B1970BA
:102940003423E15C6E4B19703523E15CC9B26D4BE9
:1029500019703623E35CDBB26B4803705B005B1AD3
:10296000DBB29B1A694A13703723E05CC0B2193B93
:102970000093E13364220021FFF7B7F8644B18702D
:102980003923E25C634B1A703823E35CDBB24F2BD4
:1029900005D85F4BA5221A705E4BA33A1A704F4CB4
:1029A0004D23E25C1202013BE35C9B189BB25A4A46
:1029B000138019003C39594A1180594A13804F231A
:1029C000E35C1B024E22A15CC91889B2554B1980E9
:1029D000FA20400101F074FD534B18805023E25C53
:1029E000524B00211970920801231340504A137072
:1029F00006D0474B1B78A42B02D8454BA5221A7052
:102A00004C4B434A12781A70344B5122985C4A4915
:102A10000870995C494A11705222995C484A1170B9
:102A200053229A5C474B1A70474B1B78002B0CD0F3
:102A30002A4B54229B5CDBB2444A1370642B00D8AF
:102A400044E6130064221A7040E6404B00221A70DC
:102A50003CE63F4B1A783F4BDA70042536E61D4CB6
:102A60002378DBB23B4AD05CC0B23B49FFF788F821
:102A700023780133DBB22370164B1B78AB42EED3C5
:102A8000354A13881178334A51556C1C1B0A13556B
:102A9000324B00221A70324A8A235B00D3581B0E35
:102AA0007F221A401E239B1A0235AB4210D22D4BB7
:102AB00000221A7002B070BD264AD25CD2B22848F9
:102AC000C021490042500133DBB29C42F4DAEEE708
:102AD0000023FAE7E1100020641100200411002017
:102AE00069120020290600206A1200202806002012
:102AF0003F0600203D0600208612002084120020A0
:102B000080120020881200208712002085120020E9
:102B10002306002042060020320600203006002056
:102B20002E0600202C060020821200209E1200207B
:102B30007F120020220600207E1200200F130020AA
:102B4000A112002044060020A2120020A31200209F
:102B5000B1120020E4100020DC100020E210002060
:102B6000000200485C11002070B52F4B1B78002B31
:102B70003DD02E4B012252421A802D4B5D78EDB292
:102B80002C4B00221A700CE02A4C2378DBB2284A26
:102B9000D05CC0B22549FEF7F3FF23780133DBB2E6
:102BA0002370244B1B78AB42EED36A1C204B9A5CFB
:102BB00012025B5D9B181D4A1288934207D01A4B84
:102BC00000221A701C4A13780133137013E01A4B59
:102BD00000221A70194B1B78002B02D1174B0132BF
:102BE0001A70134B9878C0B2FFF732FC03E0124A18
:102BF000137801331370104B1B781E2B04D80F4B26
:102C00001B78002B0BD070BD01F00CF90C4B00228F
:102C10001A700C4A137820210B431370EFE7002041
:102C2000FFF716FCEFE7C0465C110020DE10002025
:102C300004110020E1100020DA100020B212002060
:102C4000430600204806002070B582B0204B18884B
:102C5000C72807D91F4B18221A701F4B0F3A1A703A
:102C600002B070BD1D4E33788008C0B218250095A3
:102C700032220A21FEF739FF164C20703378184AA9
:102C80001078009546221421FEF72FFF2378834207
:102C900001D9104B1870134E33780D4A10888008F4
:102CA000C0B20925009532220A21FEF71EFF0A4C08
:102CB000207033780A4A1078009546221421FEF7D6
:102CC00014FF23788342CBD9034B1870C8E7C04662
:102CD00070120020400600203E0600203F06002023
:102CE0008D1200203D06002010B5314B1C78314B71
:102CF0001B78002B0ED0304B1B78002B0AD12F4BAA
:102D00001A882F4B197878235B1A9A4202DD2A4BD6
:102D100001221A702B4B1B78002B3AD1264B1A78C4
:102D2000002A03D1284B1B78002B31D0234B198864
:102D3000264B1B784B43544363431B0A5801C01A6C
:102D40008000C018C000224B198801F0A9FB84B292
:102D50002409FFF779FF1F4B1B78A3421CD21E4AA0
:102D600013701E4B1B78002B19D01B4B1B78164A77
:102D70001278934201D9144A1370174B124A1278F1
:102D80001A70154B1B78002B0DD0154BFE221A70B4
:102D900010BDFEF719FFC1E70F4B1C70E1E70A4BAE
:102DA00000221A70EDE70E4B00221A70F0E7C046C1
:102DB000A5120020A21200208D1200207A120020FD
:102DC000A3120020561200205D11002044060020AE
:102DD000961200203C060020911200205E11002077
:102DE0009012002070B5304B1B78002B4DD12F4B2B
:102DF0001B78002B0ED02E4B1B78002B0AD12D4BAD
:102E00001A882D4B197878235B1A9A4202DD284BD9
:102E100001221A70294B1B78002B02D0244B01226F
:102E20001A70244B1888002803D0214B1B78002BE4
:102E300003D1234B1B78002B26D0224B1B78584301
:102E40003C2101F03DFB040085B2FFF7FDFE1E4B67
:102E50001B78AB421CD21D4A13701D4B1B78002BF4
:102E600019D01A4B1B78164A1278934201D9144A8A
:102E70001370164B124A12781A70144B1B78002BE1
:102E80000DD0144BFE221A7070BDFEF7D7FEAEE7D0
:102E90000E4B1C70E1E70A4B00221A70EDE70D4B58
:102EA00000221A70F0E7C04624060020A21200207B
:102EB0008D1200207A120020A3120020A012002000
:102EC0005D110020A51200203C0600209112002078
:102ED0005E1100209012002010B5194B1A78002ABC
:102EE00026D0184B1B789B189B10174A1380174B42
:102EF0001B78A42B02D8154BA5221A70FEF79EFE54
:102F0000124B134A12781A700F4B1C88114A128800
:102F10001A80FFF799FE104B1B78A34209D20F4A83
:102F200013700E4B1B78002B06D00D4BFE221A702F
:102F300010BD0A4B1C70F4E7094B00221A70F7E72A
:102F40008D120020A51200207A12002023060020F6
:102F500022060020781200203C060020911200205A
:102F60009012002070B53C4B1B78002B0ED03B4BD1
:102F70001B78002B0AD13A4B1A883A4B19787823E0
:102F80005B1A9A4202DD354B01221A70364B1B78D0
:102F9000002B02D0314B01221A70314B1C88002CBF
:102FA00003D02E4B1B78002B03D1304B1B78002B0A
:102FB00043D02F4B1B78142B07D8D801C01A80B2EE
:102FC0000A2101F06DFA2A4B1870294B1B785B001F
:102FD000FE214900C91A89B2264B1B78002B05D067
:102FE0001E4B1B788B4229D8C91A89B20A3189B283
:102FF0006443081901F054FA040085B2FFF724FE77
:103000001D4B1B78AB421BD21C4A13701C4B1B7808
:10301000002B18D0194B1B78144A1278934201D90F
:10302000124A1370154B114A12781A70134B1B7801
:10303000002B0CD0134BFE221A7070BD0021D5E777
:103040000E4B1C70E2E7094B00221A70EEE70D4BA5
:1030500000221A70F1E7C046A21200208D12002053
:103060007A120020A3120020A01200205D1100207F
:10307000A51200202A0600203C0600209112002004
:103080005E1100209012002070B53A4B1B78002B87
:1030900061D1394B1B78002B0ED0384B1B78002B9D
:1030A0000AD1374B1A88374B197878235B1A9A4222
:1030B00002DD324B01221A70334B1B78002B02D0F9
:1030C0002E4B01221A702D4B1D78002D03D12F4B52
:1030D0001B78002B3ED02A4B1C88002C06D02C4B92
:1030E000187860433C2101F0EBF984B2294B1B783E
:1030F0006B43294A128853431B0A5801C01A8000A7
:10310000C018C000254B198801F0CAF980B2000927
:10311000844200D20400FFF797FD214B1B78A342A5
:103120001CD2204A1370204B1B78002B19D01D4B4A
:103130001B78164A1278934201D9144A1370194B1E
:10314000124A12781A70174B1B78002B0DD0174BB0
:10315000FE221A7070BDFEF771FD9AE7114B1C70CC
:10316000E1E70A4B00221A70EDE7104B00221A70BB
:10317000F0E7C04624060020A21200208D12002095
:103180007A120020A3120020A01200205D1100205E
:1031900072120020A5120020741200209612002046
:1031A0003C060020911200205E11002090120020A9
:1031B000F0B583B0454B1B885A2B05D8462B79D9DF
:1031C000434A1278002A75D1414A1278002A10D059
:1031D0003F4900220A703F490A803F490A803F491F
:1031E000FA20400008803E490A803E490A803E4A53
:1031F00013803D4A1088C01A82B200B2354B188045
:1032000036490B88D3181BB20B80FA2189008B42F8
:1032100052DD324B1980304B1988521A15B2304AA0
:103220001580188084002D4B0020185E02F0C6F92E
:103230002E4A2F4B01F06AFF06000F00200002F01B
:10324000BDF932003B0001F099FC06000F00680058
:103250004019400002F0B2F932003B0001F08EFC50
:1032600002F07AF900B21F4B188000282ADB1D4BB0
:1032700000229A5EFA239B009A4203DD194BFA2240
:1032800092001A801B4BF4221A701B4BAB3A1A7037
:103290001A4B1B4A12781A70124B0020185E8010CD
:1032A000C0B2FE2300930023FA220021FEF71DFC8A
:1032B000144B187003B0F0BD002BACDA074B0021A3
:1032C0001980A8E700221A80D1E7C04670120020BA
:1032D00027060020641000206210002060100020EB
:1032E0005E1000205C1000205A100020333333336E
:1032F0003333E33F400600203E06002091120020B9
:103300003C0600209012002030B583B03D4AC72310
:103310009B00D05880108005800D3B4B18803B4BA4
:103320001B78002B01D103B030BD394B1A78394BD3
:1033300019788008FF2300930023FEF7D6FB364B55
:103340001870364B1B78002B14D0354A1370354B50
:103350001B78002B06D0344B1B78002B02D1304B4E
:1033600000221A702E4B1878002810D12C4B002206
:103370001A70D8E72D4B1B78022B03D0284B002264
:103380001A70E4E70028F9D0254B1870DFE7284BC6
:103390001B7800930023FF220021FEF7A6FB040008
:1033A0000500244B1B788342E0D2234B1888FE286B
:1033B0000FD9224B30221A70214B273A1A701C4B1E
:1033C0001B78AB421BD21B4A13701E4BFE221A7095
:1033D000CCE7C0B230230093C433FF222821FEF78C
:1033E00084FB164B1870144B187809230093403354
:1033F000FF222821FEF779FB114B1870DFE70D4BF8
:103400001C70E2E700080348CE1000206412002080
:1034100028060020290600206712002066120020DE
:1034200068120020651200208D120020A8120020D2
:103430003C0600209112002070120020400600205F
:103440003E0600209012002010B5BE4BC2221A701A
:10345000BD4B793A1A70BD4B00221A70BC4B1A70E2
:10346000BC4B1B78002B1FD0BB4B1B88C82B1BD918
:10347000BA4A1278BA490978914215D9B94A1278EC
:10348000002A11D13833DBB2B74A13705B09B74A4F
:1034900013701378DBB2052B02D9130005221A70C2
:1034A000B34B01221A7002E0B14B00221A70B14BEB
:1034B0001B78062B02D0B04A01211170AF4A127856
:1034C000002A1DD1082B3BD89B00AD4AD3589F46FC
:1034D000FFF70AFC34E0FFF785FC31E0FFF7FCFC66
:1034E0002EE0FFF73FFD2BE0FFF7CEFD28E0FFF7D2
:1034F0005FFE25E0FEF79AFE22E0FEF7DFFB1FE00D
:10350000A04B1A78642353431B11DBB28F4A13700C
:10351000BB2B02D91300BB221A709B4B1B78002BCC
:1035200002D08A4B00221A70984B1B78884A13707D
:10353000FD2B02D91300FE221A70954B32221A700D
:10354000944B1B78012B0AD0022B11D1FFF7DCFE24
:10355000914B1B78022B12D0032B16D01DE0FEF7E7
:1035600041FD8E4B1B78002BF2D0FFF7CDFEEFE72D
:103570008A4B1B78002BEBD0FFF7C6FEE8E7884BA1
:1035800028221A70844B253A1A70854B1B78002B21
:1035900000D187E0824A013B1370824B1A88824B2C
:1035A0001B889A4204D27C4B1B78042B00D185E007
:1035B0007E4AC1239B00D3589BB29B087C4A127859
:1035C000002A11D07B490978994200D37FE07A49DB
:1035D0000B7801330B70784B1B789A4204D86A4AF7
:1035E000137840210B4313705C4B1A789300D21868
:1035F0005301724A1360724A11685B181360714973
:103600000A68013A0A60002A07D19B096E4A1360D2
:1036100040220A606A4B00221A606C4B1B78002B18
:1036200012D1594B1B7878221A420DD1684A127870
:10363000002A09D0674A1278002A05D0002B4AD008
:10364000654B1B78002B46D1644BC2221A70644B29
:10365000B93A1A70424B00221A70624B1A705C4BD6
:103660001B78002B00D1C7E0584A1278002A13D1EA
:10367000454A1278782111420ED1374A1288002A21
:1036800000D0B9E0314A1278002A00D0B4E0564A9E
:103690001278002A00D0AFE04D4B00221A7000F0E3
:1036A000C1FB10BD3C4B04221A70504B023A1A70F9
:1036B000354A137801218B4313706EE7324A137831
:1036C00020210B4313704A4B01221A7070E73A4BCA
:1036D000002119707FE7474B1B78BB2B02D9454B64
:1036E000BB221A70194B1A78424B1B789A4201D9A7
:1036F000164A1370164B1B78FF2B1ED0114B1B78EC
:10370000172B02D80F4B18221A700F4B1B78082B5F
:1037100002D80D4B09221A700A4B1A782F4B1A70D7
:10372000094B1A782E4B1A70084B1A780C4B1A70EA
:10373000074B1A782B4B1A7091E7054BFE221A7033
:10374000DCE7C046400600203E0600209112002023
:10375000901200209E1200208E12002020130020C4
:1037600019130020681200209D120020151300205C
:1037700014130020A612002027060020CC100020E1
:10378000785800102106002048060020200600205E
:10379000A5120020A8120020B212002066120020FC
:1037A000B0120020061300209A12002000040348E3
:1037B00042060020410600209C120020C01000207C
:1037C000C81000201C060020C4100020FC1200209D
:1037D00043060020A7120020A01200206706002048
:1037E000660600201713002018130020B1120020D5
:1037F000981200203C060020002B00D051E70D4B12
:103800001B78002B00D04CE70B4B1B889F2B00D95B
:1038100047E70A4B1B78002B00D142E7084B0122F7
:103820001A70084B00221A70074B1A7000F034FB14
:1038300037E7C046FC1200208E12002091120020B3
:1038400043060020181300201613002003004343F2
:103850004B4343431B0C80225200521A5043C01862
:103860008030000A704770B5040000290CD0002891
:103870000BDB80235B00984200DD1800002906DB8B
:10388000FFF7E4FF002C0ADB70BD4042F1E749423C
:1038900080256D00281AFFF7D9FF281AF2E7404269
:1038A000F2E7000070B57F4B1B78772B27D97E4B52
:1038B0007E4A12881A807E4B00229B5E192B07DD00
:1038C0007C4B00221A807C4B1A807C4B01321A7090
:1038D0007B4B1A887B4B1A807A4B1B88724A128862
:1038E000934237D99B1A9800C0184001764B19882B
:1038F00000F0E6FD84B2A02C2DD9A0242BE0704B63
:10390000188880B2714C21880422FEF71CF92080AF
:10391000644A13780133DBB21370782B06D0694BFD
:103920001880614B614A12881A80D5E7684B1B7872
:10393000002BF4D0674B1B88984207D9664B1B8835
:10394000984203D2654B00221A70E8E7634B0122CC
:103950001A70E4E70024624B197800291BD1614BEF
:1039600000221A80604B1970604B1A70604B1A70FD
:10397000604B28221A70604B1B88A34238D2E31A8E
:103980009BB23B2B61D94F2B61D9632B61D9812B22
:1039900061D910224DE09620000100F091FD80B227
:1039A000544B1B781A00834205D2272B03D8514A67
:1039B00001331370DFE78242DDD9282BDBD94D4A72
:1039C000013B1370484B1A78002AD4D047490B7832
:1039D0004A48C65C434D2888801B28804248013AEB
:1039E00002700133DBB20B703F2213400B70C2E751
:1039F0001B1B9BB2C5E73D490B784048C65C394D5F
:103A00002888801B28800133DBB20B703F200340E5
:103A10000B7034490B88E3180B8035490B78374815
:103A2000C4540133DBB20B703F2003400B70013AEA
:103A3000D2B2002A11D02C4B1B782E4909788B4228
:103A4000D9D0294901330B70E3E70122F1E70222C3
:103A5000EFE70422EDE70822EBE7234B1978002972
:103A600004D0204B188800F02BFD84B2A02C00D984
:103A7000A024214B1C80224B1B78143B5900C918F1
:103A800089002000FFF7EFFE80B21E4B18801E4B0E
:103A900018801E4B18801E4B1B7843431D4A138011
:103AA00070BDC046BC100020360600203206002043
:103AB0008A12002000130020FE120020FD120020B8
:103AC000021300207C1200202C0600203406002067
:103AD00073120020300600202E06002089120020DC
:103AE0008D12002076100020781000207A1000201F
:103AF0007910002018060020741000207C1000208F
:103B0000841200207A120020781200207612002001
:103B1000440600207412002010B52D4B1A882D4B3E
:103B20009A4203D82A4B1B88092B2AD82A4B0022F9
:103B30001A80FEF7E1F8FEF70BFAFEF705F9274BBE
:103B400018780001142100F0BBFC254B1870254BA0
:103B500018880001142100F0B3FC234B1870FFF704
:103B6000A1FE224B1A78511C197003231340022B1B
:103B70002AD00FD8002B12D0012B12D1FEF76AFAEF
:103B80000FE0134B198889B2194800F089FC124BD9
:103B90001880CEE7032B04D1FEF7F2F801E0FEF720
:103BA000E3FFFFF751FC134B9978134A1180D97842
:103BB000124A11801979124A11805979114A1180DB
:103BC0009A79114B1A8010BDFEF7CEFFE9E7C04687
:103BD00068060020FFEF00008E1200202013002056
:103BE000951200200813002094120020721000206B
:103BF00090D00300DC120020D8100020D610002046
:103C0000D4100020D2100020D01000200AE0244A56
:103C10001370244B01221A7004E0562B20D9214B3B
:103C200000221A70204A8A235B00D3581B0736D41F
:103C30001E4B1B78002B32D11B4A8E235B00D358BE
:103C4000DBB2184A1278D1B2012AE6D002290FD08D
:103C50000029E7D1592BDAD0124B00221A70E1E784
:103C60000F4A5370124A13700E4B02221A70D9E792
:103C7000104A117802310A48435413780133DBB2F9
:103C8000137013780A4A12789A42CBD8094B002253
:103C90001A70044B1A70054B01321A70C2E7704754
:103CA00004110020E0100020000200485C110020F8
:103CB00001110020021100207047000010B5454B93
:103CC00000E0013B002BFCD1FDF7E0FE002800D016
:103CD00001BEA021C9050B683F4803408022920025
:103CE00013430B603D490B6803401A430A60FDF71C
:103CF0008DFA00F0D5F93A4B42221A70394B002464
:103D00001C7000F0ADF8384B1C70384B01229A60E3
:103D1000374B00E0013B002BFCD1364BC622920012
:103D20009858354908408021C901014399508021A4
:103D3000890419609858314908408021C90301431A
:103D400099508022D2041A60A023DB050F22DA608A
:103D50002B4A116B80235B000B431363244B00E061
:103D6000013B002BFCD1274B5A6801210A435A60C2
:103D7000254A9A60254B1B6F9BB2254A1380254A22
:103D8000138009E0FFF742FF0DE0214B1B88D31A97
:103D90009BB221498B4217D81A4B1B4A9A601F4B82
:103DA0001B78002BEED0174B174A9A60174B1A6FEF
:103DB00092B2184B1B889342E7D919490B6801331B
:103DC0000B60144B1A80E0E7114B1A80FFF7A4FE3A
:103DD000E2E7C046804F1200FFFCFFFF00000448EE
:103DE000E41200206E1200205A060020000001504C
:103DF000C0D4010000E100E0FF00FFFFFFFF00FF73
:103E00000000014000000240FECAADAB00020448C1
:103E1000BA120020B81200206A1800005C110020BD
:103E2000B41200200323034A1361034A1361034AB7
:103E30001361704700010050000200500003005061
:103E400010B5054A137840210B431370034B002231
:103E50001A70FFF7E7FF10BD480600204306002058
:103E600070B500F046F80A494A6A920801231340E7
:103E7000084A13704D6A02242C40234313704C6A85
:103E8000A400042121400B43137000F036F870BDEC
:103E900000010440EB12002010B5FFF7E1FF0D4BCD
:103EA000196B802252000A431A631A6B0A490A40AE
:103EB0001A6309E0074B196B802252000A431A6308
:103EC0001A6B05490A401A63044B9B68DB07F1D55E
:103ED00010BDC04600000140FFFEFFFF0001005082
:103EE0000230800803D00138FDD1C046C046C0462C
:103EF0007047EFF3108072B6704780F310887047F8
:103F0000064B1A89802149010A431A8148215A5ACD
:103F10008020000102435A527047C046000005400D
:103F200010B50D4A13681B0AFF210B400B480360B4
:103F3000126811400A4A1160002B08D01B02C918F0
:103F4000084800F0ADFA4000074B186010BD064B62
:103F5000064A1A60FAE7C046000301402813002011
:103F600024130020000024F4FC3F00200048E80156
:103F700010B5FFF7C5FFFDF77BFD10BD70470000D2
:103F8000F0B5C64600B58B08984604339B001E5812
:103F900003250D40ED00F827AF40BE431E50436F90
:103FA0004F000326BE40B3434367CB0810339B004A
:103FB0001F5807260E40B6000424B440A7431F50E4
:103FC0001F585478B44026003E431E500D4B984273
:103FD0000ED00023D356002B10DB44460434A4003B
:103FE00021581278AA400A43225080BCB846F0BD3E
:103FF000036E01268E40B3430366EAE753688B40A5
:104000004360EAE70002044010B50C000DE08008B0
:1040100008490B68084A134002021343074A134336
:104020000B60044B1B685B00FBD4A3008342EED300
:1040300010BDC04600030140FF000FC00000F03F6C
:1040400030B50C000EE0012290000A490B680A4DC1
:104050002B4092021343094A13430B60054B1B6824
:104060005B00FBD48300A34203D20028EBD0020004
:10407000EAE730BD00030140FF000FC00000F03F41
:10408000014BC3225A62704700000140034BC0221B
:104090005A62024B5B6A5B07FBD470470000014029
:1040A000034A938C01210B439BB293847047C04613
:1040B0000010014010B50400FFF7E8FF054B186938
:1040C00020431861034B1B685B00FBD4FFF7D8FF4C
:1040D00010BDC04600030140034B9B6803405A1EBD
:1040E0009341D8B27047C0460003014070B5040048
:1040F0000D00FFF7CBFF154B1A68120AFF20104086
:104100001968134A11402943124A0A431A600F4B97
:104110001B685B00FBD4A04214D82100FFF790FF7E
:104120000A4A13680C490B4024021C43094B2343E1
:104130001360064B1B685B00FBD4FFF7A1FFFFF782
:10414000EFFE70BD2100FFF75FFFE9E700030140CC
:1041500000FF0FC00000F03FFF000FC010B50400CB
:10416000FFF794FF074A136807490B40A1680B4308
:1041700061680B431360FFF783FF60782178FFF7D6
:10418000B5FF10BD00030140FFFFF0FF014B1868B1
:104190007047C046FC3F002010B5044B984200D049
:1041A00010BD0420FFF786FFFAE7C0460000044870
:1041B00070B505000C00FFF7EFFF80235B00EB609C
:1041C0002B68034A1340A4031C432C6070BDC046F7
:1041D000FF3FFFFF03680A0C93430904090C1943CE
:1041E000016070470B6843614B799B06DB0F1B0531
:1041F00043600B791B071B0F43624B791B071B0F97
:1042000003624B79DB06DB0F83610B791B09C36209
:1042100070470B6843614B79DB07DB0A43600B791E
:104220001B071B0F43620B791B09C3627047000019
:1042300010B543680324A343194341604369012A2D
:1042400003D0044A1340436110BD8022D2001343BF
:10425000F9E7C046FFFBFFFF4368302293430901A3
:10426000194341607047F0B5C64600B54C1EE4B234
:1042700006686500EDB22F001037FFB203239846A1
:10428000BB409C4633006646B3439C465378BB40D4
:10429000664633431531CFB20121B9408B43917843
:1042A000B94019431935EDB24646AE40B143D37813
:1042B000AB400B43A100C9B20F248C40A34312783A
:1042C0008A401343036080BCB846F0BD1C318900AE
:1042D000401840687047000030B50B291AD8890093
:1042E0000D4B5B589F46032500240DE0C0252D0192
:1042F0000A2409E0C025AD00082405E00C250224AD
:1043000002E0C025AD010C24A8214358AB43A240D4
:104310001A43425030BDC046A85A001010B5A02321
:10432000DB05984200D010BD0220FFF7C3FEFAE77C
:1043300070B505000C00FFF7F1FF80235B00EB6018
:104340002B68034A1340A4031C432C6070BDC04675
:10435000FF3FFFFF012303610B6843614B7BDB06DB
:10436000DB0F1B0543600B7B1B071B0F43620B7BA3
:104370001B09C3624B7B1B071B0F03624B688361E6
:104380008B68142253408364704703680A0C93437C
:104390000904090C194301607047000010B5436817
:1043A0000324A343194341604369012A03D0044A0B
:1043B0001340436110BD8022D2001343F9E7C04689
:1043C000FFFBFFFFF0B5C64600B54C1EE4B2066821
:1043D0006500EDB22F001037FFB203239846BB40B3
:1043E0009C4633006646B3439C465378BB406646C2
:1043F00033431531CFB20121B9408B439178B94095
:1044000019431935EDB24646AE40B143D378AB40BF
:104410000B43A100C9B20F248C40A34312788A40F9
:104420001343036080BCB846F0BD41637047000091
:1044300030B50B291DD889000E4B5B589F460024D0
:10444000032510E00A24C0252D010CE00824C02516
:10445000AD0008E00424302505E002240C2502E02C
:104460000C24C025AD01A8214358AB43A2401A43F8
:10447000425030BDD85A00104B6803658B684365C5
:104480000B68C364704710B5436F490003248C4028
:10449000A3434367436F8A401343436710BD000043
:1044A00010B5EFF3108272B6044B04245C631862FB
:1044B0005962986A82F3108810BDC046000003401C
:1044C00010B5EFF3108272B6044B00245C631862DF
:1044D0005962986A82F3108810BDC04600000340FC
:1044E00010B5044B984200D010BD8020FFF7E2FDCC
:1044F000FAE7C0460000015070B504000D00FFF758
:10450000EFFF0323E3602B68236070BD03689B0704
:1045100005D103680A681343036000207047012037
:10452000FCE710B5436F103101248C40A3438A404F
:104530001A43426710BD0000F8B504000E001700D2
:1045400000F052F9357A002D00D11035002F07D038
:104550003379002B26D031682A00200000F088F83B
:10456000F379013B5B006D0801352D022B43144AA2
:104570001343E3637379013B1B068122520013430B
:104580006363B379002B13D0626B013B1B041343AD
:104590006363A023DB00A36301235B42E3647389AD
:1045A0002364F8BD31682A00200000F00BF8D7E73B
:1045B000626B7379013B1B0413436363E9E7C046F5
:1045C00001000300F0B5DE464F4680B583B0834658
:1045D0000C001500632941D9002A01D101203EE0D9
:1045E000FFF7D4FD6421FFF75BFF814664212000C3
:1045F000FFF756FF07001C4E012301938023DB00C9
:1046000000931C0000E0013C002C12D039006943EB
:1046100048466043FFF744FF830A8005800D8022EF
:10462000D2009342EFD88642EDD906000193009460
:10463000E9E7009F013F80231B023B435A46136179
:1046400053690A4A1340013DAD022B43019E013ECE
:10465000360433435A465361002000E0012003B082
:10466000C0BCBB46B146F0BDFF030000EF8000FCBC
:10467000F0B5DE4657464E464546E0B583B0804627
:10468000894617000192FFF781FD06004B465F4304
:10469000B8424ADD3900FFF713FF0400012506E0A8
:1046A0000135290079433000FFF70AFF0400204B51
:1046B0009C42F5D8019F3900614369433000FFF700
:1046C000EFFE8346631C9A46390059436943300024
:1046D000FFF7E6FE4B46181AC317C01858404B4662
:1046E0005A469B1ADA179B185340984200DBA246A1
:1046F0008022D2005346D21A8023DB011343424664
:10470000136153690B4A1340019F013FBF023B43B2
:10471000013D2D042B4342465361002003B0F0BC01
:10472000BB46B246A946A046F0BD0120F6E7C0460A
:10473000FE030000EF8000FC70B504AC24784569EE
:10474000094E3540002A0DD0102211431B04194395
:104750000C43059B1B021C43069B9B021C432C43E2
:10476000446170BD0022F0E72C8000FC70B5842508
:104770006D004459064E344044514459054E34406E
:104780001B020B43120613431C43445170BDC04629
:10479000FFFFFFF8C0C0FFF870B586256D004459D3
:1047A000074E344044514459064E34401B020B43DB
:1047B000120613431C4380235B052343435170BD02
:1047C000FFFFFFF8C0C0FFEF10B5064B984200D0C6
:1047D00010BD0820FFF76EFC0820FFF77DFC0028C5
:1047E000FAD1F5E70800004810B504009023DB0576
:1047F00098420CD0084B984209D00323E360E36849
:10480000DB07FCD5236C0F229343236410BD0348C0
:10481000FFF7DAFFF1E7C046000200480800004851
:1048200010B54B075B0F8A01920D12041343F82455
:1048300064000351CB00DB0F1B070A01920F9206A5
:1048400013438A00D20F520713434900C90F890747
:10485000194302590A4380231B061343035110BD19
:1048600010B5034BFF221A600120FFF723FC10BD97
:104870000005014070B504000D00FFF7F1FF6B6902
:1048800023606A6880231B0213438022A350AA6816
:10489000A023E250EA680433E2502A69DD33FF3393
:1048A000E2502A68C93BFF3BE25070BDF0B5C646F6
:1048B00000B5002A19D1CA06D20E90464905490F03
:1048C0001F26E022D20094460025082728339B00AB
:1048D0001C5862469443B9402143B1434246AA4022
:1048E0000A431A5080BCB846F0BDCA02D20E9046A8
:1048F0004901490FF8267603E022D2049446102598
:104900001827E3E770B504000D0049680023002272
:10491000FFF7CCFF6968002301222000FFF7C6FFE4
:10492000A968012300222000FFF7C0FFA968012326
:1049300001222000FFF7BAFF2A698023E250EA68CB
:104940003833E25029682000FFF76AFF70BD10B5C8
:10495000802283580324A3431943815010BD10B50E
:104960008A4200D90131C02283580324A34319434A
:10497000815010BDC022835803218B438350704760
:1049800030B50025002300E00133012B06D8094A89
:104990009C00A2588242F7D11D00F5E78D4200D954
:1049A0000131C0240359033101228A4013430351CA
:1049B00030BDC046085B0010F0B5002309E0284A6E
:1049C0009C00A55884242A59264E32402A5101338E
:1049D000DBB2012BF3D90B789B0702D10027002211
:1049E00012E080273F01FAE71D4B9400E65884252A
:1049F00074591D4B1C400B781B079B0F1B02234354
:104A00003B4373510132D2B2012AEDD94A68174BA8
:104A100013438022920083508B680122134381222A
:104A2000920083500A7803231340022B01D0002305
:104A300012E081229200815880235B020B43835055
:104A4000F5E7074A99008858842144588022D20407
:104A5000224342500133DBB2012BF2D9F0BDC046F4
:104A6000085B0010FFFFFFFBFFFCFFFF00808000E2
:104A700010B58423C258184C2240C250C458813B00
:104A80009C430A7813079B0F2343920701D0082207
:104A90001343842283504A68104B134380225200F0
:104AA00083508B68FF3A13430432FF3283500A78F5
:104AB00003231340022B06D08422815880235B04F9
:104AC0000B43835010BD82225200815880235B0229
:104AD0000B438350F0E7C046FFFFFFFE008080805D
:104AE00070B5137B8826845901258D40AC438B40DB
:104AF000234383510D23D356002B17DB012908D004
:104B0000002922D1B02403591F25AB4303510E00C5
:104B100005E0B02403590E4D2B400351803EB025D3
:104B200043590D241457B44023434351C824035917
:104B300055682B4303510834035995682B4303519F
:104B40001368803189000B5070BD0026E7E7C0462E
:104B5000FFE0FFFF10B580208000FFF7ABFA10BD2B
:104B600010B50400FFF7F6FFA268034B5A606268B5
:104B70001A6122685A6110BD00000240F7B5DF0FCC
:104B8000BC460D034C001E03C90F00916D0A410F76
:104B9000760A570F294337435D00009E640D6D0D63
:104BA000C000D200631B664500D02EE1002B00DC64
:104BB0007AE0002D3CD13D0015431ED05D1E012B37
:104BC00018D1821882428041C91940420918100048
:104BD0000A0200D402E1BA4A0133934200D18AE2C8
:104BE000B84C42080C40012101400A43E007104341
:104BF0006108F3E0B24EB34222D14C07CA08B04973
:104C0000C00804438B4206D12100114300D175E254
:104C1000802109030A432000AB4C1B0512032340EB
:104C2000120B1343009AD2071343190003B0F0BDCF
:104C3000A34DAC4200D1DDE180252D042F431D00A2
:104C4000382D2CDC1F2D19DC20233E005B1B9E40E1
:104C5000B44616000193EE4063461E43019BEF40AD
:104C60009A4013005A1E934133431B1883428041DC
:104C700079184042091818002300A9E72B003E00CC
:104C8000203BDE400023202D03D040335B1B9F40A0
:104C90003B0013435A1E934133430027E5E73B0093
:104CA00013435A1E9341F8E7002B50D02B1B002CC6
:104CB00012D10C0004430CD05C1E012B06D18018CD
:104CC00090429241C9195242891881E77C4EB34201
:104CD0000AD13900100090E7794CA54200D104E2D6
:104CE0008024240421431C00382C2BDC1F2C18DCCE
:104CF00020230E001B1B9E40B44606000193E64095
:104D000063461E43019BE14098400300581E8341C7
:104D10003343981890429241C91952422B00891886
:104D200056E723000E00203BDE400023202C03D05A
:104D300040331B1B99400B000343591E8B413343E7
:104D40000021E6E70B000343591E8B41F8E75F4D56
:104D5000631C2B4234D10B000343002C14D1002BD5
:104D600000D1BDE13B00134300D11EE18218824215
:104D70008041C919404209180B0200D4B1E1514BDE
:104D800010001940012338E7002B00D1ADE13C00B1
:104D90004B4B144300D130E74B07C0081843CB08F6
:104DA000802109030B4206D0FC080C4203D12300EA
:104DB000D0087F073843410FDB001943C00019E1D9
:104DC0003F4CA34200D196E1821882428041CF1924
:104DD00040423F18F807520810437908420709D0AB
:104DE0000F220240042A05D0021D82428041404227
:104DF000091810000A0200D4FFE6314A0133934239
:104E000000D178E12F4A1140F7E6002B60DD002D3C
:104E100036D13D00154300D1EFE65D1E012B0DD1CB
:104E2000821A90428041C91B4042091A10000A02AE
:104E3000D4D549021C004D0A019008E1204EB3422E
:104E400000D1DAE6382D35DC1F2D22DC20233E0090
:104E50005B1B9E40B44616000193EE4063461E4322
:104E6000019BEF409A4013005A1E93413343C31AEB
:104E700098428041C91B4042091A18002300D6E716
:104E80000F4DAC4200D1B5E080252D042F431D000D
:104E9000D8E72B003E00203BDE400023202D03D02E
:104EA00040335B1B9F403B0013435A1E93413343E7
:104EB0000027DCE73B0013435A1E9341F8E7C04646
:104EC000FF070000FFFF7FFF0000F07FFE070000EC
:104ED000002B54D02B1B002C15D10C0004430FD0F9
:104EE0005C1E012B09D1101A824292416346791A45
:104EF00052420093891A012399E7814EB3420AD1A5
:104F000061460091E5E67E4CA54200D1EBE08024AD
:104F1000240421431C00382C2CDC1F2C19DC2023FA
:104F20000E001B1B9E40009333000600E6401E430C
:104F3000009BE14098400300581E83413343D01A40
:104F400082429241791A5242891A62462B0000929B
:104F50006DE723000E00203BDE400023202C03D011
:104F600040331B1B99400B000343591E8B413343B5
:104F70000021E4E70B000343591E8B41F8E7614E23
:104F8000651C354250D10E003D0006431543002CF0
:104F900028D1002E0FD1190018000093002D00D148
:104FA0002BE6390010006346009303000B4300D149
:104FB0009EE0002312E7002DF7D0851AA842B641E3
:104FC000CC1B7642A41B260206D5101A82429241BF
:104FD000791A5242891AE6E7280020435CD0210062
:104FE0002800E2E7002E07D1002D7CD18021180097
:104FF0000093C903424B00E6414B002D00D1FCE574
:105000004B07C0081843CB08802109030B4200D18D
:10501000D1E6FC080C4200D0CDE6D00862467F07FE
:10502000230038430092C6E6851A0195A842AD4197
:105030006D422E00CD1BAD1B2E022AD5131A9A42AB
:105040009241019363467F1A5242BD1A0093002D8C
:1050500025D0280000F0DAFA0300083B202201994D
:105060000198D21A9D40D140984029439C4233DC9C
:105070001B1B5A1C1F2A1EDC20230D009B1A040038
:1050800098409D40D440431E98412543D140284339
:105090008BE701982843DAD101000090ADE5019833
:1050A00000F0B4FA030018331F2BD7DD019908383C
:1050B00081402800DAE70C001F3BDC400023202A57
:1050C00003D040339B1A99400B0003435A1E93416F
:1050D00020000021184368E70B4AE31A11407DE6DF
:1050E0003900100061E7634600933900100081E742
:1050F0001900180081E5002108007EE50A008AE514
:10510000FF070000FE070000FFFF7FFFF0B58BB038
:10511000009201930D034B00CA0F06002D0B5B0D8F
:10512000039200D111E1CE4A934200D135E1ED0066
:10513000420F2A4380252D041543CA4AC4009B18F8
:105140001F0000230293019B00981E035A00DB0FEF
:10515000360B520D049300D12EE1C14B9A4200D17F
:1051600050E1430FF60033438026BE4936041E4308
:10517000C30050180022C119069101310091029913
:10518000880010430A2800DD76E10399049F7940E6
:105190000391022800DD44E10138012800D853E1E1
:1051A000190C9BB202911900220CA4B251432000A9
:1051B0008C46029F029958435143674305916744C7
:1051C000010CC91904908C4505D980204002844601
:1051D000059F67440597080C84466846008A0904C1
:1051E00009180991310CB6B2049130003100049FC6
:1051F000614350437C437A4324180F0C3C19A0426E
:1052000002D9802040021218200C8218240489B28E
:10521000079262180892089962468C46290CADB232
:105220002800029F58436F434B4362449446029CBC
:10523000FF18020CD2194C43934202D980235B021F
:10524000E418130C1B1902932B0080B212041218DD
:105250000498734345434E434143A8191D0C2D1830
:10526000AE4202D9802040020918059F0898674481
:105270008742B641BF189742924128049BB2C0189A
:10528000079B7642C01853420493029B84199C46A4
:10529000A4446346049AB442A4419B18079A64420A
:1052A00090428041029A4042044394458041049ACE
:1052B0002D0C934292414042524210436419099A84
:1052C00024186418790211434A1E9141FF0DDE0D26
:1052D000640239435B0226430B43E40100D4DEE061
:1052E00001215A080B401A43F307CE401343009A9A
:1052F0005D495218002A00DCD4E0590709D00F217B
:105300001940042905D0191D99429B415B42F618AA
:105310000B00F10106D58021C9008C46534A164086
:10532000009A624452498A4200DD07E17407DB08B3
:105330001C43F60813053603039A360B3343D20792
:105340001343200019000BB0F0BD2C0004432BD0F8
:10535000002D16D0280000F059F9040002000B3C83
:105360001D2330001B1B1100D84008398D4003005D
:105370002B4335008D403F492C008A1A17001D0031
:10538000DFE600F043F904000200153420321C2C43
:10539000E6DD330008388340EDE704002C4307D1F5
:1053A0001F0025000223CDE6250027000123C9E6C2
:1053B0001F0004000323C5E6009B334329D0002EC1
:1053C00014D0300000F022F9010003000B391D2237
:1053D0001800521A009908388640D1403143009E87
:1053E00086402448C01A33000E00C3E600F00EF9D0
:1053F00001000300153120331C29E8DD009908382D
:105400008140EEE7009B334307D110001E000222CB
:10541000B1E61E0018000122ADE6030010000322D1
:10542000A9E601218140A6200F00C00007400142EB
:1054300026D190208000014276D1B938FF38014250
:1054400000D1ADE604990391022A77D0032A72D0E5
:10545000012A00D04BE70026340032006AE7C0463C
:10546000FF07000001FCFFFFFF030000FFFFFFFE3E
:10547000FE0700000DFCFFFF0F2805D00B28E1D030
:105480002E002300029ADFE780221203154201D08A
:1054900016424ED0802636032E432C4A4AE7069AFF
:1054A000009224E70120801A3828D4DC1F2827DC4A
:1054B0002749009A8C461C00624431009340914079
:1054C000C4401A002143531E9A410B00C6401343A7
:1054D0005A0709D00F221A40042A05D01A1D9A42F1
:1054E0009B415B42F61813008021300009040840FC
:1054F0000E4226D17407DB0802001C43F60819E7A8
:105500001F2149428A1A3100D1400022202805D0AB
:105510001048009A844662449640320013435A1E53
:10552000934100260B43D3E780253C0003972D03CE
:10553000B0E7049A039235001C00ABE70026340064
:10554000ABE7002601223400F4E6C046FF07000066
:105550001E0400003E0400000B0070B5114E0C0349
:1055600049000200240B0020490DDD0FB14204DD8B
:105570000D48814202DD0D4BE81870BD80204003CC
:1055800020430B4C641A1F2C08DC0A4EE240891998
:1055900088401043002DF0D04042EEE7064B5B1AE6
:1055A000D840F7E7FE0300001D040000FFFFFF7F67
:1055B00033040000EDFBFFFF1304000070B503008F
:1055C00004000200051E11D0C21785185540C40FF3
:1055D000280000F01BF80C4B1B1A0A280FDC0B22CA
:1055E0002900121AD14015300A0085401203120B0F
:1055F0001B051343E40723432800190070BD2A004C
:105600000B3882400025F1E71E0400001C21012315
:105610001B04984201D3000C10391B0A984201D395
:10562000000A08391B09984201D30009043902A273
:10563000105C40187047C0460403020201010101DA
:10564000000000000000000070B500260C4C0D4D5D
:10565000641BA410A64209D10026FEF78FFC0A4C59
:105660000A4D641BA410A64205D170BDB300EB58CF
:1056700098470136EEE7B300EB5898470136F2E75A
:105680006C0600206C0600206C0600206C060020D2
:10569000F40100000000000000010000004B0000C9
:1056A0000008080110000000100000000000007059
:1056B00000000000000000000701000001000040A1
:1056C0000000000000000000F000000000000000EA
:1056D00000000000070100000D00000078780000C5
:1056E00000000000050000000000000002000000B3
:1056F000F0000000000000000000000007010000B2
:105700000D00000078780000000000000500000097
:105710000000000002000000F00000000000000097
:1057200000000000070100000D0000007878000074
:105730000000000005000000000000000200000062
:10574000F000000000000000000000000000000069
:1057500000000000F0100000000000000001000048
:105760000D01000000100000F80000000000000023
:10577000000100000401000006000000F00000002D
:105780000000000000000000000000000000000019
:105790008000000000000100000000000000000088
:1057A00000000000000000000000000000000000F9
:1057B00000000000000000000000000000000000E9
:1057C00080000000000001009000000000000100C7
:1057D00008000000000000000800000000000000B9
:1057E0000800000000000000A80000000000010008
:1057F000A8000000000001001000000000000000F0
:10580000B8000000000001001000000000000000CF
:105810000800000000000000B800000000000100C7
:10582000B800000000000100A80000000000010016
:105830001000000000000000100000000000000048
:10584000A8000000000001000001000000000100AD
:1058500000000000D2200010DC200010F420001016
:10586000142100104421001072210010902100101A
:10587000AC210010D821001040350010D0340010A9
:10588000D6340010DC340010E2340010E83400108C
:10589000EE340010F4340010FA340010010300025A
:1058A0001E06280632063B0644064C0654065B06D6
:1058B000620668066E06730678067D068106840613
:1058C00087068A068C068D068E068E068E068E0646
:1058D0008D068B0689068606830680067B0677067C
:1058E00072066C06660660065906510649064106B0
:1058F00038062F0625061406F405D505B5059405CA
:105900007405530531050F05ED04CB04A904860485
:10591000630440041D04FA03D603B3038F036C032E
:10592000480324030103DD02BA0296027302500207
:105930002D020A02E701C501A30181015F013D01BA
:105940001C01FC00DB00BB009C007C006B006100C4
:1059500058004F0047003F00370030002A00240065
:105960001E001900150010000D000A0007000500B8
:10597000030002000200020002000300040006000F
:1059800009000C000F00130018001D002200280061
:105990002E0035003C0044004C0055005E006800BD
:1059A000720068005E0055004C0044003C00350069
:1059B0002E00280022001D00180013000F000C000C
:1059C00009000600040003000200020002000200B9
:1059D0000300050007000A000D0010001500190063
:1059E0001E0024002A00300037003F0047004F000F
:1059F000580061006B007C009C00BB00DB00FC00D9
:105A00001C013D015F018101A301C501E7010A02FB
:105A10002D02500273029602BA02DD020103240332
:105A200048036C038F03B303D603FA031D04400439
:105A300063048604A904CB04ED040F053105530566
:105A400074059405B505D505F405140625062F063D
:105A500038064106490651065906600666066C0678
:105A6000720677067B0680068306860689068B0605
:105A70008D068E068E068E068E068D068C068A068E
:105A80008706840681067D06780673066E0668061C
:105A900062065B0654064C0644063B0632062806A0
:105AA0000303060205010401E6420010E64200106D
:105AB000FC420010FC42001014430010144300107C
:105AC0001443001014430010F4420010EC42001084
:105AD00002430010024300103E4400103E440010F8
:105AE0005A4400105A44001054440010544400100A
:105AF00072440010724400104C44001044440010E2
:105B0000604400106044001000040348000803488B
:105B10002C48874600000000000000000000000044
:105B20000000000000000000000000000000000075
:105B300025488746000000000000000023488746F3
:105B40002348874623488746234887462348874675
:105B50002348874623488746234887462348874665
:105B6000234887460000000022488746224887468F
:105B70002248874622488746224887462248874649
:105B80002248874622488746224887462248874639
:105B90002248874622488746224887462248874629
:105BA0002248874622488746224887462248874619
:105BB0002248874622488746000000000000000077
:105BC00020488746A3100010A3100010A310001057
:105BD000A3100010A3100010A3100010A3100010B9
:105BE000A3100010A3100010A3100010A3100010A9
:105BF000A3100010A3100010A3100010A310001099
:105C0000A3100010A3100010A3100010A310001088
:105C1000A3100010413E0010A3100010A3100010AC
:105C2000A3100010A3100010A3100010A310001068
:105C3000A31000107106002071090020A3100010AD
:085C4000A3100010A3100010D6
:105C4800000001000000000000000000000100004A
:105C58000000000000000000000000000003000039
:105C68000004010000000000000000000004000023
:105C78000004000000000000000000000003000015
:105C880021000000A00000000D000000004F0400EB
:105C980004000000400206000000000001000000AF
:105CA80000FF0000000007000000000000000000E6
:105CB80000FF0000000007000000000000000000D6
:105CC80000FF000000000000000F0400300000008A
:105CD80000000000010001000000000000000000BA
:105CE80000000000000000000100010000000000AA
:105CF800000000000000000000000000000000009C
:105D08000000000000000000000000000800000083
:105D180028000000400000009602A5A501282801DF
:105D2800B02F0100A000AA006E00AA00AA00AA00D5
:105D3800AE10FF00BB4949C2C2C1020143000208BC
:105D4800010E000000186B42C3EB9800480348039B
:105D5800480307050400AE1001F6F600580149C2D1
:045D6800FFFF000039
:105D6C00F0B5C64600B59A48056FADB2012100F0FA
:105D7C00CBFC86B2974A80235B00D2585211F93B78
:105D8C001340954F3B70954A1370AD1BADB2944ABE
:105D9C00C1239B00D0580004400B924B1860924AD0
:105DAC0013681B181360914A13680133136000F0D9
:105DBC00BBFC04008E4B18603F788E4B1B789F42C7
:105DCC0000D1C7E08C4AD35C9F4200D18CE08B4A57
:105DDC00002313708A4A13708A4A13608A4A138804
:105DEC0001331380834B1F70884BDA5D884B1A701C
:105DFC006409E4B2874B1C70804B1B78002B0ED0CF
:105E0C00854B1B785B19854A1278D2187D4B1B6821
:105E1C00534380221202944663441B0CDBB27C4A2F
:105E2C0012789B18DBB27E4A1278D318DBB27D4A0B
:105E3C0012789B18DBB21A00553AD2B27A4952004A
:105E4C00525A7A490A80D22189008A4200D89BE0B2
:105E5C0077498C466244774909784A431212D22119
:105E6C0089008C46624492B273490A806E4A59008A
:105E7C008A5A6E490A80D22189008A4200D88FE062
:105E8C006B498C4662446B4909784A431212D22101
:105E9C0089008C46624492B268490A805533DBB261
:105EAC00614A5B009B5A614A1380D2229200934252
:105EBC0000D881E05E4A944663445E4A12785343AC
:105ECC001B12D2229200944663449BB25C4A13800C
:105EDC005C4AC6239B00D3589B109B059B0D5A4ACA
:105EEC00138080BCB846F0BD012F18D0032F00D012
:105EFC0078E7564B01221A70404B1B78802B00D050
:105F0C0070E7394E394B98461968306800F014FC2C
:105F1C004F4B1860002333604246136062E7384BE6
:105F2C001B78002B10D04B4B1B88F31A9BB24A4AA0
:105F3C001380118889B28020400400F0FDFB314BA6
:105F4C0018602E4B80221A702D4B01221A70414B77
:105F5C001E8047E7414B9D4200D849E7274A002362
:105F6C0013702F4A1370264A1370264A13603A4A4C
:105F7C000121494211801B4A1168354A11601A4AA5
:105F8C0013601A4A136033E7D22189008A1A294810
:105F9C00007842431212891A89B2274A118065E7A8
:105FAC00D22189008A1A2348007842431212891A96
:105FBC0089B2224A118071E7D2229200D31A1D496C
:105FCC0009784B431B12D21A92B21D4B1A807FE7F1
:105FDC000002044800000150EB120020EA120020DD
:105FEC0000040348D0120020CC120020C81200205C
:105FFC00C41200205A060020A05A001022130020C0
:10600C0023130020D8120020D41200204C060020AC
:10601C002113002020130020161300204906002015
:10602C0010130020E4120020A0580010E6120020EB
:10603C00B8FCFFFF1813002058060020560600205D
:10604C0054060020000803480613002011130020FA
:10605C001C130020E8120020680600208D20000090
:10606C0070B56C4B1B889BB26B4AD3636B4B1B8814
:10607C009BB26B4AD3636B4B1B889BB26A4AD3634C
:10608C00A023DB051222FF321A61684B1B78002B10
:10609C0000D1E5E0654B1B78DBB20A2B52D9644B7F
:1060AC0018780002614B1978C9B200F035FB80B248
:1060BC00604B1880604B1B78002B00D1D5E05F4BF8
:1060CC001C78322C00D93224E00000194000322117
:1060DC0000F032FB40B2002C04D003000A3301DA8A
:1060EC000A204042564A13780133DBB21370032B5B
:1060FC0068D9130000221A70524B19884C4B1A782D
:10610C00D4B2514B1B88CB1A1BB2504D2D78521B5D
:10611C00002B01DD002A1BDD002B27DB0023002BCD
:10612C003DDB424B1B78DBB2FD2B47D9002A45DD0A
:10613C00474B1B785BB21A0009323FDB444A013BE8
:10614C0013703BE03A4B1B78DBB23A4A1380B1E751
:10615C00404B1B785BB2002B13DD3D4B1B785BB2C5
:10616C005A1C904209DA3A4B187027E0002A02DBDD
:10617C0001235B42D3E70023D1E70133344A137088
:10618C001CE0334B1B785BB25A1E0A3203DA304BDD
:10619C00F6221A7012E0013B2D4A13700EE02D4AC4
:1061AC0013785B425BB21370002B20DD284B1B78FD
:1061BC005BB25A1C904216DA254B1870224B198090
:1061CC00224B1C70224B1B785BB2234A127852B2C2
:1061DC009B1A012B19DD01239B18DAB21E490B7097
:1061EC001E4B1A7041E00133194A1370E6E7184B45
:1061FC001B785BB25A1E0A3203DA154BF6221A7060
:10620C00DCE7013B124A1370D8E7991CE4DA02234D
:10621C005B42E1E7580600200001005056060020C2
:10622C0000020050540600200003005018130020F8
:10623C002013002008130020111300200F1300203E
:10624C000E1300208E1200200C1300200A130020C5
:10625C00620600206006002061060020101300205A
:10626C00CD4B00221A80CD4B1A70CD4B00221A70E8
:10627C00CC4B5B6A5B05DB0F01225340DBB2CA4A95
:10628C001370CA4AC1239B00D3589BB29B08DBB244
:10629C00C74A12789A4206D2C64A117889081378EE
:1062AC005B1ADBB21370C44B1B78C24A12789A4249
:1062BC0016D8C24B1B78C24A12789A4210D8B64BE9
:1062CC001B88C04A12889A420AD3BF4B1B88BF4A0C
:1062DC0012889A4204D8B44B1B78002B00D1D5E01D
:1062EC00BB4B00221A70BB4A13780133DBB213701C
:1062FC00B94A12789A420CD2B64B00221A70B74B9C
:10630C001B78002B00D1B6E0B44A1378013BDBB20A
:10631C001370A44B5A6A120901231340B04A128815
:10632C00002A00D115E1AE4A1288D208AD490A8084
:10633C00AD4A1278002A05D0AC490988A9480088D2
:10634C0088420DD2AA490978994209D0A8490B7004
:10635C00002B05D0002A00D0FFE0A34B01321A70AD
:10636C00A14B1B78002B08D0A04B1B88A14A934251
:10637C0000D908E19D4A013313808C4AC7239B0046
:10638C00D3589B109B059B0D9B4A138011889B4AED
:10639C0013885B00C91813885B189B109BB212887A
:1063AC009A4200D14CE1954A13807E494B6A5B09B5
:1063BC0001221340496A490B0A4052001343904A88
:1063CC0012789A4212D08F49C95C8A4200D146E1B8
:1063DC008D4A002111808D4A053111708C4A7B3118
:1063EC0011708C4A00211180854A1370894A1388D8
:1063FC0001339BB21380884A1288934200D85BE128
:10640C00814B00221A80834B1A80804B05321A7004
:10641C007F4B7B321A70814B00221A70804B1B7899
:10642C00002B09D07E4A002313707E4A13807E4ACB
:10643C0013807A4B00221A70734B1B88002B00D1EF
:10644C0044E1784B1B886D4A12889A4204D96B4BF5
:10645C001B889BB2734A1380704B1B78132B00D88C
:10646C003BE16E4B002119706E4A13889BB26E484B
:10647C000380118031E14F4B1B78002B00D148E792
:10648C004C4A1378013BDBB2137042E74A4B1B7842
:10649C00484A12789A4230D2484B1B78484A1278B4
:1064AC009A422AD24B4B00221A70494A1378013374
:1064BC00DBB213705D4A12789A4200D329E7444B41
:1064CC0000221A703B4B1B78DBB21D2B03D8394BC7
:1064DC001E321A701DE7374B1B78DBB2FD2B00D92F
:1064EC0017E7344B1B78DBB2FD2B00D911E7314A8F
:1064FC0013780133DBB213700BE74D4B1B78002B79
:10650C0004D02C4B1B78DBB2FE2B05D0304B002279
:10651C001A70304B1A70FCE62E4B00221A702C4A63
:10652C0013780133DBB21370404A12789A4200D3CD
:10653C00EFE6274B00221A70284B1B783D4A127845
:10654C009A4200D8E5E6254A13780133DBB2137082
:10655C00DFE6244A38491180EAE6244B1B88A32B3A
:10656C0007D81F4B00221A80204B1A801E4B1A7022
:10657C00F6E61B4A13801D4B00221A802F4A136823
:10658C0001331360ECE6164B00221A80174B1A806D
:10659C00154B1A70F1E6C0460813002010130020AA
:1065AC001113002000000440FC12002000040348DA
:1065BC004106002018130020171300201913002087
:1065CC00201300203A060020061300206406002049
:1065DC00131300201213002066060020161300204F
:1065EC00F2120020F0120020C0120020BE12002077
:1065FC00BC120020F99B00000413002002130020A1
:10660C005C0600209C580010FA1200205B0600204B
:10661C00C1120020F61200205E060020F4120020A9
:10662C00FD12002000130020FE120020670600203F
:10663C0014130020151300207F130000EC1200200F
:10664C00264A12889A4202D901339BB2ABE6234AFE
:10665C0012889A4200D3A6E6013B9BB2A3E6204ADD
:10666C00128820490A802049097899420AD00529C4
:10667C001AD01E4A1288002A00D0B2E61B4A1C49C6
:10668C001180AEE61B49012008701B490C88174885
:10669C000480002008801349AC32FF320A8017496D
:1066AC000A7801320A709CE60F4A1370124A0021D4
:1066BC001180124A117094E60B4B1B78052B00D1FC
:1066CC00ACE60D4A138801331380A7E60B4A00236E
:1066DC0013700B4A13800B4A138070BD04130020F7
:1066EC00380600205E0600205B060020FA1200200F
:1066FC00C21D0000C1120020F8120020F41200206C
:10670C00FE1200200013002001B40248844601BC94
:10671C00604700BFCD42001001B40248844601BC62
:10672C00604700BFC144001001B40248844601BC5C
:10673C00604700BFB93C001001B40248844601BC5C
:08674C00604700BFA1440010EA
:0400000510001019BE
:00000001FF
