:020000041000EA
:10100000480500201910001000000000A310001077
:1010100000040100000100001249134A134B00F0C4
:101020001AF8134880471349134A144B00F013F879
:101030001349144A144B00F00EF81449144A0020C6
:10104000521A02DD043A8850FCDC124880471248EC
:101050008047124880479B1A03DD043BC858D05094
:10106000FBDC7047F08100100C00002044010020E0
:10107000494000102883001048050020B4060020D5
:1010800094840010B80600200810002008100020EA
:1010900030140020A11000101D790010BD3C00107C
:1010A0007047FEE710B582B06B46354ADA80354BA3
:1010B000354A1A60354B0121C022520099508020D8
:1010C0001A58334C22401A508022120231480260D2
:1010D00031480260812292009950304A8423802155
:1010E000C904D1501DE029498122920088588023EB
:1010F0009B0003438B50294AFC235B00D358002BF1
:10110000F9D0C0239B00D358009380231B02214AAF
:101110001360214A13606B469A1DDB88013B9BB22A
:1011200013806B4606331B88002BDCD1009B002309
:10113000009305E080231B02164A1360164A1360D1
:10114000174B1A6C80235B059A42F3D20F4B802118
:101150005858C022920202435A5000228531FF3172
:101160005A5084395A500D4B9532FF328039FF392D
:10117000995083315A580B4802405A5002B010BD62
:1011800050460000BC4003480004103F00000348E4
:10119000FFFFFC7FE0400348E440034800040348AD
:1011A00000400348FFFFFFFB00B583B00023124A55
:1011B0001360124A13600321114803F034FC1149F3
:1011C00080228858104B03438B501423019308E06E
:1011D000019B013B019380231B02074A1360074ACE
:1011E0001360019B002BF3D1FFF75CFF0021044843
:1011F00003F019FC03B000BDE0400348E44003489D
:10120000000403480000034800000180F8B552497B
:10121000524D280003F09AFB5149524E300003F022
:10122000DDFB5149514C200003F0D8FB0321300075
:1012300003F0F9FB0321200003F0F5FBFFF7B4FFF7
:101240004B49280003F024FC4A49200003F07CFCB1
:1012500082225200A1588023DB000B43A350434A53
:1012600084235B00D3589B06F9D5140082235B00CE
:10127000D25803208243E250E25801210A43E2504F
:10128000384DEA588243EA50EA580A43EA503A4B4A
:101290001A6888235B00E250384A1268E250384AE4
:1012A0000021200003F088FC364A0121200003F0D1
:1012B00083FC354A0021280003F07EFC334A0121DB
:1012C000280003F079FC0021280003F0ACFB00218A
:1012D000200003F0A8FB00220121280003F0ABFB53
:1012E0000021280003F0B8FB200003F0AFFB03212E
:1012F000200003F098FB0321280003F094FBB023A7
:10130000234AE2500422FF32EA50224A06212000FA
:1013100003F052FC114EC2277F00F35940221343C1
:10132000F3511D4A0721200003F046FCF3598024A5
:101330002343F351194A0721280003F03DFCC02242
:101340005200B3582343B3508432B15880239B00DA
:101350000B43B350F8BDC046000600200000034810
:10136000EC05002000040348D805002000080348CD
:10137000CC050020900500208C0500208805002069
:101380007805002068050020580500204805002049
:10139000030400009C050020BC050020AC050020D3
:1013A00010B500F007F800F02BFA10BD10B5FFF7EC
:1013B000F7FF10BDF0B5DE4657464E464546E0B550
:1013C00085B0DE4E0021300002F05EFF80235B001E
:1013D0009846F360DA49DB4F380002F06FFF0223D2
:1013E0009A46FB6304247C638021C904300002F028
:1013F0005DFF07233361D44A0121380002F09FFFCB
:10140000D24A0221380002F09AFFD14A0321380063
:1014100002F095FF01220121380002F075FF012240
:101420000221380002F0C4FFA4257B5923437B51DD
:1014300001218B46F16000243C67F960C549C64F25
:10144000380002F052FFC54B7B6380210905300054
:1014500002F02CFF70213161C14A6F39380002F06F
:101460006EFFC04A0221380002F069FFBE4A032124
:10147000380002F064FF0121380002F059FF5046A5
:10148000F0603C675846F860B849B94F380002F040
:1014900015FFA023FB63B74B7B63802189053000D8
:1014A00002F004FFE020C0013061B34A012138009E
:1014B00002F045FFB14A0221380002F040FFB04A75
:1014C0000321380002F03BFF0822F2603C675E46D1
:1014D000FE60A026F6050021300002F095FF474689
:1014E000F760A849A84F380002F0A0FFD2239B0064
:1014F0009846FB637C64D223DB00994619003800D0
:1015000002F0FFFF8021C904300002F0AAFF072388
:1015100033619E4A0121380002F0C0FF9C4A02213B
:10152000380002F0BBFF9B4A0321380002F0B6FFEF
:1015300001220121380002F09DFF9749380003F095
:1015400007F83C679549964F380002F06FFF434615
:10155000FB637C644946380002F0D3FF8021090513
:10156000300002F07EFF702131618E4A6F39380001
:1015700002F094FF8C4A0221380002F08FFF8B4A60
:101580000321380002F08AFF01220121380002F015
:1015900071FF8749380002F0DBFF3C678549864FC1
:1015A000380002F043FF4146F9637C644946380045
:1015B00002F0A7FF80214905300002F052FFE0232E
:1015C000DB0033617D4A0121380002F067FF7C4A6D
:1015D0000221380002F062FF7A4A0321380002F04B
:1015E0005DFF01220121380002F044FF76493800F6
:1015F00002F0AEFF3C677549754F380002F016FFE8
:101600004146F96379644946380002F07AFF802147
:101610008905300002F025FFE020C00130616D4AED
:101620000121380002F03AFF6B4A0221380002F033
:1016300035FF6A4A0321380002F030FF0122012100
:10164000380002F017FF03220021380002F05CFF8F
:1016500002220121380002F057FF00220421380045
:1016600002F052FF01220321380002F04DFF7B59A6
:10167000584603437B517B59504603437B517B596A
:10168000102213437B517B5908210B437B513C674C
:10169000534D280002F090FF2B680326B3432B60C4
:1016A0005049280002F094FF4F49280002F09AFFA9
:1016B00000220221280002F0A0FF6B6F04221343D6
:1016C0006B674A494A4D0022280002F0A1FFEB69EE
:1016D00050229343EB61EB69493A93433343EB6107
:1016E000EA6B444B1A4080231B011343EB63424BCC
:1016F0002B610C360296019400943A2300220021BB
:10170000280003F085F81F2305220021280003F09C
:10171000AFF81F2305222021280003F093F82B6C3B
:10172000B343524613432B64344803F085FA05B0A3
:10173000F0BCBB46B246A946A046F0BD0000044836
:101740004C7A001000010448487A0010447A0010D6
:10175000407A0010387A001000020448FFFF0000B1
:10176000347A0010307A00102C7A0010247A00109D
:1017700000040448FF040000207A00101C7A0010C6
:10178000187A0010087A001000010050F879001053
:10179000F4790010F0790010FC790010E079001065
:1017A00000020050D0790010CC790010C8790010E8
:1017B000D4790010B879001000030050A879001007
:1017C000A4790010A0790010AC7900109079001075
:1017D000000400508C790010887900108479001082
:1017E00000000150807900107C79001070790010A1
:1017F00000020048FFE0FFFF438200006479001010
:1018000010B57F4A7F4C0021200002F025FC002209
:101810000021200002F0A3FE7B4A0A21200002F0F2
:101820001BFC00220A21200002F099FE774A0D21BC
:10183000200002F011FC00220D21200002F08FFE9A
:10184000734A0121200002F007FC00220121200040
:1018500002F085FE6F4A0221200002F0FDFB00220B
:101860000221200002F07BFE6B4A0321200002F0DF
:10187000F3FB00220321200002F071FE674A0421DD
:10188000200002F0E9FB00220421200002F067FEA4
:10189000634A0521200002F0DFFB00220521200021
:1018A00002F05DFE5F4A0621200002F0D5FB002217
:1018B0000621200002F053FE5B4A0721200002F0BF
:1018C000CBFB00220721200002F049FE574A0821E5
:1018D000200002F0C1FB00220821200002F03FFEA0
:1018E000534A0921200002F0B7FB00220921200001
:1018F00002F035FE4F4A504C0021200002F0ACFBB4
:1019000000220021200002F02AFE4C4A0121200082
:1019100002F0A2FB00220121200002F020FE484A32
:101920000221200002F098FB00220221200002F098
:1019300016FE444A0321200002F08EFB0022032100
:10194000200002F00CFE404A0521200002F084FB3A
:1019500000220521200002F002FE3C4A3C4C0A21F4
:10196000200002F079FB00220A21200002F0F7FD9E
:10197000384A0B21200002F06FFB00220B212000CF
:1019800002F0EDFD344A0221200002F065FB002246
:101990000221200002F0E3FD304A0421200002F081
:1019A0005BFB00220421200002F0D9FD2C4A052116
:1019B000200002F051FB00220521200002F0CFFDA3
:1019C000284A0621200002F047FB002206212000C1
:1019D00002F0C5FD244A0821200002F03DFB002250
:1019E0000821200002F0BBFD204A0921200002F05E
:1019F00033FB00220921200002F0B1FD10BDC046DA
:101A0000147B0010000004400C7B0010047B0010CD
:101A1000FC7A0010F47A0010EC7A0010E47A0010DE
:101A2000DC7A0010D47A0010CC7A0010C47A00104E
:101A3000BC7A0010B47A001000010440AC7A0010A7
:101A4000A47A00109C7A0010947A00108C7A00100E
:101A500000020440847A00107C7A0010747A00102E
:101A60006C7A0010647A00105C7A0010547A0010CE
:101A700030B585B001A8044B020032CB32C202F06F
:101A8000D9FB05B030BDC0461C7B001010B5FFF778
:101A90008DFC002010BD70B505000E001C0004ABCD
:101AA00018888D421FD395421ED2521A91B2A0427D
:101AB0000CD2AE1BB6B2201A80B270434B08C018CD
:101AC00002F05AFD80B2201A80B20DE0AD1BADB21B
:101AD000001B80B268434B08C01802F04DFD80B275
:101AE000001980B200E0200070BD70B51D0004AB8D
:101AF0001B7888421DD990421DD2AB420CD2441AA9
:101B0000E4B2E81AC0B26043511AC9B202F044FD0F
:101B1000C0B2281AC0B20DE0441AE4B2581BC0B2D9
:101B20006043511AC9B202F037FDC0B24019C0B2C9
:101B300000E0280070BD1800FCE7030008008B429D
:101B400000D21800704770B505000C000A2A15D89D
:101B50000A20801A68434A43801805300A2102F09F
:101B60000BFD80B284420AD1854202D9013080B295
:101B700005E0854203D2013880B200E0002070BD4C
:101B80000B8858400880082202E05B080B80013A6D
:101B9000002A07D00B88D807F7D55B0802484340D6
:101BA0000B80F4E77047C04601A0FFFF002803D078
:101BB000044B20225A607047024B802292035A60E5
:101BC000F9E7C0460001044070B5164B1B78002BA6
:101BD00009D0012B0AD1144B1B88002B19D1134BB0
:101BE00001221A7002E0114B01221A700F4B1B7870
:101BF000002B0DD00E4D2C880E4B0F4A1278520040
:101C0000D05A6043642102F0B7FC80B224182C80C3
:101C100070BD094B1B782D2BE8D9044B00221A709C
:101C2000E4E7C04605120020201200200412002024
:101C30002A120020141100203D12002010B5194B6B
:101C40001B78002B0BD1184B1B88002B07D1174B8F
:101C500001221A70164B174A12781A701DE0134BA6
:101C60001B78002B19D0124B1B78002B16D0104A72
:101C7000013B13700E4B1B78642058430D4B1978B1
:101C800002F08AFC83B26420C01A80B20A4C238816
:101C90005843642102F080FC208010BD034B0022D9
:101CA0001A70E7E73D1200203E12002010110020BC
:101CB0000F110020230600202A120020084B1A785A
:101CC000FD2A00D9FD22074B18211970064B0F3948
:101CD0001970064B064909781970064B1A7070473F
:101CE00055120020400600203E0600204112002030
:101CF0003C0600204012002010B50F4B1B88002B23
:101D000015D00D4B198889B20C4B1B88AB20800075
:101D1000584302F031FC0A4B18800A4B1B78002B09
:101D200004D0074A99005B185B00138010BD044B78
:101D300000221A80F1E7C0469812002046060020D3
:101D4000201200201E12002009490A889308D21A86
:101D500092B20A80074B1B889B189BB20B809B0892
:101D6000054A1380054A57214B4313807047C046EC
:101D700020100020A812002042120020461200204D
:101D800010B55A4B1B885A4A12889A423ED9594B71
:101D900001221A70584B1A78531EDBB2012B39D925
:101DA000052A37D0042A35D0544B00211970534BE3
:101DB0001978002915D0524B1B880A3B9BB2912001
:101DC0004000834208D84F4B18884F4B984203D8A5
:101DD0004E4B1B78002B04D04D480378022423433C
:101DE00003704C4B1B88642B1CD94B4B1B78002B6E
:101DF00018D1002916D0494B1B78013BDBB2812B4F
:101E000010D947490B7801330B700EE0394B002293
:101E10001A70BFE7434B1B78002BC5D1374B01210C
:101E20001970C4E73E4B002119703D4B1B78FA2B0B
:101E300004D937490B78042003430B703A4B1B78C5
:101E4000002B20D1394B1B885A2B08D9072A06D0E2
:101E5000062A04D0364A13880133138002E0344B3B
:101E600000221A80334B1B88002B02D0304B0022FB
:101E70001A802F4B1B887D2B05D9254A117880238A
:101E80005B420B4313702C4B1B780F2B10D9274B45
:101E90001B88092B0CD8294A13780133DBB2137045
:101EA0000A2B08D91A4A137808210B43137002E051
:101EB000224B00221A70224B1B78002B03D0214B9F
:101EC0001B78022B00D010BD1F4B1B78132BFAD8A8
:101ED0001D4A013313701D4B1B88D32BF3D90C4AB9
:101EE000137810210B431370EDE7C046A8120020B1
:101EF0005C0600205C120020561200201B100020FF
:101F0000360600202C1200208A0200003912002020
:101F100048060020261200200E1100203D1200204D
:101F20001A100020181200207C1000203E12002001
:101F30001810002020120020451200201710002049
:101F40001412002058120020161000207E100020CD
:101F500010B582B01B4B1C88A4B2C8221A4B18883B
:101F60005623FF330093194B52002821FFF793FDAE
:101F7000174B1880002C0BD02100164802F0FCFAF9
:101F8000C0B2154B1870782805D978221A7002E073
:101F9000114B00221A70114B00221A800E4B1C7834
:101FA000002C0AD00E4B1878001B002805DD00021B
:101FB000210002F0F1FA094B1880094B1C7002B0A5
:101FC00010BDC0469C12002020120020AE10000060
:101FD0003806002035DF00003D1200203A120020B4
:101FE0003C12002030B583B0134B1888134C218865
:101FF0000822FFF7A8FD0300208011485843C00ABB
:1020000080B2104B1880104B1978104B1A789142FF
:1020100004D30F4B00221A7003B030BD0C4C237850
:102020009500521952008D0049194900002500956C
:10203000FFF731FD2070EFE77E1000200810002030
:10204000102700001C120020191200201A12002074
:102050004112002010B56D4A13780133DBB21370C2
:102060006B490A780132D2B20A706A4909780029AC
:102070001AD0032B18D9654B00211970654B1970C4
:10208000654B1B78002B19D0012A17D9604B002211
:102090001A70614B1A70614B1A78082A00D9B0E0A7
:1020A00093005F4AD3589F460029E9D1022BE7D914
:1020B000564B1970574B01311970E1E7002BEAD1EB
:1020C000012AE8D9524B00221A70534B01321A7080
:1020D000E1E7544B1878FFF769FD10BD514B1878B4
:1020E000002804D04B4B1878FFF760FDF5E7FFF7A9
:1020F0005DFDF2E74B4B1878002803D04A4B1B7864
:10210000002B02D1FFF752FDE7E7434B1878FFF7AA
:102110004DFDE2E7434B1878002803D0424B1B7873
:10212000002B06D100280AD03A4B1878FFF73EFD65
:10213000D3E73D4B1878C0B2FFF738FDCDE7FFF786
:1021400035FDCAE7374B1878002803D0364B1B788B
:10215000002B06D1002809D02E4B1878FFF726FD5A
:10216000BBE72D4B1878FFF721FDB6E7FFF71EFD03
:10217000B3E72D4B1B78002B05D02B4B1878C0B242
:10218000FFF714FDA9E7274B1878FFF70FFDA4E729
:10219000254B1B78002B04D01F4B1878FFF706FD4A
:1021A0009BE7204B1878FFF701FD96E71E4B1B7845
:1021B000002B08D11B4B187800280AD0154B187833
:1021C000FFF7F4FC89E7184B1878C0B2FFF7EEFC74
:1021D00083E7FFF7EBFC80E7134B1B78002B08D15C
:1021E000104B1878002809D00A4B1878FFF7DEFC4E
:1021F00073E7094B1878FFF7D9FC6EE7FFF7D6FCB9
:102200006BE7084B1878FFF7D1FC66E71F1000203A
:102210001E1000201D1000201C1000205112002054
:10222000287B00104F1200209E12002010B5754B25
:102230001B78002B1DD0744B1B781433734A13701A
:10224000724B1B78822B02D9704B82221A70704B12
:10225000F4221A706F4BAB3A1A706F4B1978282022
:10226000FFF76BFC6D4B18706D4B684A12781A7053
:1022700010BD654B18786B4B18706B4B1B78002B9F
:102280000ED16A4A1288002A0AD1604B32321A7083
:10229000674B1A70674B00221A80674B1A80CFE792
:1022A000002B6FD0614B1B88644A1288934219D26D
:1022B000634B04221A70634A1378591C1170042B63
:1022C000BED9524B1A785A4B1B789A4206D24F4BC2
:1022D00001321A705B4B00221A70B1E7544A013385
:1022E0001370F7E7544909888B4217D29B1A9B0059
:1022F000DBB2534A137053490A78501C087093425A
:102300009ED2424B1B784A4A1278934202D23F4AED
:10231000013313704B4B00221A7091E74A4A12881E
:10232000934216D2D31A9B00DBB2454A137045493B
:102330000A78501C0870934200D381E7334B1B7816
:10234000282B02D9314A013B13703E4B00221A70F0
:1023500076E73B4B04221A703A4A1378591C1170E5
:10236000042B00D86CE7294B1B78282B06D9274A69
:10237000013B13702E4A1378013B1370314B00223E
:102380001A705DE72E4B0A221A702E4A1378591CD8
:1023900011700A2B00D853E72C4B1988002925D03F
:1023A0002A2903D9194A1378013B1370214A13884B
:1023B0005C1C1480092B15D91D4A13780A3313703D
:1023C0001A4B1B88584302F0E7F880B21A4B18806A
:1023D0000200143A194B1A8014301B4B1880124B10
:1023E00001221A70174B00221A7029E7104B1B7834
:1023F000772BF7D805490A7801320A700C4A013365
:102400001370EFE75012002054120020260600201F
:10241000400600203E0600203C060020411200201D
:102420004012002012120020071200203E1200204D
:10243000250600200E1200200C1200200A12002097
:10244000101200201112002008120020201200207B
:1024500070B582B00500D74B43221A7098700328DC
:1024600000D146E143D8012800D1F2E202283CD154
:10247000D14B00221A70D149CA78D14B1A700A790F
:10248000D04B1A704B7901221C001440CE480470C6
:102490005C08144098081040CC4D2870DD081540A9
:1024A00018091040CA4E307058091040C94E30709B
:1024B00098090240C8480270DB09C84A13708B793A
:1024C000DBB2C74A1370C74A127893421FD1BB4B85
:1024D000DA79C54B1A70002C4CD0C44B1B88452BA5
:1024E00048D8C34B07221A705CE00325EEE00428AD
:1024F0000BD1C04B1A78AF4BDA7000221A7115322B
:102500005A711E329A710725E0E00325DEE0B54AD4
:102510001370B9485843B94B198802F02DF80109D6
:10252000C9B2BB20FFF709FB0600B54B18700002CB
:10253000801B80B2BB2102F01FF8FF231840B14B73
:1025400018801B88FF2B02D9AE4BFF221A80AE4B9E
:102550001B782833AB4A10885843502102F00CF8FE
:1025600080B2FF2800D9FF20A64B18800636A74B63
:102570001E70ACE7002D11D09C4B1B885A2B0DD937
:10258000964B1B78002B03D0A14A1278002A01D168
:10259000002B07D1964B06221A7003E0874B1A7A5C
:1025A000934B1A70002C02D19A4B00221A70834B65
:1025B000597A994A1170997AC9B2984A1170DA7A9F
:1025C000974B1A70974B18881A787A4BDA70000973
:1025D000302202401A71944A12785A71834A108844
:1025E00012789A71000A07220240DA718F4A127833
:1025F000012002401A728E4A10781A7A4000024373
:10260000D2B21A721A7AD2B21A721A7A8948047835
:1026100064012020204002431A721A7A8648047806
:10262000A4014020204002431A72844A1288920872
:10263000D2B25A72012953D0814B1A785D4B9A72EB
:10264000804A1388DBB25B4CE37213889B083F22FD
:102650009343DBB2E2791343E3717B4A1388127828
:1026600022731B0A63736A4B1B78A373774B18782A
:1026700064235843FE2101F08FFFC0B2E073744A17
:102680001388127822741B0A6374724B1B78DBB2B6
:10269000A374584B1B78E3746F4B1B7823756F4AF8
:1026A0001368DBB2637513681B0ADBB2A37513688A
:1026B0001B0CDBB2E3756A4A1388127822761B0A78
:1026C0006376684B1B78DBB2A3761B25394B5D70B4
:1026D000654B012252421A80644B00221A70CBE1F2
:1026E000634B1888093101F047FFC0B2314B987233
:1026F000A6E701F0D3FB5F4B00261E703D4A13781E
:1027000001210B4313705C4B02221A702A4B013AD1
:102710001A702A4C22791202E3789B189BB2574A0E
:10272000138064205843572101F026FF80B2544B98
:1027300018801B88643B534A1380A2791202637984
:102740009B18514A1380274B1E70237A01221800D0
:1027500010404E490870590811404D4801709908C1
:1027600011404C480170D90811404B4801701909BB
:1027700011404A48017059091140494801709909AE
:10278000DB09484803700A420FD1474B31321A70B7
:102790000A4A937A5B0045490B80D47AE4B2444BF1
:1027A0001C70324B01221A7099E03F4B28221A709C
:1027B000EEE7C0469410002061120020B410002003
:1027C00055120020221200204F1200205712002024
:1027D0000E110020141200201512002013120020E8
:1027E0005A120020591200205412002020120020FA
:1027F0005612002048060020A02526004612002080
:102800003C0600203A06002030120020410600203D
:102810003D120020071200205B12002058120020F9
:102820001612002042120020451200209E120020A5
:10283000921200205C120020481200207E1000201E
:1028400017120020A612002026120020CF1200200E
:102850003E120020C91200204412002094120020D1
:102860002A120020D81200208C1000209110002085
:102870001C12002043060020621200205E1200207D
:102880005C0600204A1200204606002006120020A6
:1028900005120020240600202312002050120020E0
:1028A000521200202A060020C81200201411002015
:1028B00011110020874A1378013B87495B005B5A5E
:1028C0001B02107801384000405A60431B1A1B0A53
:1028D00010784000435213780133DBB213707D4B04
:1028E0001B78DBB2772BE5D97C4C227B7C4B1A70B2
:1028F000227B7C4B1A70627B7B4B1A70627B7B4B1A
:102900001A70A07BC0B218230093AA33642200215E
:10291000FFF7EBF8764B1870E07BC0B20923009309
:10292000403364220021FFF7E0F8724B1870322325
:10293000E25CD2B2704B1A703323E15C6F4B1970BA
:102940003423E15C6E4B19703523E15CC9B26D4BE9
:1029500019703623E35CDBB26B4803705B005B1AD3
:10296000DBB29B1A694A13703723E05CC0B2193B93
:102970000093E13364220021FFF7B7F8644B18702D
:102980003923E25C634B1A703823E35CDBB24F2BD4
:1029900005D85F4BA5221A705E4BA33A1A704F4CB4
:1029A0004D23E25C1202013BE35C9B189BB25A4A46
:1029B000138019003C39594A1180594A13804F231A
:1029C000E35C1B024E22A15CC91889B2554B1980E9
:1029D000FA20400101F0E0FD534B18805023E25CE7
:1029E000524B00211970920801231340504A137072
:1029F00006D0474B1B78A42B02D8454BA5221A7052
:102A00004C4B434A12781A70344B5122985C4A4915
:102A10000870995C494A11705222995C484A1170B9
:102A200053229A5C474B1A70474B1B78002B0CD0F3
:102A30002A4B54229B5CDBB2444A1370642B00D8AF
:102A400044E6130064221A7040E6404B00221A70DC
:102A50003CE63F4B1A783F4BDA70042536E61D4CB6
:102A60002378DBB23B4AD05CC0B23B49FFF788F821
:102A700023780133DBB22370164B1B78AB42EED3C5
:102A8000354A13881178334A51556C1C1B0A13556B
:102A9000324B00221A70324A8A235B00D3581B0E35
:102AA0007F221A401E239B1A0235AB4210D22D4BB7
:102AB00000221A7002B070BD264AD25CD2B22848F9
:102AC000C021490042500133DBB29C42F4DAEEE708
:102AD0000023FAE79110002014110020B410002008
:102AE00019120020290600201A12002028060020B2
:102AF0003F0600203D060020361200203412002040
:102B00003012002038120020371200203512002029
:102B10002306002042060020320600203006002056
:102B20002E0600202C060020321200204E1200201B
:102B30002F120020220600202E120020C812002092
:102B4000511200204406002052120020531200208F
:102B500061120020941000208C10002092100020A0
:102B6000000200480C11002070B52F4B1B78002B81
:102B70003DD02E4B012252421A802D4B5D78EDB292
:102B80002C4B00221A700CE02A4C2378DBB2284A26
:102B9000D05CC0B22549FEF7F3FF23780133DBB2E6
:102BA0002370244B1B78AB42EED36A1C204B9A5CFB
:102BB00012025B5D9B181D4A1288934207D01A4B84
:102BC00000221A701C4A13780133137013E01A4B59
:102BD00000221A70194B1B78002B02D1174B0132BF
:102BE0001A70134B9878C0B2FFF732FC03E0124A18
:102BF000137801331370104B1B781E2B04D80F4B26
:102C00001B78002B0BD070BD01F048F90C4B002253
:102C10001A700C4A137820210B431370EFE7002041
:102C2000FFF716FCEFE7C0460C1100208E100020C5
:102C3000B4100020911000208A10002062120020A1
:102C4000430600204806002070B582B0204B18884B
:102C5000C72807D91F4B18221A701F4B0F3A1A703A
:102C600002B070BD1D4E33788008C0B218250095A3
:102C700032220A21FEF739FF164C20703378184AA9
:102C80001078009546221421FEF72FFF2378834207
:102C900001D9104B1870134E33780D4A10888008F4
:102CA000C0B20925009532220A21FEF71EFF0A4C08
:102CB000207033780A4A1078009546221421FEF7D6
:102CC00014FF23788342CBD9034B1870C8E7C04662
:102CD00020120020400600203E0600203F06002073
:102CE0003D1200203D06002010B5314B1C78314BC1
:102CF0001B78002B0ED0304B1B78002B0AD12F4BAA
:102D00001A882F4B197878235B1A9A4202DD2A4BD6
:102D100001221A702B4B1B78002B3AD1264B1A78C4
:102D2000002A03D1284B1B78002B31D0234B198864
:102D3000264B1B784B43544363431B0A5801C01A6C
:102D40008000C018C000224B198801F015FC84B225
:102D50002409FFF779FF1F4B1B78A3421CD21E4AA0
:102D600013701E4B1B78002B19D01B4B1B78164A77
:102D70001278934201D9144A1370174B124A1278F1
:102D80001A70154B1B78002B0DD0154BFE221A70B4
:102D900010BDFEF719FFC1E70F4B1C70E1E70A4BAE
:102DA00000221A70EDE70E4B00221A70F0E7C046C1
:102DB00055120020521200203D1200202A1200203D
:102DC00053120020061200200D110020440600209E
:102DD000461200203C060020411200200E11002067
:102DE0004012002070B5304B1B78002B4DD12F4B7B
:102DF0001B78002B0ED02E4B1B78002B0AD12D4BAD
:102E00001A882D4B197878235B1A9A4202DD284BD9
:102E100001221A70294B1B78002B02D0244B01226F
:102E20001A70244B1888002803D0214B1B78002BE4
:102E300003D1234B1B78002B26D0224B1B78584301
:102E40003C2101F0A9FB040085B2FFF7FDFE1E4BFB
:102E50001B78AB421CD21D4A13701D4B1B78002BF4
:102E600019D01A4B1B78164A1278934201D9144A8A
:102E70001370164B124A12781A70144B1B78002BE1
:102E80000DD0144BFE221A7070BDFEF7D7FEAEE7D0
:102E90000E4B1C70E1E70A4B00221A70EDE70D4B58
:102EA00000221A70F0E7C0462406002052120020CB
:102EB0003D1200202A120020531200205012002040
:102EC0000D110020551200203C0600204112002068
:102ED0000E1100204012002010B5194B1A78002A5C
:102EE00026D0184B1B789B189B10174A1380174B42
:102EF0001B78A42B02D8154BA5221A70FEF79EFE54
:102F0000124B134A12781A700F4B1C88114A128800
:102F10001A80FFF799FE104B1B78A34209D20F4A83
:102F200013700E4B1B78002B06D00D4BFE221A702F
:102F300010BD0A4B1C70F4E7094B00221A70F7E72A
:102F40003D120020551200202A12002023060020E6
:102F500022060020281200203C06002041120020FA
:102F60004012002070B53C4B1B78002B0ED03B4B21
:102F70001B78002B0AD13A4B1A883A4B19787823E0
:102F80005B1A9A4202DD354B01221A70364B1B78D0
:102F9000002B02D0314B01221A70314B1C88002CBF
:102FA00003D02E4B1B78002B03D1304B1B78002B0A
:102FB00043D02F4B1B78142B07D8D801C01A80B2EE
:102FC0000A2101F0D9FA2A4B1870294B1B785B00B3
:102FD000FE214900C91A89B2264B1B78002B05D067
:102FE0001E4B1B788B4229D8C91A89B20A3189B283
:102FF0006443081901F0C0FA040085B2FFF724FE0B
:103000001D4B1B78AB421BD21C4A13701C4B1B7808
:10301000002B18D0194B1B78144A1278934201D90F
:10302000124A1370154B114A12781A70134B1B7801
:10303000002B0CD0134BFE221A7070BD0021D5E777
:103040000E4B1C70E2E7094B00221A70EEE70D4BA5
:1030500000221A70F1E7C046521200203D120020F3
:103060002A12002053120020501200200D110020BF
:10307000551200202A0600203C06002041120020A4
:103080000E1100204012002070B53A4B1B78002B27
:1030900061D1394B1B78002B0ED0384B1B78002B9D
:1030A0000AD1374B1A88374B197878235B1A9A4222
:1030B00002DD324B01221A70334B1B78002B02D0F9
:1030C0002E4B01221A702D4B1D78002D03D12F4B52
:1030D0001B78002B3ED02A4B1C88002C06D02C4B92
:1030E000187860433C2101F057FA84B2294B1B78D1
:1030F0006B43294A128853431B0A5801C01A8000A7
:10310000C018C000254B198801F036FA80B20009BA
:10311000844200D20400FFF797FD214B1B78A342A5
:103120001CD2204A1370204B1B78002B19D01D4B4A
:103130001B78164A1278934201D9144A1370194B1E
:10314000124A12781A70174B1B78002B0DD0174BB0
:10315000FE221A7070BDFEF771FD9AE7114B1C70CC
:10316000E1E70A4B00221A70EDE7104B00221A70BB
:10317000F0E7C04624060020521200203D12002035
:103180002A12002053120020501200200D1100209E
:103190002212002055120020241200204612002086
:1031A0003C060020411200200E1100204012002099
:1031B000F0B583B0454B1B885A2B05D8462B79D9DF
:1031C000434A1278002A75D1414A1278002A10D059
:1031D0003F4900220A703F490A803F490A803F491F
:1031E000FA20400008803E490A803E490A803E4A53
:1031F00013803D4A1088C01A82B200B2354B188045
:1032000036490B88D3181BB20B80FA2189008B42F8
:1032100052DD324B1980304B1988521A15B2304AA0
:103220001580188084002D4B0020185E04F020FBD0
:103230002E4A2F4B04F0C4F806000F00200004F0C3
:1032400017FB32003B0003F0F3FD06000F0068009F
:103250004019400004F00CFB32003B0003F0E8FD95
:1032600004F0D4FA00B21F4B188000282ADB1D4B53
:1032700000229A5EFA239B009A4203DD194BFA2240
:1032800092001A801B4BF4221A701B4BAB3A1A7037
:103290001A4B1B4A12781A70124B0020185E8010CD
:1032A000C0B2FE2300930023FA220021FEF71DFC8A
:1032B000144B187003B0F0BD002BACDA074B0021A3
:1032C0001980A8E700221A80D1E7C046201200200A
:1032D00027060020141000201210002010100020DB
:1032E0000E1000200C1000200A100020333333335E
:1032F0003333E33F400600203E0600204112002009
:103300003C0600204012002030B583B03D4AC72360
:103310009B00D05880108005800D3B4B18803B4BA4
:103320001B78002B01D103B030BD394B1A78394BD3
:1033300019788008FF2300930023FEF7D6FB364B55
:103340001870364B1B78002B14D0354A1370354B50
:103350001B78002B06D0344B1B78002B02D1304B4E
:1033600000221A702E4B1878002810D12C4B002206
:103370001A70D8E72D4B1B78022B03D0284B002264
:103380001A70E4E70028F9D0254B1870DFE7284BC6
:103390001B7800930023FF220021FEF7A6FB040008
:1033A0000500244B1B788342E0D2234B1888FE286B
:1033B0000FD9224B30221A70214B273A1A701C4B1E
:1033C0001B78AB421BD21B4A13701E4BFE221A7095
:1033D000CCE7C0B230230093C433FF222821FEF78C
:1033E00084FB164B1870144B187809230093403354
:1033F000FF222821FEF779FB114B1870DFE70D4BF8
:103400001C70E2E7000803487E1000201412002020
:10341000280600202906002017120020161200207E
:1034200018120020151200203D1200205812002012
:103430003C060020411200202012002040060020FF
:103440003E0600204012002010B5BE4BC2221A706A
:10345000BD4B793A1A70BD4B00221A70BC4B1A70E2
:10346000BC4B1B78002B1FD0BB4B1B88C82B1BD918
:10347000BA4A1278BA490978914215D9B94A1278EC
:10348000002A11D13833DBB2B74A13705B09B74A4F
:1034900013701378DBB2052B02D9130005221A70C2
:1034A000B34B01221A7002E0B14B00221A70B14BEB
:1034B0001B78062B02D0B04A01211170AF4A127856
:1034C000002A1DD1082B3BD89B00AD4AD3589F46FC
:1034D000FFF70AFC34E0FFF785FC31E0FFF7FCFC66
:1034E0002EE0FFF73FFD2BE0FFF7CEFD28E0FFF7D2
:1034F0005FFE25E0FEF79AFE22E0FEF7DFFB1FE00D
:10350000A04B1A78642353431B11DBB28F4A13700C
:10351000BB2B02D91300BB221A709B4B1B78002BCC
:1035200002D08A4B00221A70984B1B78884A13707D
:10353000FD2B02D91300FE221A70954B32221A700D
:10354000944B1B78012B0AD0022B11D1FFF7DCFE24
:10355000914B1B78022B12D0032B16D01DE0FEF7E7
:1035600041FD8E4B1B78002BF2D0FFF7CDFEEFE72D
:103570008A4B1B78002BEBD0FFF7C6FEE8E7884BA1
:1035800028221A70844B253A1A70854B1B78002B21
:1035900000D187E0824A013B1370824B1A88824B2C
:1035A0001B889A4204D27C4B1B78042B00D185E007
:1035B0007E4AC1239B00D3589BB29B087C4A127859
:1035C000002A11D07B490978994200D37FE07A49DB
:1035D0000B7801330B70784B1B789A4204D86A4AF7
:1035E000137840210B4313705C4B1A789300D21868
:1035F0005301724A1360724A11685B181360714973
:103600000A68013A0A60002A07D19B096E4A1360D2
:1036100040220A606A4B00221A606C4B1B78002B18
:1036200012D1594B1B7878221A420DD1684A127870
:10363000002A09D0674A1278002A05D0002B4AD008
:10364000654B1B78002B46D1644BC2221A70644B29
:10365000B93A1A70424B00221A70624B1A705C4BD6
:103660001B78002B00D1C7E0584A1278002A13D1EA
:10367000454A1278782111420ED1374A1288002A21
:1036800000D0B9E0314A1278002A00D0B4E0564A9E
:103690001278002A00D0AFE04D4B00221A7000F0E3
:1036A000FDFB10BD3C4B04221A70504B023A1A70BD
:1036B000354A137801218B4313706EE7324A137831
:1036C00020210B4313704A4B01221A7070E73A4BCA
:1036D000002119707FE7474B1B78BB2B02D9454B64
:1036E000BB221A70194B1A78424B1B789A4201D9A7
:1036F000164A1370164B1B78FF2B1ED0114B1B78EC
:10370000172B02D80F4B18221A700F4B1B78082B5F
:1037100002D80D4B09221A700A4B1A782F4B1A70D7
:10372000094B1A782E4B1A70084B1A780C4B1A70EA
:10373000074B1A782B4B1A7091E7054BFE221A7033
:10374000DCE7C046400600203E0600204112002073
:10375000401200204E1200203E120020D8120020FD
:10376000D0120020181200204D120020CC12002090
:10377000CB12002056120020270600207C100020CB
:103780004C7B001021060020480600202006002067
:10379000551200205812002062120020161200203C
:1037A00060120020A81200204A12002000040348E2
:1037B00042060020410600204C120020701000201C
:1037C000781000201C060020741000209E1200209B
:1037D0004306002057120020501200205F060020F0
:1037E0005E060020CE120020CF12002061120020C1
:1037F000481200203C060020002B00D051E70D4B62
:103800001B78002B00D04CE70B4B1B889F2B00D95B
:1038100047E70A4B1B78002B00D142E7084B0122F7
:103820001A70084B00221A70074B1A7000F070FBD8
:1038300037E7C0469E1200203E12002041120020B1
:1038400043060020CF120020CD1200200300434386
:103850004B4343431B0C80225200521A5043C01862
:103860008030000A704770B5040000290CD0002891
:103870000BDB80235B00984200DD1800002906DB8B
:10388000FFF7E4FF002C0ADB70BD4042F1E749423C
:1038900080256D00281AFFF7D9FF281AF2E7404269
:1038A000F2E7000070B57F4B1B78772B27D97E4B52
:1038B0007E4A12881A807E4B00229B5E192B07DD00
:1038C0007C4B00221A807C4B1A807C4B01321A7090
:1038D0007B4B1A887B4B1A807A4B1B88724A128862
:1038E000934237D99B1A9800C0184001764B19882B
:1038F00000F052FE84B2A02C2DD9A0242BE0704BF6
:10390000188880B2714C21880422FEF71CF92080AF
:10391000644A13780133DBB21370782B06D0694BFD
:103920001880614B614A12881A80D5E7684B1B7872
:10393000002BF4D0674B1B88984207D9664B1B8835
:10394000984203D2654B00221A70E8E7634B0122CC
:103950001A70E4E70024624B197800291BD1614BEF
:1039600000221A80604B1970604B1A70604B1A70FD
:10397000604B28221A70604B1B88A34238D2E31A8E
:103980009BB23B2B61D94F2B61D9632B61D9812B22
:1039900061D910224DE09620000100F0FDFD80B2BB
:1039A000544B1B781A00834205D2272B03D8514A67
:1039B00001331370DFE78242DDD9282BDBD94D4A72
:1039C000013B1370484B1A78002AD4D047490B7832
:1039D0004A48C65C434D2888801B28804248013AEB
:1039E00002700133DBB20B703F2213400B70C2E751
:1039F0001B1B9BB2C5E73D490B784048C65C394D5F
:103A00002888801B28800133DBB20B703F200340E5
:103A10000B7034490B88E3180B8035490B78374815
:103A2000C4540133DBB20B703F2003400B70013AEA
:103A3000D2B2002A11D02C4B1B782E4909788B4228
:103A4000D9D0294901330B70E3E70122F1E70222C3
:103A5000EFE70422EDE70822EBE7234B1978002972
:103A600004D0204B188800F097FD84B2A02C00D918
:103A7000A024214B1C80224B1B78143B5900C918F1
:103A800089002000FFF7EFFE80B21E4B18801E4B0E
:103A900018801E4B18801E4B1B7843431D4A138011
:103AA00070BDC0466C100020360600203206002093
:103AB0003A120020A2120020A01200209F12002023
:103AC000A41200202C1200202C0600203406002016
:103AD00023120020300600202E060020391200207C
:103AE0003D12002026100020281000202A1000205F
:103AF0002910002018060020241000202C1000207F
:103B0000341200202A120020281200202612002041
:103B1000440600202412002010B52D4B1A882D4B8E
:103B20009A4203D82A4B1B88092B2AD82A4B0022F9
:103B30001A80FEF7E1F8FEF70BFAFEF705F9274BBE
:103B400018780001142100F027FD254B1870254B33
:103B500018880001142100F01FFD234B1870FFF797
:103B6000A1FE224B1A78511C197003231340022B1B
:103B70002AD00FD8002B12D0012B12D1FEF76AFAEF
:103B80000FE0134B198889B2194800F0F5FC124B6D
:103B90001880CEE7032B04D1FEF7F2F801E0FEF720
:103BA000E3FFFFF751FC134B9978134A1180D97842
:103BB000124A11801979124A11805979114A1180DB
:103BC0009A79114B1A8010BDFEF7CEFFE9E7C04687
:103BD00060060020FFEF00003E120020D8120020F7
:103BE00045120020AA1200204412002022100020BA
:103BF00090D003008412002088100020861000203E
:103C00008410002082100020801000200AE0244A46
:103C10001370244B01221A7004E0562B20D9214B3B
:103C200000221A70204A8A235B00D3581B0736D41F
:103C30001E4B1B78002B32D11B4A8E235B00D358BE
:103C4000DBB2184A1278D1B2012AE6D002290FD08D
:103C50000029E7D1592BDAD0124B00221A70E1E784
:103C60000F4A5370124A13700E4B02221A70D9E792
:103C7000104A117802310A48435413780133DBB2F9
:103C8000137013780A4A12789A42CBD8094B002253
:103C90001A70044B1A70054B01321A70C2E7704754
:103CA000B410002090100020000200480C110020E9
:103CB000B1100020B21000207047000010B5464B34
:103CC00000E0013B002BFCD1FDF7E0FE002800D016
:103CD00001BEA021C9050B68404803408022920024
:103CE00013430B603E490B6803401A430A60FDF71B
:103CF0008DFA00F031F900F03FFA3A4B42221A7087
:103D0000394B00241C7000F0E7F8384B1C70384B1E
:103D100001229A60374B00E0013B002BFCD1364B6F
:103D2000C62292009858354908408021C9010143B4
:103D300099508021890419609858314908408021A0
:103D4000C903014399508022D2041A60A023DB05E5
:103D50000F22DA602B4A116B80235B000B43136345
:103D6000244B00E0013B002BFCD1274B5A6801217A
:103D70000A435A60254A9A60254B1B6F9BB2254A1D
:103D80001380254A138009E0FFF740FF0DE0214B27
:103D90001B88D31A9BB221498B4217D81A4B1B4A56
:103DA0009A601F4B1B78002BEED0174B174A9A6076
:103DB000174B1A6F92B2184B1B889342E7D91949D7
:103DC0000B6801330B60144B1A80E0E7114B1A802B
:103DD000FFF7A2FEE2E7C046804F1200FFFCFFFFA4
:103DE000000004488C1200201E1200205A060020F9
:103DF00000000150C0D4010000E100E0FF00FFFF1F
:103E0000FFFF00FF0000014000000240FECAADAB12
:103E1000000204486A120020681200206A1800009C
:103E20000C1100206412002070B506000D00140073
:103E3000134B188880B202F0BDFF124B196802F0D4
:103E4000C1FD114902F0C6FC3060104B188880B2E9
:103E500002F0B0FF0E4B196802F0B4FD0A4902F0FF
:103E6000B9FC28600B4B188880B202F0A3FF0A4B04
:103E7000196802F0A7FD044902F0ACFC206070BD97
:103E8000EC120020E4120020AAAA263DEA1200202B
:103E9000E0120020E8120020DC1200200323034A75
:103EA0001361034A1361034A136170470001005014
:103EB000000200500003005010B5054A137840215D
:103EC0000B431370034B00221A70FFF7E7FF10BD7E
:103ED000480600204306002070B500F076F80A4935
:103EE0004A6A920801231340084A13704D6A02245B
:103EF0002C40234313704C6AA400042121400B433F
:103F0000137000F066F870BD0001044093120020A9
:103F100010B5FFF7E1FF0D4B196B802252000A43E9
:103F20001A631A6B0A490A401A6309E0074B196BB6
:103F3000802252000A431A631A6B05490A401A6329
:103F4000044B9B68DB07F1D510BDC0460000014063
:103F5000FFFEFFFF0001005070B500230024002584
:103F6000002009E00E4A128810180E4A12885519CE
:103F70000D4A1288141901338022D2009342F1DBDA
:103F8000800A02F017FF094B1860A80A02F012FF1E
:103F9000074B1860A00A02F00DFF064B186070BDB9
:103FA000EC120020EA120020E8120020E4120020A7
:103FB000E0120020DC1200200230800803D001381B
:103FC000FDD1C046C046C0467047EFF3108072B6C0
:103FD000704780F310887047064B1A898021490189
:103FE0000A431A8148215A5A8020000102435A523A
:103FF0007047C0460000054010B50D4A13681B0A03
:10400000FF210B400B480360126811400A4A1160FF
:10401000002B08D01B02C918084800F0ADFA400078
:10402000074B186010BD064B064A1A60FAE7C046F7
:1040300000030140F4120020F0120020000024F4DC
:10404000FC3F00200048E80110B5FFF7C5FFFDF771
:104050000FFD10BD70470000F0B5C64600B58B08D7
:10406000984604339B001E5803250D40ED00F827A9
:10407000AF40BE431E50436F4F000326BE40B343C4
:104080004367CB0810339B001F5807260E40B6002D
:104090000424B440A7431F501F585478B44026004E
:1040A0003E431E500D4B98420ED00023D356002B9A
:1040B00010DB44460434A40021581278AA400A4375
:1040C000225080BCB846F0BD036E01268E40B3433B
:1040D0000366EAE753688B404360EAE70002044066
:1040E00010B50C000DE0800808490B68084A134021
:1040F00002021343074A13430B60044B1B685B0027
:10410000FBD4A3008342EED310BDC04600030140A0
:10411000FF000FC00000F03F30B50C000EE00122A0
:1041200090000A490B680A4D2B4092021343094A3A
:1041300013430B60054B1B685B00FBD48300A34259
:1041400003D20028EBD00200EAE730BD00030140B3
:10415000FF000FC00000F03F014BC3225A627047BE
:1041600000000140034BC0225A62024B5B6A5B07AE
:10417000FBD4704700000140034A938C01210B439C
:104180009BB293847047C0460010014010B50400F4
:10419000FFF7E8FF054B186920431861034B1B68C4
:1041A0005B00FBD4FFF7D8FF10BDC0460003014001
:1041B000034B9B6803405A1E9341D8B27047C046D8
:1041C0000003014070B504000D00FFF7CBFF154B55
:1041D0001A68120AFF2010401968134A1140294337
:1041E000124A0A431A600F4B1B685B00FBD4A042C3
:1041F00014D82100FFF790FF0A4A13680C490B40BE
:1042000024021C43094B23431360064B1B685B00CD
:10421000FBD4FFF7A1FFFFF7EFFE70BD2100FFF712
:104220005FFFE9E70003014000FF0FC00000F03F1F
:10423000FF000FC010B50400FFF794FF074A136892
:1042400007490B40A1680B4361680B431360FFF7FC
:1042500083FF60782178FFF7B5FF10BD00030140B0
:10426000FFFFF0FF014B18687047C046FC3F00207D
:1042700010B5044B984200D010BD0420FFF786FF14
:10428000FAE7C0460000044870B505000C00FFF7CF
:10429000EFFF80235B00EB602B68034A1340A4030D
:1042A0001C432C6070BDC046FF3FFFFF03680A0C33
:1042B00093430904090C1943016070470B6843617B
:1042C0004B799B06DB0F1B0543600B791B071B0F0C
:1042D00043624B791B071B0F03624B79DB06DB0F35
:1042E00083610B791B09C36270470B6843614B798B
:1042F000DB07DB0A43600B791B071B0F43620B795B
:104300001B09C3627047000010B543680324A34330
:10431000194341604369012A03D0044A13404361B1
:1043200010BD8022D2001343F9E7C046FFFBFFFF18
:104330004368302293430901194341607047F0B547
:10434000C64600B54C1EE4B206686500EDB22F000B
:104350001037FFB203239846BB409C4633006646A5
:10436000B3439C465378BB40664633431531CFB2C6
:104370000121B9408B439178B94019431935EDB209
:104380004646AE40B143D378AB400B43A100C9B21F
:104390000F248C40A34312788A401343036080BCEF
:1043A000B846F0BD1C3189004018406870470000D5
:1043B00030B50B291AD889000D4B5B589F46032551
:1043C00000240DE0C0252D010A2409E0C025AD0020
:1043D000082405E00C25022402E0C025AD010C24D0
:1043E000A8214358AB43A2401A43425030BDC046B7
:1043F000787D001010B5A023DB05984200D010BDD9
:104400000220FFF7C3FEFAE770B505000C00FFF7C6
:10441000F1FF80235B00EB602B68034A1340A40389
:104420001C432C6070BDC046FF3FFFFF01230361AA
:104430000B6843614B7BDB06DB0F1B0543600B7B8B
:104440001B071B0F43620B7B1B09C3624B7B1B07C4
:104450001B0F03624B6883618B6814225340836493
:10446000704703680A0C93430904090C194301605F
:104470007047000010B543680324A343194341600B
:104480004369012A03D0044A1340436110BD8022CE
:10449000D2001343F9E7C046FFFBFFFFF0B5C64665
:1044A00000B54C1EE4B206686500EDB22F0010376F
:1044B000FFB203239846BB409C4633006646B34395
:1044C0009C465378BB40664633431531CFB2012139
:1044D000B9408B439178B94019431935EDB246463E
:1044E000AE40B143D378AB400B43A100C9B20F2417
:1044F0008C40A34312788A401343036080BCB846C3
:10450000F0BD41637047000030B50B291DD889000C
:104510000E4B5B589F460024032510E00A24C0255B
:104520002D010CE00824C025AD0008E0042430254E
:1045300005E002240C2502E00C24C025AD01A821D1
:104540004358AB43A2401A43425030BDA87D0010EF
:104550004B6803658B6843650B68C364704710B58F
:10456000436F490003248C40A3434367436F8A4051
:104570001343436710BD000010B5EFF3108272B60D
:10458000044B04245C6318625962986A82F31088B1
:1045900010BDC0460000034010B5EFF3108272B6A4
:1045A000044B00245C6318625962986A82F3108895
:1045B00010BDC0460000034010B5044B984200D027
:1045C00010BD8020FFF7E2FDFAE7C0460000015071
:1045D00070B504000D00FFF7EFFF0323E3602B68C5
:1045E000236070BD03689B0705D103680A68134305
:1045F0000360002070470120FCE710B5436F1031C5
:1046000001248C40A3438A401A43426710BD000036
:10461000F8B504000E00170000F052F9357A002DAD
:1046200000D11035002F07D03379002B26D0316808
:104630002A00200000F088F8F379013B5B006D0848
:1046400001352D022B43144A1343E3637379013B75
:104650001B068122520013436363B379002B13D0EE
:10466000626B013B1B0413436363A023DB00A36362
:1046700001235B42E36473892364F8BD31682A0037
:10468000200000F00BF8D7E7626B7379013B1B0445
:1046900013436363E9E7C04601000300F0B5DE465B
:1046A0004F4680B583B083460C001500632941D97D
:1046B000002A01D101203EE0FFF7D4FD6421FFF77D
:1046C0005BFF814664212000FFF756FF07001C4E68
:1046D000012301938023DB0000931C0000E0013CD8
:1046E000002C12D03900694348466043FFF744FF6D
:1046F000830A8005800D8022D2009342EFD8864243
:10470000EDD9060001930094E9E7009F013F802363
:104710001B023B435A46136153690A4A1340013D49
:10472000AD022B43019E013E360433435A4653618A
:10473000002000E0012003B0C0BCBB46B146F0BD84
:10474000FF030000EF8000FCF0B5DE4657464E4602
:104750004546E0B583B08046894617000192FFF7D1
:1047600081FD06004B465F43B8424ADD3900FFF742
:1047700013FF0400012506E00135290079433000CC
:10478000FFF70AFF0400204B9C42F5D8019F390037
:10479000614369433000FFF7EFFE8346631C9A468E
:1047A0003900594369433000FFF7E6FE4B46181ABB
:1047B000C317C01858404B465A469B1ADA179B1825
:1047C0005340984200DBA2468022D2005346D21AC0
:1047D0008023DB0113434246136153690B4A1340A4
:1047E000019F013FBF023B43013D2D042B43424645
:1047F0005361002003B0F0BCBB46B246A946A046B8
:10480000F0BD0120F6E7C046FE030000EF8000FC8B
:1048100070B504AC24784569094E3540002A0DD0A6
:10482000102211431B0419430C43059B1B021C431C
:10483000069B9B021C432C43446170BD0022F0E7A1
:104840002C8000FC70B584256D004459064E344020
:1048500044514459054E34401B020B431206134386
:104860001C43445170BDC046FFFFFFF8C0C0FFF8B5
:1048700070B586256D004459074E34404451445963
:10488000064E34401B020B43120613431C43802385
:104890005B052343435170BDFFFFFFF8C0C0FFEF2E
:1048A00010B5064B984200D010BD0820FFF76EFCF3
:1048B0000820FFF77DFC0028FAD1F5E70800004842
:1048C00010B504009023DB0598420CD0084B9842A9
:1048D00009D00323E360E368DB07FCD5236C0F22D8
:1048E0009343236410BD0348FFF7DAFFF1E7C046A6
:1048F000000200480800004810B54B075B0F8A0112
:10490000920D12041343F82464000351CB00DB0F13
:104910001B070A01920F920613438A00D20F520717
:1049200013434900C90F8907194302590A438023D9
:104930001B061343035110BD10B5034BFF221A6031
:104940000120FFF723FC10BD0005014070B50400F5
:104950000D00FFF7F1FF6B6923606A6880231B027B
:1049600013438022A350AA68A023E250EA680433CC
:10497000E2502A69DD33FF33E2502A68C93BFF3B2E
:10498000E25070BDF0B5C64600B5002A19D1CA067E
:10499000D20E90464905490F1F26E022D2009446C8
:1049A0000025082728339B001C5862469443B940D1
:1049B0002143B1434246AA400A431A5080BCB8463C
:1049C000F0BDCA02D20E90464901490FF82676037F
:1049D000E022D204944610251827E3E770B50400BE
:1049E0000D00496800230022FFF7CCFF696800230F
:1049F00001222000FFF7C6FFA96801230022200042
:104A0000FFF7C0FFA968012301222000FFF7BAFFCA
:104A10002A698023E250EA683833E250296820008E
:104A2000FFF76AFF70BD10B5802283580324A343AB
:104A30001943815010BD10B58A4200D90131C022FE
:104A400083580324A3431943815010BDC0228358C7
:104A500003218B438350704730B50025002300E0CD
:104A60000133012B06D8094A9C00A2588242F7D193
:104A70001D00F5E78D4200D90131C02403590331EF
:104A800001228A401343035130BDC046D87D001037
:104A9000F0B5002309E0284A9C00A55884242A592F
:104AA000264E32402A510133DBB2012BF3D90B7869
:104AB0009B0702D10027002212E080273F01FAE77E
:104AC0001D4B9400E658842574591D4B1C400B78EF
:104AD0001B079B0F1B0223433B4373510132D2B28E
:104AE000012AEDD94A68174B134380229200835064
:104AF0008B68012213438122920083500A7803239A
:104B00001340022B01D0002312E081229200815831
:104B100080235B020B438350F5E7074A99008858CE
:104B2000842144588022D204224342500133DBB214
:104B3000012BF2D9F0BDC046D87D0010FFFFFFFB6E
:104B4000FFFCFFFF0080800010B58423C258184C82
:104B50002240C250C458813B9C430A7813079B0FE4
:104B60002343920701D008221343842283504A68CA
:104B7000104B13438022520083508B68FF3A13433B
:104B80000432FF3283500A7803231340022B06D0ED
:104B90008422815880235B040B43835010BD822202
:104BA0005200815880235B020B438350F0E7C046DC
:104BB000FFFFFFFE0080808070B5137B882684593C
:104BC00001258D40AC438B40234383510D23D356A5
:104BD000002B17DB012908D0002922D1B02403596A
:104BE0001F25AB4303510E0005E0B02403590E4DC1
:104BF0002B400351803EB02543590D241457B44037
:104C000023434351C824035955682B4303510834A7
:104C1000035995682B4303511368803189000B5069
:104C200070BD0026E7E7C046FFE0FFFF10B580201B
:104C30008000FFF7ABFA10BD10B50400FFF7F6FFD8
:104C4000A268034B5A6062681A6122685A6110BDFB
:104C50000000024010B500F0C9FA10BD70B5041C88
:104C600000F00EF9211C051C201C02F02DF8002874
:104C700005D10021201C01F06DFA002801D1281C6B
:104C800070BD02F045FE212300210360081C01F0E5
:104C90001DFC051CF3E7C04610B51B4A430082B05B
:104CA0005B08934218D9FF22D205934204D3011C1A
:104CB00001F088FE02B010BD694600F01FFB03231F
:104CC000019903400098012B11D0022B08D0002B32
:104CD00015D100F04BF9EDE7002100F047F9E9E7C5
:104CE00000F044F980231B069C466044E2E7012261
:104CF00000F004FA80231B069C466044DAE7012298
:104D000000F0FCF9D6E7C046D80F493F10B51B4A62
:104D1000430082B05B08934219D9FF22D205934227
:104D200004D3011C01F04EFE02B010BD694600F034
:104D3000E5FA0323019903400098012B14D0022BBC
:104D40000AD0002B13D1012200F0D8F9ECE70022A1
:104D5000002100F0D3F9E7E7012200F0CFF980232A
:104D60001B069C466044DFE700F000F9DCE700F03A
:104D7000FDF880231B069C466044D5E7D80F493FC9
:104D800070B5041C0D1C00F02FF8002801D1281C60
:104D900070BD281C00F028F8002805D0291C201C14
:104DA00001F0ECF9002801D0251CF0E72C1C251C93
:104DB000EDE7C04670B5041C0D1C00F015F8002886
:104DC00001D1281C70BD281C00F00EF8002805D069
:104DD000291C201C01F0BEF9002801D0251CF0E799
:104DE0002C1C251CEDE7C0464000430800280ED0CF
:104DF000FE210A4AC9059A188A420CD308495A1E4C
:104E00008A4206D9074A98184342584170470220FF
:104E1000FCE70320FAE70420F8E7C046000080FF23
:104E2000FEFF7F00000080804200031C120EC04382
:104E3000110010B50224C01720407F3901381E2907
:104E40000CDC002916DB80245B025B0A240423436C
:104E5000162907DD963A9340584310BD181C01F0FF
:104E600047FFFAE78022D2030A41D3181722521AC9
:104E7000D340F1E77E3A53425A4152421040ECE7A8
:104E8000F0B5FF21C6464300020000B5041C5B08D4
:104E9000C9058B4251D2002B4CD0002856DBC315DC
:104EA000014208D180210023090452001C00013373
:104EB0000A42FAD0634280241E005202520A24049D
:104EC0007F3E1443DB073FD58022192100270025B0
:104ED000761064005204A8182300A04202DC851852
:104EE000231ABF1801395C0052080029F3D1002BA6
:104EF00019D01C4C1C4D206829682368984601F085
:104F000061FD011C404601F02FF900280BD02068FC
:104F1000296801F05FF92468011C201C01F01AF9CE
:104F200000281AD00237FC239B059C467F1067445B
:104F3000F005C01980BCB846F0BD011C01F04AFC68
:104F4000211C01F047F9F5E76400BDE7011C01F001
:104F500039FD011C01F0BAFAECE7012301379F4348
:104F6000E1E7C046E47D0010E07D0010F8B547465B
:104F7000CE46C823460080B5051C0F1C76089B054D
:104F80009E4248D201F0B4FE002800D19FE0291CC7
:104F9000281C01F01FFC4F49041C01F01BFC4E496A
:104FA00001F018F9211C01F015FC4C4901F00AFD33
:104FB000211C01F00FFC4A4901F00CF9211C01F001
:104FC00009FC484901F0FEFC211C01F003FC4649A4
:104FD00001F000F9211C01F0FDFB8046FC21201CA2
:104FE000890501F0F7FB4146061C201C01F0F2FB8D
:104FF000391C041C281C01F0EDFB011C201C01F0D5
:10500000E1FC011C301C01F0DDFC011CFE208005D0
:1050100001F0D8FC53E0011C01F0DCFB2D49041C1D
:1050200001F0D8FB2C4901F0D5F8211C01F0D2FB8E
:105030002A4901F0C7FC211C01F0CCFB284901F0F2
:10504000C9F8211C01F0C6FB264901F0BBFC211C5C
:1050500001F0C0FB244901F0BDF8211C01F0BAFBAE
:10506000224B80469E42B9D9214B9E422BD8FF232A
:105070001B069C46FE206644311C800501F0A2FC04
:105080008146FC21201C890501F0A4FB311C01F0A4
:1050900099FC4146061C201C01F09CFB391C041C99
:1050A000281C01F097FB011C201C01F08BFC011C4B
:1050B000301C01F087FC011C484601F083FCC0BC99
:1050C000B946B046F8BD0B4B0B4E9946D9E7FE20CA
:1050D0008005F4E74ED747ADF6740F317CF2933478
:1050E000010DD037610BB63AABAA2A3D9999993E8A
:1050F0000000483F0000383F0000903EF8B54746AA
:10510000CE4680B51700C8224300041C0E1C5B0865
:105110009205934205D201F0EBFD0300201C002B09
:1051200032D0211C201C01F055FB051C011C201C49
:1051300001F050FB27498046281C01F04BFB264913
:1051400001F040FC291C01F045FB244901F042F824
:10515000291C01F03FFB224901F034FC291C01F01D
:1051600039FB204901F036F88146002F10D1011C8F
:10517000281C01F02FFB1C4901F024FC414601F0E2
:1051800029FB211C01F026F8C0BCB946B046F8BD89
:10519000FC21301C890501F01DFB4946071C4046D7
:1051A00001F018FB011C381C01F00CFC291C01F05B
:1051B00011FB311C01F006FC0B49051C404601F0B7
:1051C00009FB011C281C01F005F8011C201C01F042
:1051D000F9FBD9E7D3C92E2F342FD7321BEF38363E
:1051E000010D50398988083CABAA2A3EF8B5FF2545
:1051F0004A00031C5208081CED05AA422BD859008E
:105200009C464908A94226D8FE24A405A04234D0D1
:10521000022487173C40DF0F3C4300291FD0002A9F
:1052200024D0AA4231D0A94220D0891AC9153C29DC
:1052300029DC002833DA3C3131DA0020012C3FD060
:10524000022C35D0002C09D0244900F0C3FF24499A
:1052500001F0B8FB02E0191C00F0BCFFF8BD022C05
:1052600009D0181C032CF9D11E48F7E76346002B20
:1052700007DB1D48F2E71A48F0E7181C00F0BAF9FE
:10528000ECE71A48EAE71848D8E7013C91421CD0FD
:105290000020022CE2D8164BA400E058DEE7011CE7
:1052A000181C01F013F900F0C3FA00F0A3F9C5E7E8
:1052B0000A4900F08FFF011C094801F083FBCDE78C
:1052C00080231B069C466044C8E7022C03D8094B88
:1052D000A400E058C2E70848C0E7C0462EBDBB3373
:1052E000DB0F4940DB0F49C0DB0FC93FDB0FC9BFF4
:1052F000E87D0010F47D0010DB0F493FF0B5454616
:105300004E46DE465746E0B5AB4B45000E008046A4
:1053100089B0041C6D089D4200D874E0A74B9D42E3
:1053200022D8A74DA7490540002800DC1DE101F067
:1053300049FBA54B041C9D4200D170E0A34901F03C
:1053400041FB011C051C201C01F03CFB9F4901F0A6
:1053500039FB012735607060380009B0F0BCBB46EE
:10536000B246A946A046F0BD994B9D4267D9FF239E
:10537000DB059D424CD2EC15863CE705EF1B381C43
:1053800001F0B6FC01F0D2FC011C0590381C01F0C4
:1053900019FB8721C90501F01DFA814601F0A8FC1F
:1053A00001F0C4FC011C0690071C484601F00AFBF2
:1053B0008721C90501F00EFA0021079005AD00F024
:1053C000C3FE002800D1CEE00021381C00F0BCFE56
:1053D0004342434101337F4A3100019202222800B7
:1053E0000092220000F028FA43460700002BB3DAAF
:1053F00080221206944633684742634433607368E0
:1054000063447360A8E70023002708604B60A3E7AC
:10541000011C01F0D7FA0027706030609CE76E49EC
:1054200001F0D0FA6D49041C01F0CCFA011C051CF6
:10543000201C01F0C7FA694901F0C4FA89E700F0BD
:10544000F7F96749814601F0C5F9FC21890500F0AB
:10545000C1FE01F04DFC070001F068FC594983468C
:1054600001F0B8F9011C484601F0ACFA57498246F0
:10547000584601F0AFF9011C0290504601F0A2FA23
:1054800081461F2F20DC574A791E8900564B8A58C7
:105490002340934218D04B4649463360504601F0B2
:1054A00091FA029901F08EFA43467060002B00DBFE
:1054B00052E780231B064B44336080231B069C4627
:1054C000604470607F4247E74B46FF24DB0DED15DB
:1054D0002340EB1A082BDEDD3F49584601F07AF9EC
:1054E0008146011C504601F06DFA011C03905046A4
:1054F00001F068FA494601F065FA81463749584695
:1055000001F068F9494601F05DFA039B0290011C25
:10551000181C9A4601F056FAC30D1C4081462D1BFB
:10552000192DB8DD3149584601F054F9039D041C8A
:10553000011C281C01F046FA011C8246281C01F0BF
:1055400041FA211C01F03EFA2949041C584601F099
:1055500041F9211C01F036FA011C0290504601F07D
:1055600031FA814697E7032335E700F033FE164B07
:10557000071C9D420FD0154900F02CFE011C041C95
:10558000381C01F01FFA114900F024FE0127346095
:1055900070607F42E0E6104900F01CFE0F49051CD8
:1055A00000F018FE011C041C281C01F00BFA0B492A
:1055B00000F010FEEAE7C046D80F493FE3CB1640A3
:1055C000F0FFFF7F800FC93FD00FC93F43443537FD
:1055D000800F4943807E00100044353708A3852E94
:1055E00084F9223F007E001000FFFF7F00A3852E7C
:1055F00032318D24F0B5A123C6464500060000B522
:10560000041C6D08DB059D420BD3FF23DB059D4287
:1056100000D978E0002800DCA6E0704880BCB846DD
:10562000F0BD6F4B9D4200D980E0C4239B059D4295
:105630006DD301235B429846211C201C01F0CAF85F
:10564000011C071C01F0C6F86649051C01F0C2F8F0
:10565000654900F0BFFD291C01F0BCF8634900F06A
:10566000B9FD291C01F0B6F8614900F0B3FD291C11
:1056700001F0B0F85F4900F0ADFD291C01F0AAF877
:105680005D4900F0A7FD391C01F0A4F85B49071C37
:10569000281C01F09FF85A4901F094F9291C01F0E7
:1056A00099F8584901F08EF9291C01F093F85649F0
:1056B00001F088F9291C01F08DF8544901F082F9B4
:1056C000291C01F087F8011C381C00F083FD211C07
:1056D00001F080F84346013348D043469F004C4BCD
:1056E0004C4DF95801F06EF9211C01F06BF9011CC9
:1056F000785901F067F9002E00DB8FE780231B0645
:105700009C4660448AE7011C00F064FD86E742493C
:1057100000F060FDFE21890500F030FD0300201C33
:10572000002B00D07AE7013B984685E700F080F82F
:105730003A4B041C9D421ED8394B9D423CD8011C5B
:1057400000F048FDFE21890501F03CF98021051C8F
:10575000C905201C00F03EFD011C281C00F0B6FE0F
:105760000023041C984667E72E4857E7011C201CBD
:1057700001F028F952E72C4B9D4215D8FF218905ED
:1057800001F020F9FF21051C8905201C01F022F8F9
:10579000FE21890500F01EFD011C281C00F096FE6C
:1057A0000223041C984647E7011C204800F08EFEA7
:1057B0000323041C98463FE7FE21890501F002F906
:1057C000FE21051C8905201C00F004FD011C281C7D
:1057D00000F07CFE0123041C98462DE7DB0FC93F37
:1057E000FFFFDF3ED769853C59DA4B3D356B883D7D
:1057F0006E2EBA3D2549123EABAAAA3E21A215BD86
:105800006BF16E3D95879D3D388EE33DCDCC4C3E92
:1058100098810010A8810010CAF24971FFFF973FDC
:10582000FFFF2F3FDB0FC9BFFFFF1B40000080BF02
:10583000400040087047C046F0B5DE4657464E4629
:105840004546E0B5DFB0039018000B9168990893C6
:10585000D94B14000D928A00D1580300013B8B46AE
:1058600022000293231D00DAC8E20723033AD1176E
:105870000B409B18DB1006930133DB000C930C9A52
:105880000D9B9B1A0493069A029BD41A5A46D6186B
:105890000ED40136699F22AD36190020002C03DB9F
:1058A000A300F85801F042FA013401C5B442F4D122
:1058B0005B464AAD002B1ADB029B22A9884699461B
:1058C0009F00089BB8445B440593039B00219C46C2
:1058D0002A0040464B4604376744029C002C00DBFC
:1058E000C4E1059C013302C20430A342F5D15B46FA
:1058F0000DAA9B00D2180A920EAA9446699A083BF8
:1059000063449446089A0993069B9600039A9B0069
:10591000634494465A46DA469B4666440592069589
:105920005346069A9B00D45801935346002B26DD1C
:10593000A24BB14653449B00D7180EAB90461E00B5
:10594000EE21201C890500F045FF01F0D1F901F09E
:10595000EDF98721C905051C00F03CFF011C201C46
:1059600001F030F801F0C4F9396801C6281C00F0D4
:1059700031FC3B00041C043F9845E1D14E46049F96
:10598000201C390000F028FBF8218905051C00F0D7
:1059900021FF00F083FB8221C90500F01BFF011CE1
:1059A000281C01F00FF8051C01F0A2F9814601F056
:1059B000BDF9011C281C01F005F88046002F78DD98
:1059C00053465A1E92000EAB985808210300C91B7B
:1059D0000B4199448B400EA9C31A8B500721180024
:1059E000C91B08410790002800DDCEE00021404699
:1059F00000F0AAFB00286FD0059B9A450FDD0EAA88
:105A0000944600226D4B0A9853449B0063441968E6
:105A1000043B0A438342FAD1002A00D049E1012322
:105A200053449846059B0EAA013B9B00D358002B7C
:105A300000D019E10122099B1968043B01320029B9
:105A4000FAD0524491460699089B8C4653449B00D9
:105A500022ADEA18019B63449A464346904601935F
:105A60005A46019B9B00D05801F060F943461860EC
:105A7000029B002B1BDB45460027039C296801CCB9
:105A800000F0A8FE011C381C00F0A4FB043D071C1C
:105A9000B442F3D10422534694465F60019BE04434
:105AA00001330193E2444B45DADDCA4638E700276B
:105AB000F0E7049B002B00D1BBE0FC21890500F03E
:105AC00067FB002800D09EE1002300214046079399
:105AD00000F03AFB00288FD14B460893059B0D9AA6
:105AE0009B460C9B4046991A069D00F075FA87214B
:105AF000C9055746041C00F04BFB002800D11BE2EF
:105B0000EE21201C890500F065FE01F0F1F801F09E
:105B10000DF98721C905061C00F05CFE011C201C44
:105B200000F050FF01F0E4F8019A0EAB9850049B8E
:105B30003C000833301C049301F0DAF80134A7006C
:105B40000EABD851FE200499800500F045FA002CD8
:105B500000DBD4E0689B022B00DD23E2002B00DD9C
:105B600028E2689B0020002B05D1079B002B00D06A
:105B7000F7E10B9B18600720089B18405FB0F0BC52
:105B8000BB46B246A946A046F0BD01218C4651460F
:105B9000E144002900DCF4E10EAB1800002152467C
:105BA0000E9D002D3ED0924680225200521B026074
:105BB0005446FF2007E0C046E4810010FFFFFF3F8E
:105BC0001A68821A1A60013104338C42F8DCA2464A
:105BD0000125049B002B0DDD012B00D104E1022BDC
:105BE00008D15346013B9B000EAAD1583F220A40E0
:105BF0000EA9CA50079B022B00D0F7E6FE204146B3
:105C0000800500F0DFFE8046002D00D1EEE6FE208C
:105C10000499800500F0E0F9011C404600F0D2FE36
:105C20008046E3E6013104338A4240DD18001D68F6
:105C3000B7E75346013B0EAA9B00D358DA110792EF
:105C40007F2B00DCD2E601239C465346E144002B27
:105C5000A2DC079B022B00D0C8E6FE20414680054F
:105C600000F0B0FE8046C1E6C146ECE6994690469B
:105C7000AA4601900025019E039C316801CC00F0EA
:105C8000A9FD011C281C00F0A5FA043E051CBC421D
:105C9000F3D1434601C39846019B0433019301238A
:105CA0009C46059BE1449945E4D155461FE6924642
:105CB0008FE74A4653460892059A5C1E19009346A0
:105CC000A300049A0EA8C358083A069D0492002B1C
:105CD0000DD10B00BE498C46634484469B0063444F
:105CE0001968043B013C083A0029F9D00492FE20CF
:105CF0000499800500F070F9002C00DA2AE7A3006F
:105D00000EAA1E009446EF183D00A0460393664479
:105D1000041C306801F00AF8211C00F05BFDEE2144
:105D200028608905201C00F055FD0EAA3300041CD4
:105D3000043E043D9A42ECD136AB994602930023CF
:105D4000444698465A464B4641460194002A00DA9A
:105D500091E099469F4BCB468846B9469A46170034
:105D6000049443460024B846002500261F000EE098
:105D70004B4619595346185900F02CFD011C281C9C
:105D800000F028FA0136051C0434B04501DBB742A7
:105D9000EEDA3B00474698465B4620C39B4601230C
:105DA0009C46053BE0449C46019BE144013B01D3FA
:105DB0000193D6E7049C689B022B65DC002B2CDC4E
:105DC00000D0D8E6029B00209C46039E66443168C2
:105DD00000F000FA029A3300043E9A42F7D1079B82
:105DE000002B00D1C5E6BCE05346013B9B000EAA48
:105DF000D1587F220A400EA9CA50FBE608230C9313
:105E0000002306933BE501239C4601330793534649
:105E1000E144002B00DDBFE61FE7029B00259C4606
:105E2000039E369F6644281C316800F0D3F9029A1D
:105E30003300043E9A42F7D1079B051C002B00D08B
:105E400082E0011C381C00F0BDFD0B9B1D60002C86
:105E50000ED0012537AE02CE013500F0BBF9AC42C1
:105E6000F9DA079B002B03D080231B069C46604475
:105E70000B9B58607FE6002001C301980131043F6D
:105E8000013898D3019061E7689B032B00D072E63C
:105E9000002C00D18CE0029B03991A008C466244CE
:105EA0009C460D1F654490462E00A946A2461768E1
:105EB0003368381C191C9B4600F08CF93C1C011CF3
:105EC000071C584600F07EFD211C00F083F9029B60
:105ED000350070603760043EAB42E9D154464D4610
:105EE000012C65D043461C682F68201C391C00F02B
:105EF00071F9261C011C041C381C00F063FD311CC8
:105F000000F068F9029B2E0068602C60043DAB42F3
:105F1000EAD1444600202168043C00F05BF9A64227
:105F2000F9D1029B0799369A5B6800291ED10B991B
:105F30000A604B6088601EE6201C00F0D9FE019AC2
:105F40000EAB3C009850D2E680230B9A1B06C31878
:105F5000011C1360381C00F035FD002C00D078E7E0
:105F600082E780231B069C46604402E680210906E6
:105F70008C460B996244634460440A604B608860BD
:105F8000F9E5049901290BD0022900D061E63F21EF
:105F90000B400EA98B50079B022B00D026E55CE638
:105FA0007F21F5E736AB0293689B032B00D0E2E537
:105FB0000020B6E7079B3698002B04D080230B9A6D
:105FC0001B06136050E700230B9A136050E7C0468E
:105FD000FEFFFF3FB8810010420070B5031C0C00AB
:105FE00006005508002A1AD0FF21C9058D4217D294
:105FF000014219D19821C90500F0ECFB204A031C8D
:1060000094422CDB42001F49120E0600193A8C42C2
:106010000EDD1D48002B1DDB1B4900F0DBFB70BDB6
:10602000011C00F0D7F8FAE71649120E8C42F0DC9A
:106030001119FE29EDDC002915DC0A00163217DBE8
:106040001931C805CC21114B89051E40304300F0A1
:10605000C1FBE4E70C490E4800F0BCFBDFE70D494B
:1060600000F0B8FBDBE70948C90530400843D6E734
:106070000848002B00DA0848064900F0ABFBCEE7E1
:10608000B03CFFFF50C30000CAF24971FFFF7F80A0
:10609000CAF249F16042A20D6042A28DF0B5C64637
:1060A00044006708240E7F3C060000B5051C162C32
:1060B0001CDC8046002C22DB1A4F2741074211D0FE
:1060C000194900F087F8002100F058F8002809D09D
:1060D000002D04DA80231B0423419846A84443463C
:1060E000BB431E00301C80BCB846F0BDFF23DB055F
:1060F0009F42F7D3011C00F06DF8061CF2E70A4935
:1061000000F068F8002100F039F80028EAD0002DEE
:1061100001DB0026E6E7002F02D180263606E1E704
:10612000024EDFE7FFFF7F00CAF24971000080BF27
:10613000844608006146FFE71FB500F00CFB00280D
:1061400001D40021C8421FBD10B500F0A1FA4042A1
:10615000013010BD10B500F0FEFA002801DB002070
:1061600010BD012010BDC04610B500F0F4FA0028A3
:1061700001DD002010BD012010BDC04610B500F0AB
:10618000ACFA002801DC002010BD012010BDC04683
:1061900010B500F0A2FA002801DA002010BD01209D
:1061A00010BDC0469E2110B5C905041CFFF7F0FFC5
:1061B00000280AD09E21201CC90500F003FC00F035
:1061C00097FD80231B06C01810BD201C00F090FD19
:1061D000FAE70000F0B543025A0A85B044004F00C8
:1061E00003924A02240EC50F3F0E500A01909B09EC
:1061F000C90F9209E01B8D4200D096E0002836DDE1
:10620000002F13D1002A07D0461E012802D10124F5
:106210009B181EE0FF2810D1DB08FF2861D1002B5E
:106220005FD08022D203FF2013435AE0FF2C00D11D
:106230003FE180210600C9040A4301211B2E07DC2F
:106240002020801B11008240F140501E82411143EA
:106250005B185A0100D413E1601CFE2C00D1D8E079
:10626000012297491A405B080B4013435BE000286A
:1062700020D0381B002C08D1002B04D0441E01284C
:10628000C5D0FF2808D11300C6E7FF2F00D109E1D0
:1062900080210400C9040B4301211B2C07DC2020B2
:1062A000001B19008340E140581E834119433C0004
:1062B0008B18CEE7FE21601C084230D1002C1BD188
:1062C000002B00D1ECE0002A00D1E0E09A188021F8
:1062D0001000C9040840D3080A4202D00120794ABC
:1062E0001340FF22C005D2055B0210405B0A184331
:1062F000ED07284305B0F0BD002B00D1D4E0002A03
:1063000000D1D2E080210398C903884203D30198C9
:10631000884200D21300DB080193029580E0FF2839
:1063200077D09B185B080400AAE0002827DD002F27
:106330001DD1002A00D16FE7461E012802D19B1A09
:1063400001240EE0FF2800D166E701211B2E07DCA7
:106350002020801B11008240F140501E82411143D9
:106360005B1A5A0100D48BE09B019E096FE0FF2C61
:1063700000D19EE08021C90406000A43E5E7002819
:1063800024D0381B002C0BD1002B07D0441E012831
:1063900002D10D00D31AD3E7FF2808D10D0072E710
:1063A000FF2F00D183E08024E40423430400012074
:1063B0001B2C07DC18002025E0402C1BA3405C1E92
:1063C000A34118433C000D00131ACAE7671CFE26C0
:1063D000BC46374002976746374233D1002C1AD16A
:1063E000002B06D11D00002A00D17AE70D00019B89
:1063F00077E7002A4BD09C1A660106D50D00D31A08
:106400000020834200D16CE78DE7231E00D003E714
:106410000500002365E7002B05D1002A4BD002912F
:10642000019B029DFDE6002A3FD08020039CC00313
:10643000844200D26FE7019C844200D36BE71300D3
:106440000D0068E79E1A770114D50D00D61A3000AA
:1064500001F040FA33000538834084420DDC2022ED
:10646000001B0130121A19009340C1405A1E93417B
:106470000B43C5E7002ECBD0E9E7134A241A13409B
:106480005A0704D00F221A40042A00D004335A01BC
:106490000FD5601CFE2CBCD00A4ADB08134020E755
:1064A0001300ADE73800EEE61300FF20B4E6380035
:1064B00074E72000B0E68023DB030193B0E7C04619
:1064C000FFFFFF7DFFFF7F1FFFFFFFFBF0B5C30F47
:1064D00085B0440245000391640A2D0E01932ED02D
:1064E000FF2D39D08023E400DB047F3D1C4302955F
:1064F0000027039B5D025E00DB0F6D0A360E0393DF
:1065000030D0FF2E3BD08023ED00DB041D43330051
:106510007F3B00210398019A42400298D2B2C31AED
:10652000B800084301380E2842D801F0C9F96CA818
:106530007EA89DA87E6C6C9D7E2E2E2E720001275B
:106540000294002CD5D0200001F0C4F9773F431FFE
:106550009C403B1A0293CBE703270295002CC8D13D
:10656000013FC6E72B000121002DD3D0280001F008
:10657000B1F9431F9D4076235B421B1AC9E73300E4
:106580000321002DC6D10139C4E73900019A02293F
:1065900039D0032900D170E00025280001291ED13F
:1065A0006D026D0AC0052843D207104305B0F0BD47
:1065B00064016D01AC4228D31A200121641B01261D
:1065C000270049006400002F01DBA54201D8641BAD
:1065D000314301380028F3D1601E84410C43180078
:1065E0007F30002824DD610704D00F2121400429D9
:1065F00000D00434210103D58033180023490C4016
:10660000E508FE28CCDD00250DE01B200021013B24
:10661000D5E78023DB031C4201D01D4229D0802511
:10662000019AED032543FF20BAE72C00039AAEE759
:1066300001210025091A28001B29B1DC9E33250001
:106640009C40CD40631E9C4125436B0704D00F2323
:106650002B40042B00D0043580232800DB04184095
:106660001D420FD1ED089BE7002380240193E40332
:10667000D5E7039B2C000193D1E70192CFE70025DA
:1066800028008DE7002501208AE7C046FFFFFFF7BD
:1066900070B54B00440245004E02C20F640A01204F
:1066A0002D0E760A1B0EC90FFF2D06D1002C13D11B
:1066B000FF2B11D1002E06D00EE0FF2B0CD09D42F7
:1066C0000AD1B44208D100208A4205D00130002D01
:1066D00002D12000431E984170BD30B542024500F2
:1066E0004C02C30F4800520A2D0E640A000EC90F57
:1066F000FF2D01D1002A19D1FF2801D1002C15D17D
:10670000002D20D1002813D1002A1ED1002C21D029
:10671000012000291ED102381CE08542F8DBA2428C
:106720000CD80020A24215D20130F2E7022008E086
:10673000002AEDD099420AD18542EEDD01200029E0
:1067400008D0404206E00028F4D1002CF2D101200C
:10675000002BF6D130BD30B5420245004C02C30FCC
:106760004800520A2D0E640A000EC90FFF2D01D1F8
:10677000002A19D1FF2801D1002C15D1002D20D1DC
:10678000002813D1002A1ED1002C21D0012000297D
:106790001ED102381CE08542F8DBA2420CD8002052
:1067A000A24215D20130F2E7022011E0002AEDD01A
:1067B00099420AD18542EEDD0120002908D04042ED
:1067C00006E00028F4D1002CF2D10120002BF6D1F4
:1067D00030BD0000F0B5C30F85B0470244000391FF
:1067E0007F0A240E02930AD0FF2C71D080227F3CB6
:1067F00026000023FF00D204174301930CE001237D
:106800003E1E019308D0380001F064F87626431F3D
:106810009F407642361A0194039B5C025D00DB0FB9
:10682000640A2D0E03935AD0FF2D64D080232800D4
:10683000E400DB041C437F3800230199861988009B
:10684000721C18430A2800DD7EE00299039D69400E
:106850000291022855DC0138012864D9B9B20D0033
:106860003B0C200CA4B2654341435C4343430919EC
:106870001F002B0C5B189C4202D9802149027F1813
:106880001904ADB24D19AC01611E8C411B0CAD0E4B
:10689000DB192C439B011C431B0167D501236108B5
:1068A0001C400C4310007F30002861DD630704D0DA
:1068B0000F232340042B00D00434230103D580325E
:1068C00010003F4B1C40E108FE2834DD00214BE066
:1068D000032326000193002F9ED1013B8DE720006A
:1068E0000123002CA9D000F0F5FF431F9C40762324
:1068F0005B42181AA0E728000323002C9DD1013B1E
:106900009BE701218140A6200D00C0000540014207
:106910001ED190208000014246D1B938FF38014293
:106920009CD003990291022BD0D0032B42D000219E
:106930000800012BB6D1029B4902490AC005084351
:10694000DB07184305B0F0BD0F2804D00B28E8D0B2
:106950003C00019BE7E78023DB031F4201D01C4280
:1069600026D08021C9033943FF20E4E7320099E7AC
:10697000012300211B1A08001B2BDCDC9E322100A6
:106980009440D940631E9C4121434B0704D00F2300
:106990000B40042B00D0043180230800DB04184096
:1069A000194209D1C908C6E780270295FF03D8E735
:1069B000039B02932700D4E700210120BBE7C046D8
:1069C000FFFFFFF7F0B543025A0A85B04F024400BB
:1069D00002924E007A0A9446C50F0092240E9B093B
:1069E000360EC80FD200FF2E02D10100002A01D1BD
:1069F00001214140A01BA94200D093E0002836DDD0
:106A0000002E13D1002A07D0461E012802D10124EE
:106A10009B181EE0FF2810D1DB08FF285ED1002B59
:106A20005CD08022D203FF20134357E0FF2C00D11B
:106A30003DE180210600C9040A4301211B2E07DC29
:106A40002020801B11008240F140501E82411143E2
:106A50005B185A0100D411E1601CFE2C00D1D5E076
:106A6000012296491A405B080B40134358E0002866
:106A700020D0301B002C08D1002B04D0441E01284C
:106A8000C5D0FF2808D11300C6E7FF2E00D107E1CB
:106A900080210400C9040B4301211B2C07DC2020AA
:106AA000001B19008340E140581E83411943340004
:106AB0008B18CEE7FE21601C08422DD1002C18D186
:106AC000002B00D1EAE0002A00D1DEE09A18200075
:106AD000D308520102D50120794A1340FF22C00594
